{
	"contracts/RebellionDataFunder.sol": {
		"RebellionDataFunder": {
			"abi": [
				{
					"inputs": [],
					"stateMutability": "nonpayable",
					"type": "constructor"
				},
				{
					"anonymous": false,
					"inputs": [
						{
							"indexed": true,
							"internalType": "address",
							"name": "admin",
							"type": "address"
						},
						{
							"indexed": false,
							"internalType": "uint256",
							"name": "rewardAmount",
							"type": "uint256"
						},
						{
							"indexed": false,
							"internalType": "uint256",
							"name": "taskId",
							"type": "uint256"
						},
						{
							"indexed": false,
							"internalType": "uint256",
							"name": "datasetId",
							"type": "uint256"
						},
						{
							"indexed": false,
							"internalType": "bool",
							"name": "challengeStatus",
							"type": "bool"
						}
					],
					"name": "ChallengeHandled",
					"type": "event"
				},
				{
					"anonymous": false,
					"inputs": [
						{
							"indexed": true,
							"internalType": "address",
							"name": "challenger",
							"type": "address"
						},
						{
							"indexed": false,
							"internalType": "uint256",
							"name": "taskId",
							"type": "uint256"
						},
						{
							"indexed": false,
							"internalType": "uint256",
							"name": "datasetId",
							"type": "uint256"
						}
					],
					"name": "ChallengeRaised",
					"type": "event"
				},
				{
					"anonymous": false,
					"inputs": [
						{
							"indexed": true,
							"internalType": "address",
							"name": "uploader",
							"type": "address"
						},
						{
							"indexed": false,
							"internalType": "uint256",
							"name": "taskId",
							"type": "uint256"
						},
						{
							"indexed": false,
							"internalType": "uint256",
							"name": "datasetId",
							"type": "uint256"
						}
					],
					"name": "DatasetUploaded",
					"type": "event"
				},
				{
					"anonymous": false,
					"inputs": [
						{
							"indexed": true,
							"internalType": "address",
							"name": "validator",
							"type": "address"
						},
						{
							"indexed": false,
							"internalType": "uint256",
							"name": "taskId",
							"type": "uint256"
						},
						{
							"indexed": false,
							"internalType": "uint256",
							"name": "datasetId",
							"type": "uint256"
						}
					],
					"name": "DatasetVerified",
					"type": "event"
				},
				{
					"anonymous": false,
					"inputs": [
						{
							"indexed": true,
							"internalType": "address",
							"name": "publisher",
							"type": "address"
						},
						{
							"indexed": false,
							"internalType": "string",
							"name": "taskName",
							"type": "string"
						},
						{
							"indexed": false,
							"internalType": "uint256",
							"name": "rewardAmount",
							"type": "uint256"
						},
						{
							"indexed": false,
							"internalType": "uint256",
							"name": "taskId",
							"type": "uint256"
						}
					],
					"name": "TaskPublished",
					"type": "event"
				},
				{
					"inputs": [],
					"name": "getRDFCoinInterAddress",
					"outputs": [
						{
							"internalType": "address",
							"name": "",
							"type": "address"
						}
					],
					"stateMutability": "view",
					"type": "function"
				},
				{
					"inputs": [
						{
							"internalType": "uint256",
							"name": "taskId",
							"type": "uint256"
						}
					],
					"name": "getTask",
					"outputs": [
						{
							"internalType": "uint256",
							"name": "",
							"type": "uint256"
						},
						{
							"internalType": "string",
							"name": "",
							"type": "string"
						},
						{
							"internalType": "address",
							"name": "",
							"type": "address"
						},
						{
							"internalType": "uint256",
							"name": "",
							"type": "uint256"
						},
						{
							"components": [
								{
									"internalType": "uint256",
									"name": "datasetId",
									"type": "uint256"
								},
								{
									"internalType": "address",
									"name": "uploader",
									"type": "address"
								},
								{
									"internalType": "bool",
									"name": "isValidated",
									"type": "bool"
								},
								{
									"internalType": "address",
									"name": "validator",
									"type": "address"
								}
							],
							"internalType": "struct RebellionDataFunder.Dataset[]",
							"name": "",
							"type": "tuple[]"
						}
					],
					"stateMutability": "view",
					"type": "function"
				},
				{
					"inputs": [
						{
							"internalType": "uint256",
							"name": "amount",
							"type": "uint256"
						},
						{
							"internalType": "uint256",
							"name": "taskId",
							"type": "uint256"
						},
						{
							"internalType": "uint256",
							"name": "datasetId",
							"type": "uint256"
						},
						{
							"internalType": "bool",
							"name": "challengeStatus",
							"type": "bool"
						}
					],
					"name": "handleChallenge",
					"outputs": [
						{
							"internalType": "bool",
							"name": "",
							"type": "bool"
						}
					],
					"stateMutability": "nonpayable",
					"type": "function"
				},
				{
					"inputs": [
						{
							"internalType": "string",
							"name": "name",
							"type": "string"
						},
						{
							"internalType": "uint256",
							"name": "reward",
							"type": "uint256"
						}
					],
					"name": "publishTask",
					"outputs": [
						{
							"internalType": "uint256",
							"name": "",
							"type": "uint256"
						}
					],
					"stateMutability": "nonpayable",
					"type": "function"
				},
				{
					"inputs": [
						{
							"internalType": "uint256",
							"name": "taskId",
							"type": "uint256"
						},
						{
							"internalType": "uint256",
							"name": "datasetId",
							"type": "uint256"
						}
					],
					"name": "raiseChallenge",
					"outputs": [
						{
							"internalType": "bool",
							"name": "",
							"type": "bool"
						}
					],
					"stateMutability": "nonpayable",
					"type": "function"
				},
				{
					"inputs": [],
					"name": "rdfCoinInter",
					"outputs": [
						{
							"internalType": "contract RDFCoinInter",
							"name": "",
							"type": "address"
						}
					],
					"stateMutability": "view",
					"type": "function"
				},
				{
					"inputs": [
						{
							"internalType": "address",
							"name": "recipient",
							"type": "address"
						},
						{
							"internalType": "uint256",
							"name": "amount",
							"type": "uint256"
						}
					],
					"name": "transferToken",
					"outputs": [],
					"stateMutability": "nonpayable",
					"type": "function"
				},
				{
					"inputs": [
						{
							"internalType": "uint256",
							"name": "taskId",
							"type": "uint256"
						}
					],
					"name": "uploadDataset",
					"outputs": [
						{
							"internalType": "uint256",
							"name": "",
							"type": "uint256"
						}
					],
					"stateMutability": "nonpayable",
					"type": "function"
				},
				{
					"inputs": [
						{
							"internalType": "uint256",
							"name": "taskId",
							"type": "uint256"
						},
						{
							"internalType": "uint256",
							"name": "datasetId",
							"type": "uint256"
						}
					],
					"name": "verifyDataset",
					"outputs": [
						{
							"internalType": "bool",
							"name": "",
							"type": "bool"
						}
					],
					"stateMutability": "payable",
					"type": "function"
				}
			],
			"devdoc": {
				"kind": "dev",
				"methods": {},
				"version": 1
			},
			"evm": {
				"assembly": "    /* \"contracts/RebellionDataFunder.sol\":88:4630  contract RebellionDataFunder {... */\n  mstore(0x40, 0x80)\n    /* \"contracts/RebellionDataFunder.sol\":1131:1195  constructor() {... */\n  callvalue\n  dup1\n  iszero\n  tag_1\n  jumpi\n  0x00\n  dup1\n  revert\ntag_1:\n  pop\n    /* \"contracts/RebellionDataFunder.sol\":1170:1188  new RDFCoinInter() */\n  mload(0x40)\n  tag_4\n  swap1\n  tag_5\n  jump\t// in\ntag_4:\n  mload(0x40)\n  dup1\n  swap2\n  sub\n  swap1\n  0x00\n  create\n  dup1\n  iszero\n  dup1\n  iszero\n  tag_6\n  jumpi\n  returndatasize\n  0x00\n  dup1\n  returndatacopy\n  revert(0x00, returndatasize)\ntag_6:\n  pop\n    /* \"contracts/RebellionDataFunder.sol\":1155:1167  rdfCoinInter */\n  0x00\n  dup1\n    /* \"contracts/RebellionDataFunder.sol\":1155:1188  rdfCoinInter = new RDFCoinInter() */\n  0x0100\n  exp\n  dup2\n  sload\n  dup2\n  0xffffffffffffffffffffffffffffffffffffffff\n  mul\n  not\n  and\n  swap1\n  dup4\n  0xffffffffffffffffffffffffffffffffffffffff\n  and\n  mul\n  or\n  swap1\n  sstore\n  pop\n    /* \"contracts/RebellionDataFunder.sol\":88:4630  contract RebellionDataFunder {... */\n  jump(tag_7)\ntag_5:\n  dataSize(sub_1)\n  dup1\n  dataOffset(sub_1)\n  dup4\n  codecopy\n  add\n  swap1\n  jump\t// out\ntag_7:\n  dataSize(sub_0)\n  dup1\n  dataOffset(sub_0)\n  0x00\n  codecopy\n  0x00\n  return\nstop\n\nsub_0: assembly {\n        /* \"contracts/RebellionDataFunder.sol\":88:4630  contract RebellionDataFunder {... */\n      mstore(0x40, 0x80)\n      jumpi(tag_1, lt(calldatasize, 0x04))\n      shr(0xe0, calldataload(0x00))\n      dup1\n      0x1d65e77e\n      gt\n      tag_11\n      jumpi\n      dup1\n      0x1d65e77e\n      eq\n      tag_6\n      jumpi\n      dup1\n      0x1ff4a418\n      eq\n      tag_7\n      jumpi\n      dup1\n      0x6e17e240\n      eq\n      tag_8\n      jumpi\n      dup1\n      0x805be20e\n      eq\n      tag_9\n      jumpi\n      dup1\n      0xc305fd00\n      eq\n      tag_10\n      jumpi\n      jump(tag_1)\n    tag_11:\n      dup1\n      0x0306f8fd\n      eq\n      tag_2\n      jumpi\n      dup1\n      0x08d03e91\n      eq\n      tag_3\n      jumpi\n      dup1\n      0x1072cbea\n      eq\n      tag_4\n      jumpi\n      dup1\n      0x134fe3dc\n      eq\n      tag_5\n      jumpi\n    tag_1:\n      0x00\n      dup1\n      revert\n        /* \"contracts/RebellionDataFunder.sol\":1496:2073  function publishTask(string memory name, uint256 reward) public returns (uint256) {... */\n    tag_2:\n      callvalue\n      dup1\n      iszero\n      tag_12\n      jumpi\n      0x00\n      dup1\n      revert\n    tag_12:\n      pop\n      tag_13\n      0x04\n      dup1\n      calldatasize\n      sub\n      dup2\n      add\n      swap1\n      tag_14\n      swap2\n      swap1\n      tag_15\n      jump\t// in\n    tag_14:\n      tag_16\n      jump\t// in\n    tag_13:\n      mload(0x40)\n      tag_17\n      swap2\n      swap1\n      tag_18\n      jump\t// in\n    tag_17:\n      mload(0x40)\n      dup1\n      swap2\n      sub\n      swap1\n      return\n        /* \"contracts/RebellionDataFunder.sol\":4519:4628  function getRDFCoinInterAddress() public view returns (address) {... */\n    tag_3:\n      callvalue\n      dup1\n      iszero\n      tag_19\n      jumpi\n      0x00\n      dup1\n      revert\n    tag_19:\n      pop\n      tag_20\n      tag_21\n      jump\t// in\n    tag_20:\n      mload(0x40)\n      tag_22\n      swap2\n      swap1\n      tag_23\n      jump\t// in\n    tag_22:\n      mload(0x40)\n      dup1\n      swap2\n      sub\n      swap1\n      return\n        /* \"contracts/RebellionDataFunder.sol\":4121:4453  function transferToken(address recipient, uint256 amount) public {... */\n    tag_4:\n      callvalue\n      dup1\n      iszero\n      tag_24\n      jumpi\n      0x00\n      dup1\n      revert\n    tag_24:\n      pop\n      tag_25\n      0x04\n      dup1\n      calldatasize\n      sub\n      dup2\n      add\n      swap1\n      tag_26\n      swap2\n      swap1\n      tag_27\n      jump\t// in\n    tag_26:\n      tag_28\n      jump\t// in\n    tag_25:\n      stop\n        /* \"contracts/RebellionDataFunder.sol\":3757:4115  function verifyDataset(uint256 taskId, uint256 datasetId) public payable returns (bool) {... */\n    tag_5:\n      tag_29\n      0x04\n      dup1\n      calldatasize\n      sub\n      dup2\n      add\n      swap1\n      tag_30\n      swap2\n      swap1\n      tag_31\n      jump\t// in\n    tag_30:\n      tag_32\n      jump\t// in\n    tag_29:\n      mload(0x40)\n      tag_33\n      swap2\n      swap1\n      tag_34\n      jump\t// in\n    tag_33:\n      mload(0x40)\n      dup1\n      swap2\n      sub\n      swap1\n      return\n        /* \"contracts/RebellionDataFunder.sol\":1201:1454  function getTask(uint256 taskId) public view returns (uint256, string memory, address, uint256, Dataset[] memory) {... */\n    tag_6:\n      callvalue\n      dup1\n      iszero\n      tag_35\n      jumpi\n      0x00\n      dup1\n      revert\n    tag_35:\n      pop\n      tag_36\n      0x04\n      dup1\n      calldatasize\n      sub\n      dup2\n      add\n      swap1\n      tag_37\n      swap2\n      swap1\n      tag_38\n      jump\t// in\n    tag_37:\n      tag_39\n      jump\t// in\n    tag_36:\n      mload(0x40)\n      tag_40\n      swap6\n      swap5\n      swap4\n      swap3\n      swap2\n      swap1\n      tag_41\n      jump\t// in\n    tag_40:\n      mload(0x40)\n      dup1\n      swap2\n      sub\n      swap1\n      return\n        /* \"contracts/RebellionDataFunder.sol\":143:175  RDFCoinInter public rdfCoinInter */\n    tag_7:\n      callvalue\n      dup1\n      iszero\n      tag_42\n      jumpi\n      0x00\n      dup1\n      revert\n    tag_42:\n      pop\n      tag_43\n      tag_44\n      jump\t// in\n    tag_43:\n      mload(0x40)\n      tag_45\n      swap2\n      swap1\n      tag_46\n      jump\t// in\n    tag_45:\n      mload(0x40)\n      dup1\n      swap2\n      sub\n      swap1\n      return\n        /* \"contracts/RebellionDataFunder.sol\":3156:3718  function uploadDataset(uint256 taskId) public returns (uint256) {... */\n    tag_8:\n      callvalue\n      dup1\n      iszero\n      tag_47\n      jumpi\n      0x00\n      dup1\n      revert\n    tag_47:\n      pop\n      tag_48\n      0x04\n      dup1\n      calldatasize\n      sub\n      dup2\n      add\n      swap1\n      tag_49\n      swap2\n      swap1\n      tag_38\n      jump\t// in\n    tag_49:\n      tag_50\n      jump\t// in\n    tag_48:\n      mload(0x40)\n      tag_51\n      swap2\n      swap1\n      tag_18\n      jump\t// in\n    tag_51:\n      mload(0x40)\n      dup1\n      swap2\n      sub\n      swap1\n      return\n        /* \"contracts/RebellionDataFunder.sol\":2116:2288  function raiseChallenge( uint256 taskId, uint256 datasetId) public returns (bool) {... */\n    tag_9:\n      callvalue\n      dup1\n      iszero\n      tag_52\n      jumpi\n      0x00\n      dup1\n      revert\n    tag_52:\n      pop\n      tag_53\n      0x04\n      dup1\n      calldatasize\n      sub\n      dup2\n      add\n      swap1\n      tag_54\n      swap2\n      swap1\n      tag_31\n      jump\t// in\n    tag_54:\n      tag_55\n      jump\t// in\n    tag_53:\n      mload(0x40)\n      tag_56\n      swap2\n      swap1\n      tag_34\n      jump\t// in\n    tag_56:\n      mload(0x40)\n      dup1\n      swap2\n      sub\n      swap1\n      return\n        /* \"contracts/RebellionDataFunder.sol\":2324:3110  function handleChallenge(uint256 amount, uint256 taskId, uint256 datasetId, bool challengeStatus) public returns (bool) {... */\n    tag_10:\n      callvalue\n      dup1\n      iszero\n      tag_57\n      jumpi\n      0x00\n      dup1\n      revert\n    tag_57:\n      pop\n      tag_58\n      0x04\n      dup1\n      calldatasize\n      sub\n      dup2\n      add\n      swap1\n      tag_59\n      swap2\n      swap1\n      tag_60\n      jump\t// in\n    tag_59:\n      tag_61\n      jump\t// in\n    tag_58:\n      mload(0x40)\n      tag_62\n      swap2\n      swap1\n      tag_34\n      jump\t// in\n    tag_62:\n      mload(0x40)\n      dup1\n      swap2\n      sub\n      swap1\n      return\n        /* \"contracts/RebellionDataFunder.sol\":1496:2073  function publishTask(string memory name, uint256 reward) public returns (uint256) {... */\n    tag_16:\n        /* \"contracts/RebellionDataFunder.sol\":1569:1576  uint256 */\n      0x00\n        /* \"contracts/RebellionDataFunder.sol\":1588:1602  uint256 taskId */\n      dup1\n        /* \"contracts/RebellionDataFunder.sol\":1632:1633  0 */\n      0x00\n        /* \"contracts/RebellionDataFunder.sol\":1616:1621  tasks */\n      0x01\n        /* \"contracts/RebellionDataFunder.sol\":1616:1628  tasks.length */\n      dup1\n      sload\n      swap1\n      pop\n        /* \"contracts/RebellionDataFunder.sol\":1616:1633  tasks.length == 0 */\n      sub\n        /* \"contracts/RebellionDataFunder.sol\":1612:1722  if (tasks.length == 0) {... */\n      tag_64\n      jumpi\n        /* \"contracts/RebellionDataFunder.sol\":1658:1659  0 */\n      0x00\n        /* \"contracts/RebellionDataFunder.sol\":1649:1659  taskId = 0 */\n      swap1\n      pop\n        /* \"contracts/RebellionDataFunder.sol\":1612:1722  if (tasks.length == 0) {... */\n      jump(tag_65)\n    tag_64:\n        /* \"contracts/RebellionDataFunder.sol\":1699:1704  tasks */\n      0x01\n        /* \"contracts/RebellionDataFunder.sol\":1699:1711  tasks.length */\n      dup1\n      sload\n      swap1\n      pop\n        /* \"contracts/RebellionDataFunder.sol\":1690:1711  taskId = tasks.length */\n      swap1\n      pop\n        /* \"contracts/RebellionDataFunder.sol\":1612:1722  if (tasks.length == 0) {... */\n    tag_65:\n        /* \"contracts/RebellionDataFunder.sol\":1780:1800  Task storage newTask */\n      0x00\n        /* \"contracts/RebellionDataFunder.sol\":1803:1808  tasks */\n      0x01\n        /* \"contracts/RebellionDataFunder.sol\":1803:1815  tasks.push() */\n      dup1\n      dup2\n      0x01\n      dup2\n      sload\n      add\n      dup1\n      dup3\n      sstore\n      dup1\n      swap2\n      pop\n      pop\n      sub\n      swap1\n      0x00\n      mstore\n      keccak256(0x00, 0x20)\n      swap1\n      0x05\n      mul\n      add\n        /* \"contracts/RebellionDataFunder.sol\":1780:1815  Task storage newTask = tasks.push() */\n      swap1\n      pop\n        /* \"contracts/RebellionDataFunder.sol\":1843:1849  taskId */\n      dup2\n        /* \"contracts/RebellionDataFunder.sol\":1826:1833  newTask */\n      dup2\n        /* \"contracts/RebellionDataFunder.sol\":1826:1840  newTask.taskId */\n      0x00\n      add\n        /* \"contracts/RebellionDataFunder.sol\":1826:1849  newTask.taskId = taskId */\n      dup2\n      swap1\n      sstore\n      pop\n        /* \"contracts/RebellionDataFunder.sol\":1878:1882  name */\n      dup5\n        /* \"contracts/RebellionDataFunder.sol\":1859:1866  newTask */\n      dup2\n        /* \"contracts/RebellionDataFunder.sol\":1859:1875  newTask.taskName */\n      0x01\n      add\n        /* \"contracts/RebellionDataFunder.sol\":1859:1882  newTask.taskName = name */\n      swap1\n      dup2\n      tag_67\n      swap2\n      swap1\n      tag_68\n      jump\t// in\n    tag_67:\n      pop\n        /* \"contracts/RebellionDataFunder.sol\":1912:1922  msg.sender */\n      caller\n        /* \"contracts/RebellionDataFunder.sol\":1892:1899  newTask */\n      dup2\n        /* \"contracts/RebellionDataFunder.sol\":1892:1909  newTask.publisher */\n      0x02\n      add\n      0x00\n        /* \"contracts/RebellionDataFunder.sol\":1892:1922  newTask.publisher = msg.sender */\n      0x0100\n      exp\n      dup2\n      sload\n      dup2\n      0xffffffffffffffffffffffffffffffffffffffff\n      mul\n      not\n      and\n      swap1\n      dup4\n      0xffffffffffffffffffffffffffffffffffffffff\n      and\n      mul\n      or\n      swap1\n      sstore\n      pop\n        /* \"contracts/RebellionDataFunder.sol\":1949:1955  reward */\n      dup4\n        /* \"contracts/RebellionDataFunder.sol\":1932:1939  newTask */\n      dup2\n        /* \"contracts/RebellionDataFunder.sol\":1932:1946  newTask.reward */\n      0x03\n      add\n        /* \"contracts/RebellionDataFunder.sol\":1932:1955  newTask.reward = reward */\n      dup2\n      swap1\n      sstore\n      pop\n        /* \"contracts/RebellionDataFunder.sol\":2009:2019  msg.sender */\n      caller\n        /* \"contracts/RebellionDataFunder.sol\":1995:2042  TaskPublished(msg.sender, name, reward, taskId) */\n      0xffffffffffffffffffffffffffffffffffffffff\n      and\n      0xb2483da40ecec215bb3d46313445363f57ed522f167c4ed911e5c0d824e5b54c\n        /* \"contracts/RebellionDataFunder.sol\":2021:2025  name */\n      dup7\n        /* \"contracts/RebellionDataFunder.sol\":2027:2033  reward */\n      dup7\n        /* \"contracts/RebellionDataFunder.sol\":2035:2041  taskId */\n      dup6\n        /* \"contracts/RebellionDataFunder.sol\":1995:2042  TaskPublished(msg.sender, name, reward, taskId) */\n      mload(0x40)\n      tag_69\n      swap4\n      swap3\n      swap2\n      swap1\n      tag_70\n      jump\t// in\n    tag_69:\n      mload(0x40)\n      dup1\n      swap2\n      sub\n      swap1\n      log2\n        /* \"contracts/RebellionDataFunder.sol\":2060:2066  taskId */\n      dup2\n        /* \"contracts/RebellionDataFunder.sol\":2053:2066  return taskId */\n      swap3\n      pop\n      pop\n      pop\n        /* \"contracts/RebellionDataFunder.sol\":1496:2073  function publishTask(string memory name, uint256 reward) public returns (uint256) {... */\n      swap3\n      swap2\n      pop\n      pop\n      jump\t// out\n        /* \"contracts/RebellionDataFunder.sol\":4519:4628  function getRDFCoinInterAddress() public view returns (address) {... */\n    tag_21:\n        /* \"contracts/RebellionDataFunder.sol\":4574:4581  address */\n      0x00\n        /* \"contracts/RebellionDataFunder.sol\":4608:4620  rdfCoinInter */\n      dup1\n      0x00\n      swap1\n      sload\n      swap1\n      0x0100\n      exp\n      swap1\n      div\n      0xffffffffffffffffffffffffffffffffffffffff\n      and\n        /* \"contracts/RebellionDataFunder.sol\":4593:4621  return address(rdfCoinInter) */\n      swap1\n      pop\n        /* \"contracts/RebellionDataFunder.sol\":4519:4628  function getRDFCoinInterAddress() public view returns (address) {... */\n      swap1\n      jump\t// out\n        /* \"contracts/RebellionDataFunder.sol\":4121:4453  function transferToken(address recipient, uint256 amount) public {... */\n    tag_28:\n        /* \"contracts/RebellionDataFunder.sol\":4234:4252  RDFCoinInter token */\n      0x00\n        /* \"contracts/RebellionDataFunder.sol\":4268:4280  rdfCoinInter */\n      dup1\n      0x00\n      swap1\n      sload\n      swap1\n      0x0100\n      exp\n      swap1\n      div\n      0xffffffffffffffffffffffffffffffffffffffff\n      and\n        /* \"contracts/RebellionDataFunder.sol\":4234:4281  RDFCoinInter token = RDFCoinInter(rdfCoinInter) */\n      swap1\n      pop\n        /* \"contracts/RebellionDataFunder.sol\":4338:4350  bool success */\n      0x00\n        /* \"contracts/RebellionDataFunder.sol\":4353:4358  token */\n      dup2\n        /* \"contracts/RebellionDataFunder.sol\":4353:4367  token.transfer */\n      0xffffffffffffffffffffffffffffffffffffffff\n      and\n      0xa9059cbb\n        /* \"contracts/RebellionDataFunder.sol\":4368:4377  recipient */\n      dup6\n        /* \"contracts/RebellionDataFunder.sol\":4379:4385  amount */\n      dup6\n        /* \"contracts/RebellionDataFunder.sol\":4353:4386  token.transfer(recipient, amount) */\n      mload(0x40)\n      dup4\n      0xffffffff\n      and\n      0xe0\n      shl\n      dup2\n      mstore\n      0x04\n      add\n      tag_73\n      swap3\n      swap2\n      swap1\n      tag_74\n      jump\t// in\n    tag_73:\n      0x20\n      mload(0x40)\n      dup1\n      dup4\n      sub\n      dup2\n      0x00\n      dup8\n      gas\n      call\n      iszero\n      dup1\n      iszero\n      tag_76\n      jumpi\n      returndatasize\n      0x00\n      dup1\n      returndatacopy\n      revert(0x00, returndatasize)\n    tag_76:\n      pop\n      pop\n      pop\n      pop\n      mload(0x40)\n      returndatasize\n      not(0x1f)\n      0x1f\n      dup3\n      add\n      and\n      dup3\n      add\n      dup1\n      0x40\n      mstore\n      pop\n      dup2\n      add\n      swap1\n      tag_77\n      swap2\n      swap1\n      tag_78\n      jump\t// in\n    tag_77:\n        /* \"contracts/RebellionDataFunder.sol\":4338:4386  bool success = token.transfer(recipient, amount) */\n      swap1\n      pop\n        /* \"contracts/RebellionDataFunder.sol\":4413:4420  success */\n      dup1\n        /* \"contracts/RebellionDataFunder.sol\":4405:4446  require(success, \"Token transfer failed\") */\n      tag_79\n      jumpi\n      mload(0x40)\n      0x08c379a000000000000000000000000000000000000000000000000000000000\n      dup2\n      mstore\n      0x04\n      add\n      tag_80\n      swap1\n      tag_81\n      jump\t// in\n    tag_80:\n      mload(0x40)\n      dup1\n      swap2\n      sub\n      swap1\n      revert\n    tag_79:\n        /* \"contracts/RebellionDataFunder.sol\":4186:4453  {... */\n      pop\n      pop\n        /* \"contracts/RebellionDataFunder.sol\":4121:4453  function transferToken(address recipient, uint256 amount) public {... */\n      pop\n      pop\n      jump\t// out\n        /* \"contracts/RebellionDataFunder.sol\":3757:4115  function verifyDataset(uint256 taskId, uint256 datasetId) public payable returns (bool) {... */\n    tag_32:\n        /* \"contracts/RebellionDataFunder.sol\":3839:3843  bool */\n      0x00\n        /* \"contracts/RebellionDataFunder.sol\":3855:3872  Task storage task */\n      dup1\n        /* \"contracts/RebellionDataFunder.sol\":3875:3880  tasks */\n      0x01\n        /* \"contracts/RebellionDataFunder.sol\":3881:3887  taskId */\n      dup5\n        /* \"contracts/RebellionDataFunder.sol\":3875:3888  tasks[taskId] */\n      dup2\n      sload\n      dup2\n      lt\n      tag_83\n      jumpi\n      tag_84\n      tag_85\n      jump\t// in\n    tag_84:\n    tag_83:\n      swap1\n      0x00\n      mstore\n      keccak256(0x00, 0x20)\n      swap1\n      0x05\n      mul\n      add\n        /* \"contracts/RebellionDataFunder.sol\":3855:3888  Task storage task = tasks[taskId] */\n      swap1\n      pop\n        /* \"contracts/RebellionDataFunder.sol\":3898:3921  Dataset storage dataset */\n      0x00\n        /* \"contracts/RebellionDataFunder.sol\":3924:3928  task */\n      dup2\n        /* \"contracts/RebellionDataFunder.sol\":3924:3937  task.datasets */\n      0x04\n      add\n        /* \"contracts/RebellionDataFunder.sol\":3938:3947  datasetId */\n      dup5\n        /* \"contracts/RebellionDataFunder.sol\":3924:3948  task.datasets[datasetId] */\n      dup2\n      sload\n      dup2\n      lt\n      tag_87\n      jumpi\n      tag_88\n      tag_85\n      jump\t// in\n    tag_88:\n    tag_87:\n      swap1\n      0x00\n      mstore\n      keccak256(0x00, 0x20)\n      swap1\n      0x03\n      mul\n      add\n        /* \"contracts/RebellionDataFunder.sol\":3898:3948  Dataset storage dataset = task.datasets[datasetId] */\n      swap1\n      pop\n        /* \"contracts/RebellionDataFunder.sol\":3980:3984  true */\n      0x01\n        /* \"contracts/RebellionDataFunder.sol\":3958:3965  dataset */\n      dup2\n        /* \"contracts/RebellionDataFunder.sol\":3958:3977  dataset.isValidated */\n      0x01\n      add\n      0x14\n        /* \"contracts/RebellionDataFunder.sol\":3958:3984  dataset.isValidated = true */\n      0x0100\n      exp\n      dup2\n      sload\n      dup2\n      0xff\n      mul\n      not\n      and\n      swap1\n      dup4\n      iszero\n      iszero\n      mul\n      or\n      swap1\n      sstore\n      pop\n        /* \"contracts/RebellionDataFunder.sol\":4014:4024  msg.sender */\n      caller\n        /* \"contracts/RebellionDataFunder.sol\":3994:4001  dataset */\n      dup2\n        /* \"contracts/RebellionDataFunder.sol\":3994:4011  dataset.validator */\n      0x02\n      add\n      0x00\n        /* \"contracts/RebellionDataFunder.sol\":3994:4024  dataset.validator = msg.sender */\n      0x0100\n      exp\n      dup2\n      sload\n      dup2\n      0xffffffffffffffffffffffffffffffffffffffff\n      mul\n      not\n      and\n      swap1\n      dup4\n      0xffffffffffffffffffffffffffffffffffffffff\n      and\n      mul\n      or\n      swap1\n      sstore\n      pop\n        /* \"contracts/RebellionDataFunder.sol\":4056:4066  msg.sender */\n      caller\n        /* \"contracts/RebellionDataFunder.sol\":4040:4086  DatasetVerified(msg.sender, taskId, datasetId) */\n      0xffffffffffffffffffffffffffffffffffffffff\n      and\n      0xae10a2d383e989aba2fe4692a3f9bd0dfa98823f4ea0c5c1686416131d3c4b1b\n        /* \"contracts/RebellionDataFunder.sol\":4068:4074  taskId */\n      dup7\n        /* \"contracts/RebellionDataFunder.sol\":4076:4085  datasetId */\n      dup7\n        /* \"contracts/RebellionDataFunder.sol\":4040:4086  DatasetVerified(msg.sender, taskId, datasetId) */\n      mload(0x40)\n      tag_90\n      swap3\n      swap2\n      swap1\n      tag_91\n      jump\t// in\n    tag_90:\n      mload(0x40)\n      dup1\n      swap2\n      sub\n      swap1\n      log2\n        /* \"contracts/RebellionDataFunder.sol\":4104:4108  true */\n      0x01\n        /* \"contracts/RebellionDataFunder.sol\":4097:4108  return true */\n      swap3\n      pop\n      pop\n      pop\n        /* \"contracts/RebellionDataFunder.sol\":3757:4115  function verifyDataset(uint256 taskId, uint256 datasetId) public payable returns (bool) {... */\n      swap3\n      swap2\n      pop\n      pop\n      jump\t// out\n        /* \"contracts/RebellionDataFunder.sol\":1201:1454  function getTask(uint256 taskId) public view returns (uint256, string memory, address, uint256, Dataset[] memory) {... */\n    tag_39:\n        /* \"contracts/RebellionDataFunder.sol\":1255:1262  uint256 */\n      0x00\n        /* \"contracts/RebellionDataFunder.sol\":1264:1277  string memory */\n      0x60\n        /* \"contracts/RebellionDataFunder.sol\":1279:1286  address */\n      0x00\n        /* \"contracts/RebellionDataFunder.sol\":1288:1295  uint256 */\n      dup1\n        /* \"contracts/RebellionDataFunder.sol\":1297:1313  Dataset[] memory */\n      0x60\n        /* \"contracts/RebellionDataFunder.sol\":1325:1342  Task storage task */\n      0x00\n        /* \"contracts/RebellionDataFunder.sol\":1345:1350  tasks */\n      0x01\n        /* \"contracts/RebellionDataFunder.sol\":1351:1357  taskId */\n      dup8\n        /* \"contracts/RebellionDataFunder.sol\":1345:1358  tasks[taskId] */\n      dup2\n      sload\n      dup2\n      lt\n      tag_93\n      jumpi\n      tag_94\n      tag_85\n      jump\t// in\n    tag_94:\n    tag_93:\n      swap1\n      0x00\n      mstore\n      keccak256(0x00, 0x20)\n      swap1\n      0x05\n      mul\n      add\n        /* \"contracts/RebellionDataFunder.sol\":1325:1358  Task storage task = tasks[taskId] */\n      swap1\n      pop\n        /* \"contracts/RebellionDataFunder.sol\":1376:1380  task */\n      dup1\n        /* \"contracts/RebellionDataFunder.sol\":1376:1387  task.taskId */\n      0x00\n      add\n      sload\n        /* \"contracts/RebellionDataFunder.sol\":1389:1393  task */\n      dup2\n        /* \"contracts/RebellionDataFunder.sol\":1389:1402  task.taskName */\n      0x01\n      add\n        /* \"contracts/RebellionDataFunder.sol\":1404:1408  task */\n      dup3\n        /* \"contracts/RebellionDataFunder.sol\":1404:1418  task.publisher */\n      0x02\n      add\n      0x00\n      swap1\n      sload\n      swap1\n      0x0100\n      exp\n      swap1\n      div\n      0xffffffffffffffffffffffffffffffffffffffff\n      and\n        /* \"contracts/RebellionDataFunder.sol\":1420:1424  task */\n      dup4\n        /* \"contracts/RebellionDataFunder.sol\":1420:1431  task.reward */\n      0x03\n      add\n      sload\n        /* \"contracts/RebellionDataFunder.sol\":1433:1437  task */\n      dup5\n        /* \"contracts/RebellionDataFunder.sol\":1433:1446  task.datasets */\n      0x04\n      add\n        /* \"contracts/RebellionDataFunder.sol\":1368:1447  return (task.taskId, task.taskName, task.publisher, task.reward, task.datasets) */\n      dup4\n      dup1\n      sload\n      tag_96\n      swap1\n      tag_97\n      jump\t// in\n    tag_96:\n      dup1\n      0x1f\n      add\n      0x20\n      dup1\n      swap2\n      div\n      mul\n      0x20\n      add\n      mload(0x40)\n      swap1\n      dup2\n      add\n      0x40\n      mstore\n      dup1\n      swap3\n      swap2\n      swap1\n      dup2\n      dup2\n      mstore\n      0x20\n      add\n      dup3\n      dup1\n      sload\n      tag_98\n      swap1\n      tag_97\n      jump\t// in\n    tag_98:\n      dup1\n      iszero\n      tag_99\n      jumpi\n      dup1\n      0x1f\n      lt\n      tag_100\n      jumpi\n      0x0100\n      dup1\n      dup4\n      sload\n      div\n      mul\n      dup4\n      mstore\n      swap2\n      0x20\n      add\n      swap2\n      jump(tag_99)\n    tag_100:\n      dup3\n      add\n      swap2\n      swap1\n      0x00\n      mstore\n      keccak256(0x00, 0x20)\n      swap1\n    tag_101:\n      dup2\n      sload\n      dup2\n      mstore\n      swap1\n      0x01\n      add\n      swap1\n      0x20\n      add\n      dup1\n      dup4\n      gt\n      tag_101\n      jumpi\n      dup3\n      swap1\n      sub\n      0x1f\n      and\n      dup3\n      add\n      swap2\n    tag_99:\n      pop\n      pop\n      pop\n      pop\n      pop\n      swap4\n      pop\n      dup1\n      dup1\n      sload\n      dup1\n      0x20\n      mul\n      0x20\n      add\n      mload(0x40)\n      swap1\n      dup2\n      add\n      0x40\n      mstore\n      dup1\n      swap3\n      swap2\n      swap1\n      dup2\n      dup2\n      mstore\n      0x20\n      add\n      0x00\n      swap1\n    tag_102:\n      dup3\n      dup3\n      lt\n      iszero\n      tag_103\n      jumpi\n      dup4\n      dup3\n      swap1\n      0x00\n      mstore\n      keccak256(0x00, 0x20)\n      swap1\n      0x03\n      mul\n      add\n      mload(0x40)\n      dup1\n      0x80\n      add\n      0x40\n      mstore\n      swap1\n      dup2\n      0x00\n      dup3\n      add\n      sload\n      dup2\n      mstore\n      0x20\n      add\n      0x01\n      dup3\n      add\n      0x00\n      swap1\n      sload\n      swap1\n      0x0100\n      exp\n      swap1\n      div\n      0xffffffffffffffffffffffffffffffffffffffff\n      and\n      0xffffffffffffffffffffffffffffffffffffffff\n      and\n      0xffffffffffffffffffffffffffffffffffffffff\n      and\n      dup2\n      mstore\n      0x20\n      add\n      0x01\n      dup3\n      add\n      0x14\n      swap1\n      sload\n      swap1\n      0x0100\n      exp\n      swap1\n      div\n      0xff\n      and\n      iszero\n      iszero\n      iszero\n      iszero\n      dup2\n      mstore\n      0x20\n      add\n      0x02\n      dup3\n      add\n      0x00\n      swap1\n      sload\n      swap1\n      0x0100\n      exp\n      swap1\n      div\n      0xffffffffffffffffffffffffffffffffffffffff\n      and\n      0xffffffffffffffffffffffffffffffffffffffff\n      and\n      0xffffffffffffffffffffffffffffffffffffffff\n      and\n      dup2\n      mstore\n      pop\n      pop\n      dup2\n      mstore\n      0x20\n      add\n      swap1\n      0x01\n      add\n      swap1\n      jump(tag_102)\n    tag_103:\n      pop\n      pop\n      pop\n      pop\n      swap1\n      pop\n      swap6\n      pop\n      swap6\n      pop\n      swap6\n      pop\n      swap6\n      pop\n      swap6\n      pop\n      pop\n        /* \"contracts/RebellionDataFunder.sol\":1201:1454  function getTask(uint256 taskId) public view returns (uint256, string memory, address, uint256, Dataset[] memory) {... */\n      swap2\n      swap4\n      swap6\n      swap1\n      swap3\n      swap5\n      pop\n      jump\t// out\n        /* \"contracts/RebellionDataFunder.sol\":143:175  RDFCoinInter public rdfCoinInter */\n    tag_44:\n      0x00\n      dup1\n      sload\n      swap1\n      0x0100\n      exp\n      swap1\n      div\n      0xffffffffffffffffffffffffffffffffffffffff\n      and\n      dup2\n      jump\t// out\n        /* \"contracts/RebellionDataFunder.sol\":3156:3718  function uploadDataset(uint256 taskId) public returns (uint256) {... */\n    tag_50:\n        /* \"contracts/RebellionDataFunder.sol\":3211:3218  uint256 */\n      0x00\n        /* \"contracts/RebellionDataFunder.sol\":3230:3247  uint256 datasetId */\n      dup1\n        /* \"contracts/RebellionDataFunder.sol\":3280:3281  0 */\n      0x00\n        /* \"contracts/RebellionDataFunder.sol\":3261:3269  datasets */\n      0x02\n        /* \"contracts/RebellionDataFunder.sol\":3261:3276  datasets.length */\n      dup1\n      sload\n      swap1\n      pop\n        /* \"contracts/RebellionDataFunder.sol\":3261:3281  datasets.length == 0 */\n      sub\n        /* \"contracts/RebellionDataFunder.sol\":3257:3379  if (datasets.length == 0) {... */\n      tag_106\n      jumpi\n        /* \"contracts/RebellionDataFunder.sol\":3309:3310  0 */\n      0x00\n        /* \"contracts/RebellionDataFunder.sol\":3297:3310  datasetId = 0 */\n      swap1\n      pop\n        /* \"contracts/RebellionDataFunder.sol\":3257:3379  if (datasets.length == 0) {... */\n      jump(tag_107)\n    tag_106:\n        /* \"contracts/RebellionDataFunder.sol\":3353:3361  datasets */\n      0x02\n        /* \"contracts/RebellionDataFunder.sol\":3353:3368  datasets.length */\n      dup1\n      sload\n      swap1\n      pop\n        /* \"contracts/RebellionDataFunder.sol\":3341:3368  datasetId = datasets.length */\n      swap1\n      pop\n        /* \"contracts/RebellionDataFunder.sol\":3257:3379  if (datasets.length == 0) {... */\n    tag_107:\n        /* \"contracts/RebellionDataFunder.sol\":3440:3466  Dataset storage newDataset */\n      0x00\n        /* \"contracts/RebellionDataFunder.sol\":3469:3474  tasks */\n      0x01\n        /* \"contracts/RebellionDataFunder.sol\":3475:3481  taskId */\n      dup5\n        /* \"contracts/RebellionDataFunder.sol\":3469:3482  tasks[taskId] */\n      dup2\n      sload\n      dup2\n      lt\n      tag_108\n      jumpi\n      tag_109\n      tag_85\n      jump\t// in\n    tag_109:\n    tag_108:\n      swap1\n      0x00\n      mstore\n      keccak256(0x00, 0x20)\n      swap1\n      0x05\n      mul\n      add\n        /* \"contracts/RebellionDataFunder.sol\":3469:3491  tasks[taskId].datasets */\n      0x04\n      add\n        /* \"contracts/RebellionDataFunder.sol\":3469:3498  tasks[taskId].datasets.push() */\n      0x01\n      dup2\n      0x01\n      dup2\n      sload\n      add\n      dup1\n      dup3\n      sstore\n      dup1\n      swap2\n      pop\n      pop\n      sub\n      swap1\n      0x00\n      mstore\n      keccak256(0x00, 0x20)\n      swap1\n      0x03\n      mul\n      add\n        /* \"contracts/RebellionDataFunder.sol\":3440:3498  Dataset storage newDataset = tasks[taskId].datasets.push() */\n      swap1\n      pop\n        /* \"contracts/RebellionDataFunder.sol\":3532:3541  datasetId */\n      dup2\n        /* \"contracts/RebellionDataFunder.sol\":3509:3519  newDataset */\n      dup2\n        /* \"contracts/RebellionDataFunder.sol\":3509:3529  newDataset.datasetId */\n      0x00\n      add\n        /* \"contracts/RebellionDataFunder.sol\":3509:3541  newDataset.datasetId = datasetId */\n      dup2\n      swap1\n      sstore\n      pop\n        /* \"contracts/RebellionDataFunder.sol\":3573:3583  msg.sender */\n      caller\n        /* \"contracts/RebellionDataFunder.sol\":3551:3561  newDataset */\n      dup2\n        /* \"contracts/RebellionDataFunder.sol\":3551:3570  newDataset.uploader */\n      0x01\n      add\n      0x00\n        /* \"contracts/RebellionDataFunder.sol\":3551:3583  newDataset.uploader = msg.sender */\n      0x0100\n      exp\n      dup2\n      sload\n      dup2\n      0xffffffffffffffffffffffffffffffffffffffff\n      mul\n      not\n      and\n      swap1\n      dup4\n      0xffffffffffffffffffffffffffffffffffffffff\n      and\n      mul\n      or\n      swap1\n      sstore\n      pop\n        /* \"contracts/RebellionDataFunder.sol\":3618:3623  false */\n      0x00\n        /* \"contracts/RebellionDataFunder.sol\":3593:3603  newDataset */\n      dup2\n        /* \"contracts/RebellionDataFunder.sol\":3593:3615  newDataset.isValidated */\n      0x01\n      add\n      0x14\n        /* \"contracts/RebellionDataFunder.sol\":3593:3623  newDataset.isValidated = false */\n      0x0100\n      exp\n      dup2\n      sload\n      dup2\n      0xff\n      mul\n      not\n      and\n      swap1\n      dup4\n      iszero\n      iszero\n      mul\n      or\n      swap1\n      sstore\n      pop\n        /* \"contracts/RebellionDataFunder.sol\":3654:3664  msg.sender */\n      caller\n        /* \"contracts/RebellionDataFunder.sol\":3638:3684  DatasetUploaded(msg.sender, taskId, datasetId) */\n      0xffffffffffffffffffffffffffffffffffffffff\n      and\n      0xddf93e470e1de974e471fbd0a8f8cb0ca5b94c95ef801c3d5e3feee41b46ce3f\n        /* \"contracts/RebellionDataFunder.sol\":3666:3672  taskId */\n      dup6\n        /* \"contracts/RebellionDataFunder.sol\":3674:3683  datasetId */\n      dup5\n        /* \"contracts/RebellionDataFunder.sol\":3638:3684  DatasetUploaded(msg.sender, taskId, datasetId) */\n      mload(0x40)\n      tag_112\n      swap3\n      swap2\n      swap1\n      tag_91\n      jump\t// in\n    tag_112:\n      mload(0x40)\n      dup1\n      swap2\n      sub\n      swap1\n      log2\n        /* \"contracts/RebellionDataFunder.sol\":3702:3711  datasetId */\n      dup2\n        /* \"contracts/RebellionDataFunder.sol\":3695:3711  return datasetId */\n      swap3\n      pop\n      pop\n      pop\n        /* \"contracts/RebellionDataFunder.sol\":3156:3718  function uploadDataset(uint256 taskId) public returns (uint256) {... */\n      swap2\n      swap1\n      pop\n      jump\t// out\n        /* \"contracts/RebellionDataFunder.sol\":2116:2288  function raiseChallenge( uint256 taskId, uint256 datasetId) public returns (bool) {... */\n    tag_55:\n        /* \"contracts/RebellionDataFunder.sol\":2192:2196  bool */\n      0x00\n        /* \"contracts/RebellionDataFunder.sol\":2229:2239  msg.sender */\n      caller\n        /* \"contracts/RebellionDataFunder.sol\":2213:2259  ChallengeRaised(msg.sender, taskId, datasetId) */\n      0xffffffffffffffffffffffffffffffffffffffff\n      and\n      0xe42b48d07ff346f8a57937574c026640c0bfc24ff90641c147b54c96da8c2f1c\n        /* \"contracts/RebellionDataFunder.sol\":2241:2247  taskId */\n      dup5\n        /* \"contracts/RebellionDataFunder.sol\":2249:2258  datasetId */\n      dup5\n        /* \"contracts/RebellionDataFunder.sol\":2213:2259  ChallengeRaised(msg.sender, taskId, datasetId) */\n      mload(0x40)\n      tag_114\n      swap3\n      swap2\n      swap1\n      tag_91\n      jump\t// in\n    tag_114:\n      mload(0x40)\n      dup1\n      swap2\n      sub\n      swap1\n      log2\n        /* \"contracts/RebellionDataFunder.sol\":2277:2281  true */\n      0x01\n        /* \"contracts/RebellionDataFunder.sol\":2270:2281  return true */\n      swap1\n      pop\n        /* \"contracts/RebellionDataFunder.sol\":2116:2288  function raiseChallenge( uint256 taskId, uint256 datasetId) public returns (bool) {... */\n      swap3\n      swap2\n      pop\n      pop\n      jump\t// out\n        /* \"contracts/RebellionDataFunder.sol\":2324:3110  function handleChallenge(uint256 amount, uint256 taskId, uint256 datasetId, bool challengeStatus) public returns (bool) {... */\n    tag_61:\n        /* \"contracts/RebellionDataFunder.sol\":2438:2442  bool */\n      0x00\n        /* \"contracts/RebellionDataFunder.sol\":2454:2471  Task storage task */\n      dup1\n        /* \"contracts/RebellionDataFunder.sol\":2474:2479  tasks */\n      0x01\n        /* \"contracts/RebellionDataFunder.sol\":2480:2486  taskId */\n      dup6\n        /* \"contracts/RebellionDataFunder.sol\":2474:2487  tasks[taskId] */\n      dup2\n      sload\n      dup2\n      lt\n      tag_116\n      jumpi\n      tag_117\n      tag_85\n      jump\t// in\n    tag_117:\n    tag_116:\n      swap1\n      0x00\n      mstore\n      keccak256(0x00, 0x20)\n      swap1\n      0x05\n      mul\n      add\n        /* \"contracts/RebellionDataFunder.sol\":2454:2487  Task storage task = tasks[taskId] */\n      swap1\n      pop\n        /* \"contracts/RebellionDataFunder.sol\":2497:2520  Dataset storage dataset */\n      0x00\n        /* \"contracts/RebellionDataFunder.sol\":2523:2527  task */\n      dup2\n        /* \"contracts/RebellionDataFunder.sol\":2523:2536  task.datasets */\n      0x04\n      add\n        /* \"contracts/RebellionDataFunder.sol\":2537:2546  datasetId */\n      dup6\n        /* \"contracts/RebellionDataFunder.sol\":2523:2547  task.datasets[datasetId] */\n      dup2\n      sload\n      dup2\n      lt\n      tag_119\n      jumpi\n      tag_120\n      tag_85\n      jump\t// in\n    tag_120:\n    tag_119:\n      swap1\n      0x00\n      mstore\n      keccak256(0x00, 0x20)\n      swap1\n      0x03\n      mul\n      add\n        /* \"contracts/RebellionDataFunder.sol\":2497:2547  Dataset storage dataset = task.datasets[datasetId] */\n      swap1\n      pop\n        /* \"contracts/RebellionDataFunder.sol\":2579:2594  challengeStatus */\n      dup4\n        /* \"contracts/RebellionDataFunder.sol\":2557:2564  dataset */\n      dup2\n        /* \"contracts/RebellionDataFunder.sol\":2557:2576  dataset.isValidated */\n      0x01\n      add\n      0x14\n        /* \"contracts/RebellionDataFunder.sol\":2557:2594  dataset.isValidated = challengeStatus */\n      0x0100\n      exp\n      dup2\n      sload\n      dup2\n      0xff\n      mul\n      not\n      and\n      swap1\n      dup4\n      iszero\n      iszero\n      mul\n      or\n      swap1\n      sstore\n      pop\n        /* \"contracts/RebellionDataFunder.sol\":2604:2621  address publisher */\n      0x00\n        /* \"contracts/RebellionDataFunder.sol\":2624:2628  task */\n      dup3\n        /* \"contracts/RebellionDataFunder.sol\":2624:2638  task.publisher */\n      0x02\n      add\n      0x00\n      swap1\n      sload\n      swap1\n      0x0100\n      exp\n      swap1\n      div\n      0xffffffffffffffffffffffffffffffffffffffff\n      and\n        /* \"contracts/RebellionDataFunder.sol\":2604:2638  address publisher = task.publisher */\n      swap1\n      pop\n        /* \"contracts/RebellionDataFunder.sol\":2648:2664  address uploader */\n      0x00\n        /* \"contracts/RebellionDataFunder.sol\":2667:2674  dataset */\n      dup3\n        /* \"contracts/RebellionDataFunder.sol\":2667:2683  dataset.uploader */\n      0x01\n      add\n      0x00\n      swap1\n      sload\n      swap1\n      0x0100\n      exp\n      swap1\n      div\n      0xffffffffffffffffffffffffffffffffffffffff\n      and\n        /* \"contracts/RebellionDataFunder.sol\":2648:2683  address uploader = dataset.uploader */\n      swap1\n      pop\n        /* \"contracts/RebellionDataFunder.sol\":2741:2745  true */\n      0x01\n        /* \"contracts/RebellionDataFunder.sol\":2722:2745  challengeStatus == true */\n      iszero\n      iszero\n        /* \"contracts/RebellionDataFunder.sol\":2722:2737  challengeStatus */\n      dup7\n        /* \"contracts/RebellionDataFunder.sol\":2722:2745  challengeStatus == true */\n      iszero\n      iszero\n      sub\n        /* \"contracts/RebellionDataFunder.sol\":2718:2994  if (challengeStatus == true) {... */\n      tag_122\n      jumpi\n        /* \"contracts/RebellionDataFunder.sol\":2826:2857  transferToken(uploader, amount) */\n      tag_123\n        /* \"contracts/RebellionDataFunder.sol\":2840:2848  uploader */\n      dup2\n        /* \"contracts/RebellionDataFunder.sol\":2850:2856  amount */\n      dup11\n        /* \"contracts/RebellionDataFunder.sol\":2826:2839  transferToken */\n      tag_28\n        /* \"contracts/RebellionDataFunder.sol\":2826:2857  transferToken(uploader, amount) */\n      jump\t// in\n    tag_123:\n        /* \"contracts/RebellionDataFunder.sol\":2718:2994  if (challengeStatus == true) {... */\n      jump(tag_124)\n    tag_122:\n        /* \"contracts/RebellionDataFunder.sol\":2951:2983  transferToken(publisher, amount) */\n      tag_125\n        /* \"contracts/RebellionDataFunder.sol\":2965:2974  publisher */\n      dup3\n        /* \"contracts/RebellionDataFunder.sol\":2976:2982  amount */\n      dup11\n        /* \"contracts/RebellionDataFunder.sol\":2951:2964  transferToken */\n      tag_28\n        /* \"contracts/RebellionDataFunder.sol\":2951:2983  transferToken(publisher, amount) */\n      jump\t// in\n    tag_125:\n        /* \"contracts/RebellionDataFunder.sol\":2718:2994  if (challengeStatus == true) {... */\n    tag_124:\n        /* \"contracts/RebellionDataFunder.sol\":3026:3036  msg.sender */\n      caller\n        /* \"contracts/RebellionDataFunder.sol\":3009:3081  ChallengeHandled(msg.sender, amount, taskId, datasetId, challengeStatus) */\n      0xffffffffffffffffffffffffffffffffffffffff\n      and\n      0x2b489c9688560adf19d595c73087b51e94bb7a0c147515054d86f2ca5e8b72d4\n        /* \"contracts/RebellionDataFunder.sol\":3038:3044  amount */\n      dup11\n        /* \"contracts/RebellionDataFunder.sol\":3046:3052  taskId */\n      dup11\n        /* \"contracts/RebellionDataFunder.sol\":3054:3063  datasetId */\n      dup11\n        /* \"contracts/RebellionDataFunder.sol\":3065:3080  challengeStatus */\n      dup11\n        /* \"contracts/RebellionDataFunder.sol\":3009:3081  ChallengeHandled(msg.sender, amount, taskId, datasetId, challengeStatus) */\n      mload(0x40)\n      tag_126\n      swap5\n      swap4\n      swap3\n      swap2\n      swap1\n      tag_127\n      jump\t// in\n    tag_126:\n      mload(0x40)\n      dup1\n      swap2\n      sub\n      swap1\n      log2\n        /* \"contracts/RebellionDataFunder.sol\":3099:3103  true */\n      0x01\n        /* \"contracts/RebellionDataFunder.sol\":3092:3103  return true */\n      swap5\n      pop\n      pop\n      pop\n      pop\n      pop\n        /* \"contracts/RebellionDataFunder.sol\":2324:3110  function handleChallenge(uint256 amount, uint256 taskId, uint256 datasetId, bool challengeStatus) public returns (bool) {... */\n      swap5\n      swap4\n      pop\n      pop\n      pop\n      pop\n      jump\t// out\n        /* \"#utility.yul\":7:82   */\n    tag_128:\n        /* \"#utility.yul\":40:46   */\n      0x00\n        /* \"#utility.yul\":73:75   */\n      0x40\n        /* \"#utility.yul\":67:76   */\n      mload\n        /* \"#utility.yul\":57:76   */\n      swap1\n      pop\n        /* \"#utility.yul\":7:82   */\n      swap1\n      jump\t// out\n        /* \"#utility.yul\":88:205   */\n    tag_129:\n        /* \"#utility.yul\":197:198   */\n      0x00\n        /* \"#utility.yul\":194:195   */\n      dup1\n        /* \"#utility.yul\":187:199   */\n      revert\n        /* \"#utility.yul\":211:328   */\n    tag_130:\n        /* \"#utility.yul\":320:321   */\n      0x00\n        /* \"#utility.yul\":317:318   */\n      dup1\n        /* \"#utility.yul\":310:322   */\n      revert\n        /* \"#utility.yul\":334:451   */\n    tag_131:\n        /* \"#utility.yul\":443:444   */\n      0x00\n        /* \"#utility.yul\":440:441   */\n      dup1\n        /* \"#utility.yul\":433:445   */\n      revert\n        /* \"#utility.yul\":457:574   */\n    tag_132:\n        /* \"#utility.yul\":566:567   */\n      0x00\n        /* \"#utility.yul\":563:564   */\n      dup1\n        /* \"#utility.yul\":556:568   */\n      revert\n        /* \"#utility.yul\":580:682   */\n    tag_133:\n        /* \"#utility.yul\":621:627   */\n      0x00\n        /* \"#utility.yul\":672:674   */\n      0x1f\n        /* \"#utility.yul\":668:675   */\n      not\n        /* \"#utility.yul\":663:665   */\n      0x1f\n        /* \"#utility.yul\":656:661   */\n      dup4\n        /* \"#utility.yul\":652:666   */\n      add\n        /* \"#utility.yul\":648:676   */\n      and\n        /* \"#utility.yul\":638:676   */\n      swap1\n      pop\n        /* \"#utility.yul\":580:682   */\n      swap2\n      swap1\n      pop\n      jump\t// out\n        /* \"#utility.yul\":688:868   */\n    tag_134:\n        /* \"#utility.yul\":736:813   */\n      0x4e487b7100000000000000000000000000000000000000000000000000000000\n        /* \"#utility.yul\":733:734   */\n      0x00\n        /* \"#utility.yul\":726:814   */\n      mstore\n        /* \"#utility.yul\":833:837   */\n      0x41\n        /* \"#utility.yul\":830:831   */\n      0x04\n        /* \"#utility.yul\":823:838   */\n      mstore\n        /* \"#utility.yul\":857:861   */\n      0x24\n        /* \"#utility.yul\":854:855   */\n      0x00\n        /* \"#utility.yul\":847:862   */\n      revert\n        /* \"#utility.yul\":874:1155   */\n    tag_135:\n        /* \"#utility.yul\":957:984   */\n      tag_200\n        /* \"#utility.yul\":979:983   */\n      dup3\n        /* \"#utility.yul\":957:984   */\n      tag_133\n      jump\t// in\n    tag_200:\n        /* \"#utility.yul\":949:955   */\n      dup2\n        /* \"#utility.yul\":945:985   */\n      add\n        /* \"#utility.yul\":1087:1093   */\n      dup2\n        /* \"#utility.yul\":1075:1085   */\n      dup2\n        /* \"#utility.yul\":1072:1094   */\n      lt\n        /* \"#utility.yul\":1051:1069   */\n      0xffffffffffffffff\n        /* \"#utility.yul\":1039:1049   */\n      dup3\n        /* \"#utility.yul\":1036:1070   */\n      gt\n        /* \"#utility.yul\":1033:1095   */\n      or\n        /* \"#utility.yul\":1030:1118   */\n      iszero\n      tag_201\n      jumpi\n        /* \"#utility.yul\":1098:1116   */\n      tag_202\n      tag_134\n      jump\t// in\n    tag_202:\n        /* \"#utility.yul\":1030:1118   */\n    tag_201:\n        /* \"#utility.yul\":1138:1148   */\n      dup1\n        /* \"#utility.yul\":1134:1136   */\n      0x40\n        /* \"#utility.yul\":1127:1149   */\n      mstore\n        /* \"#utility.yul\":917:1155   */\n      pop\n        /* \"#utility.yul\":874:1155   */\n      pop\n      pop\n      jump\t// out\n        /* \"#utility.yul\":1161:1290   */\n    tag_136:\n        /* \"#utility.yul\":1195:1201   */\n      0x00\n        /* \"#utility.yul\":1222:1242   */\n      tag_204\n      tag_128\n      jump\t// in\n    tag_204:\n        /* \"#utility.yul\":1212:1242   */\n      swap1\n      pop\n        /* \"#utility.yul\":1251:1284   */\n      tag_205\n        /* \"#utility.yul\":1279:1283   */\n      dup3\n        /* \"#utility.yul\":1271:1277   */\n      dup3\n        /* \"#utility.yul\":1251:1284   */\n      tag_135\n      jump\t// in\n    tag_205:\n        /* \"#utility.yul\":1161:1290   */\n      swap2\n      swap1\n      pop\n      jump\t// out\n        /* \"#utility.yul\":1296:1604   */\n    tag_137:\n        /* \"#utility.yul\":1358:1362   */\n      0x00\n        /* \"#utility.yul\":1448:1466   */\n      0xffffffffffffffff\n        /* \"#utility.yul\":1440:1446   */\n      dup3\n        /* \"#utility.yul\":1437:1467   */\n      gt\n        /* \"#utility.yul\":1434:1490   */\n      iszero\n      tag_207\n      jumpi\n        /* \"#utility.yul\":1470:1488   */\n      tag_208\n      tag_134\n      jump\t// in\n    tag_208:\n        /* \"#utility.yul\":1434:1490   */\n    tag_207:\n        /* \"#utility.yul\":1508:1537   */\n      tag_209\n        /* \"#utility.yul\":1530:1536   */\n      dup3\n        /* \"#utility.yul\":1508:1537   */\n      tag_133\n      jump\t// in\n    tag_209:\n        /* \"#utility.yul\":1500:1537   */\n      swap1\n      pop\n        /* \"#utility.yul\":1592:1596   */\n      0x20\n        /* \"#utility.yul\":1586:1590   */\n      dup2\n        /* \"#utility.yul\":1582:1597   */\n      add\n        /* \"#utility.yul\":1574:1597   */\n      swap1\n      pop\n        /* \"#utility.yul\":1296:1604   */\n      swap2\n      swap1\n      pop\n      jump\t// out\n        /* \"#utility.yul\":1610:1758   */\n    tag_138:\n        /* \"#utility.yul\":1708:1714   */\n      dup3\n        /* \"#utility.yul\":1703:1706   */\n      dup2\n        /* \"#utility.yul\":1698:1701   */\n      dup4\n        /* \"#utility.yul\":1685:1715   */\n      calldatacopy\n        /* \"#utility.yul\":1749:1750   */\n      0x00\n        /* \"#utility.yul\":1740:1746   */\n      dup4\n        /* \"#utility.yul\":1735:1738   */\n      dup4\n        /* \"#utility.yul\":1731:1747   */\n      add\n        /* \"#utility.yul\":1724:1751   */\n      mstore\n        /* \"#utility.yul\":1610:1758   */\n      pop\n      pop\n      pop\n      jump\t// out\n        /* \"#utility.yul\":1764:2189   */\n    tag_139:\n        /* \"#utility.yul\":1842:1847   */\n      0x00\n        /* \"#utility.yul\":1867:1933   */\n      tag_212\n        /* \"#utility.yul\":1883:1932   */\n      tag_213\n        /* \"#utility.yul\":1925:1931   */\n      dup5\n        /* \"#utility.yul\":1883:1932   */\n      tag_137\n      jump\t// in\n    tag_213:\n        /* \"#utility.yul\":1867:1933   */\n      tag_136\n      jump\t// in\n    tag_212:\n        /* \"#utility.yul\":1858:1933   */\n      swap1\n      pop\n        /* \"#utility.yul\":1956:1962   */\n      dup3\n        /* \"#utility.yul\":1949:1954   */\n      dup2\n        /* \"#utility.yul\":1942:1963   */\n      mstore\n        /* \"#utility.yul\":1994:1998   */\n      0x20\n        /* \"#utility.yul\":1987:1992   */\n      dup2\n        /* \"#utility.yul\":1983:1999   */\n      add\n        /* \"#utility.yul\":2032:2035   */\n      dup5\n        /* \"#utility.yul\":2023:2029   */\n      dup5\n        /* \"#utility.yul\":2018:2021   */\n      dup5\n        /* \"#utility.yul\":2014:2030   */\n      add\n        /* \"#utility.yul\":2011:2036   */\n      gt\n        /* \"#utility.yul\":2008:2120   */\n      iszero\n      tag_214\n      jumpi\n        /* \"#utility.yul\":2039:2118   */\n      tag_215\n      tag_132\n      jump\t// in\n    tag_215:\n        /* \"#utility.yul\":2008:2120   */\n    tag_214:\n        /* \"#utility.yul\":2129:2183   */\n      tag_216\n        /* \"#utility.yul\":2176:2182   */\n      dup5\n        /* \"#utility.yul\":2171:2174   */\n      dup3\n        /* \"#utility.yul\":2166:2169   */\n      dup6\n        /* \"#utility.yul\":2129:2183   */\n      tag_138\n      jump\t// in\n    tag_216:\n        /* \"#utility.yul\":1848:2189   */\n      pop\n        /* \"#utility.yul\":1764:2189   */\n      swap4\n      swap3\n      pop\n      pop\n      pop\n      jump\t// out\n        /* \"#utility.yul\":2209:2549   */\n    tag_140:\n        /* \"#utility.yul\":2265:2270   */\n      0x00\n        /* \"#utility.yul\":2314:2317   */\n      dup3\n        /* \"#utility.yul\":2307:2311   */\n      0x1f\n        /* \"#utility.yul\":2299:2305   */\n      dup4\n        /* \"#utility.yul\":2295:2312   */\n      add\n        /* \"#utility.yul\":2291:2318   */\n      slt\n        /* \"#utility.yul\":2281:2403   */\n      tag_218\n      jumpi\n        /* \"#utility.yul\":2322:2401   */\n      tag_219\n      tag_131\n      jump\t// in\n    tag_219:\n        /* \"#utility.yul\":2281:2403   */\n    tag_218:\n        /* \"#utility.yul\":2439:2445   */\n      dup2\n        /* \"#utility.yul\":2426:2446   */\n      calldataload\n        /* \"#utility.yul\":2464:2543   */\n      tag_220\n        /* \"#utility.yul\":2539:2542   */\n      dup5\n        /* \"#utility.yul\":2531:2537   */\n      dup3\n        /* \"#utility.yul\":2524:2528   */\n      0x20\n        /* \"#utility.yul\":2516:2522   */\n      dup7\n        /* \"#utility.yul\":2512:2529   */\n      add\n        /* \"#utility.yul\":2464:2543   */\n      tag_139\n      jump\t// in\n    tag_220:\n        /* \"#utility.yul\":2455:2543   */\n      swap2\n      pop\n        /* \"#utility.yul\":2271:2549   */\n      pop\n        /* \"#utility.yul\":2209:2549   */\n      swap3\n      swap2\n      pop\n      pop\n      jump\t// out\n        /* \"#utility.yul\":2555:2632   */\n    tag_141:\n        /* \"#utility.yul\":2592:2599   */\n      0x00\n        /* \"#utility.yul\":2621:2626   */\n      dup2\n        /* \"#utility.yul\":2610:2626   */\n      swap1\n      pop\n        /* \"#utility.yul\":2555:2632   */\n      swap2\n      swap1\n      pop\n      jump\t// out\n        /* \"#utility.yul\":2638:2760   */\n    tag_142:\n        /* \"#utility.yul\":2711:2735   */\n      tag_223\n        /* \"#utility.yul\":2729:2734   */\n      dup2\n        /* \"#utility.yul\":2711:2735   */\n      tag_141\n      jump\t// in\n    tag_223:\n        /* \"#utility.yul\":2704:2709   */\n      dup2\n        /* \"#utility.yul\":2701:2736   */\n      eq\n        /* \"#utility.yul\":2691:2754   */\n      tag_224\n      jumpi\n        /* \"#utility.yul\":2750:2751   */\n      0x00\n        /* \"#utility.yul\":2747:2748   */\n      dup1\n        /* \"#utility.yul\":2740:2752   */\n      revert\n        /* \"#utility.yul\":2691:2754   */\n    tag_224:\n        /* \"#utility.yul\":2638:2760   */\n      pop\n      jump\t// out\n        /* \"#utility.yul\":2766:2905   */\n    tag_143:\n        /* \"#utility.yul\":2812:2817   */\n      0x00\n        /* \"#utility.yul\":2850:2856   */\n      dup2\n        /* \"#utility.yul\":2837:2857   */\n      calldataload\n        /* \"#utility.yul\":2828:2857   */\n      swap1\n      pop\n        /* \"#utility.yul\":2866:2899   */\n      tag_226\n        /* \"#utility.yul\":2893:2898   */\n      dup2\n        /* \"#utility.yul\":2866:2899   */\n      tag_142\n      jump\t// in\n    tag_226:\n        /* \"#utility.yul\":2766:2905   */\n      swap3\n      swap2\n      pop\n      pop\n      jump\t// out\n        /* \"#utility.yul\":2911:3565   */\n    tag_15:\n        /* \"#utility.yul\":2989:2995   */\n      0x00\n        /* \"#utility.yul\":2997:3003   */\n      dup1\n        /* \"#utility.yul\":3046:3048   */\n      0x40\n        /* \"#utility.yul\":3034:3043   */\n      dup4\n        /* \"#utility.yul\":3025:3032   */\n      dup6\n        /* \"#utility.yul\":3021:3044   */\n      sub\n        /* \"#utility.yul\":3017:3049   */\n      slt\n        /* \"#utility.yul\":3014:3133   */\n      iszero\n      tag_228\n      jumpi\n        /* \"#utility.yul\":3052:3131   */\n      tag_229\n      tag_129\n      jump\t// in\n    tag_229:\n        /* \"#utility.yul\":3014:3133   */\n    tag_228:\n        /* \"#utility.yul\":3200:3201   */\n      0x00\n        /* \"#utility.yul\":3189:3198   */\n      dup4\n        /* \"#utility.yul\":3185:3202   */\n      add\n        /* \"#utility.yul\":3172:3203   */\n      calldataload\n        /* \"#utility.yul\":3230:3248   */\n      0xffffffffffffffff\n        /* \"#utility.yul\":3222:3228   */\n      dup2\n        /* \"#utility.yul\":3219:3249   */\n      gt\n        /* \"#utility.yul\":3216:3333   */\n      iszero\n      tag_230\n      jumpi\n        /* \"#utility.yul\":3252:3331   */\n      tag_231\n      tag_130\n      jump\t// in\n    tag_231:\n        /* \"#utility.yul\":3216:3333   */\n    tag_230:\n        /* \"#utility.yul\":3357:3420   */\n      tag_232\n        /* \"#utility.yul\":3412:3419   */\n      dup6\n        /* \"#utility.yul\":3403:3409   */\n      dup3\n        /* \"#utility.yul\":3392:3401   */\n      dup7\n        /* \"#utility.yul\":3388:3410   */\n      add\n        /* \"#utility.yul\":3357:3420   */\n      tag_140\n      jump\t// in\n    tag_232:\n        /* \"#utility.yul\":3347:3420   */\n      swap3\n      pop\n        /* \"#utility.yul\":3143:3430   */\n      pop\n        /* \"#utility.yul\":3469:3471   */\n      0x20\n        /* \"#utility.yul\":3495:3548   */\n      tag_233\n        /* \"#utility.yul\":3540:3547   */\n      dup6\n        /* \"#utility.yul\":3531:3537   */\n      dup3\n        /* \"#utility.yul\":3520:3529   */\n      dup7\n        /* \"#utility.yul\":3516:3538   */\n      add\n        /* \"#utility.yul\":3495:3548   */\n      tag_143\n      jump\t// in\n    tag_233:\n        /* \"#utility.yul\":3485:3548   */\n      swap2\n      pop\n        /* \"#utility.yul\":3440:3558   */\n      pop\n        /* \"#utility.yul\":2911:3565   */\n      swap3\n      pop\n      swap3\n      swap1\n      pop\n      jump\t// out\n        /* \"#utility.yul\":3571:3689   */\n    tag_144:\n        /* \"#utility.yul\":3658:3682   */\n      tag_235\n        /* \"#utility.yul\":3676:3681   */\n      dup2\n        /* \"#utility.yul\":3658:3682   */\n      tag_141\n      jump\t// in\n    tag_235:\n        /* \"#utility.yul\":3653:3656   */\n      dup3\n        /* \"#utility.yul\":3646:3683   */\n      mstore\n        /* \"#utility.yul\":3571:3689   */\n      pop\n      pop\n      jump\t// out\n        /* \"#utility.yul\":3695:3917   */\n    tag_18:\n        /* \"#utility.yul\":3788:3792   */\n      0x00\n        /* \"#utility.yul\":3826:3828   */\n      0x20\n        /* \"#utility.yul\":3815:3824   */\n      dup3\n        /* \"#utility.yul\":3811:3829   */\n      add\n        /* \"#utility.yul\":3803:3829   */\n      swap1\n      pop\n        /* \"#utility.yul\":3839:3910   */\n      tag_237\n        /* \"#utility.yul\":3907:3908   */\n      0x00\n        /* \"#utility.yul\":3896:3905   */\n      dup4\n        /* \"#utility.yul\":3892:3909   */\n      add\n        /* \"#utility.yul\":3883:3889   */\n      dup5\n        /* \"#utility.yul\":3839:3910   */\n      tag_144\n      jump\t// in\n    tag_237:\n        /* \"#utility.yul\":3695:3917   */\n      swap3\n      swap2\n      pop\n      pop\n      jump\t// out\n        /* \"#utility.yul\":3923:4049   */\n    tag_145:\n        /* \"#utility.yul\":3960:3967   */\n      0x00\n        /* \"#utility.yul\":4000:4042   */\n      0xffffffffffffffffffffffffffffffffffffffff\n        /* \"#utility.yul\":3993:3998   */\n      dup3\n        /* \"#utility.yul\":3989:4043   */\n      and\n        /* \"#utility.yul\":3978:4043   */\n      swap1\n      pop\n        /* \"#utility.yul\":3923:4049   */\n      swap2\n      swap1\n      pop\n      jump\t// out\n        /* \"#utility.yul\":4055:4151   */\n    tag_146:\n        /* \"#utility.yul\":4092:4099   */\n      0x00\n        /* \"#utility.yul\":4121:4145   */\n      tag_240\n        /* \"#utility.yul\":4139:4144   */\n      dup3\n        /* \"#utility.yul\":4121:4145   */\n      tag_145\n      jump\t// in\n    tag_240:\n        /* \"#utility.yul\":4110:4145   */\n      swap1\n      pop\n        /* \"#utility.yul\":4055:4151   */\n      swap2\n      swap1\n      pop\n      jump\t// out\n        /* \"#utility.yul\":4157:4275   */\n    tag_147:\n        /* \"#utility.yul\":4244:4268   */\n      tag_242\n        /* \"#utility.yul\":4262:4267   */\n      dup2\n        /* \"#utility.yul\":4244:4268   */\n      tag_146\n      jump\t// in\n    tag_242:\n        /* \"#utility.yul\":4239:4242   */\n      dup3\n        /* \"#utility.yul\":4232:4269   */\n      mstore\n        /* \"#utility.yul\":4157:4275   */\n      pop\n      pop\n      jump\t// out\n        /* \"#utility.yul\":4281:4503   */\n    tag_23:\n        /* \"#utility.yul\":4374:4378   */\n      0x00\n        /* \"#utility.yul\":4412:4414   */\n      0x20\n        /* \"#utility.yul\":4401:4410   */\n      dup3\n        /* \"#utility.yul\":4397:4415   */\n      add\n        /* \"#utility.yul\":4389:4415   */\n      swap1\n      pop\n        /* \"#utility.yul\":4425:4496   */\n      tag_244\n        /* \"#utility.yul\":4493:4494   */\n      0x00\n        /* \"#utility.yul\":4482:4491   */\n      dup4\n        /* \"#utility.yul\":4478:4495   */\n      add\n        /* \"#utility.yul\":4469:4475   */\n      dup5\n        /* \"#utility.yul\":4425:4496   */\n      tag_147\n      jump\t// in\n    tag_244:\n        /* \"#utility.yul\":4281:4503   */\n      swap3\n      swap2\n      pop\n      pop\n      jump\t// out\n        /* \"#utility.yul\":4509:4631   */\n    tag_148:\n        /* \"#utility.yul\":4582:4606   */\n      tag_246\n        /* \"#utility.yul\":4600:4605   */\n      dup2\n        /* \"#utility.yul\":4582:4606   */\n      tag_146\n      jump\t// in\n    tag_246:\n        /* \"#utility.yul\":4575:4580   */\n      dup2\n        /* \"#utility.yul\":4572:4607   */\n      eq\n        /* \"#utility.yul\":4562:4625   */\n      tag_247\n      jumpi\n        /* \"#utility.yul\":4621:4622   */\n      0x00\n        /* \"#utility.yul\":4618:4619   */\n      dup1\n        /* \"#utility.yul\":4611:4623   */\n      revert\n        /* \"#utility.yul\":4562:4625   */\n    tag_247:\n        /* \"#utility.yul\":4509:4631   */\n      pop\n      jump\t// out\n        /* \"#utility.yul\":4637:4776   */\n    tag_149:\n        /* \"#utility.yul\":4683:4688   */\n      0x00\n        /* \"#utility.yul\":4721:4727   */\n      dup2\n        /* \"#utility.yul\":4708:4728   */\n      calldataload\n        /* \"#utility.yul\":4699:4728   */\n      swap1\n      pop\n        /* \"#utility.yul\":4737:4770   */\n      tag_249\n        /* \"#utility.yul\":4764:4769   */\n      dup2\n        /* \"#utility.yul\":4737:4770   */\n      tag_148\n      jump\t// in\n    tag_249:\n        /* \"#utility.yul\":4637:4776   */\n      swap3\n      swap2\n      pop\n      pop\n      jump\t// out\n        /* \"#utility.yul\":4782:5256   */\n    tag_27:\n        /* \"#utility.yul\":4850:4856   */\n      0x00\n        /* \"#utility.yul\":4858:4864   */\n      dup1\n        /* \"#utility.yul\":4907:4909   */\n      0x40\n        /* \"#utility.yul\":4895:4904   */\n      dup4\n        /* \"#utility.yul\":4886:4893   */\n      dup6\n        /* \"#utility.yul\":4882:4905   */\n      sub\n        /* \"#utility.yul\":4878:4910   */\n      slt\n        /* \"#utility.yul\":4875:4994   */\n      iszero\n      tag_251\n      jumpi\n        /* \"#utility.yul\":4913:4992   */\n      tag_252\n      tag_129\n      jump\t// in\n    tag_252:\n        /* \"#utility.yul\":4875:4994   */\n    tag_251:\n        /* \"#utility.yul\":5033:5034   */\n      0x00\n        /* \"#utility.yul\":5058:5111   */\n      tag_253\n        /* \"#utility.yul\":5103:5110   */\n      dup6\n        /* \"#utility.yul\":5094:5100   */\n      dup3\n        /* \"#utility.yul\":5083:5092   */\n      dup7\n        /* \"#utility.yul\":5079:5101   */\n      add\n        /* \"#utility.yul\":5058:5111   */\n      tag_149\n      jump\t// in\n    tag_253:\n        /* \"#utility.yul\":5048:5111   */\n      swap3\n      pop\n        /* \"#utility.yul\":5004:5121   */\n      pop\n        /* \"#utility.yul\":5160:5162   */\n      0x20\n        /* \"#utility.yul\":5186:5239   */\n      tag_254\n        /* \"#utility.yul\":5231:5238   */\n      dup6\n        /* \"#utility.yul\":5222:5228   */\n      dup3\n        /* \"#utility.yul\":5211:5220   */\n      dup7\n        /* \"#utility.yul\":5207:5229   */\n      add\n        /* \"#utility.yul\":5186:5239   */\n      tag_143\n      jump\t// in\n    tag_254:\n        /* \"#utility.yul\":5176:5239   */\n      swap2\n      pop\n        /* \"#utility.yul\":5131:5249   */\n      pop\n        /* \"#utility.yul\":4782:5256   */\n      swap3\n      pop\n      swap3\n      swap1\n      pop\n      jump\t// out\n        /* \"#utility.yul\":5262:5736   */\n    tag_31:\n        /* \"#utility.yul\":5330:5336   */\n      0x00\n        /* \"#utility.yul\":5338:5344   */\n      dup1\n        /* \"#utility.yul\":5387:5389   */\n      0x40\n        /* \"#utility.yul\":5375:5384   */\n      dup4\n        /* \"#utility.yul\":5366:5373   */\n      dup6\n        /* \"#utility.yul\":5362:5385   */\n      sub\n        /* \"#utility.yul\":5358:5390   */\n      slt\n        /* \"#utility.yul\":5355:5474   */\n      iszero\n      tag_256\n      jumpi\n        /* \"#utility.yul\":5393:5472   */\n      tag_257\n      tag_129\n      jump\t// in\n    tag_257:\n        /* \"#utility.yul\":5355:5474   */\n    tag_256:\n        /* \"#utility.yul\":5513:5514   */\n      0x00\n        /* \"#utility.yul\":5538:5591   */\n      tag_258\n        /* \"#utility.yul\":5583:5590   */\n      dup6\n        /* \"#utility.yul\":5574:5580   */\n      dup3\n        /* \"#utility.yul\":5563:5572   */\n      dup7\n        /* \"#utility.yul\":5559:5581   */\n      add\n        /* \"#utility.yul\":5538:5591   */\n      tag_143\n      jump\t// in\n    tag_258:\n        /* \"#utility.yul\":5528:5591   */\n      swap3\n      pop\n        /* \"#utility.yul\":5484:5601   */\n      pop\n        /* \"#utility.yul\":5640:5642   */\n      0x20\n        /* \"#utility.yul\":5666:5719   */\n      tag_259\n        /* \"#utility.yul\":5711:5718   */\n      dup6\n        /* \"#utility.yul\":5702:5708   */\n      dup3\n        /* \"#utility.yul\":5691:5700   */\n      dup7\n        /* \"#utility.yul\":5687:5709   */\n      add\n        /* \"#utility.yul\":5666:5719   */\n      tag_143\n      jump\t// in\n    tag_259:\n        /* \"#utility.yul\":5656:5719   */\n      swap2\n      pop\n        /* \"#utility.yul\":5611:5729   */\n      pop\n        /* \"#utility.yul\":5262:5736   */\n      swap3\n      pop\n      swap3\n      swap1\n      pop\n      jump\t// out\n        /* \"#utility.yul\":5742:5832   */\n    tag_150:\n        /* \"#utility.yul\":5776:5783   */\n      0x00\n        /* \"#utility.yul\":5819:5824   */\n      dup2\n        /* \"#utility.yul\":5812:5825   */\n      iszero\n        /* \"#utility.yul\":5805:5826   */\n      iszero\n        /* \"#utility.yul\":5794:5826   */\n      swap1\n      pop\n        /* \"#utility.yul\":5742:5832   */\n      swap2\n      swap1\n      pop\n      jump\t// out\n        /* \"#utility.yul\":5838:5947   */\n    tag_151:\n        /* \"#utility.yul\":5919:5940   */\n      tag_262\n        /* \"#utility.yul\":5934:5939   */\n      dup2\n        /* \"#utility.yul\":5919:5940   */\n      tag_150\n      jump\t// in\n    tag_262:\n        /* \"#utility.yul\":5914:5917   */\n      dup3\n        /* \"#utility.yul\":5907:5941   */\n      mstore\n        /* \"#utility.yul\":5838:5947   */\n      pop\n      pop\n      jump\t// out\n        /* \"#utility.yul\":5953:6163   */\n    tag_34:\n        /* \"#utility.yul\":6040:6044   */\n      0x00\n        /* \"#utility.yul\":6078:6080   */\n      0x20\n        /* \"#utility.yul\":6067:6076   */\n      dup3\n        /* \"#utility.yul\":6063:6081   */\n      add\n        /* \"#utility.yul\":6055:6081   */\n      swap1\n      pop\n        /* \"#utility.yul\":6091:6156   */\n      tag_264\n        /* \"#utility.yul\":6153:6154   */\n      0x00\n        /* \"#utility.yul\":6142:6151   */\n      dup4\n        /* \"#utility.yul\":6138:6155   */\n      add\n        /* \"#utility.yul\":6129:6135   */\n      dup5\n        /* \"#utility.yul\":6091:6156   */\n      tag_151\n      jump\t// in\n    tag_264:\n        /* \"#utility.yul\":5953:6163   */\n      swap3\n      swap2\n      pop\n      pop\n      jump\t// out\n        /* \"#utility.yul\":6169:6498   */\n    tag_38:\n        /* \"#utility.yul\":6228:6234   */\n      0x00\n        /* \"#utility.yul\":6277:6279   */\n      0x20\n        /* \"#utility.yul\":6265:6274   */\n      dup3\n        /* \"#utility.yul\":6256:6263   */\n      dup5\n        /* \"#utility.yul\":6252:6275   */\n      sub\n        /* \"#utility.yul\":6248:6280   */\n      slt\n        /* \"#utility.yul\":6245:6364   */\n      iszero\n      tag_266\n      jumpi\n        /* \"#utility.yul\":6283:6362   */\n      tag_267\n      tag_129\n      jump\t// in\n    tag_267:\n        /* \"#utility.yul\":6245:6364   */\n    tag_266:\n        /* \"#utility.yul\":6403:6404   */\n      0x00\n        /* \"#utility.yul\":6428:6481   */\n      tag_268\n        /* \"#utility.yul\":6473:6480   */\n      dup5\n        /* \"#utility.yul\":6464:6470   */\n      dup3\n        /* \"#utility.yul\":6453:6462   */\n      dup6\n        /* \"#utility.yul\":6449:6471   */\n      add\n        /* \"#utility.yul\":6428:6481   */\n      tag_143\n      jump\t// in\n    tag_268:\n        /* \"#utility.yul\":6418:6481   */\n      swap2\n      pop\n        /* \"#utility.yul\":6374:6491   */\n      pop\n        /* \"#utility.yul\":6169:6498   */\n      swap3\n      swap2\n      pop\n      pop\n      jump\t// out\n        /* \"#utility.yul\":6504:6603   */\n    tag_152:\n        /* \"#utility.yul\":6556:6562   */\n      0x00\n        /* \"#utility.yul\":6590:6595   */\n      dup2\n        /* \"#utility.yul\":6584:6596   */\n      mload\n        /* \"#utility.yul\":6574:6596   */\n      swap1\n      pop\n        /* \"#utility.yul\":6504:6603   */\n      swap2\n      swap1\n      pop\n      jump\t// out\n        /* \"#utility.yul\":6609:6778   */\n    tag_153:\n        /* \"#utility.yul\":6693:6704   */\n      0x00\n        /* \"#utility.yul\":6727:6733   */\n      dup3\n        /* \"#utility.yul\":6722:6725   */\n      dup3\n        /* \"#utility.yul\":6715:6734   */\n      mstore\n        /* \"#utility.yul\":6767:6771   */\n      0x20\n        /* \"#utility.yul\":6762:6765   */\n      dup3\n        /* \"#utility.yul\":6758:6772   */\n      add\n        /* \"#utility.yul\":6743:6772   */\n      swap1\n      pop\n        /* \"#utility.yul\":6609:6778   */\n      swap3\n      swap2\n      pop\n      pop\n      jump\t// out\n        /* \"#utility.yul\":6784:6923   */\n    tag_154:\n        /* \"#utility.yul\":6873:6879   */\n      dup3\n        /* \"#utility.yul\":6868:6871   */\n      dup2\n        /* \"#utility.yul\":6863:6866   */\n      dup4\n        /* \"#utility.yul\":6857:6880   */\n      mcopy\n        /* \"#utility.yul\":6914:6915   */\n      0x00\n        /* \"#utility.yul\":6905:6911   */\n      dup4\n        /* \"#utility.yul\":6900:6903   */\n      dup4\n        /* \"#utility.yul\":6896:6912   */\n      add\n        /* \"#utility.yul\":6889:6916   */\n      mstore\n        /* \"#utility.yul\":6784:6923   */\n      pop\n      pop\n      pop\n      jump\t// out\n        /* \"#utility.yul\":6929:7306   */\n    tag_155:\n        /* \"#utility.yul\":7017:7020   */\n      0x00\n        /* \"#utility.yul\":7045:7084   */\n      tag_273\n        /* \"#utility.yul\":7078:7083   */\n      dup3\n        /* \"#utility.yul\":7045:7084   */\n      tag_152\n      jump\t// in\n    tag_273:\n        /* \"#utility.yul\":7100:7171   */\n      tag_274\n        /* \"#utility.yul\":7164:7170   */\n      dup2\n        /* \"#utility.yul\":7159:7162   */\n      dup6\n        /* \"#utility.yul\":7100:7171   */\n      tag_153\n      jump\t// in\n    tag_274:\n        /* \"#utility.yul\":7093:7171   */\n      swap4\n      pop\n        /* \"#utility.yul\":7180:7245   */\n      tag_275\n        /* \"#utility.yul\":7238:7244   */\n      dup2\n        /* \"#utility.yul\":7233:7236   */\n      dup6\n        /* \"#utility.yul\":7226:7230   */\n      0x20\n        /* \"#utility.yul\":7219:7224   */\n      dup7\n        /* \"#utility.yul\":7215:7231   */\n      add\n        /* \"#utility.yul\":7180:7245   */\n      tag_154\n      jump\t// in\n    tag_275:\n        /* \"#utility.yul\":7270:7299   */\n      tag_276\n        /* \"#utility.yul\":7292:7298   */\n      dup2\n        /* \"#utility.yul\":7270:7299   */\n      tag_133\n      jump\t// in\n    tag_276:\n        /* \"#utility.yul\":7265:7268   */\n      dup5\n        /* \"#utility.yul\":7261:7300   */\n      add\n        /* \"#utility.yul\":7254:7300   */\n      swap2\n      pop\n        /* \"#utility.yul\":7021:7306   */\n      pop\n        /* \"#utility.yul\":6929:7306   */\n      swap3\n      swap2\n      pop\n      pop\n      jump\t// out\n        /* \"#utility.yul\":7312:7450   */\n    tag_156:\n        /* \"#utility.yul\":7403:7409   */\n      0x00\n        /* \"#utility.yul\":7437:7442   */\n      dup2\n        /* \"#utility.yul\":7431:7443   */\n      mload\n        /* \"#utility.yul\":7421:7443   */\n      swap1\n      pop\n        /* \"#utility.yul\":7312:7450   */\n      swap2\n      swap1\n      pop\n      jump\t// out\n        /* \"#utility.yul\":7456:7664   */\n    tag_157:\n        /* \"#utility.yul\":7579:7590   */\n      0x00\n        /* \"#utility.yul\":7613:7619   */\n      dup3\n        /* \"#utility.yul\":7608:7611   */\n      dup3\n        /* \"#utility.yul\":7601:7620   */\n      mstore\n        /* \"#utility.yul\":7653:7657   */\n      0x20\n        /* \"#utility.yul\":7648:7651   */\n      dup3\n        /* \"#utility.yul\":7644:7658   */\n      add\n        /* \"#utility.yul\":7629:7658   */\n      swap1\n      pop\n        /* \"#utility.yul\":7456:7664   */\n      swap3\n      swap2\n      pop\n      pop\n      jump\t// out\n        /* \"#utility.yul\":7670:7826   */\n    tag_158:\n        /* \"#utility.yul\":7761:7765   */\n      0x00\n        /* \"#utility.yul\":7784:7787   */\n      dup2\n        /* \"#utility.yul\":7776:7787   */\n      swap1\n      pop\n        /* \"#utility.yul\":7814:7818   */\n      0x20\n        /* \"#utility.yul\":7809:7812   */\n      dup3\n        /* \"#utility.yul\":7805:7819   */\n      add\n        /* \"#utility.yul\":7797:7819   */\n      swap1\n      pop\n        /* \"#utility.yul\":7670:7826   */\n      swap2\n      swap1\n      pop\n      jump\t// out\n        /* \"#utility.yul\":7832:7940   */\n    tag_159:\n        /* \"#utility.yul\":7909:7933   */\n      tag_281\n        /* \"#utility.yul\":7927:7932   */\n      dup2\n        /* \"#utility.yul\":7909:7933   */\n      tag_141\n      jump\t// in\n    tag_281:\n        /* \"#utility.yul\":7904:7907   */\n      dup3\n        /* \"#utility.yul\":7897:7934   */\n      mstore\n        /* \"#utility.yul\":7832:7940   */\n      pop\n      pop\n      jump\t// out\n        /* \"#utility.yul\":7946:8054   */\n    tag_160:\n        /* \"#utility.yul\":8023:8047   */\n      tag_283\n        /* \"#utility.yul\":8041:8046   */\n      dup2\n        /* \"#utility.yul\":8023:8047   */\n      tag_146\n      jump\t// in\n    tag_283:\n        /* \"#utility.yul\":8018:8021   */\n      dup3\n        /* \"#utility.yul\":8011:8048   */\n      mstore\n        /* \"#utility.yul\":7946:8054   */\n      pop\n      pop\n      jump\t// out\n        /* \"#utility.yul\":8060:8159   */\n    tag_161:\n        /* \"#utility.yul\":8131:8152   */\n      tag_285\n        /* \"#utility.yul\":8146:8151   */\n      dup2\n        /* \"#utility.yul\":8131:8152   */\n      tag_150\n      jump\t// in\n    tag_285:\n        /* \"#utility.yul\":8126:8129   */\n      dup3\n        /* \"#utility.yul\":8119:8153   */\n      mstore\n        /* \"#utility.yul\":8060:8159   */\n      pop\n      pop\n      jump\t// out\n        /* \"#utility.yul\":8245:9103   */\n    tag_162:\n        /* \"#utility.yul\":8380:8384   */\n      0x80\n        /* \"#utility.yul\":8375:8378   */\n      dup3\n        /* \"#utility.yul\":8371:8385   */\n      add\n        /* \"#utility.yul\":8472:8476   */\n      0x00\n        /* \"#utility.yul\":8465:8470   */\n      dup3\n        /* \"#utility.yul\":8461:8477   */\n      add\n        /* \"#utility.yul\":8455:8478   */\n      mload\n        /* \"#utility.yul\":8491:8554   */\n      tag_287\n        /* \"#utility.yul\":8548:8552   */\n      0x00\n        /* \"#utility.yul\":8543:8546   */\n      dup6\n        /* \"#utility.yul\":8539:8553   */\n      add\n        /* \"#utility.yul\":8525:8537   */\n      dup3\n        /* \"#utility.yul\":8491:8554   */\n      tag_159\n      jump\t// in\n    tag_287:\n        /* \"#utility.yul\":8395:8564   */\n      pop\n        /* \"#utility.yul\":8650:8654   */\n      0x20\n        /* \"#utility.yul\":8643:8648   */\n      dup3\n        /* \"#utility.yul\":8639:8655   */\n      add\n        /* \"#utility.yul\":8633:8656   */\n      mload\n        /* \"#utility.yul\":8669:8732   */\n      tag_288\n        /* \"#utility.yul\":8726:8730   */\n      0x20\n        /* \"#utility.yul\":8721:8724   */\n      dup6\n        /* \"#utility.yul\":8717:8731   */\n      add\n        /* \"#utility.yul\":8703:8715   */\n      dup3\n        /* \"#utility.yul\":8669:8732   */\n      tag_160\n      jump\t// in\n    tag_288:\n        /* \"#utility.yul\":8574:8742   */\n      pop\n        /* \"#utility.yul\":8831:8835   */\n      0x40\n        /* \"#utility.yul\":8824:8829   */\n      dup3\n        /* \"#utility.yul\":8820:8836   */\n      add\n        /* \"#utility.yul\":8814:8837   */\n      mload\n        /* \"#utility.yul\":8850:8907   */\n      tag_289\n        /* \"#utility.yul\":8901:8905   */\n      0x40\n        /* \"#utility.yul\":8896:8899   */\n      dup6\n        /* \"#utility.yul\":8892:8906   */\n      add\n        /* \"#utility.yul\":8878:8890   */\n      dup3\n        /* \"#utility.yul\":8850:8907   */\n      tag_161\n      jump\t// in\n    tag_289:\n        /* \"#utility.yul\":8752:8917   */\n      pop\n        /* \"#utility.yul\":9004:9008   */\n      0x60\n        /* \"#utility.yul\":8997:9002   */\n      dup3\n        /* \"#utility.yul\":8993:9009   */\n      add\n        /* \"#utility.yul\":8987:9010   */\n      mload\n        /* \"#utility.yul\":9023:9086   */\n      tag_290\n        /* \"#utility.yul\":9080:9084   */\n      0x60\n        /* \"#utility.yul\":9075:9078   */\n      dup6\n        /* \"#utility.yul\":9071:9085   */\n      add\n        /* \"#utility.yul\":9057:9069   */\n      dup3\n        /* \"#utility.yul\":9023:9086   */\n      tag_160\n      jump\t// in\n    tag_290:\n        /* \"#utility.yul\":8927:9096   */\n      pop\n        /* \"#utility.yul\":8349:9103   */\n      pop\n        /* \"#utility.yul\":8245:9103   */\n      pop\n      pop\n      jump\t// out\n        /* \"#utility.yul\":9109:9384   */\n    tag_163:\n        /* \"#utility.yul\":9226:9236   */\n      0x00\n        /* \"#utility.yul\":9247:9341   */\n      tag_292\n        /* \"#utility.yul\":9337:9340   */\n      dup4\n        /* \"#utility.yul\":9329:9335   */\n      dup4\n        /* \"#utility.yul\":9247:9341   */\n      tag_162\n      jump\t// in\n    tag_292:\n        /* \"#utility.yul\":9373:9377   */\n      0x80\n        /* \"#utility.yul\":9368:9371   */\n      dup4\n        /* \"#utility.yul\":9364:9378   */\n      add\n        /* \"#utility.yul\":9350:9378   */\n      swap1\n      pop\n        /* \"#utility.yul\":9109:9384   */\n      swap3\n      swap2\n      pop\n      pop\n      jump\t// out\n        /* \"#utility.yul\":9390:9527   */\n    tag_164:\n        /* \"#utility.yul\":9484:9488   */\n      0x00\n        /* \"#utility.yul\":9516:9520   */\n      0x20\n        /* \"#utility.yul\":9511:9514   */\n      dup3\n        /* \"#utility.yul\":9507:9521   */\n      add\n        /* \"#utility.yul\":9499:9521   */\n      swap1\n      pop\n        /* \"#utility.yul\":9390:9527   */\n      swap2\n      swap1\n      pop\n      jump\t// out\n        /* \"#utility.yul\":9617:10541   */\n    tag_165:\n        /* \"#utility.yul\":9784:9787   */\n      0x00\n        /* \"#utility.yul\":9813:9891   */\n      tag_295\n        /* \"#utility.yul\":9885:9890   */\n      dup3\n        /* \"#utility.yul\":9813:9891   */\n      tag_156\n      jump\t// in\n    tag_295:\n        /* \"#utility.yul\":9907:10017   */\n      tag_296\n        /* \"#utility.yul\":10010:10016   */\n      dup2\n        /* \"#utility.yul\":10005:10008   */\n      dup6\n        /* \"#utility.yul\":9907:10017   */\n      tag_157\n      jump\t// in\n    tag_296:\n        /* \"#utility.yul\":9900:10017   */\n      swap4\n      pop\n        /* \"#utility.yul\":10041:10121   */\n      tag_297\n        /* \"#utility.yul\":10115:10120   */\n      dup4\n        /* \"#utility.yul\":10041:10121   */\n      tag_158\n      jump\t// in\n    tag_297:\n        /* \"#utility.yul\":10144:10151   */\n      dup1\n        /* \"#utility.yul\":10175:10176   */\n      0x00\n        /* \"#utility.yul\":10160:10516   */\n    tag_298:\n        /* \"#utility.yul\":10185:10191   */\n      dup4\n        /* \"#utility.yul\":10182:10183   */\n      dup2\n        /* \"#utility.yul\":10179:10192   */\n      lt\n        /* \"#utility.yul\":10160:10516   */\n      iszero\n      tag_300\n      jumpi\n        /* \"#utility.yul\":10261:10267   */\n      dup2\n        /* \"#utility.yul\":10255:10268   */\n      mload\n        /* \"#utility.yul\":10288:10399   */\n      tag_301\n        /* \"#utility.yul\":10395:10398   */\n      dup9\n        /* \"#utility.yul\":10380:10393   */\n      dup3\n        /* \"#utility.yul\":10288:10399   */\n      tag_163\n      jump\t// in\n    tag_301:\n        /* \"#utility.yul\":10281:10399   */\n      swap8\n      pop\n        /* \"#utility.yul\":10422:10506   */\n      tag_302\n        /* \"#utility.yul\":10499:10505   */\n      dup4\n        /* \"#utility.yul\":10422:10506   */\n      tag_164\n      jump\t// in\n    tag_302:\n        /* \"#utility.yul\":10412:10506   */\n      swap3\n      pop\n        /* \"#utility.yul\":10220:10516   */\n      pop\n        /* \"#utility.yul\":10207:10208   */\n      0x01\n        /* \"#utility.yul\":10204:10205   */\n      dup2\n        /* \"#utility.yul\":10200:10209   */\n      add\n        /* \"#utility.yul\":10195:10209   */\n      swap1\n      pop\n        /* \"#utility.yul\":10160:10516   */\n      jump(tag_298)\n    tag_300:\n        /* \"#utility.yul\":10164:10178   */\n      pop\n        /* \"#utility.yul\":10532:10535   */\n      dup6\n        /* \"#utility.yul\":10525:10535   */\n      swap4\n      pop\n        /* \"#utility.yul\":9789:10541   */\n      pop\n      pop\n      pop\n        /* \"#utility.yul\":9617:10541   */\n      swap3\n      swap2\n      pop\n      pop\n      jump\t// out\n        /* \"#utility.yul\":10547:11549   */\n    tag_41:\n        /* \"#utility.yul\":10870:10874   */\n      0x00\n        /* \"#utility.yul\":10908:10911   */\n      0xa0\n        /* \"#utility.yul\":10897:10906   */\n      dup3\n        /* \"#utility.yul\":10893:10912   */\n      add\n        /* \"#utility.yul\":10885:10912   */\n      swap1\n      pop\n        /* \"#utility.yul\":10922:10993   */\n      tag_304\n        /* \"#utility.yul\":10990:10991   */\n      0x00\n        /* \"#utility.yul\":10979:10988   */\n      dup4\n        /* \"#utility.yul\":10975:10992   */\n      add\n        /* \"#utility.yul\":10966:10972   */\n      dup9\n        /* \"#utility.yul\":10922:10993   */\n      tag_144\n      jump\t// in\n    tag_304:\n        /* \"#utility.yul\":11040:11049   */\n      dup2\n        /* \"#utility.yul\":11034:11038   */\n      dup2\n        /* \"#utility.yul\":11030:11050   */\n      sub\n        /* \"#utility.yul\":11025:11027   */\n      0x20\n        /* \"#utility.yul\":11014:11023   */\n      dup4\n        /* \"#utility.yul\":11010:11028   */\n      add\n        /* \"#utility.yul\":11003:11051   */\n      mstore\n        /* \"#utility.yul\":11068:11146   */\n      tag_305\n        /* \"#utility.yul\":11141:11145   */\n      dup2\n        /* \"#utility.yul\":11132:11138   */\n      dup8\n        /* \"#utility.yul\":11068:11146   */\n      tag_155\n      jump\t// in\n    tag_305:\n        /* \"#utility.yul\":11060:11146   */\n      swap1\n      pop\n        /* \"#utility.yul\":11156:11228   */\n      tag_306\n        /* \"#utility.yul\":11224:11226   */\n      0x40\n        /* \"#utility.yul\":11213:11222   */\n      dup4\n        /* \"#utility.yul\":11209:11227   */\n      add\n        /* \"#utility.yul\":11200:11206   */\n      dup7\n        /* \"#utility.yul\":11156:11228   */\n      tag_147\n      jump\t// in\n    tag_306:\n        /* \"#utility.yul\":11238:11310   */\n      tag_307\n        /* \"#utility.yul\":11306:11308   */\n      0x60\n        /* \"#utility.yul\":11295:11304   */\n      dup4\n        /* \"#utility.yul\":11291:11309   */\n      add\n        /* \"#utility.yul\":11282:11288   */\n      dup6\n        /* \"#utility.yul\":11238:11310   */\n      tag_144\n      jump\t// in\n    tag_307:\n        /* \"#utility.yul\":11358:11367   */\n      dup2\n        /* \"#utility.yul\":11352:11356   */\n      dup2\n        /* \"#utility.yul\":11348:11368   */\n      sub\n        /* \"#utility.yul\":11342:11345   */\n      0x80\n        /* \"#utility.yul\":11331:11340   */\n      dup4\n        /* \"#utility.yul\":11327:11346   */\n      add\n        /* \"#utility.yul\":11320:11369   */\n      mstore\n        /* \"#utility.yul\":11386:11542   */\n      tag_308\n        /* \"#utility.yul\":11537:11541   */\n      dup2\n        /* \"#utility.yul\":11528:11534   */\n      dup5\n        /* \"#utility.yul\":11386:11542   */\n      tag_165\n      jump\t// in\n    tag_308:\n        /* \"#utility.yul\":11378:11542   */\n      swap1\n      pop\n        /* \"#utility.yul\":10547:11549   */\n      swap7\n      swap6\n      pop\n      pop\n      pop\n      pop\n      pop\n      pop\n      jump\t// out\n        /* \"#utility.yul\":11555:11615   */\n    tag_166:\n        /* \"#utility.yul\":11583:11586   */\n      0x00\n        /* \"#utility.yul\":11604:11609   */\n      dup2\n        /* \"#utility.yul\":11597:11609   */\n      swap1\n      pop\n        /* \"#utility.yul\":11555:11615   */\n      swap2\n      swap1\n      pop\n      jump\t// out\n        /* \"#utility.yul\":11621:11763   */\n    tag_167:\n        /* \"#utility.yul\":11671:11680   */\n      0x00\n        /* \"#utility.yul\":11704:11757   */\n      tag_311\n        /* \"#utility.yul\":11722:11756   */\n      tag_312\n        /* \"#utility.yul\":11731:11755   */\n      tag_313\n        /* \"#utility.yul\":11749:11754   */\n      dup5\n        /* \"#utility.yul\":11731:11755   */\n      tag_145\n      jump\t// in\n    tag_313:\n        /* \"#utility.yul\":11722:11756   */\n      tag_166\n      jump\t// in\n    tag_312:\n        /* \"#utility.yul\":11704:11757   */\n      tag_145\n      jump\t// in\n    tag_311:\n        /* \"#utility.yul\":11691:11757   */\n      swap1\n      pop\n        /* \"#utility.yul\":11621:11763   */\n      swap2\n      swap1\n      pop\n      jump\t// out\n        /* \"#utility.yul\":11769:11895   */\n    tag_168:\n        /* \"#utility.yul\":11819:11828   */\n      0x00\n        /* \"#utility.yul\":11852:11889   */\n      tag_315\n        /* \"#utility.yul\":11883:11888   */\n      dup3\n        /* \"#utility.yul\":11852:11889   */\n      tag_167\n      jump\t// in\n    tag_315:\n        /* \"#utility.yul\":11839:11889   */\n      swap1\n      pop\n        /* \"#utility.yul\":11769:11895   */\n      swap2\n      swap1\n      pop\n      jump\t// out\n        /* \"#utility.yul\":11901:12047   */\n    tag_169:\n        /* \"#utility.yul\":11971:11980   */\n      0x00\n        /* \"#utility.yul\":12004:12041   */\n      tag_317\n        /* \"#utility.yul\":12035:12040   */\n      dup3\n        /* \"#utility.yul\":12004:12041   */\n      tag_168\n      jump\t// in\n    tag_317:\n        /* \"#utility.yul\":11991:12041   */\n      swap1\n      pop\n        /* \"#utility.yul\":11901:12047   */\n      swap2\n      swap1\n      pop\n      jump\t// out\n        /* \"#utility.yul\":12053:12224   */\n    tag_170:\n        /* \"#utility.yul\":12160:12217   */\n      tag_319\n        /* \"#utility.yul\":12211:12216   */\n      dup2\n        /* \"#utility.yul\":12160:12217   */\n      tag_169\n      jump\t// in\n    tag_319:\n        /* \"#utility.yul\":12155:12158   */\n      dup3\n        /* \"#utility.yul\":12148:12218   */\n      mstore\n        /* \"#utility.yul\":12053:12224   */\n      pop\n      pop\n      jump\t// out\n        /* \"#utility.yul\":12230:12492   */\n    tag_46:\n        /* \"#utility.yul\":12343:12347   */\n      0x00\n        /* \"#utility.yul\":12381:12383   */\n      0x20\n        /* \"#utility.yul\":12370:12379   */\n      dup3\n        /* \"#utility.yul\":12366:12384   */\n      add\n        /* \"#utility.yul\":12358:12384   */\n      swap1\n      pop\n        /* \"#utility.yul\":12394:12485   */\n      tag_321\n        /* \"#utility.yul\":12482:12483   */\n      0x00\n        /* \"#utility.yul\":12471:12480   */\n      dup4\n        /* \"#utility.yul\":12467:12484   */\n      add\n        /* \"#utility.yul\":12458:12464   */\n      dup5\n        /* \"#utility.yul\":12394:12485   */\n      tag_170\n      jump\t// in\n    tag_321:\n        /* \"#utility.yul\":12230:12492   */\n      swap3\n      swap2\n      pop\n      pop\n      jump\t// out\n        /* \"#utility.yul\":12498:12614   */\n    tag_171:\n        /* \"#utility.yul\":12568:12589   */\n      tag_323\n        /* \"#utility.yul\":12583:12588   */\n      dup2\n        /* \"#utility.yul\":12568:12589   */\n      tag_150\n      jump\t// in\n    tag_323:\n        /* \"#utility.yul\":12561:12566   */\n      dup2\n        /* \"#utility.yul\":12558:12590   */\n      eq\n        /* \"#utility.yul\":12548:12608   */\n      tag_324\n      jumpi\n        /* \"#utility.yul\":12604:12605   */\n      0x00\n        /* \"#utility.yul\":12601:12602   */\n      dup1\n        /* \"#utility.yul\":12594:12606   */\n      revert\n        /* \"#utility.yul\":12548:12608   */\n    tag_324:\n        /* \"#utility.yul\":12498:12614   */\n      pop\n      jump\t// out\n        /* \"#utility.yul\":12620:12753   */\n    tag_172:\n        /* \"#utility.yul\":12663:12668   */\n      0x00\n        /* \"#utility.yul\":12701:12707   */\n      dup2\n        /* \"#utility.yul\":12688:12708   */\n      calldataload\n        /* \"#utility.yul\":12679:12708   */\n      swap1\n      pop\n        /* \"#utility.yul\":12717:12747   */\n      tag_326\n        /* \"#utility.yul\":12741:12746   */\n      dup2\n        /* \"#utility.yul\":12717:12747   */\n      tag_171\n      jump\t// in\n    tag_326:\n        /* \"#utility.yul\":12620:12753   */\n      swap3\n      swap2\n      pop\n      pop\n      jump\t// out\n        /* \"#utility.yul\":12759:13518   */\n    tag_60:\n        /* \"#utility.yul\":12842:12848   */\n      0x00\n        /* \"#utility.yul\":12850:12856   */\n      dup1\n        /* \"#utility.yul\":12858:12864   */\n      0x00\n        /* \"#utility.yul\":12866:12872   */\n      dup1\n        /* \"#utility.yul\":12915:12918   */\n      0x80\n        /* \"#utility.yul\":12903:12912   */\n      dup6\n        /* \"#utility.yul\":12894:12901   */\n      dup8\n        /* \"#utility.yul\":12890:12913   */\n      sub\n        /* \"#utility.yul\":12886:12919   */\n      slt\n        /* \"#utility.yul\":12883:13003   */\n      iszero\n      tag_328\n      jumpi\n        /* \"#utility.yul\":12922:13001   */\n      tag_329\n      tag_129\n      jump\t// in\n    tag_329:\n        /* \"#utility.yul\":12883:13003   */\n    tag_328:\n        /* \"#utility.yul\":13042:13043   */\n      0x00\n        /* \"#utility.yul\":13067:13120   */\n      tag_330\n        /* \"#utility.yul\":13112:13119   */\n      dup8\n        /* \"#utility.yul\":13103:13109   */\n      dup3\n        /* \"#utility.yul\":13092:13101   */\n      dup9\n        /* \"#utility.yul\":13088:13110   */\n      add\n        /* \"#utility.yul\":13067:13120   */\n      tag_143\n      jump\t// in\n    tag_330:\n        /* \"#utility.yul\":13057:13120   */\n      swap5\n      pop\n        /* \"#utility.yul\":13013:13130   */\n      pop\n        /* \"#utility.yul\":13169:13171   */\n      0x20\n        /* \"#utility.yul\":13195:13248   */\n      tag_331\n        /* \"#utility.yul\":13240:13247   */\n      dup8\n        /* \"#utility.yul\":13231:13237   */\n      dup3\n        /* \"#utility.yul\":13220:13229   */\n      dup9\n        /* \"#utility.yul\":13216:13238   */\n      add\n        /* \"#utility.yul\":13195:13248   */\n      tag_143\n      jump\t// in\n    tag_331:\n        /* \"#utility.yul\":13185:13248   */\n      swap4\n      pop\n        /* \"#utility.yul\":13140:13258   */\n      pop\n        /* \"#utility.yul\":13297:13299   */\n      0x40\n        /* \"#utility.yul\":13323:13376   */\n      tag_332\n        /* \"#utility.yul\":13368:13375   */\n      dup8\n        /* \"#utility.yul\":13359:13365   */\n      dup3\n        /* \"#utility.yul\":13348:13357   */\n      dup9\n        /* \"#utility.yul\":13344:13366   */\n      add\n        /* \"#utility.yul\":13323:13376   */\n      tag_143\n      jump\t// in\n    tag_332:\n        /* \"#utility.yul\":13313:13376   */\n      swap3\n      pop\n        /* \"#utility.yul\":13268:13386   */\n      pop\n        /* \"#utility.yul\":13425:13427   */\n      0x60\n        /* \"#utility.yul\":13451:13501   */\n      tag_333\n        /* \"#utility.yul\":13493:13500   */\n      dup8\n        /* \"#utility.yul\":13484:13490   */\n      dup3\n        /* \"#utility.yul\":13473:13482   */\n      dup9\n        /* \"#utility.yul\":13469:13491   */\n      add\n        /* \"#utility.yul\":13451:13501   */\n      tag_172\n      jump\t// in\n    tag_333:\n        /* \"#utility.yul\":13441:13501   */\n      swap2\n      pop\n        /* \"#utility.yul\":13396:13511   */\n      pop\n        /* \"#utility.yul\":12759:13518   */\n      swap3\n      swap6\n      swap2\n      swap5\n      pop\n      swap3\n      pop\n      jump\t// out\n        /* \"#utility.yul\":13524:13704   */\n    tag_173:\n        /* \"#utility.yul\":13572:13649   */\n      0x4e487b7100000000000000000000000000000000000000000000000000000000\n        /* \"#utility.yul\":13569:13570   */\n      0x00\n        /* \"#utility.yul\":13562:13650   */\n      mstore\n        /* \"#utility.yul\":13669:13673   */\n      0x22\n        /* \"#utility.yul\":13666:13667   */\n      0x04\n        /* \"#utility.yul\":13659:13674   */\n      mstore\n        /* \"#utility.yul\":13693:13697   */\n      0x24\n        /* \"#utility.yul\":13690:13691   */\n      0x00\n        /* \"#utility.yul\":13683:13698   */\n      revert\n        /* \"#utility.yul\":13710:14030   */\n    tag_97:\n        /* \"#utility.yul\":13754:13760   */\n      0x00\n        /* \"#utility.yul\":13791:13792   */\n      0x02\n        /* \"#utility.yul\":13785:13789   */\n      dup3\n        /* \"#utility.yul\":13781:13793   */\n      div\n        /* \"#utility.yul\":13771:13793   */\n      swap1\n      pop\n        /* \"#utility.yul\":13838:13839   */\n      0x01\n        /* \"#utility.yul\":13832:13836   */\n      dup3\n        /* \"#utility.yul\":13828:13840   */\n      and\n        /* \"#utility.yul\":13859:13877   */\n      dup1\n        /* \"#utility.yul\":13849:13930   */\n      tag_336\n      jumpi\n        /* \"#utility.yul\":13915:13919   */\n      0x7f\n        /* \"#utility.yul\":13907:13913   */\n      dup3\n        /* \"#utility.yul\":13903:13920   */\n      and\n        /* \"#utility.yul\":13893:13920   */\n      swap2\n      pop\n        /* \"#utility.yul\":13849:13930   */\n    tag_336:\n        /* \"#utility.yul\":13977:13979   */\n      0x20\n        /* \"#utility.yul\":13969:13975   */\n      dup3\n        /* \"#utility.yul\":13966:13980   */\n      lt\n        /* \"#utility.yul\":13946:13964   */\n      dup2\n        /* \"#utility.yul\":13943:13981   */\n      sub\n        /* \"#utility.yul\":13940:14024   */\n      tag_337\n      jumpi\n        /* \"#utility.yul\":13996:14014   */\n      tag_338\n      tag_173\n      jump\t// in\n    tag_338:\n        /* \"#utility.yul\":13940:14024   */\n    tag_337:\n        /* \"#utility.yul\":13761:14030   */\n      pop\n        /* \"#utility.yul\":13710:14030   */\n      swap2\n      swap1\n      pop\n      jump\t// out\n        /* \"#utility.yul\":14036:14177   */\n    tag_174:\n        /* \"#utility.yul\":14085:14089   */\n      0x00\n        /* \"#utility.yul\":14108:14111   */\n      dup2\n        /* \"#utility.yul\":14100:14111   */\n      swap1\n      pop\n        /* \"#utility.yul\":14131:14134   */\n      dup2\n        /* \"#utility.yul\":14128:14129   */\n      0x00\n        /* \"#utility.yul\":14121:14135   */\n      mstore\n        /* \"#utility.yul\":14165:14169   */\n      0x20\n        /* \"#utility.yul\":14162:14163   */\n      0x00\n        /* \"#utility.yul\":14152:14170   */\n      keccak256\n        /* \"#utility.yul\":14144:14170   */\n      swap1\n      pop\n        /* \"#utility.yul\":14036:14177   */\n      swap2\n      swap1\n      pop\n      jump\t// out\n        /* \"#utility.yul\":14183:14276   */\n    tag_175:\n        /* \"#utility.yul\":14220:14226   */\n      0x00\n        /* \"#utility.yul\":14267:14269   */\n      0x20\n        /* \"#utility.yul\":14262:14264   */\n      0x1f\n        /* \"#utility.yul\":14255:14260   */\n      dup4\n        /* \"#utility.yul\":14251:14265   */\n      add\n        /* \"#utility.yul\":14247:14270   */\n      div\n        /* \"#utility.yul\":14237:14270   */\n      swap1\n      pop\n        /* \"#utility.yul\":14183:14276   */\n      swap2\n      swap1\n      pop\n      jump\t// out\n        /* \"#utility.yul\":14282:14389   */\n    tag_176:\n        /* \"#utility.yul\":14326:14334   */\n      0x00\n        /* \"#utility.yul\":14376:14381   */\n      dup3\n        /* \"#utility.yul\":14370:14374   */\n      dup3\n        /* \"#utility.yul\":14366:14382   */\n      shl\n        /* \"#utility.yul\":14345:14382   */\n      swap1\n      pop\n        /* \"#utility.yul\":14282:14389   */\n      swap3\n      swap2\n      pop\n      pop\n      jump\t// out\n        /* \"#utility.yul\":14395:14788   */\n    tag_177:\n        /* \"#utility.yul\":14464:14470   */\n      0x00\n        /* \"#utility.yul\":14514:14515   */\n      0x08\n        /* \"#utility.yul\":14502:14512   */\n      dup4\n        /* \"#utility.yul\":14498:14516   */\n      mul\n        /* \"#utility.yul\":14537:14634   */\n      tag_343\n        /* \"#utility.yul\":14567:14633   */\n      0xffffffffffffffffffffffffffffffffffffffffffffffffffffffffffffffff\n        /* \"#utility.yul\":14556:14565   */\n      dup3\n        /* \"#utility.yul\":14537:14634   */\n      tag_176\n      jump\t// in\n    tag_343:\n        /* \"#utility.yul\":14655:14694   */\n      tag_344\n        /* \"#utility.yul\":14685:14693   */\n      dup7\n        /* \"#utility.yul\":14674:14683   */\n      dup4\n        /* \"#utility.yul\":14655:14694   */\n      tag_176\n      jump\t// in\n    tag_344:\n        /* \"#utility.yul\":14643:14694   */\n      swap6\n      pop\n        /* \"#utility.yul\":14727:14731   */\n      dup1\n        /* \"#utility.yul\":14723:14732   */\n      not\n        /* \"#utility.yul\":14716:14721   */\n      dup5\n        /* \"#utility.yul\":14712:14733   */\n      and\n        /* \"#utility.yul\":14703:14733   */\n      swap4\n      pop\n        /* \"#utility.yul\":14776:14780   */\n      dup1\n        /* \"#utility.yul\":14766:14774   */\n      dup7\n        /* \"#utility.yul\":14762:14781   */\n      and\n        /* \"#utility.yul\":14755:14760   */\n      dup5\n        /* \"#utility.yul\":14752:14782   */\n      or\n        /* \"#utility.yul\":14742:14782   */\n      swap3\n      pop\n        /* \"#utility.yul\":14471:14788   */\n      pop\n      pop\n        /* \"#utility.yul\":14395:14788   */\n      swap4\n      swap3\n      pop\n      pop\n      pop\n      jump\t// out\n        /* \"#utility.yul\":14794:14936   */\n    tag_178:\n        /* \"#utility.yul\":14844:14853   */\n      0x00\n        /* \"#utility.yul\":14877:14930   */\n      tag_346\n        /* \"#utility.yul\":14895:14929   */\n      tag_347\n        /* \"#utility.yul\":14904:14928   */\n      tag_348\n        /* \"#utility.yul\":14922:14927   */\n      dup5\n        /* \"#utility.yul\":14904:14928   */\n      tag_141\n      jump\t// in\n    tag_348:\n        /* \"#utility.yul\":14895:14929   */\n      tag_166\n      jump\t// in\n    tag_347:\n        /* \"#utility.yul\":14877:14930   */\n      tag_141\n      jump\t// in\n    tag_346:\n        /* \"#utility.yul\":14864:14930   */\n      swap1\n      pop\n        /* \"#utility.yul\":14794:14936   */\n      swap2\n      swap1\n      pop\n      jump\t// out\n        /* \"#utility.yul\":14942:15017   */\n    tag_179:\n        /* \"#utility.yul\":14985:14988   */\n      0x00\n        /* \"#utility.yul\":15006:15011   */\n      dup2\n        /* \"#utility.yul\":14999:15011   */\n      swap1\n      pop\n        /* \"#utility.yul\":14942:15017   */\n      swap2\n      swap1\n      pop\n      jump\t// out\n        /* \"#utility.yul\":15023:15292   */\n    tag_180:\n        /* \"#utility.yul\":15133:15172   */\n      tag_351\n        /* \"#utility.yul\":15164:15171   */\n      dup4\n        /* \"#utility.yul\":15133:15172   */\n      tag_178\n      jump\t// in\n    tag_351:\n        /* \"#utility.yul\":15194:15285   */\n      tag_352\n        /* \"#utility.yul\":15243:15284   */\n      tag_353\n        /* \"#utility.yul\":15267:15283   */\n      dup3\n        /* \"#utility.yul\":15243:15284   */\n      tag_179\n      jump\t// in\n    tag_353:\n        /* \"#utility.yul\":15235:15241   */\n      dup5\n        /* \"#utility.yul\":15228:15232   */\n      dup5\n        /* \"#utility.yul\":15222:15233   */\n      sload\n        /* \"#utility.yul\":15194:15285   */\n      tag_177\n      jump\t// in\n    tag_352:\n        /* \"#utility.yul\":15188:15192   */\n      dup3\n        /* \"#utility.yul\":15181:15286   */\n      sstore\n        /* \"#utility.yul\":15099:15292   */\n      pop\n        /* \"#utility.yul\":15023:15292   */\n      pop\n      pop\n      pop\n      jump\t// out\n        /* \"#utility.yul\":15298:15371   */\n    tag_181:\n        /* \"#utility.yul\":15343:15346   */\n      0x00\n        /* \"#utility.yul\":15298:15371   */\n      swap1\n      jump\t// out\n        /* \"#utility.yul\":15377:15566   */\n    tag_182:\n        /* \"#utility.yul\":15454:15486   */\n      tag_356\n      tag_181\n      jump\t// in\n    tag_356:\n        /* \"#utility.yul\":15495:15560   */\n      tag_357\n        /* \"#utility.yul\":15553:15559   */\n      dup2\n        /* \"#utility.yul\":15545:15551   */\n      dup5\n        /* \"#utility.yul\":15539:15543   */\n      dup5\n        /* \"#utility.yul\":15495:15560   */\n      tag_180\n      jump\t// in\n    tag_357:\n        /* \"#utility.yul\":15430:15566   */\n      pop\n        /* \"#utility.yul\":15377:15566   */\n      pop\n      pop\n      jump\t// out\n        /* \"#utility.yul\":15572:15758   */\n    tag_183:\n        /* \"#utility.yul\":15632:15752   */\n    tag_359:\n        /* \"#utility.yul\":15649:15652   */\n      dup2\n        /* \"#utility.yul\":15642:15647   */\n      dup2\n        /* \"#utility.yul\":15639:15653   */\n      lt\n        /* \"#utility.yul\":15632:15752   */\n      iszero\n      tag_361\n      jumpi\n        /* \"#utility.yul\":15703:15742   */\n      tag_362\n        /* \"#utility.yul\":15740:15741   */\n      0x00\n        /* \"#utility.yul\":15733:15738   */\n      dup3\n        /* \"#utility.yul\":15703:15742   */\n      tag_182\n      jump\t// in\n    tag_362:\n        /* \"#utility.yul\":15676:15677   */\n      0x01\n        /* \"#utility.yul\":15669:15674   */\n      dup2\n        /* \"#utility.yul\":15665:15678   */\n      add\n        /* \"#utility.yul\":15656:15678   */\n      swap1\n      pop\n        /* \"#utility.yul\":15632:15752   */\n      jump(tag_359)\n    tag_361:\n        /* \"#utility.yul\":15572:15758   */\n      pop\n      pop\n      jump\t// out\n        /* \"#utility.yul\":15764:16307   */\n    tag_184:\n        /* \"#utility.yul\":15865:15867   */\n      0x1f\n        /* \"#utility.yul\":15860:15863   */\n      dup3\n        /* \"#utility.yul\":15857:15868   */\n      gt\n        /* \"#utility.yul\":15854:16300   */\n      iszero\n      tag_364\n      jumpi\n        /* \"#utility.yul\":15899:15937   */\n      tag_365\n        /* \"#utility.yul\":15931:15936   */\n      dup2\n        /* \"#utility.yul\":15899:15937   */\n      tag_174\n      jump\t// in\n    tag_365:\n        /* \"#utility.yul\":15983:16012   */\n      tag_366\n        /* \"#utility.yul\":16001:16011   */\n      dup5\n        /* \"#utility.yul\":15983:16012   */\n      tag_175\n      jump\t// in\n    tag_366:\n        /* \"#utility.yul\":15973:15981   */\n      dup2\n        /* \"#utility.yul\":15969:16013   */\n      add\n        /* \"#utility.yul\":16166:16168   */\n      0x20\n        /* \"#utility.yul\":16154:16164   */\n      dup6\n        /* \"#utility.yul\":16151:16169   */\n      lt\n        /* \"#utility.yul\":16148:16197   */\n      iszero\n      tag_367\n      jumpi\n        /* \"#utility.yul\":16187:16195   */\n      dup2\n        /* \"#utility.yul\":16172:16195   */\n      swap1\n      pop\n        /* \"#utility.yul\":16148:16197   */\n    tag_367:\n        /* \"#utility.yul\":16210:16290   */\n      tag_368\n        /* \"#utility.yul\":16266:16288   */\n      tag_369\n        /* \"#utility.yul\":16284:16287   */\n      dup6\n        /* \"#utility.yul\":16266:16288   */\n      tag_175\n      jump\t// in\n    tag_369:\n        /* \"#utility.yul\":16256:16264   */\n      dup4\n        /* \"#utility.yul\":16252:16289   */\n      add\n        /* \"#utility.yul\":16239:16250   */\n      dup3\n        /* \"#utility.yul\":16210:16290   */\n      tag_183\n      jump\t// in\n    tag_368:\n        /* \"#utility.yul\":15869:16300   */\n      pop\n      pop\n        /* \"#utility.yul\":15854:16300   */\n    tag_364:\n        /* \"#utility.yul\":15764:16307   */\n      pop\n      pop\n      pop\n      jump\t// out\n        /* \"#utility.yul\":16313:16430   */\n    tag_185:\n        /* \"#utility.yul\":16367:16375   */\n      0x00\n        /* \"#utility.yul\":16417:16422   */\n      dup3\n        /* \"#utility.yul\":16411:16415   */\n      dup3\n        /* \"#utility.yul\":16407:16423   */\n      shr\n        /* \"#utility.yul\":16386:16423   */\n      swap1\n      pop\n        /* \"#utility.yul\":16313:16430   */\n      swap3\n      swap2\n      pop\n      pop\n      jump\t// out\n        /* \"#utility.yul\":16436:16605   */\n    tag_186:\n        /* \"#utility.yul\":16480:16486   */\n      0x00\n        /* \"#utility.yul\":16513:16564   */\n      tag_372\n        /* \"#utility.yul\":16561:16562   */\n      0x00\n        /* \"#utility.yul\":16557:16563   */\n      not\n        /* \"#utility.yul\":16549:16554   */\n      dup5\n        /* \"#utility.yul\":16546:16547   */\n      0x08\n        /* \"#utility.yul\":16542:16555   */\n      mul\n        /* \"#utility.yul\":16513:16564   */\n      tag_185\n      jump\t// in\n    tag_372:\n        /* \"#utility.yul\":16509:16565   */\n      not\n        /* \"#utility.yul\":16594:16598   */\n      dup1\n        /* \"#utility.yul\":16588:16592   */\n      dup4\n        /* \"#utility.yul\":16584:16599   */\n      and\n        /* \"#utility.yul\":16574:16599   */\n      swap2\n      pop\n        /* \"#utility.yul\":16487:16605   */\n      pop\n        /* \"#utility.yul\":16436:16605   */\n      swap3\n      swap2\n      pop\n      pop\n      jump\t// out\n        /* \"#utility.yul\":16610:16905   */\n    tag_187:\n        /* \"#utility.yul\":16686:16690   */\n      0x00\n        /* \"#utility.yul\":16832:16861   */\n      tag_374\n        /* \"#utility.yul\":16857:16860   */\n      dup4\n        /* \"#utility.yul\":16851:16855   */\n      dup4\n        /* \"#utility.yul\":16832:16861   */\n      tag_186\n      jump\t// in\n    tag_374:\n        /* \"#utility.yul\":16824:16861   */\n      swap2\n      pop\n        /* \"#utility.yul\":16894:16897   */\n      dup3\n        /* \"#utility.yul\":16891:16892   */\n      0x02\n        /* \"#utility.yul\":16887:16898   */\n      mul\n        /* \"#utility.yul\":16881:16885   */\n      dup3\n        /* \"#utility.yul\":16878:16899   */\n      or\n        /* \"#utility.yul\":16870:16899   */\n      swap1\n      pop\n        /* \"#utility.yul\":16610:16905   */\n      swap3\n      swap2\n      pop\n      pop\n      jump\t// out\n        /* \"#utility.yul\":16910:18305   */\n    tag_68:\n        /* \"#utility.yul\":17027:17064   */\n      tag_376\n        /* \"#utility.yul\":17060:17063   */\n      dup3\n        /* \"#utility.yul\":17027:17064   */\n      tag_152\n      jump\t// in\n    tag_376:\n        /* \"#utility.yul\":17129:17147   */\n      0xffffffffffffffff\n        /* \"#utility.yul\":17121:17127   */\n      dup2\n        /* \"#utility.yul\":17118:17148   */\n      gt\n        /* \"#utility.yul\":17115:17171   */\n      iszero\n      tag_377\n      jumpi\n        /* \"#utility.yul\":17151:17169   */\n      tag_378\n      tag_134\n      jump\t// in\n    tag_378:\n        /* \"#utility.yul\":17115:17171   */\n    tag_377:\n        /* \"#utility.yul\":17195:17233   */\n      tag_379\n        /* \"#utility.yul\":17227:17231   */\n      dup3\n        /* \"#utility.yul\":17221:17232   */\n      sload\n        /* \"#utility.yul\":17195:17233   */\n      tag_97\n      jump\t// in\n    tag_379:\n        /* \"#utility.yul\":17280:17347   */\n      tag_380\n        /* \"#utility.yul\":17340:17346   */\n      dup3\n        /* \"#utility.yul\":17332:17338   */\n      dup3\n        /* \"#utility.yul\":17326:17330   */\n      dup6\n        /* \"#utility.yul\":17280:17347   */\n      tag_184\n      jump\t// in\n    tag_380:\n        /* \"#utility.yul\":17374:17375   */\n      0x00\n        /* \"#utility.yul\":17398:17402   */\n      0x20\n        /* \"#utility.yul\":17385:17402   */\n      swap1\n      pop\n        /* \"#utility.yul\":17430:17432   */\n      0x1f\n        /* \"#utility.yul\":17422:17428   */\n      dup4\n        /* \"#utility.yul\":17419:17433   */\n      gt\n        /* \"#utility.yul\":17447:17448   */\n      0x01\n        /* \"#utility.yul\":17442:18060   */\n      dup2\n      eq\n      tag_382\n      jumpi\n        /* \"#utility.yul\":18104:18105   */\n      0x00\n        /* \"#utility.yul\":18121:18127   */\n      dup5\n        /* \"#utility.yul\":18118:18195   */\n      iszero\n      tag_383\n      jumpi\n        /* \"#utility.yul\":18170:18179   */\n      dup3\n        /* \"#utility.yul\":18165:18168   */\n      dup8\n        /* \"#utility.yul\":18161:18180   */\n      add\n        /* \"#utility.yul\":18155:18181   */\n      mload\n        /* \"#utility.yul\":18146:18181   */\n      swap1\n      pop\n        /* \"#utility.yul\":18118:18195   */\n    tag_383:\n        /* \"#utility.yul\":18221:18288   */\n      tag_384\n        /* \"#utility.yul\":18281:18287   */\n      dup6\n        /* \"#utility.yul\":18274:18279   */\n      dup3\n        /* \"#utility.yul\":18221:18288   */\n      tag_187\n      jump\t// in\n    tag_384:\n        /* \"#utility.yul\":18215:18219   */\n      dup7\n        /* \"#utility.yul\":18208:18289   */\n      sstore\n        /* \"#utility.yul\":18077:18299   */\n      pop\n        /* \"#utility.yul\":17412:18299   */\n      jump(tag_381)\n        /* \"#utility.yul\":17442:18060   */\n    tag_382:\n        /* \"#utility.yul\":17494:17498   */\n      0x1f\n        /* \"#utility.yul\":17490:17499   */\n      not\n        /* \"#utility.yul\":17482:17488   */\n      dup5\n        /* \"#utility.yul\":17478:17500   */\n      and\n        /* \"#utility.yul\":17528:17565   */\n      tag_385\n        /* \"#utility.yul\":17560:17564   */\n      dup7\n        /* \"#utility.yul\":17528:17565   */\n      tag_174\n      jump\t// in\n    tag_385:\n        /* \"#utility.yul\":17587:17588   */\n      0x00\n        /* \"#utility.yul\":17601:17809   */\n    tag_386:\n        /* \"#utility.yul\":17615:17622   */\n      dup3\n        /* \"#utility.yul\":17612:17613   */\n      dup2\n        /* \"#utility.yul\":17609:17623   */\n      lt\n        /* \"#utility.yul\":17601:17809   */\n      iszero\n      tag_388\n      jumpi\n        /* \"#utility.yul\":17694:17703   */\n      dup5\n        /* \"#utility.yul\":17689:17692   */\n      dup10\n        /* \"#utility.yul\":17685:17704   */\n      add\n        /* \"#utility.yul\":17679:17705   */\n      mload\n        /* \"#utility.yul\":17671:17677   */\n      dup3\n        /* \"#utility.yul\":17664:17706   */\n      sstore\n        /* \"#utility.yul\":17745:17746   */\n      0x01\n        /* \"#utility.yul\":17737:17743   */\n      dup3\n        /* \"#utility.yul\":17733:17747   */\n      add\n        /* \"#utility.yul\":17723:17747   */\n      swap2\n      pop\n        /* \"#utility.yul\":17792:17794   */\n      0x20\n        /* \"#utility.yul\":17781:17790   */\n      dup6\n        /* \"#utility.yul\":17777:17795   */\n      add\n        /* \"#utility.yul\":17764:17795   */\n      swap5\n      pop\n        /* \"#utility.yul\":17638:17642   */\n      0x20\n        /* \"#utility.yul\":17635:17636   */\n      dup2\n        /* \"#utility.yul\":17631:17643   */\n      add\n        /* \"#utility.yul\":17626:17643   */\n      swap1\n      pop\n        /* \"#utility.yul\":17601:17809   */\n      jump(tag_386)\n    tag_388:\n        /* \"#utility.yul\":17837:17843   */\n      dup7\n        /* \"#utility.yul\":17828:17835   */\n      dup4\n        /* \"#utility.yul\":17825:17844   */\n      lt\n        /* \"#utility.yul\":17822:18001   */\n      iszero\n      tag_389\n      jumpi\n        /* \"#utility.yul\":17895:17904   */\n      dup5\n        /* \"#utility.yul\":17890:17893   */\n      dup10\n        /* \"#utility.yul\":17886:17905   */\n      add\n        /* \"#utility.yul\":17880:17906   */\n      mload\n        /* \"#utility.yul\":17938:17986   */\n      tag_390\n        /* \"#utility.yul\":17980:17984   */\n      0x1f\n        /* \"#utility.yul\":17972:17978   */\n      dup10\n        /* \"#utility.yul\":17968:17985   */\n      and\n        /* \"#utility.yul\":17957:17966   */\n      dup3\n        /* \"#utility.yul\":17938:17986   */\n      tag_186\n      jump\t// in\n    tag_390:\n        /* \"#utility.yul\":17930:17936   */\n      dup4\n        /* \"#utility.yul\":17923:17987   */\n      sstore\n        /* \"#utility.yul\":17845:18001   */\n      pop\n        /* \"#utility.yul\":17822:18001   */\n    tag_389:\n        /* \"#utility.yul\":18047:18048   */\n      0x01\n        /* \"#utility.yul\":18043:18044   */\n      0x02\n        /* \"#utility.yul\":18035:18041   */\n      dup9\n        /* \"#utility.yul\":18031:18045   */\n      mul\n        /* \"#utility.yul\":18027:18049   */\n      add\n        /* \"#utility.yul\":18021:18025   */\n      dup9\n        /* \"#utility.yul\":18014:18050   */\n      sstore\n        /* \"#utility.yul\":17449:18060   */\n      pop\n      pop\n      pop\n        /* \"#utility.yul\":17412:18299   */\n    tag_381:\n      pop\n        /* \"#utility.yul\":17002:18305   */\n      pop\n      pop\n      pop\n        /* \"#utility.yul\":16910:18305   */\n      pop\n      pop\n      jump\t// out\n        /* \"#utility.yul\":18311:18844   */\n    tag_70:\n        /* \"#utility.yul\":18480:18484   */\n      0x00\n        /* \"#utility.yul\":18518:18520   */\n      0x60\n        /* \"#utility.yul\":18507:18516   */\n      dup3\n        /* \"#utility.yul\":18503:18521   */\n      add\n        /* \"#utility.yul\":18495:18521   */\n      swap1\n      pop\n        /* \"#utility.yul\":18567:18576   */\n      dup2\n        /* \"#utility.yul\":18561:18565   */\n      dup2\n        /* \"#utility.yul\":18557:18577   */\n      sub\n        /* \"#utility.yul\":18553:18554   */\n      0x00\n        /* \"#utility.yul\":18542:18551   */\n      dup4\n        /* \"#utility.yul\":18538:18555   */\n      add\n        /* \"#utility.yul\":18531:18578   */\n      mstore\n        /* \"#utility.yul\":18595:18673   */\n      tag_392\n        /* \"#utility.yul\":18668:18672   */\n      dup2\n        /* \"#utility.yul\":18659:18665   */\n      dup7\n        /* \"#utility.yul\":18595:18673   */\n      tag_155\n      jump\t// in\n    tag_392:\n        /* \"#utility.yul\":18587:18673   */\n      swap1\n      pop\n        /* \"#utility.yul\":18683:18755   */\n      tag_393\n        /* \"#utility.yul\":18751:18753   */\n      0x20\n        /* \"#utility.yul\":18740:18749   */\n      dup4\n        /* \"#utility.yul\":18736:18754   */\n      add\n        /* \"#utility.yul\":18727:18733   */\n      dup6\n        /* \"#utility.yul\":18683:18755   */\n      tag_144\n      jump\t// in\n    tag_393:\n        /* \"#utility.yul\":18765:18837   */\n      tag_394\n        /* \"#utility.yul\":18833:18835   */\n      0x40\n        /* \"#utility.yul\":18822:18831   */\n      dup4\n        /* \"#utility.yul\":18818:18836   */\n      add\n        /* \"#utility.yul\":18809:18815   */\n      dup5\n        /* \"#utility.yul\":18765:18837   */\n      tag_144\n      jump\t// in\n    tag_394:\n        /* \"#utility.yul\":18311:18844   */\n      swap5\n      swap4\n      pop\n      pop\n      pop\n      pop\n      jump\t// out\n        /* \"#utility.yul\":18850:19182   */\n    tag_74:\n        /* \"#utility.yul\":18971:18975   */\n      0x00\n        /* \"#utility.yul\":19009:19011   */\n      0x40\n        /* \"#utility.yul\":18998:19007   */\n      dup3\n        /* \"#utility.yul\":18994:19012   */\n      add\n        /* \"#utility.yul\":18986:19012   */\n      swap1\n      pop\n        /* \"#utility.yul\":19022:19093   */\n      tag_396\n        /* \"#utility.yul\":19090:19091   */\n      0x00\n        /* \"#utility.yul\":19079:19088   */\n      dup4\n        /* \"#utility.yul\":19075:19092   */\n      add\n        /* \"#utility.yul\":19066:19072   */\n      dup6\n        /* \"#utility.yul\":19022:19093   */\n      tag_147\n      jump\t// in\n    tag_396:\n        /* \"#utility.yul\":19103:19175   */\n      tag_397\n        /* \"#utility.yul\":19171:19173   */\n      0x20\n        /* \"#utility.yul\":19160:19169   */\n      dup4\n        /* \"#utility.yul\":19156:19174   */\n      add\n        /* \"#utility.yul\":19147:19153   */\n      dup5\n        /* \"#utility.yul\":19103:19175   */\n      tag_144\n      jump\t// in\n    tag_397:\n        /* \"#utility.yul\":18850:19182   */\n      swap4\n      swap3\n      pop\n      pop\n      pop\n      jump\t// out\n        /* \"#utility.yul\":19188:19325   */\n    tag_188:\n        /* \"#utility.yul\":19242:19247   */\n      0x00\n        /* \"#utility.yul\":19273:19279   */\n      dup2\n        /* \"#utility.yul\":19267:19280   */\n      mload\n        /* \"#utility.yul\":19258:19280   */\n      swap1\n      pop\n        /* \"#utility.yul\":19289:19319   */\n      tag_399\n        /* \"#utility.yul\":19313:19318   */\n      dup2\n        /* \"#utility.yul\":19289:19319   */\n      tag_171\n      jump\t// in\n    tag_399:\n        /* \"#utility.yul\":19188:19325   */\n      swap3\n      swap2\n      pop\n      pop\n      jump\t// out\n        /* \"#utility.yul\":19331:19676   */\n    tag_78:\n        /* \"#utility.yul\":19398:19404   */\n      0x00\n        /* \"#utility.yul\":19447:19449   */\n      0x20\n        /* \"#utility.yul\":19435:19444   */\n      dup3\n        /* \"#utility.yul\":19426:19433   */\n      dup5\n        /* \"#utility.yul\":19422:19445   */\n      sub\n        /* \"#utility.yul\":19418:19450   */\n      slt\n        /* \"#utility.yul\":19415:19534   */\n      iszero\n      tag_401\n      jumpi\n        /* \"#utility.yul\":19453:19532   */\n      tag_402\n      tag_129\n      jump\t// in\n    tag_402:\n        /* \"#utility.yul\":19415:19534   */\n    tag_401:\n        /* \"#utility.yul\":19573:19574   */\n      0x00\n        /* \"#utility.yul\":19598:19659   */\n      tag_403\n        /* \"#utility.yul\":19651:19658   */\n      dup5\n        /* \"#utility.yul\":19642:19648   */\n      dup3\n        /* \"#utility.yul\":19631:19640   */\n      dup6\n        /* \"#utility.yul\":19627:19649   */\n      add\n        /* \"#utility.yul\":19598:19659   */\n      tag_188\n      jump\t// in\n    tag_403:\n        /* \"#utility.yul\":19588:19659   */\n      swap2\n      pop\n        /* \"#utility.yul\":19544:19669   */\n      pop\n        /* \"#utility.yul\":19331:19676   */\n      swap3\n      swap2\n      pop\n      pop\n      jump\t// out\n        /* \"#utility.yul\":19682:19853   */\n    tag_189:\n        /* \"#utility.yul\":19822:19845   */\n      0x546f6b656e207472616e73666572206661696c65640000000000000000000000\n        /* \"#utility.yul\":19818:19819   */\n      0x00\n        /* \"#utility.yul\":19810:19816   */\n      dup3\n        /* \"#utility.yul\":19806:19820   */\n      add\n        /* \"#utility.yul\":19799:19846   */\n      mstore\n        /* \"#utility.yul\":19682:19853   */\n      pop\n      jump\t// out\n        /* \"#utility.yul\":19859:20225   */\n    tag_190:\n        /* \"#utility.yul\":20001:20004   */\n      0x00\n        /* \"#utility.yul\":20022:20089   */\n      tag_406\n        /* \"#utility.yul\":20086:20088   */\n      0x15\n        /* \"#utility.yul\":20081:20084   */\n      dup4\n        /* \"#utility.yul\":20022:20089   */\n      tag_153\n      jump\t// in\n    tag_406:\n        /* \"#utility.yul\":20015:20089   */\n      swap2\n      pop\n        /* \"#utility.yul\":20098:20191   */\n      tag_407\n        /* \"#utility.yul\":20187:20190   */\n      dup3\n        /* \"#utility.yul\":20098:20191   */\n      tag_189\n      jump\t// in\n    tag_407:\n        /* \"#utility.yul\":20216:20218   */\n      0x20\n        /* \"#utility.yul\":20211:20214   */\n      dup3\n        /* \"#utility.yul\":20207:20219   */\n      add\n        /* \"#utility.yul\":20200:20219   */\n      swap1\n      pop\n        /* \"#utility.yul\":19859:20225   */\n      swap2\n      swap1\n      pop\n      jump\t// out\n        /* \"#utility.yul\":20231:20650   */\n    tag_81:\n        /* \"#utility.yul\":20397:20401   */\n      0x00\n        /* \"#utility.yul\":20435:20437   */\n      0x20\n        /* \"#utility.yul\":20424:20433   */\n      dup3\n        /* \"#utility.yul\":20420:20438   */\n      add\n        /* \"#utility.yul\":20412:20438   */\n      swap1\n      pop\n        /* \"#utility.yul\":20484:20493   */\n      dup2\n        /* \"#utility.yul\":20478:20482   */\n      dup2\n        /* \"#utility.yul\":20474:20494   */\n      sub\n        /* \"#utility.yul\":20470:20471   */\n      0x00\n        /* \"#utility.yul\":20459:20468   */\n      dup4\n        /* \"#utility.yul\":20455:20472   */\n      add\n        /* \"#utility.yul\":20448:20495   */\n      mstore\n        /* \"#utility.yul\":20512:20643   */\n      tag_409\n        /* \"#utility.yul\":20638:20642   */\n      dup2\n        /* \"#utility.yul\":20512:20643   */\n      tag_190\n      jump\t// in\n    tag_409:\n        /* \"#utility.yul\":20504:20643   */\n      swap1\n      pop\n        /* \"#utility.yul\":20231:20650   */\n      swap2\n      swap1\n      pop\n      jump\t// out\n        /* \"#utility.yul\":20656:20836   */\n    tag_85:\n        /* \"#utility.yul\":20704:20781   */\n      0x4e487b7100000000000000000000000000000000000000000000000000000000\n        /* \"#utility.yul\":20701:20702   */\n      0x00\n        /* \"#utility.yul\":20694:20782   */\n      mstore\n        /* \"#utility.yul\":20801:20805   */\n      0x32\n        /* \"#utility.yul\":20798:20799   */\n      0x04\n        /* \"#utility.yul\":20791:20806   */\n      mstore\n        /* \"#utility.yul\":20825:20829   */\n      0x24\n        /* \"#utility.yul\":20822:20823   */\n      0x00\n        /* \"#utility.yul\":20815:20830   */\n      revert\n        /* \"#utility.yul\":20842:21174   */\n    tag_91:\n        /* \"#utility.yul\":20963:20967   */\n      0x00\n        /* \"#utility.yul\":21001:21003   */\n      0x40\n        /* \"#utility.yul\":20990:20999   */\n      dup3\n        /* \"#utility.yul\":20986:21004   */\n      add\n        /* \"#utility.yul\":20978:21004   */\n      swap1\n      pop\n        /* \"#utility.yul\":21014:21085   */\n      tag_412\n        /* \"#utility.yul\":21082:21083   */\n      0x00\n        /* \"#utility.yul\":21071:21080   */\n      dup4\n        /* \"#utility.yul\":21067:21084   */\n      add\n        /* \"#utility.yul\":21058:21064   */\n      dup6\n        /* \"#utility.yul\":21014:21085   */\n      tag_144\n      jump\t// in\n    tag_412:\n        /* \"#utility.yul\":21095:21167   */\n      tag_413\n        /* \"#utility.yul\":21163:21165   */\n      0x20\n        /* \"#utility.yul\":21152:21161   */\n      dup4\n        /* \"#utility.yul\":21148:21166   */\n      add\n        /* \"#utility.yul\":21139:21145   */\n      dup5\n        /* \"#utility.yul\":21095:21167   */\n      tag_144\n      jump\t// in\n    tag_413:\n        /* \"#utility.yul\":20842:21174   */\n      swap4\n      swap3\n      pop\n      pop\n      pop\n      jump\t// out\n        /* \"#utility.yul\":21180:21721   */\n    tag_127:\n        /* \"#utility.yul\":21351:21355   */\n      0x00\n        /* \"#utility.yul\":21389:21392   */\n      0x80\n        /* \"#utility.yul\":21378:21387   */\n      dup3\n        /* \"#utility.yul\":21374:21393   */\n      add\n        /* \"#utility.yul\":21366:21393   */\n      swap1\n      pop\n        /* \"#utility.yul\":21403:21474   */\n      tag_415\n        /* \"#utility.yul\":21471:21472   */\n      0x00\n        /* \"#utility.yul\":21460:21469   */\n      dup4\n        /* \"#utility.yul\":21456:21473   */\n      add\n        /* \"#utility.yul\":21447:21453   */\n      dup8\n        /* \"#utility.yul\":21403:21474   */\n      tag_144\n      jump\t// in\n    tag_415:\n        /* \"#utility.yul\":21484:21556   */\n      tag_416\n        /* \"#utility.yul\":21552:21554   */\n      0x20\n        /* \"#utility.yul\":21541:21550   */\n      dup4\n        /* \"#utility.yul\":21537:21555   */\n      add\n        /* \"#utility.yul\":21528:21534   */\n      dup7\n        /* \"#utility.yul\":21484:21556   */\n      tag_144\n      jump\t// in\n    tag_416:\n        /* \"#utility.yul\":21566:21638   */\n      tag_417\n        /* \"#utility.yul\":21634:21636   */\n      0x40\n        /* \"#utility.yul\":21623:21632   */\n      dup4\n        /* \"#utility.yul\":21619:21637   */\n      add\n        /* \"#utility.yul\":21610:21616   */\n      dup6\n        /* \"#utility.yul\":21566:21638   */\n      tag_144\n      jump\t// in\n    tag_417:\n        /* \"#utility.yul\":21648:21714   */\n      tag_418\n        /* \"#utility.yul\":21710:21712   */\n      0x60\n        /* \"#utility.yul\":21699:21708   */\n      dup4\n        /* \"#utility.yul\":21695:21713   */\n      add\n        /* \"#utility.yul\":21686:21692   */\n      dup5\n        /* \"#utility.yul\":21648:21714   */\n      tag_151\n      jump\t// in\n    tag_418:\n        /* \"#utility.yul\":21180:21721   */\n      swap6\n      swap5\n      pop\n      pop\n      pop\n      pop\n      pop\n      jump\t// out\n\n    auxdata: 0xa26469706673582212200a6190dec163caaa2421b3e78f69c86e80710d5d263dd86f3b07c77cf68576b564736f6c634300081a0033\n}\n\nsub_1: assembly {\n        /* \"contracts/RDFCoinInter.sol\":183:761  contract RDFCoinInter is ERC20{... */\n      mstore(0x40, 0x80)\n        /* \"contracts/RDFCoinInter.sol\":324:325  2 */\n      0x02\n        /* \"contracts/RDFCoinInter.sol\":298:325  uint8 private _decimals = 2 */\n      0x05\n      exp(0x0100, 0x00)\n      dup2\n      sload\n      dup2\n      0xff\n      mul\n      not\n      and\n      swap1\n      dup4\n      0xff\n      and\n      mul\n      or\n      swap1\n      sstore\n      pop\n        /* \"contracts/RDFCoinInter.sol\":440:609  constructor() ERC20(\"RebellionDataFunder Coin\", \"RDFC\") {... */\n      callvalue\n      dup1\n      iszero\n      tag_1\n      jumpi\n      0x00\n      dup1\n      revert\n    tag_1:\n      pop\n        /* \"@openzeppelin/contracts/token/ERC20/ERC20.sol\":1896:2009  constructor(string memory name_, string memory symbol_) {... */\n      mload(0x40)\n      dup1\n      0x40\n      add\n      0x40\n      mstore\n      dup1\n      0x18\n      dup2\n      mstore\n      0x20\n      add\n      0x526562656c6c696f6e4461746146756e64657220436f696e0000000000000000\n      dup2\n      mstore\n      pop\n      mload(0x40)\n      dup1\n      0x40\n      add\n      0x40\n      mstore\n      dup1\n      0x04\n      dup2\n      mstore\n      0x20\n      add\n      0x5244464300000000000000000000000000000000000000000000000000000000\n      dup2\n      mstore\n      pop\n        /* \"@openzeppelin/contracts/token/ERC20/ERC20.sol\":1970:1975  name_ */\n      dup2\n        /* \"@openzeppelin/contracts/token/ERC20/ERC20.sol\":1962:1967  _name */\n      0x03\n        /* \"@openzeppelin/contracts/token/ERC20/ERC20.sol\":1962:1975  _name = name_ */\n      swap1\n      dup2\n      tag_5\n      swap2\n      swap1\n      tag_6\n      jump\t// in\n    tag_5:\n      pop\n        /* \"@openzeppelin/contracts/token/ERC20/ERC20.sol\":1995:2002  symbol_ */\n      dup1\n        /* \"@openzeppelin/contracts/token/ERC20/ERC20.sol\":1985:1992  _symbol */\n      0x04\n        /* \"@openzeppelin/contracts/token/ERC20/ERC20.sol\":1985:2002  _symbol = symbol_ */\n      swap1\n      dup2\n      tag_7\n      swap2\n      swap1\n      tag_6\n      jump\t// in\n    tag_7:\n      pop\n        /* \"@openzeppelin/contracts/token/ERC20/ERC20.sol\":1896:2009  constructor(string memory name_, string memory symbol_) {... */\n      pop\n      pop\n        /* \"contracts/RDFCoinInter.sol\":555:602  _mint(msg.sender, 100 * 10**uint256(_decimals)) */\n      tag_9\n        /* \"contracts/RDFCoinInter.sol\":561:571  msg.sender */\n      caller\n        /* \"contracts/RDFCoinInter.sol\":591:600  _decimals */\n      0x05\n      0x00\n      swap1\n      sload\n      swap1\n      0x0100\n      exp\n      swap1\n      div\n      0xff\n      and\n        /* \"contracts/RDFCoinInter.sol\":583:601  uint256(_decimals) */\n      0xff\n      and\n        /* \"contracts/RDFCoinInter.sol\":579:581  10 */\n      0x0a\n        /* \"contracts/RDFCoinInter.sol\":579:601  10**uint256(_decimals) */\n      tag_10\n      swap2\n      swap1\n      tag_11\n      jump\t// in\n    tag_10:\n        /* \"contracts/RDFCoinInter.sol\":573:576  100 */\n      0x64\n        /* \"contracts/RDFCoinInter.sol\":573:601  100 * 10**uint256(_decimals) */\n      tag_12\n      swap2\n      swap1\n      tag_13\n      jump\t// in\n    tag_12:\n        /* \"contracts/RDFCoinInter.sol\":555:560  _mint */\n      shl(0x20, tag_14)\n        /* \"contracts/RDFCoinInter.sol\":555:602  _mint(msg.sender, 100 * 10**uint256(_decimals)) */\n      0x20\n      shr\n      jump\t// in\n    tag_9:\n        /* \"contracts/RDFCoinInter.sol\":183:761  contract RDFCoinInter is ERC20{... */\n      jump(tag_15)\n        /* \"@openzeppelin/contracts/token/ERC20/ERC20.sol\":7721:7929  function _mint(address account, uint256 value) internal {... */\n    tag_14:\n        /* \"@openzeppelin/contracts/token/ERC20/ERC20.sol\":7810:7811  0 */\n      0x00\n        /* \"@openzeppelin/contracts/token/ERC20/ERC20.sol\":7791:7812  account == address(0) */\n      0xffffffffffffffffffffffffffffffffffffffff\n      and\n        /* \"@openzeppelin/contracts/token/ERC20/ERC20.sol\":7791:7798  account */\n      dup3\n        /* \"@openzeppelin/contracts/token/ERC20/ERC20.sol\":7791:7812  account == address(0) */\n      0xffffffffffffffffffffffffffffffffffffffff\n      and\n      sub\n        /* \"@openzeppelin/contracts/token/ERC20/ERC20.sol\":7787:7878  if (account == address(0)) {... */\n      tag_17\n      jumpi\n        /* \"@openzeppelin/contracts/token/ERC20/ERC20.sol\":7864:7865  0 */\n      0x00\n        /* \"@openzeppelin/contracts/token/ERC20/ERC20.sol\":7835:7867  ERC20InvalidReceiver(address(0)) */\n      mload(0x40)\n      0xec442f0500000000000000000000000000000000000000000000000000000000\n      dup2\n      mstore\n      0x04\n      add\n      tag_18\n      swap2\n      swap1\n      tag_19\n      jump\t// in\n    tag_18:\n      mload(0x40)\n      dup1\n      swap2\n      sub\n      swap1\n      revert\n        /* \"@openzeppelin/contracts/token/ERC20/ERC20.sol\":7787:7878  if (account == address(0)) {... */\n    tag_17:\n        /* \"@openzeppelin/contracts/token/ERC20/ERC20.sol\":7887:7922  _update(address(0), account, value) */\n      tag_20\n        /* \"@openzeppelin/contracts/token/ERC20/ERC20.sol\":7903:7904  0 */\n      0x00\n        /* \"@openzeppelin/contracts/token/ERC20/ERC20.sol\":7907:7914  account */\n      dup4\n        /* \"@openzeppelin/contracts/token/ERC20/ERC20.sol\":7916:7921  value */\n      dup4\n        /* \"@openzeppelin/contracts/token/ERC20/ERC20.sol\":7887:7894  _update */\n      shl(0x20, tag_21)\n        /* \"@openzeppelin/contracts/token/ERC20/ERC20.sol\":7887:7922  _update(address(0), account, value) */\n      0x20\n      shr\n      jump\t// in\n    tag_20:\n        /* \"@openzeppelin/contracts/token/ERC20/ERC20.sol\":7721:7929  function _mint(address account, uint256 value) internal {... */\n      pop\n      pop\n      jump\t// out\n        /* \"@openzeppelin/contracts/token/ERC20/ERC20.sol\":6271:7378  function _update(address from, address to, uint256 value) internal virtual {... */\n    tag_21:\n        /* \"@openzeppelin/contracts/token/ERC20/ERC20.sol\":6376:6377  0 */\n      0x00\n        /* \"@openzeppelin/contracts/token/ERC20/ERC20.sol\":6360:6378  from == address(0) */\n      0xffffffffffffffffffffffffffffffffffffffff\n      and\n        /* \"@openzeppelin/contracts/token/ERC20/ERC20.sol\":6360:6364  from */\n      dup4\n        /* \"@openzeppelin/contracts/token/ERC20/ERC20.sol\":6360:6378  from == address(0) */\n      0xffffffffffffffffffffffffffffffffffffffff\n      and\n      sub\n        /* \"@openzeppelin/contracts/token/ERC20/ERC20.sol\":6356:6896  if (from == address(0)) {... */\n      tag_23\n      jumpi\n        /* \"@openzeppelin/contracts/token/ERC20/ERC20.sol\":6512:6517  value */\n      dup1\n        /* \"@openzeppelin/contracts/token/ERC20/ERC20.sol\":6496:6508  _totalSupply */\n      0x02\n      0x00\n        /* \"@openzeppelin/contracts/token/ERC20/ERC20.sol\":6496:6517  _totalSupply += value */\n      dup3\n      dup3\n      sload\n      tag_24\n      swap2\n      swap1\n      tag_25\n      jump\t// in\n    tag_24:\n      swap3\n      pop\n      pop\n      dup2\n      swap1\n      sstore\n      pop\n        /* \"@openzeppelin/contracts/token/ERC20/ERC20.sol\":6356:6896  if (from == address(0)) {... */\n      jump(tag_26)\n    tag_23:\n        /* \"@openzeppelin/contracts/token/ERC20/ERC20.sol\":6548:6567  uint256 fromBalance */\n      0x00\n        /* \"@openzeppelin/contracts/token/ERC20/ERC20.sol\":6570:6579  _balances */\n      dup1\n        /* \"@openzeppelin/contracts/token/ERC20/ERC20.sol\":6570:6585  _balances[from] */\n      0x00\n        /* \"@openzeppelin/contracts/token/ERC20/ERC20.sol\":6580:6584  from */\n      dup6\n        /* \"@openzeppelin/contracts/token/ERC20/ERC20.sol\":6570:6585  _balances[from] */\n      0xffffffffffffffffffffffffffffffffffffffff\n      and\n      0xffffffffffffffffffffffffffffffffffffffff\n      and\n      dup2\n      mstore\n      0x20\n      add\n      swap1\n      dup2\n      mstore\n      0x20\n      add\n      0x00\n      keccak256\n      sload\n        /* \"@openzeppelin/contracts/token/ERC20/ERC20.sol\":6548:6585  uint256 fromBalance = _balances[from] */\n      swap1\n      pop\n        /* \"@openzeppelin/contracts/token/ERC20/ERC20.sol\":6617:6622  value */\n      dup2\n        /* \"@openzeppelin/contracts/token/ERC20/ERC20.sol\":6603:6614  fromBalance */\n      dup2\n        /* \"@openzeppelin/contracts/token/ERC20/ERC20.sol\":6603:6622  fromBalance < value */\n      lt\n        /* \"@openzeppelin/contracts/token/ERC20/ERC20.sol\":6599:6714  if (fromBalance < value) {... */\n      iszero\n      tag_27\n      jumpi\n        /* \"@openzeppelin/contracts/token/ERC20/ERC20.sol\":6674:6678  from */\n      dup4\n        /* \"@openzeppelin/contracts/token/ERC20/ERC20.sol\":6680:6691  fromBalance */\n      dup2\n        /* \"@openzeppelin/contracts/token/ERC20/ERC20.sol\":6693:6698  value */\n      dup4\n        /* \"@openzeppelin/contracts/token/ERC20/ERC20.sol\":6649:6699  ERC20InsufficientBalance(from, fromBalance, value) */\n      mload(0x40)\n      0xe450d38c00000000000000000000000000000000000000000000000000000000\n      dup2\n      mstore\n      0x04\n      add\n      tag_28\n      swap4\n      swap3\n      swap2\n      swap1\n      tag_29\n      jump\t// in\n    tag_28:\n      mload(0x40)\n      dup1\n      swap2\n      sub\n      swap1\n      revert\n        /* \"@openzeppelin/contracts/token/ERC20/ERC20.sol\":6599:6714  if (fromBalance < value) {... */\n    tag_27:\n        /* \"@openzeppelin/contracts/token/ERC20/ERC20.sol\":6866:6871  value */\n      dup2\n        /* \"@openzeppelin/contracts/token/ERC20/ERC20.sol\":6852:6863  fromBalance */\n      dup2\n        /* \"@openzeppelin/contracts/token/ERC20/ERC20.sol\":6852:6871  fromBalance - value */\n      sub\n        /* \"@openzeppelin/contracts/token/ERC20/ERC20.sol\":6834:6843  _balances */\n      0x00\n        /* \"@openzeppelin/contracts/token/ERC20/ERC20.sol\":6834:6849  _balances[from] */\n      dup1\n        /* \"@openzeppelin/contracts/token/ERC20/ERC20.sol\":6844:6848  from */\n      dup7\n        /* \"@openzeppelin/contracts/token/ERC20/ERC20.sol\":6834:6849  _balances[from] */\n      0xffffffffffffffffffffffffffffffffffffffff\n      and\n      0xffffffffffffffffffffffffffffffffffffffff\n      and\n      dup2\n      mstore\n      0x20\n      add\n      swap1\n      dup2\n      mstore\n      0x20\n      add\n      0x00\n      keccak256\n        /* \"@openzeppelin/contracts/token/ERC20/ERC20.sol\":6834:6871  _balances[from] = fromBalance - value */\n      dup2\n      swap1\n      sstore\n      pop\n        /* \"@openzeppelin/contracts/token/ERC20/ERC20.sol\":6534:6896  {... */\n      pop\n        /* \"@openzeppelin/contracts/token/ERC20/ERC20.sol\":6356:6896  if (from == address(0)) {... */\n    tag_26:\n        /* \"@openzeppelin/contracts/token/ERC20/ERC20.sol\":6924:6925  0 */\n      0x00\n        /* \"@openzeppelin/contracts/token/ERC20/ERC20.sol\":6910:6926  to == address(0) */\n      0xffffffffffffffffffffffffffffffffffffffff\n      and\n        /* \"@openzeppelin/contracts/token/ERC20/ERC20.sol\":6910:6912  to */\n      dup3\n        /* \"@openzeppelin/contracts/token/ERC20/ERC20.sol\":6910:6926  to == address(0) */\n      0xffffffffffffffffffffffffffffffffffffffff\n      and\n      sub\n        /* \"@openzeppelin/contracts/token/ERC20/ERC20.sol\":6906:7331  if (to == address(0)) {... */\n      tag_30\n      jumpi\n        /* \"@openzeppelin/contracts/token/ERC20/ERC20.sol\":7089:7094  value */\n      dup1\n        /* \"@openzeppelin/contracts/token/ERC20/ERC20.sol\":7073:7085  _totalSupply */\n      0x02\n      0x00\n        /* \"@openzeppelin/contracts/token/ERC20/ERC20.sol\":7073:7094  _totalSupply -= value */\n      dup3\n      dup3\n      sload\n      sub\n      swap3\n      pop\n      pop\n      dup2\n      swap1\n      sstore\n      pop\n        /* \"@openzeppelin/contracts/token/ERC20/ERC20.sol\":6906:7331  if (to == address(0)) {... */\n      jump(tag_31)\n    tag_30:\n        /* \"@openzeppelin/contracts/token/ERC20/ERC20.sol\":7301:7306  value */\n      dup1\n        /* \"@openzeppelin/contracts/token/ERC20/ERC20.sol\":7284:7293  _balances */\n      0x00\n        /* \"@openzeppelin/contracts/token/ERC20/ERC20.sol\":7284:7297  _balances[to] */\n      dup1\n        /* \"@openzeppelin/contracts/token/ERC20/ERC20.sol\":7294:7296  to */\n      dup5\n        /* \"@openzeppelin/contracts/token/ERC20/ERC20.sol\":7284:7297  _balances[to] */\n      0xffffffffffffffffffffffffffffffffffffffff\n      and\n      0xffffffffffffffffffffffffffffffffffffffff\n      and\n      dup2\n      mstore\n      0x20\n      add\n      swap1\n      dup2\n      mstore\n      0x20\n      add\n      0x00\n      keccak256\n      0x00\n        /* \"@openzeppelin/contracts/token/ERC20/ERC20.sol\":7284:7306  _balances[to] += value */\n      dup3\n      dup3\n      sload\n      add\n      swap3\n      pop\n      pop\n      dup2\n      swap1\n      sstore\n      pop\n        /* \"@openzeppelin/contracts/token/ERC20/ERC20.sol\":6906:7331  if (to == address(0)) {... */\n    tag_31:\n        /* \"@openzeppelin/contracts/token/ERC20/ERC20.sol\":7361:7363  to */\n      dup2\n        /* \"@openzeppelin/contracts/token/ERC20/ERC20.sol\":7346:7371  Transfer(from, to, value) */\n      0xffffffffffffffffffffffffffffffffffffffff\n      and\n        /* \"@openzeppelin/contracts/token/ERC20/ERC20.sol\":7355:7359  from */\n      dup4\n        /* \"@openzeppelin/contracts/token/ERC20/ERC20.sol\":7346:7371  Transfer(from, to, value) */\n      0xffffffffffffffffffffffffffffffffffffffff\n      and\n      0xddf252ad1be2c89b69c2b068fc378daa952ba7f163c4a11628f55a4df523b3ef\n        /* \"@openzeppelin/contracts/token/ERC20/ERC20.sol\":7365:7370  value */\n      dup4\n        /* \"@openzeppelin/contracts/token/ERC20/ERC20.sol\":7346:7371  Transfer(from, to, value) */\n      mload(0x40)\n      tag_32\n      swap2\n      swap1\n      tag_33\n      jump\t// in\n    tag_32:\n      mload(0x40)\n      dup1\n      swap2\n      sub\n      swap1\n      log3\n        /* \"@openzeppelin/contracts/token/ERC20/ERC20.sol\":6271:7378  function _update(address from, address to, uint256 value) internal virtual {... */\n      pop\n      pop\n      pop\n      jump\t// out\n        /* \"#utility.yul\":7:106   */\n    tag_34:\n        /* \"#utility.yul\":59:65   */\n      0x00\n        /* \"#utility.yul\":93:98   */\n      dup2\n        /* \"#utility.yul\":87:99   */\n      mload\n        /* \"#utility.yul\":77:99   */\n      swap1\n      pop\n        /* \"#utility.yul\":7:106   */\n      swap2\n      swap1\n      pop\n      jump\t// out\n        /* \"#utility.yul\":112:292   */\n    tag_35:\n        /* \"#utility.yul\":160:237   */\n      0x4e487b7100000000000000000000000000000000000000000000000000000000\n        /* \"#utility.yul\":157:158   */\n      0x00\n        /* \"#utility.yul\":150:238   */\n      mstore\n        /* \"#utility.yul\":257:261   */\n      0x41\n        /* \"#utility.yul\":254:255   */\n      0x04\n        /* \"#utility.yul\":247:262   */\n      mstore\n        /* \"#utility.yul\":281:285   */\n      0x24\n        /* \"#utility.yul\":278:279   */\n      0x00\n        /* \"#utility.yul\":271:286   */\n      revert\n        /* \"#utility.yul\":298:478   */\n    tag_36:\n        /* \"#utility.yul\":346:423   */\n      0x4e487b7100000000000000000000000000000000000000000000000000000000\n        /* \"#utility.yul\":343:344   */\n      0x00\n        /* \"#utility.yul\":336:424   */\n      mstore\n        /* \"#utility.yul\":443:447   */\n      0x22\n        /* \"#utility.yul\":440:441   */\n      0x04\n        /* \"#utility.yul\":433:448   */\n      mstore\n        /* \"#utility.yul\":467:471   */\n      0x24\n        /* \"#utility.yul\":464:465   */\n      0x00\n        /* \"#utility.yul\":457:472   */\n      revert\n        /* \"#utility.yul\":484:804   */\n    tag_37:\n        /* \"#utility.yul\":528:534   */\n      0x00\n        /* \"#utility.yul\":565:566   */\n      0x02\n        /* \"#utility.yul\":559:563   */\n      dup3\n        /* \"#utility.yul\":555:567   */\n      div\n        /* \"#utility.yul\":545:567   */\n      swap1\n      pop\n        /* \"#utility.yul\":612:613   */\n      0x01\n        /* \"#utility.yul\":606:610   */\n      dup3\n        /* \"#utility.yul\":602:614   */\n      and\n        /* \"#utility.yul\":633:651   */\n      dup1\n        /* \"#utility.yul\":623:704   */\n      tag_67\n      jumpi\n        /* \"#utility.yul\":689:693   */\n      0x7f\n        /* \"#utility.yul\":681:687   */\n      dup3\n        /* \"#utility.yul\":677:694   */\n      and\n        /* \"#utility.yul\":667:694   */\n      swap2\n      pop\n        /* \"#utility.yul\":623:704   */\n    tag_67:\n        /* \"#utility.yul\":751:753   */\n      0x20\n        /* \"#utility.yul\":743:749   */\n      dup3\n        /* \"#utility.yul\":740:754   */\n      lt\n        /* \"#utility.yul\":720:738   */\n      dup2\n        /* \"#utility.yul\":717:755   */\n      sub\n        /* \"#utility.yul\":714:798   */\n      tag_68\n      jumpi\n        /* \"#utility.yul\":770:788   */\n      tag_69\n      tag_36\n      jump\t// in\n    tag_69:\n        /* \"#utility.yul\":714:798   */\n    tag_68:\n        /* \"#utility.yul\":535:804   */\n      pop\n        /* \"#utility.yul\":484:804   */\n      swap2\n      swap1\n      pop\n      jump\t// out\n        /* \"#utility.yul\":810:951   */\n    tag_38:\n        /* \"#utility.yul\":859:863   */\n      0x00\n        /* \"#utility.yul\":882:885   */\n      dup2\n        /* \"#utility.yul\":874:885   */\n      swap1\n      pop\n        /* \"#utility.yul\":905:908   */\n      dup2\n        /* \"#utility.yul\":902:903   */\n      0x00\n        /* \"#utility.yul\":895:909   */\n      mstore\n        /* \"#utility.yul\":939:943   */\n      0x20\n        /* \"#utility.yul\":936:937   */\n      0x00\n        /* \"#utility.yul\":926:944   */\n      keccak256\n        /* \"#utility.yul\":918:944   */\n      swap1\n      pop\n        /* \"#utility.yul\":810:951   */\n      swap2\n      swap1\n      pop\n      jump\t// out\n        /* \"#utility.yul\":957:1050   */\n    tag_39:\n        /* \"#utility.yul\":994:1000   */\n      0x00\n        /* \"#utility.yul\":1041:1043   */\n      0x20\n        /* \"#utility.yul\":1036:1038   */\n      0x1f\n        /* \"#utility.yul\":1029:1034   */\n      dup4\n        /* \"#utility.yul\":1025:1039   */\n      add\n        /* \"#utility.yul\":1021:1044   */\n      div\n        /* \"#utility.yul\":1011:1044   */\n      swap1\n      pop\n        /* \"#utility.yul\":957:1050   */\n      swap2\n      swap1\n      pop\n      jump\t// out\n        /* \"#utility.yul\":1056:1163   */\n    tag_40:\n        /* \"#utility.yul\":1100:1108   */\n      0x00\n        /* \"#utility.yul\":1150:1155   */\n      dup3\n        /* \"#utility.yul\":1144:1148   */\n      dup3\n        /* \"#utility.yul\":1140:1156   */\n      shl\n        /* \"#utility.yul\":1119:1156   */\n      swap1\n      pop\n        /* \"#utility.yul\":1056:1163   */\n      swap3\n      swap2\n      pop\n      pop\n      jump\t// out\n        /* \"#utility.yul\":1169:1562   */\n    tag_41:\n        /* \"#utility.yul\":1238:1244   */\n      0x00\n        /* \"#utility.yul\":1288:1289   */\n      0x08\n        /* \"#utility.yul\":1276:1286   */\n      dup4\n        /* \"#utility.yul\":1272:1290   */\n      mul\n        /* \"#utility.yul\":1311:1408   */\n      tag_74\n        /* \"#utility.yul\":1341:1407   */\n      0xffffffffffffffffffffffffffffffffffffffffffffffffffffffffffffffff\n        /* \"#utility.yul\":1330:1339   */\n      dup3\n        /* \"#utility.yul\":1311:1408   */\n      tag_40\n      jump\t// in\n    tag_74:\n        /* \"#utility.yul\":1429:1468   */\n      tag_75\n        /* \"#utility.yul\":1459:1467   */\n      dup7\n        /* \"#utility.yul\":1448:1457   */\n      dup4\n        /* \"#utility.yul\":1429:1468   */\n      tag_40\n      jump\t// in\n    tag_75:\n        /* \"#utility.yul\":1417:1468   */\n      swap6\n      pop\n        /* \"#utility.yul\":1501:1505   */\n      dup1\n        /* \"#utility.yul\":1497:1506   */\n      not\n        /* \"#utility.yul\":1490:1495   */\n      dup5\n        /* \"#utility.yul\":1486:1507   */\n      and\n        /* \"#utility.yul\":1477:1507   */\n      swap4\n      pop\n        /* \"#utility.yul\":1550:1554   */\n      dup1\n        /* \"#utility.yul\":1540:1548   */\n      dup7\n        /* \"#utility.yul\":1536:1555   */\n      and\n        /* \"#utility.yul\":1529:1534   */\n      dup5\n        /* \"#utility.yul\":1526:1556   */\n      or\n        /* \"#utility.yul\":1516:1556   */\n      swap3\n      pop\n        /* \"#utility.yul\":1245:1562   */\n      pop\n      pop\n        /* \"#utility.yul\":1169:1562   */\n      swap4\n      swap3\n      pop\n      pop\n      pop\n      jump\t// out\n        /* \"#utility.yul\":1568:1645   */\n    tag_42:\n        /* \"#utility.yul\":1605:1612   */\n      0x00\n        /* \"#utility.yul\":1634:1639   */\n      dup2\n        /* \"#utility.yul\":1623:1639   */\n      swap1\n      pop\n        /* \"#utility.yul\":1568:1645   */\n      swap2\n      swap1\n      pop\n      jump\t// out\n        /* \"#utility.yul\":1651:1711   */\n    tag_43:\n        /* \"#utility.yul\":1679:1682   */\n      0x00\n        /* \"#utility.yul\":1700:1705   */\n      dup2\n        /* \"#utility.yul\":1693:1705   */\n      swap1\n      pop\n        /* \"#utility.yul\":1651:1711   */\n      swap2\n      swap1\n      pop\n      jump\t// out\n        /* \"#utility.yul\":1717:1859   */\n    tag_44:\n        /* \"#utility.yul\":1767:1776   */\n      0x00\n        /* \"#utility.yul\":1800:1853   */\n      tag_79\n        /* \"#utility.yul\":1818:1852   */\n      tag_80\n        /* \"#utility.yul\":1827:1851   */\n      tag_81\n        /* \"#utility.yul\":1845:1850   */\n      dup5\n        /* \"#utility.yul\":1827:1851   */\n      tag_42\n      jump\t// in\n    tag_81:\n        /* \"#utility.yul\":1818:1852   */\n      tag_43\n      jump\t// in\n    tag_80:\n        /* \"#utility.yul\":1800:1853   */\n      tag_42\n      jump\t// in\n    tag_79:\n        /* \"#utility.yul\":1787:1853   */\n      swap1\n      pop\n        /* \"#utility.yul\":1717:1859   */\n      swap2\n      swap1\n      pop\n      jump\t// out\n        /* \"#utility.yul\":1865:1940   */\n    tag_45:\n        /* \"#utility.yul\":1908:1911   */\n      0x00\n        /* \"#utility.yul\":1929:1934   */\n      dup2\n        /* \"#utility.yul\":1922:1934   */\n      swap1\n      pop\n        /* \"#utility.yul\":1865:1940   */\n      swap2\n      swap1\n      pop\n      jump\t// out\n        /* \"#utility.yul\":1946:2215   */\n    tag_46:\n        /* \"#utility.yul\":2056:2095   */\n      tag_84\n        /* \"#utility.yul\":2087:2094   */\n      dup4\n        /* \"#utility.yul\":2056:2095   */\n      tag_44\n      jump\t// in\n    tag_84:\n        /* \"#utility.yul\":2117:2208   */\n      tag_85\n        /* \"#utility.yul\":2166:2207   */\n      tag_86\n        /* \"#utility.yul\":2190:2206   */\n      dup3\n        /* \"#utility.yul\":2166:2207   */\n      tag_45\n      jump\t// in\n    tag_86:\n        /* \"#utility.yul\":2158:2164   */\n      dup5\n        /* \"#utility.yul\":2151:2155   */\n      dup5\n        /* \"#utility.yul\":2145:2156   */\n      sload\n        /* \"#utility.yul\":2117:2208   */\n      tag_41\n      jump\t// in\n    tag_85:\n        /* \"#utility.yul\":2111:2115   */\n      dup3\n        /* \"#utility.yul\":2104:2209   */\n      sstore\n        /* \"#utility.yul\":2022:2215   */\n      pop\n        /* \"#utility.yul\":1946:2215   */\n      pop\n      pop\n      pop\n      jump\t// out\n        /* \"#utility.yul\":2221:2294   */\n    tag_47:\n        /* \"#utility.yul\":2266:2269   */\n      0x00\n        /* \"#utility.yul\":2221:2294   */\n      swap1\n      jump\t// out\n        /* \"#utility.yul\":2300:2489   */\n    tag_48:\n        /* \"#utility.yul\":2377:2409   */\n      tag_89\n      tag_47\n      jump\t// in\n    tag_89:\n        /* \"#utility.yul\":2418:2483   */\n      tag_90\n        /* \"#utility.yul\":2476:2482   */\n      dup2\n        /* \"#utility.yul\":2468:2474   */\n      dup5\n        /* \"#utility.yul\":2462:2466   */\n      dup5\n        /* \"#utility.yul\":2418:2483   */\n      tag_46\n      jump\t// in\n    tag_90:\n        /* \"#utility.yul\":2353:2489   */\n      pop\n        /* \"#utility.yul\":2300:2489   */\n      pop\n      pop\n      jump\t// out\n        /* \"#utility.yul\":2495:2681   */\n    tag_49:\n        /* \"#utility.yul\":2555:2675   */\n    tag_92:\n        /* \"#utility.yul\":2572:2575   */\n      dup2\n        /* \"#utility.yul\":2565:2570   */\n      dup2\n        /* \"#utility.yul\":2562:2576   */\n      lt\n        /* \"#utility.yul\":2555:2675   */\n      iszero\n      tag_94\n      jumpi\n        /* \"#utility.yul\":2626:2665   */\n      tag_95\n        /* \"#utility.yul\":2663:2664   */\n      0x00\n        /* \"#utility.yul\":2656:2661   */\n      dup3\n        /* \"#utility.yul\":2626:2665   */\n      tag_48\n      jump\t// in\n    tag_95:\n        /* \"#utility.yul\":2599:2600   */\n      0x01\n        /* \"#utility.yul\":2592:2597   */\n      dup2\n        /* \"#utility.yul\":2588:2601   */\n      add\n        /* \"#utility.yul\":2579:2601   */\n      swap1\n      pop\n        /* \"#utility.yul\":2555:2675   */\n      jump(tag_92)\n    tag_94:\n        /* \"#utility.yul\":2495:2681   */\n      pop\n      pop\n      jump\t// out\n        /* \"#utility.yul\":2687:3230   */\n    tag_50:\n        /* \"#utility.yul\":2788:2790   */\n      0x1f\n        /* \"#utility.yul\":2783:2786   */\n      dup3\n        /* \"#utility.yul\":2780:2791   */\n      gt\n        /* \"#utility.yul\":2777:3223   */\n      iszero\n      tag_97\n      jumpi\n        /* \"#utility.yul\":2822:2860   */\n      tag_98\n        /* \"#utility.yul\":2854:2859   */\n      dup2\n        /* \"#utility.yul\":2822:2860   */\n      tag_38\n      jump\t// in\n    tag_98:\n        /* \"#utility.yul\":2906:2935   */\n      tag_99\n        /* \"#utility.yul\":2924:2934   */\n      dup5\n        /* \"#utility.yul\":2906:2935   */\n      tag_39\n      jump\t// in\n    tag_99:\n        /* \"#utility.yul\":2896:2904   */\n      dup2\n        /* \"#utility.yul\":2892:2936   */\n      add\n        /* \"#utility.yul\":3089:3091   */\n      0x20\n        /* \"#utility.yul\":3077:3087   */\n      dup6\n        /* \"#utility.yul\":3074:3092   */\n      lt\n        /* \"#utility.yul\":3071:3120   */\n      iszero\n      tag_100\n      jumpi\n        /* \"#utility.yul\":3110:3118   */\n      dup2\n        /* \"#utility.yul\":3095:3118   */\n      swap1\n      pop\n        /* \"#utility.yul\":3071:3120   */\n    tag_100:\n        /* \"#utility.yul\":3133:3213   */\n      tag_101\n        /* \"#utility.yul\":3189:3211   */\n      tag_102\n        /* \"#utility.yul\":3207:3210   */\n      dup6\n        /* \"#utility.yul\":3189:3211   */\n      tag_39\n      jump\t// in\n    tag_102:\n        /* \"#utility.yul\":3179:3187   */\n      dup4\n        /* \"#utility.yul\":3175:3212   */\n      add\n        /* \"#utility.yul\":3162:3173   */\n      dup3\n        /* \"#utility.yul\":3133:3213   */\n      tag_49\n      jump\t// in\n    tag_101:\n        /* \"#utility.yul\":2792:3223   */\n      pop\n      pop\n        /* \"#utility.yul\":2777:3223   */\n    tag_97:\n        /* \"#utility.yul\":2687:3230   */\n      pop\n      pop\n      pop\n      jump\t// out\n        /* \"#utility.yul\":3236:3353   */\n    tag_51:\n        /* \"#utility.yul\":3290:3298   */\n      0x00\n        /* \"#utility.yul\":3340:3345   */\n      dup3\n        /* \"#utility.yul\":3334:3338   */\n      dup3\n        /* \"#utility.yul\":3330:3346   */\n      shr\n        /* \"#utility.yul\":3309:3346   */\n      swap1\n      pop\n        /* \"#utility.yul\":3236:3353   */\n      swap3\n      swap2\n      pop\n      pop\n      jump\t// out\n        /* \"#utility.yul\":3359:3528   */\n    tag_52:\n        /* \"#utility.yul\":3403:3409   */\n      0x00\n        /* \"#utility.yul\":3436:3487   */\n      tag_105\n        /* \"#utility.yul\":3484:3485   */\n      0x00\n        /* \"#utility.yul\":3480:3486   */\n      not\n        /* \"#utility.yul\":3472:3477   */\n      dup5\n        /* \"#utility.yul\":3469:3470   */\n      0x08\n        /* \"#utility.yul\":3465:3478   */\n      mul\n        /* \"#utility.yul\":3436:3487   */\n      tag_51\n      jump\t// in\n    tag_105:\n        /* \"#utility.yul\":3432:3488   */\n      not\n        /* \"#utility.yul\":3517:3521   */\n      dup1\n        /* \"#utility.yul\":3511:3515   */\n      dup4\n        /* \"#utility.yul\":3507:3522   */\n      and\n        /* \"#utility.yul\":3497:3522   */\n      swap2\n      pop\n        /* \"#utility.yul\":3410:3528   */\n      pop\n        /* \"#utility.yul\":3359:3528   */\n      swap3\n      swap2\n      pop\n      pop\n      jump\t// out\n        /* \"#utility.yul\":3533:3828   */\n    tag_53:\n        /* \"#utility.yul\":3609:3613   */\n      0x00\n        /* \"#utility.yul\":3755:3784   */\n      tag_107\n        /* \"#utility.yul\":3780:3783   */\n      dup4\n        /* \"#utility.yul\":3774:3778   */\n      dup4\n        /* \"#utility.yul\":3755:3784   */\n      tag_52\n      jump\t// in\n    tag_107:\n        /* \"#utility.yul\":3747:3784   */\n      swap2\n      pop\n        /* \"#utility.yul\":3817:3820   */\n      dup3\n        /* \"#utility.yul\":3814:3815   */\n      0x02\n        /* \"#utility.yul\":3810:3821   */\n      mul\n        /* \"#utility.yul\":3804:3808   */\n      dup3\n        /* \"#utility.yul\":3801:3822   */\n      or\n        /* \"#utility.yul\":3793:3822   */\n      swap1\n      pop\n        /* \"#utility.yul\":3533:3828   */\n      swap3\n      swap2\n      pop\n      pop\n      jump\t// out\n        /* \"#utility.yul\":3833:5228   */\n    tag_6:\n        /* \"#utility.yul\":3950:3987   */\n      tag_109\n        /* \"#utility.yul\":3983:3986   */\n      dup3\n        /* \"#utility.yul\":3950:3987   */\n      tag_34\n      jump\t// in\n    tag_109:\n        /* \"#utility.yul\":4052:4070   */\n      0xffffffffffffffff\n        /* \"#utility.yul\":4044:4050   */\n      dup2\n        /* \"#utility.yul\":4041:4071   */\n      gt\n        /* \"#utility.yul\":4038:4094   */\n      iszero\n      tag_110\n      jumpi\n        /* \"#utility.yul\":4074:4092   */\n      tag_111\n      tag_35\n      jump\t// in\n    tag_111:\n        /* \"#utility.yul\":4038:4094   */\n    tag_110:\n        /* \"#utility.yul\":4118:4156   */\n      tag_112\n        /* \"#utility.yul\":4150:4154   */\n      dup3\n        /* \"#utility.yul\":4144:4155   */\n      sload\n        /* \"#utility.yul\":4118:4156   */\n      tag_37\n      jump\t// in\n    tag_112:\n        /* \"#utility.yul\":4203:4270   */\n      tag_113\n        /* \"#utility.yul\":4263:4269   */\n      dup3\n        /* \"#utility.yul\":4255:4261   */\n      dup3\n        /* \"#utility.yul\":4249:4253   */\n      dup6\n        /* \"#utility.yul\":4203:4270   */\n      tag_50\n      jump\t// in\n    tag_113:\n        /* \"#utility.yul\":4297:4298   */\n      0x00\n        /* \"#utility.yul\":4321:4325   */\n      0x20\n        /* \"#utility.yul\":4308:4325   */\n      swap1\n      pop\n        /* \"#utility.yul\":4353:4355   */\n      0x1f\n        /* \"#utility.yul\":4345:4351   */\n      dup4\n        /* \"#utility.yul\":4342:4356   */\n      gt\n        /* \"#utility.yul\":4370:4371   */\n      0x01\n        /* \"#utility.yul\":4365:4983   */\n      dup2\n      eq\n      tag_115\n      jumpi\n        /* \"#utility.yul\":5027:5028   */\n      0x00\n        /* \"#utility.yul\":5044:5050   */\n      dup5\n        /* \"#utility.yul\":5041:5118   */\n      iszero\n      tag_116\n      jumpi\n        /* \"#utility.yul\":5093:5102   */\n      dup3\n        /* \"#utility.yul\":5088:5091   */\n      dup8\n        /* \"#utility.yul\":5084:5103   */\n      add\n        /* \"#utility.yul\":5078:5104   */\n      mload\n        /* \"#utility.yul\":5069:5104   */\n      swap1\n      pop\n        /* \"#utility.yul\":5041:5118   */\n    tag_116:\n        /* \"#utility.yul\":5144:5211   */\n      tag_117\n        /* \"#utility.yul\":5204:5210   */\n      dup6\n        /* \"#utility.yul\":5197:5202   */\n      dup3\n        /* \"#utility.yul\":5144:5211   */\n      tag_53\n      jump\t// in\n    tag_117:\n        /* \"#utility.yul\":5138:5142   */\n      dup7\n        /* \"#utility.yul\":5131:5212   */\n      sstore\n        /* \"#utility.yul\":5000:5222   */\n      pop\n        /* \"#utility.yul\":4335:5222   */\n      jump(tag_114)\n        /* \"#utility.yul\":4365:4983   */\n    tag_115:\n        /* \"#utility.yul\":4417:4421   */\n      0x1f\n        /* \"#utility.yul\":4413:4422   */\n      not\n        /* \"#utility.yul\":4405:4411   */\n      dup5\n        /* \"#utility.yul\":4401:4423   */\n      and\n        /* \"#utility.yul\":4451:4488   */\n      tag_118\n        /* \"#utility.yul\":4483:4487   */\n      dup7\n        /* \"#utility.yul\":4451:4488   */\n      tag_38\n      jump\t// in\n    tag_118:\n        /* \"#utility.yul\":4510:4511   */\n      0x00\n        /* \"#utility.yul\":4524:4732   */\n    tag_119:\n        /* \"#utility.yul\":4538:4545   */\n      dup3\n        /* \"#utility.yul\":4535:4536   */\n      dup2\n        /* \"#utility.yul\":4532:4546   */\n      lt\n        /* \"#utility.yul\":4524:4732   */\n      iszero\n      tag_121\n      jumpi\n        /* \"#utility.yul\":4617:4626   */\n      dup5\n        /* \"#utility.yul\":4612:4615   */\n      dup10\n        /* \"#utility.yul\":4608:4627   */\n      add\n        /* \"#utility.yul\":4602:4628   */\n      mload\n        /* \"#utility.yul\":4594:4600   */\n      dup3\n        /* \"#utility.yul\":4587:4629   */\n      sstore\n        /* \"#utility.yul\":4668:4669   */\n      0x01\n        /* \"#utility.yul\":4660:4666   */\n      dup3\n        /* \"#utility.yul\":4656:4670   */\n      add\n        /* \"#utility.yul\":4646:4670   */\n      swap2\n      pop\n        /* \"#utility.yul\":4715:4717   */\n      0x20\n        /* \"#utility.yul\":4704:4713   */\n      dup6\n        /* \"#utility.yul\":4700:4718   */\n      add\n        /* \"#utility.yul\":4687:4718   */\n      swap5\n      pop\n        /* \"#utility.yul\":4561:4565   */\n      0x20\n        /* \"#utility.yul\":4558:4559   */\n      dup2\n        /* \"#utility.yul\":4554:4566   */\n      add\n        /* \"#utility.yul\":4549:4566   */\n      swap1\n      pop\n        /* \"#utility.yul\":4524:4732   */\n      jump(tag_119)\n    tag_121:\n        /* \"#utility.yul\":4760:4766   */\n      dup7\n        /* \"#utility.yul\":4751:4758   */\n      dup4\n        /* \"#utility.yul\":4748:4767   */\n      lt\n        /* \"#utility.yul\":4745:4924   */\n      iszero\n      tag_122\n      jumpi\n        /* \"#utility.yul\":4818:4827   */\n      dup5\n        /* \"#utility.yul\":4813:4816   */\n      dup10\n        /* \"#utility.yul\":4809:4828   */\n      add\n        /* \"#utility.yul\":4803:4829   */\n      mload\n        /* \"#utility.yul\":4861:4909   */\n      tag_123\n        /* \"#utility.yul\":4903:4907   */\n      0x1f\n        /* \"#utility.yul\":4895:4901   */\n      dup10\n        /* \"#utility.yul\":4891:4908   */\n      and\n        /* \"#utility.yul\":4880:4889   */\n      dup3\n        /* \"#utility.yul\":4861:4909   */\n      tag_52\n      jump\t// in\n    tag_123:\n        /* \"#utility.yul\":4853:4859   */\n      dup4\n        /* \"#utility.yul\":4846:4910   */\n      sstore\n        /* \"#utility.yul\":4768:4924   */\n      pop\n        /* \"#utility.yul\":4745:4924   */\n    tag_122:\n        /* \"#utility.yul\":4970:4971   */\n      0x01\n        /* \"#utility.yul\":4966:4967   */\n      0x02\n        /* \"#utility.yul\":4958:4964   */\n      dup9\n        /* \"#utility.yul\":4954:4968   */\n      mul\n        /* \"#utility.yul\":4950:4972   */\n      add\n        /* \"#utility.yul\":4944:4948   */\n      dup9\n        /* \"#utility.yul\":4937:4973   */\n      sstore\n        /* \"#utility.yul\":4372:4983   */\n      pop\n      pop\n      pop\n        /* \"#utility.yul\":4335:5222   */\n    tag_114:\n      pop\n        /* \"#utility.yul\":3925:5228   */\n      pop\n      pop\n      pop\n        /* \"#utility.yul\":3833:5228   */\n      pop\n      pop\n      jump\t// out\n        /* \"#utility.yul\":5234:5414   */\n    tag_54:\n        /* \"#utility.yul\":5282:5359   */\n      0x4e487b7100000000000000000000000000000000000000000000000000000000\n        /* \"#utility.yul\":5279:5280   */\n      0x00\n        /* \"#utility.yul\":5272:5360   */\n      mstore\n        /* \"#utility.yul\":5379:5383   */\n      0x11\n        /* \"#utility.yul\":5376:5377   */\n      0x04\n        /* \"#utility.yul\":5369:5384   */\n      mstore\n        /* \"#utility.yul\":5403:5407   */\n      0x24\n        /* \"#utility.yul\":5400:5401   */\n      0x00\n        /* \"#utility.yul\":5393:5408   */\n      revert\n        /* \"#utility.yul\":5420:5522   */\n    tag_55:\n        /* \"#utility.yul\":5462:5470   */\n      0x00\n        /* \"#utility.yul\":5509:5514   */\n      dup2\n        /* \"#utility.yul\":5506:5507   */\n      0x01\n        /* \"#utility.yul\":5502:5515   */\n      shr\n        /* \"#utility.yul\":5481:5515   */\n      swap1\n      pop\n        /* \"#utility.yul\":5420:5522   */\n      swap2\n      swap1\n      pop\n      jump\t// out\n        /* \"#utility.yul\":5528:6376   */\n    tag_56:\n        /* \"#utility.yul\":5589:5594   */\n      0x00\n        /* \"#utility.yul\":5596:5600   */\n      dup1\n        /* \"#utility.yul\":5620:5626   */\n      dup3\n        /* \"#utility.yul\":5611:5626   */\n      swap2\n      pop\n        /* \"#utility.yul\":5644:5649   */\n      dup4\n        /* \"#utility.yul\":5635:5649   */\n      swap1\n      pop\n        /* \"#utility.yul\":5658:6370   */\n    tag_127:\n        /* \"#utility.yul\":5679:5680   */\n      0x01\n        /* \"#utility.yul\":5669:5677   */\n      dup6\n        /* \"#utility.yul\":5666:5681   */\n      gt\n        /* \"#utility.yul\":5658:6370   */\n      iszero\n      tag_129\n      jumpi\n        /* \"#utility.yul\":5774:5778   */\n      dup1\n        /* \"#utility.yul\":5769:5772   */\n      dup7\n        /* \"#utility.yul\":5765:5779   */\n      div\n        /* \"#utility.yul\":5759:5763   */\n      dup2\n        /* \"#utility.yul\":5756:5780   */\n      gt\n        /* \"#utility.yul\":5753:5803   */\n      iszero\n      tag_130\n      jumpi\n        /* \"#utility.yul\":5783:5801   */\n      tag_131\n      tag_54\n      jump\t// in\n    tag_131:\n        /* \"#utility.yul\":5753:5803   */\n    tag_130:\n        /* \"#utility.yul\":5833:5834   */\n      0x01\n        /* \"#utility.yul\":5823:5831   */\n      dup6\n        /* \"#utility.yul\":5819:5835   */\n      and\n        /* \"#utility.yul\":5816:6267   */\n      iszero\n      tag_132\n      jumpi\n        /* \"#utility.yul\":6248:6252   */\n      dup1\n        /* \"#utility.yul\":6241:6246   */\n      dup3\n        /* \"#utility.yul\":6237:6253   */\n      mul\n        /* \"#utility.yul\":6228:6253   */\n      swap2\n      pop\n        /* \"#utility.yul\":5816:6267   */\n    tag_132:\n        /* \"#utility.yul\":6298:6302   */\n      dup1\n        /* \"#utility.yul\":6292:6296   */\n      dup2\n        /* \"#utility.yul\":6288:6303   */\n      mul\n        /* \"#utility.yul\":6280:6303   */\n      swap1\n      pop\n        /* \"#utility.yul\":6328:6360   */\n      tag_133\n        /* \"#utility.yul\":6351:6359   */\n      dup6\n        /* \"#utility.yul\":6328:6360   */\n      tag_55\n      jump\t// in\n    tag_133:\n        /* \"#utility.yul\":6316:6360   */\n      swap5\n      pop\n        /* \"#utility.yul\":5658:6370   */\n      jump(tag_127)\n    tag_129:\n        /* \"#utility.yul\":5528:6376   */\n      swap5\n      pop\n      swap5\n      swap3\n      pop\n      pop\n      pop\n      jump\t// out\n        /* \"#utility.yul\":6382:7455   */\n    tag_57:\n        /* \"#utility.yul\":6436:6441   */\n      0x00\n        /* \"#utility.yul\":6627:6635   */\n      dup3\n        /* \"#utility.yul\":6617:6657   */\n      tag_135\n      jumpi\n        /* \"#utility.yul\":6648:6649   */\n      0x01\n        /* \"#utility.yul\":6639:6649   */\n      swap1\n      pop\n        /* \"#utility.yul\":6650:6655   */\n      jump(tag_134)\n        /* \"#utility.yul\":6617:6657   */\n    tag_135:\n        /* \"#utility.yul\":6676:6680   */\n      dup2\n        /* \"#utility.yul\":6666:6702   */\n      tag_136\n      jumpi\n        /* \"#utility.yul\":6693:6694   */\n      0x00\n        /* \"#utility.yul\":6684:6694   */\n      swap1\n      pop\n        /* \"#utility.yul\":6695:6700   */\n      jump(tag_134)\n        /* \"#utility.yul\":6666:6702   */\n    tag_136:\n        /* \"#utility.yul\":6762:6766   */\n      dup2\n        /* \"#utility.yul\":6810:6811   */\n      0x01\n        /* \"#utility.yul\":6805:6832   */\n      dup2\n      eq\n      tag_138\n      jumpi\n        /* \"#utility.yul\":6846:6847   */\n      0x02\n        /* \"#utility.yul\":6841:7032   */\n      dup2\n      eq\n      tag_139\n      jumpi\n        /* \"#utility.yul\":6755:7032   */\n      jump(tag_137)\n        /* \"#utility.yul\":6805:6832   */\n    tag_138:\n        /* \"#utility.yul\":6823:6824   */\n      0x01\n        /* \"#utility.yul\":6814:6824   */\n      swap2\n      pop\n        /* \"#utility.yul\":6825:6830   */\n      pop\n      jump(tag_134)\n        /* \"#utility.yul\":6841:7032   */\n    tag_139:\n        /* \"#utility.yul\":6886:6889   */\n      0xff\n        /* \"#utility.yul\":6876:6884   */\n      dup5\n        /* \"#utility.yul\":6873:6890   */\n      gt\n        /* \"#utility.yul\":6870:6913   */\n      iszero\n      tag_140\n      jumpi\n        /* \"#utility.yul\":6893:6911   */\n      tag_141\n      tag_54\n      jump\t// in\n    tag_141:\n        /* \"#utility.yul\":6870:6913   */\n    tag_140:\n        /* \"#utility.yul\":6942:6950   */\n      dup4\n        /* \"#utility.yul\":6939:6940   */\n      0x02\n        /* \"#utility.yul\":6935:6951   */\n      exp\n        /* \"#utility.yul\":6926:6951   */\n      swap2\n      pop\n        /* \"#utility.yul\":6977:6980   */\n      dup5\n        /* \"#utility.yul\":6970:6975   */\n      dup3\n        /* \"#utility.yul\":6967:6981   */\n      gt\n        /* \"#utility.yul\":6964:7004   */\n      iszero\n      tag_142\n      jumpi\n        /* \"#utility.yul\":6984:7002   */\n      tag_143\n      tag_54\n      jump\t// in\n    tag_143:\n        /* \"#utility.yul\":6964:7004   */\n    tag_142:\n        /* \"#utility.yul\":7017:7022   */\n      pop\n      jump(tag_134)\n        /* \"#utility.yul\":6755:7032   */\n    tag_137:\n      pop\n        /* \"#utility.yul\":7141:7143   */\n      0x20\n        /* \"#utility.yul\":7131:7139   */\n      dup4\n        /* \"#utility.yul\":7128:7144   */\n      lt\n        /* \"#utility.yul\":7122:7125   */\n      0x0133\n        /* \"#utility.yul\":7116:7120   */\n      dup4\n        /* \"#utility.yul\":7113:7126   */\n      lt\n        /* \"#utility.yul\":7109:7145   */\n      and\n        /* \"#utility.yul\":7091:7093   */\n      0x4e\n        /* \"#utility.yul\":7081:7089   */\n      dup5\n        /* \"#utility.yul\":7078:7094   */\n      lt\n        /* \"#utility.yul\":7073:7075   */\n      0x0b\n        /* \"#utility.yul\":7067:7071   */\n      dup5\n        /* \"#utility.yul\":7064:7076   */\n      lt\n        /* \"#utility.yul\":7060:7095   */\n      and\n        /* \"#utility.yul\":7044:7155   */\n      or\n        /* \"#utility.yul\":7041:7287   */\n      iszero\n      tag_144\n      jumpi\n        /* \"#utility.yul\":7197:7205   */\n      dup3\n        /* \"#utility.yul\":7191:7195   */\n      dup3\n        /* \"#utility.yul\":7187:7206   */\n      exp\n        /* \"#utility.yul\":7178:7206   */\n      swap1\n      pop\n        /* \"#utility.yul\":7232:7235   */\n      dup4\n        /* \"#utility.yul\":7225:7230   */\n      dup2\n        /* \"#utility.yul\":7222:7236   */\n      gt\n        /* \"#utility.yul\":7219:7259   */\n      iszero\n      tag_145\n      jumpi\n        /* \"#utility.yul\":7239:7257   */\n      tag_146\n      tag_54\n      jump\t// in\n    tag_146:\n        /* \"#utility.yul\":7219:7259   */\n    tag_145:\n        /* \"#utility.yul\":7272:7277   */\n      jump(tag_134)\n        /* \"#utility.yul\":7041:7287   */\n    tag_144:\n        /* \"#utility.yul\":7312:7354   */\n      tag_147\n        /* \"#utility.yul\":7350:7353   */\n      dup5\n        /* \"#utility.yul\":7340:7348   */\n      dup5\n        /* \"#utility.yul\":7334:7338   */\n      dup5\n        /* \"#utility.yul\":7331:7332   */\n      0x01\n        /* \"#utility.yul\":7312:7354   */\n      tag_56\n      jump\t// in\n    tag_147:\n        /* \"#utility.yul\":7297:7354   */\n      swap3\n      pop\n      swap1\n      pop\n        /* \"#utility.yul\":7386:7390   */\n      dup2\n        /* \"#utility.yul\":7381:7384   */\n      dup5\n        /* \"#utility.yul\":7377:7391   */\n      div\n        /* \"#utility.yul\":7370:7375   */\n      dup2\n        /* \"#utility.yul\":7367:7392   */\n      gt\n        /* \"#utility.yul\":7364:7415   */\n      iszero\n      tag_148\n      jumpi\n        /* \"#utility.yul\":7395:7413   */\n      tag_149\n      tag_54\n      jump\t// in\n    tag_149:\n        /* \"#utility.yul\":7364:7415   */\n    tag_148:\n        /* \"#utility.yul\":7444:7448   */\n      dup2\n        /* \"#utility.yul\":7437:7442   */\n      dup2\n        /* \"#utility.yul\":7433:7449   */\n      mul\n        /* \"#utility.yul\":7424:7449   */\n      swap1\n      pop\n        /* \"#utility.yul\":6382:7455   */\n    tag_134:\n      swap4\n      swap3\n      pop\n      pop\n      pop\n      jump\t// out\n        /* \"#utility.yul\":7461:7746   */\n    tag_11:\n        /* \"#utility.yul\":7521:7526   */\n      0x00\n        /* \"#utility.yul\":7545:7568   */\n      tag_151\n        /* \"#utility.yul\":7563:7567   */\n      dup3\n        /* \"#utility.yul\":7545:7568   */\n      tag_42\n      jump\t// in\n    tag_151:\n        /* \"#utility.yul\":7537:7568   */\n      swap2\n      pop\n        /* \"#utility.yul\":7589:7616   */\n      tag_152\n        /* \"#utility.yul\":7607:7615   */\n      dup4\n        /* \"#utility.yul\":7589:7616   */\n      tag_42\n      jump\t// in\n    tag_152:\n        /* \"#utility.yul\":7577:7616   */\n      swap3\n      pop\n        /* \"#utility.yul\":7635:7739   */\n      tag_153\n        /* \"#utility.yul\":7672:7738   */\n      0xffffffffffffffffffffffffffffffffffffffffffffffffffffffffffffffff\n        /* \"#utility.yul\":7662:7670   */\n      dup5\n        /* \"#utility.yul\":7656:7660   */\n      dup5\n        /* \"#utility.yul\":7635:7739   */\n      tag_57\n      jump\t// in\n    tag_153:\n        /* \"#utility.yul\":7626:7739   */\n      swap1\n      pop\n        /* \"#utility.yul\":7461:7746   */\n      swap3\n      swap2\n      pop\n      pop\n      jump\t// out\n        /* \"#utility.yul\":7752:8162   */\n    tag_13:\n        /* \"#utility.yul\":7792:7799   */\n      0x00\n        /* \"#utility.yul\":7815:7835   */\n      tag_155\n        /* \"#utility.yul\":7833:7834   */\n      dup3\n        /* \"#utility.yul\":7815:7835   */\n      tag_42\n      jump\t// in\n    tag_155:\n        /* \"#utility.yul\":7810:7835   */\n      swap2\n      pop\n        /* \"#utility.yul\":7849:7869   */\n      tag_156\n        /* \"#utility.yul\":7867:7868   */\n      dup4\n        /* \"#utility.yul\":7849:7869   */\n      tag_42\n      jump\t// in\n    tag_156:\n        /* \"#utility.yul\":7844:7869   */\n      swap3\n      pop\n        /* \"#utility.yul\":7904:7905   */\n      dup3\n        /* \"#utility.yul\":7901:7902   */\n      dup3\n        /* \"#utility.yul\":7897:7906   */\n      mul\n        /* \"#utility.yul\":7926:7956   */\n      tag_157\n        /* \"#utility.yul\":7944:7955   */\n      dup2\n        /* \"#utility.yul\":7926:7956   */\n      tag_42\n      jump\t// in\n    tag_157:\n        /* \"#utility.yul\":7915:7956   */\n      swap2\n      pop\n        /* \"#utility.yul\":8105:8106   */\n      dup3\n        /* \"#utility.yul\":8096:8103   */\n      dup3\n        /* \"#utility.yul\":8092:8107   */\n      div\n        /* \"#utility.yul\":8089:8090   */\n      dup5\n        /* \"#utility.yul\":8086:8108   */\n      eq\n        /* \"#utility.yul\":8066:8067   */\n      dup4\n        /* \"#utility.yul\":8059:8068   */\n      iszero\n        /* \"#utility.yul\":8039:8122   */\n      or\n        /* \"#utility.yul\":8016:8155   */\n      tag_158\n      jumpi\n        /* \"#utility.yul\":8135:8153   */\n      tag_159\n      tag_54\n      jump\t// in\n    tag_159:\n        /* \"#utility.yul\":8016:8155   */\n    tag_158:\n        /* \"#utility.yul\":7800:8162   */\n      pop\n        /* \"#utility.yul\":7752:8162   */\n      swap3\n      swap2\n      pop\n      pop\n      jump\t// out\n        /* \"#utility.yul\":8168:8294   */\n    tag_58:\n        /* \"#utility.yul\":8205:8212   */\n      0x00\n        /* \"#utility.yul\":8245:8287   */\n      0xffffffffffffffffffffffffffffffffffffffff\n        /* \"#utility.yul\":8238:8243   */\n      dup3\n        /* \"#utility.yul\":8234:8288   */\n      and\n        /* \"#utility.yul\":8223:8288   */\n      swap1\n      pop\n        /* \"#utility.yul\":8168:8294   */\n      swap2\n      swap1\n      pop\n      jump\t// out\n        /* \"#utility.yul\":8300:8396   */\n    tag_59:\n        /* \"#utility.yul\":8337:8344   */\n      0x00\n        /* \"#utility.yul\":8366:8390   */\n      tag_162\n        /* \"#utility.yul\":8384:8389   */\n      dup3\n        /* \"#utility.yul\":8366:8390   */\n      tag_58\n      jump\t// in\n    tag_162:\n        /* \"#utility.yul\":8355:8390   */\n      swap1\n      pop\n        /* \"#utility.yul\":8300:8396   */\n      swap2\n      swap1\n      pop\n      jump\t// out\n        /* \"#utility.yul\":8402:8520   */\n    tag_60:\n        /* \"#utility.yul\":8489:8513   */\n      tag_164\n        /* \"#utility.yul\":8507:8512   */\n      dup2\n        /* \"#utility.yul\":8489:8513   */\n      tag_59\n      jump\t// in\n    tag_164:\n        /* \"#utility.yul\":8484:8487   */\n      dup3\n        /* \"#utility.yul\":8477:8514   */\n      mstore\n        /* \"#utility.yul\":8402:8520   */\n      pop\n      pop\n      jump\t// out\n        /* \"#utility.yul\":8526:8748   */\n    tag_19:\n        /* \"#utility.yul\":8619:8623   */\n      0x00\n        /* \"#utility.yul\":8657:8659   */\n      0x20\n        /* \"#utility.yul\":8646:8655   */\n      dup3\n        /* \"#utility.yul\":8642:8660   */\n      add\n        /* \"#utility.yul\":8634:8660   */\n      swap1\n      pop\n        /* \"#utility.yul\":8670:8741   */\n      tag_166\n        /* \"#utility.yul\":8738:8739   */\n      0x00\n        /* \"#utility.yul\":8727:8736   */\n      dup4\n        /* \"#utility.yul\":8723:8740   */\n      add\n        /* \"#utility.yul\":8714:8720   */\n      dup5\n        /* \"#utility.yul\":8670:8741   */\n      tag_60\n      jump\t// in\n    tag_166:\n        /* \"#utility.yul\":8526:8748   */\n      swap3\n      swap2\n      pop\n      pop\n      jump\t// out\n        /* \"#utility.yul\":8754:8945   */\n    tag_25:\n        /* \"#utility.yul\":8794:8797   */\n      0x00\n        /* \"#utility.yul\":8813:8833   */\n      tag_168\n        /* \"#utility.yul\":8831:8832   */\n      dup3\n        /* \"#utility.yul\":8813:8833   */\n      tag_42\n      jump\t// in\n    tag_168:\n        /* \"#utility.yul\":8808:8833   */\n      swap2\n      pop\n        /* \"#utility.yul\":8847:8867   */\n      tag_169\n        /* \"#utility.yul\":8865:8866   */\n      dup4\n        /* \"#utility.yul\":8847:8867   */\n      tag_42\n      jump\t// in\n    tag_169:\n        /* \"#utility.yul\":8842:8867   */\n      swap3\n      pop\n        /* \"#utility.yul\":8890:8891   */\n      dup3\n        /* \"#utility.yul\":8887:8888   */\n      dup3\n        /* \"#utility.yul\":8883:8892   */\n      add\n        /* \"#utility.yul\":8876:8892   */\n      swap1\n      pop\n        /* \"#utility.yul\":8911:8914   */\n      dup1\n        /* \"#utility.yul\":8908:8909   */\n      dup3\n        /* \"#utility.yul\":8905:8915   */\n      gt\n        /* \"#utility.yul\":8902:8938   */\n      iszero\n      tag_170\n      jumpi\n        /* \"#utility.yul\":8918:8936   */\n      tag_171\n      tag_54\n      jump\t// in\n    tag_171:\n        /* \"#utility.yul\":8902:8938   */\n    tag_170:\n        /* \"#utility.yul\":8754:8945   */\n      swap3\n      swap2\n      pop\n      pop\n      jump\t// out\n        /* \"#utility.yul\":8951:9069   */\n    tag_61:\n        /* \"#utility.yul\":9038:9062   */\n      tag_173\n        /* \"#utility.yul\":9056:9061   */\n      dup2\n        /* \"#utility.yul\":9038:9062   */\n      tag_42\n      jump\t// in\n    tag_173:\n        /* \"#utility.yul\":9033:9036   */\n      dup3\n        /* \"#utility.yul\":9026:9063   */\n      mstore\n        /* \"#utility.yul\":8951:9069   */\n      pop\n      pop\n      jump\t// out\n        /* \"#utility.yul\":9075:9517   */\n    tag_29:\n        /* \"#utility.yul\":9224:9228   */\n      0x00\n        /* \"#utility.yul\":9262:9264   */\n      0x60\n        /* \"#utility.yul\":9251:9260   */\n      dup3\n        /* \"#utility.yul\":9247:9265   */\n      add\n        /* \"#utility.yul\":9239:9265   */\n      swap1\n      pop\n        /* \"#utility.yul\":9275:9346   */\n      tag_175\n        /* \"#utility.yul\":9343:9344   */\n      0x00\n        /* \"#utility.yul\":9332:9341   */\n      dup4\n        /* \"#utility.yul\":9328:9345   */\n      add\n        /* \"#utility.yul\":9319:9325   */\n      dup7\n        /* \"#utility.yul\":9275:9346   */\n      tag_60\n      jump\t// in\n    tag_175:\n        /* \"#utility.yul\":9356:9428   */\n      tag_176\n        /* \"#utility.yul\":9424:9426   */\n      0x20\n        /* \"#utility.yul\":9413:9422   */\n      dup4\n        /* \"#utility.yul\":9409:9427   */\n      add\n        /* \"#utility.yul\":9400:9406   */\n      dup6\n        /* \"#utility.yul\":9356:9428   */\n      tag_61\n      jump\t// in\n    tag_176:\n        /* \"#utility.yul\":9438:9510   */\n      tag_177\n        /* \"#utility.yul\":9506:9508   */\n      0x40\n        /* \"#utility.yul\":9495:9504   */\n      dup4\n        /* \"#utility.yul\":9491:9509   */\n      add\n        /* \"#utility.yul\":9482:9488   */\n      dup5\n        /* \"#utility.yul\":9438:9510   */\n      tag_61\n      jump\t// in\n    tag_177:\n        /* \"#utility.yul\":9075:9517   */\n      swap5\n      swap4\n      pop\n      pop\n      pop\n      pop\n      jump\t// out\n        /* \"#utility.yul\":9523:9745   */\n    tag_33:\n        /* \"#utility.yul\":9616:9620   */\n      0x00\n        /* \"#utility.yul\":9654:9656   */\n      0x20\n        /* \"#utility.yul\":9643:9652   */\n      dup3\n        /* \"#utility.yul\":9639:9657   */\n      add\n        /* \"#utility.yul\":9631:9657   */\n      swap1\n      pop\n        /* \"#utility.yul\":9667:9738   */\n      tag_179\n        /* \"#utility.yul\":9735:9736   */\n      0x00\n        /* \"#utility.yul\":9724:9733   */\n      dup4\n        /* \"#utility.yul\":9720:9737   */\n      add\n        /* \"#utility.yul\":9711:9717   */\n      dup5\n        /* \"#utility.yul\":9667:9738   */\n      tag_61\n      jump\t// in\n    tag_179:\n        /* \"#utility.yul\":9523:9745   */\n      swap3\n      swap2\n      pop\n      pop\n      jump\t// out\n        /* \"contracts/RDFCoinInter.sol\":183:761  contract RDFCoinInter is ERC20{... */\n    tag_15:\n      dataSize(sub_0)\n      dup1\n      dataOffset(sub_0)\n      0x00\n      codecopy\n      0x00\n      return\n    stop\n\n    sub_0: assembly {\n            /* \"contracts/RDFCoinInter.sol\":183:761  contract RDFCoinInter is ERC20{... */\n          mstore(0x40, 0x80)\n          callvalue\n          dup1\n          iszero\n          tag_1\n          jumpi\n          0x00\n          dup1\n          revert\n        tag_1:\n          pop\n          jumpi(tag_2, lt(calldatasize, 0x04))\n          shr(0xe0, calldataload(0x00))\n          dup1\n          0x313ce567\n          gt\n          tag_12\n          jumpi\n          dup1\n          0x313ce567\n          eq\n          tag_7\n          jumpi\n          dup1\n          0x70a08231\n          eq\n          tag_8\n          jumpi\n          dup1\n          0x95d89b41\n          eq\n          tag_9\n          jumpi\n          dup1\n          0xa9059cbb\n          eq\n          tag_10\n          jumpi\n          dup1\n          0xdd62ed3e\n          eq\n          tag_11\n          jumpi\n          jump(tag_2)\n        tag_12:\n          dup1\n          0x06fdde03\n          eq\n          tag_3\n          jumpi\n          dup1\n          0x095ea7b3\n          eq\n          tag_4\n          jumpi\n          dup1\n          0x18160ddd\n          eq\n          tag_5\n          jumpi\n          dup1\n          0x23b872dd\n          eq\n          tag_6\n          jumpi\n        tag_2:\n          0x00\n          dup1\n          revert\n            /* \"@openzeppelin/contracts/token/ERC20/ERC20.sol\":2074:2163  function name() public view virtual returns (string memory) {... */\n        tag_3:\n          tag_13\n          tag_14\n          jump\t// in\n        tag_13:\n          mload(0x40)\n          tag_15\n          swap2\n          swap1\n          tag_16\n          jump\t// in\n        tag_15:\n          mload(0x40)\n          dup1\n          swap2\n          sub\n          swap1\n          return\n            /* \"@openzeppelin/contracts/token/ERC20/ERC20.sol\":4293:4479  function approve(address spender, uint256 value) public virtual returns (bool) {... */\n        tag_4:\n          tag_17\n          0x04\n          dup1\n          calldatasize\n          sub\n          dup2\n          add\n          swap1\n          tag_18\n          swap2\n          swap1\n          tag_19\n          jump\t// in\n        tag_18:\n          tag_20\n          jump\t// in\n        tag_17:\n          mload(0x40)\n          tag_21\n          swap2\n          swap1\n          tag_22\n          jump\t// in\n        tag_21:\n          mload(0x40)\n          dup1\n          swap2\n          sub\n          swap1\n          return\n            /* \"@openzeppelin/contracts/token/ERC20/ERC20.sol\":3144:3241  function totalSupply() public view virtual returns (uint256) {... */\n        tag_5:\n          tag_23\n          tag_24\n          jump\t// in\n        tag_23:\n          mload(0x40)\n          tag_25\n          swap2\n          swap1\n          tag_26\n          jump\t// in\n        tag_25:\n          mload(0x40)\n          dup1\n          swap2\n          sub\n          swap1\n          return\n            /* \"@openzeppelin/contracts/token/ERC20/ERC20.sol\":5039:5283  function transferFrom(address from, address to, uint256 value) public virtual returns (bool) {... */\n        tag_6:\n          tag_27\n          0x04\n          dup1\n          calldatasize\n          sub\n          dup2\n          add\n          swap1\n          tag_28\n          swap2\n          swap1\n          tag_29\n          jump\t// in\n        tag_28:\n          tag_30\n          jump\t// in\n        tag_27:\n          mload(0x40)\n          tag_31\n          swap2\n          swap1\n          tag_22\n          jump\t// in\n        tag_31:\n          mload(0x40)\n          dup1\n          swap2\n          sub\n          swap1\n          return\n            /* \"contracts/RDFCoinInter.sol\":661:759  function decimals() public view virtual override returns (uint8) {... */\n        tag_7:\n          tag_32\n          tag_33\n          jump\t// in\n        tag_32:\n          mload(0x40)\n          tag_34\n          swap2\n          swap1\n          tag_35\n          jump\t// in\n        tag_34:\n          mload(0x40)\n          dup1\n          swap2\n          sub\n          swap1\n          return\n            /* \"@openzeppelin/contracts/token/ERC20/ERC20.sol\":3299:3415  function balanceOf(address account) public view virtual returns (uint256) {... */\n        tag_8:\n          tag_36\n          0x04\n          dup1\n          calldatasize\n          sub\n          dup2\n          add\n          swap1\n          tag_37\n          swap2\n          swap1\n          tag_38\n          jump\t// in\n        tag_37:\n          tag_39\n          jump\t// in\n        tag_36:\n          mload(0x40)\n          tag_40\n          swap2\n          swap1\n          tag_26\n          jump\t// in\n        tag_40:\n          mload(0x40)\n          dup1\n          swap2\n          sub\n          swap1\n          return\n            /* \"@openzeppelin/contracts/token/ERC20/ERC20.sol\":2276:2369  function symbol() public view virtual returns (string memory) {... */\n        tag_9:\n          tag_41\n          tag_42\n          jump\t// in\n        tag_41:\n          mload(0x40)\n          tag_43\n          swap2\n          swap1\n          tag_16\n          jump\t// in\n        tag_43:\n          mload(0x40)\n          dup1\n          swap2\n          sub\n          swap1\n          return\n            /* \"@openzeppelin/contracts/token/ERC20/ERC20.sol\":3610:3788  function transfer(address to, uint256 value) public virtual returns (bool) {... */\n        tag_10:\n          tag_44\n          0x04\n          dup1\n          calldatasize\n          sub\n          dup2\n          add\n          swap1\n          tag_45\n          swap2\n          swap1\n          tag_19\n          jump\t// in\n        tag_45:\n          tag_46\n          jump\t// in\n        tag_44:\n          mload(0x40)\n          tag_47\n          swap2\n          swap1\n          tag_22\n          jump\t// in\n        tag_47:\n          mload(0x40)\n          dup1\n          swap2\n          sub\n          swap1\n          return\n            /* \"@openzeppelin/contracts/token/ERC20/ERC20.sol\":3846:3986  function allowance(address owner, address spender) public view virtual returns (uint256) {... */\n        tag_11:\n          tag_48\n          0x04\n          dup1\n          calldatasize\n          sub\n          dup2\n          add\n          swap1\n          tag_49\n          swap2\n          swap1\n          tag_50\n          jump\t// in\n        tag_49:\n          tag_51\n          jump\t// in\n        tag_48:\n          mload(0x40)\n          tag_52\n          swap2\n          swap1\n          tag_26\n          jump\t// in\n        tag_52:\n          mload(0x40)\n          dup1\n          swap2\n          sub\n          swap1\n          return\n            /* \"@openzeppelin/contracts/token/ERC20/ERC20.sol\":2074:2163  function name() public view virtual returns (string memory) {... */\n        tag_14:\n            /* \"@openzeppelin/contracts/token/ERC20/ERC20.sol\":2119:2132  string memory */\n          0x60\n            /* \"@openzeppelin/contracts/token/ERC20/ERC20.sol\":2151:2156  _name */\n          0x03\n            /* \"@openzeppelin/contracts/token/ERC20/ERC20.sol\":2144:2156  return _name */\n          dup1\n          sload\n          tag_54\n          swap1\n          tag_55\n          jump\t// in\n        tag_54:\n          dup1\n          0x1f\n          add\n          0x20\n          dup1\n          swap2\n          div\n          mul\n          0x20\n          add\n          mload(0x40)\n          swap1\n          dup2\n          add\n          0x40\n          mstore\n          dup1\n          swap3\n          swap2\n          swap1\n          dup2\n          dup2\n          mstore\n          0x20\n          add\n          dup3\n          dup1\n          sload\n          tag_56\n          swap1\n          tag_55\n          jump\t// in\n        tag_56:\n          dup1\n          iszero\n          tag_57\n          jumpi\n          dup1\n          0x1f\n          lt\n          tag_58\n          jumpi\n          0x0100\n          dup1\n          dup4\n          sload\n          div\n          mul\n          dup4\n          mstore\n          swap2\n          0x20\n          add\n          swap2\n          jump(tag_57)\n        tag_58:\n          dup3\n          add\n          swap2\n          swap1\n          0x00\n          mstore\n          keccak256(0x00, 0x20)\n          swap1\n        tag_59:\n          dup2\n          sload\n          dup2\n          mstore\n          swap1\n          0x01\n          add\n          swap1\n          0x20\n          add\n          dup1\n          dup4\n          gt\n          tag_59\n          jumpi\n          dup3\n          swap1\n          sub\n          0x1f\n          and\n          dup3\n          add\n          swap2\n        tag_57:\n          pop\n          pop\n          pop\n          pop\n          pop\n          swap1\n          pop\n            /* \"@openzeppelin/contracts/token/ERC20/ERC20.sol\":2074:2163  function name() public view virtual returns (string memory) {... */\n          swap1\n          jump\t// out\n            /* \"@openzeppelin/contracts/token/ERC20/ERC20.sol\":4293:4479  function approve(address spender, uint256 value) public virtual returns (bool) {... */\n        tag_20:\n            /* \"@openzeppelin/contracts/token/ERC20/ERC20.sol\":4366:4370  bool */\n          0x00\n            /* \"@openzeppelin/contracts/token/ERC20/ERC20.sol\":4382:4395  address owner */\n          dup1\n            /* \"@openzeppelin/contracts/token/ERC20/ERC20.sol\":4398:4410  _msgSender() */\n          tag_61\n            /* \"@openzeppelin/contracts/token/ERC20/ERC20.sol\":4398:4408  _msgSender */\n          tag_62\n            /* \"@openzeppelin/contracts/token/ERC20/ERC20.sol\":4398:4410  _msgSender() */\n          jump\t// in\n        tag_61:\n            /* \"@openzeppelin/contracts/token/ERC20/ERC20.sol\":4382:4410  address owner = _msgSender() */\n          swap1\n          pop\n            /* \"@openzeppelin/contracts/token/ERC20/ERC20.sol\":4420:4451  _approve(owner, spender, value) */\n          tag_63\n            /* \"@openzeppelin/contracts/token/ERC20/ERC20.sol\":4429:4434  owner */\n          dup2\n            /* \"@openzeppelin/contracts/token/ERC20/ERC20.sol\":4436:4443  spender */\n          dup6\n            /* \"@openzeppelin/contracts/token/ERC20/ERC20.sol\":4445:4450  value */\n          dup6\n            /* \"@openzeppelin/contracts/token/ERC20/ERC20.sol\":4420:4428  _approve */\n          tag_64\n            /* \"@openzeppelin/contracts/token/ERC20/ERC20.sol\":4420:4451  _approve(owner, spender, value) */\n          jump\t// in\n        tag_63:\n            /* \"@openzeppelin/contracts/token/ERC20/ERC20.sol\":4468:4472  true */\n          0x01\n            /* \"@openzeppelin/contracts/token/ERC20/ERC20.sol\":4461:4472  return true */\n          swap2\n          pop\n          pop\n            /* \"@openzeppelin/contracts/token/ERC20/ERC20.sol\":4293:4479  function approve(address spender, uint256 value) public virtual returns (bool) {... */\n          swap3\n          swap2\n          pop\n          pop\n          jump\t// out\n            /* \"@openzeppelin/contracts/token/ERC20/ERC20.sol\":3144:3241  function totalSupply() public view virtual returns (uint256) {... */\n        tag_24:\n            /* \"@openzeppelin/contracts/token/ERC20/ERC20.sol\":3196:3203  uint256 */\n          0x00\n            /* \"@openzeppelin/contracts/token/ERC20/ERC20.sol\":3222:3234  _totalSupply */\n          sload(0x02)\n            /* \"@openzeppelin/contracts/token/ERC20/ERC20.sol\":3215:3234  return _totalSupply */\n          swap1\n          pop\n            /* \"@openzeppelin/contracts/token/ERC20/ERC20.sol\":3144:3241  function totalSupply() public view virtual returns (uint256) {... */\n          swap1\n          jump\t// out\n            /* \"@openzeppelin/contracts/token/ERC20/ERC20.sol\":5039:5283  function transferFrom(address from, address to, uint256 value) public virtual returns (bool) {... */\n        tag_30:\n            /* \"@openzeppelin/contracts/token/ERC20/ERC20.sol\":5126:5130  bool */\n          0x00\n            /* \"@openzeppelin/contracts/token/ERC20/ERC20.sol\":5142:5157  address spender */\n          dup1\n            /* \"@openzeppelin/contracts/token/ERC20/ERC20.sol\":5160:5172  _msgSender() */\n          tag_67\n            /* \"@openzeppelin/contracts/token/ERC20/ERC20.sol\":5160:5170  _msgSender */\n          tag_62\n            /* \"@openzeppelin/contracts/token/ERC20/ERC20.sol\":5160:5172  _msgSender() */\n          jump\t// in\n        tag_67:\n            /* \"@openzeppelin/contracts/token/ERC20/ERC20.sol\":5142:5172  address spender = _msgSender() */\n          swap1\n          pop\n            /* \"@openzeppelin/contracts/token/ERC20/ERC20.sol\":5182:5219  _spendAllowance(from, spender, value) */\n          tag_68\n            /* \"@openzeppelin/contracts/token/ERC20/ERC20.sol\":5198:5202  from */\n          dup6\n            /* \"@openzeppelin/contracts/token/ERC20/ERC20.sol\":5204:5211  spender */\n          dup3\n            /* \"@openzeppelin/contracts/token/ERC20/ERC20.sol\":5213:5218  value */\n          dup6\n            /* \"@openzeppelin/contracts/token/ERC20/ERC20.sol\":5182:5197  _spendAllowance */\n          tag_69\n            /* \"@openzeppelin/contracts/token/ERC20/ERC20.sol\":5182:5219  _spendAllowance(from, spender, value) */\n          jump\t// in\n        tag_68:\n            /* \"@openzeppelin/contracts/token/ERC20/ERC20.sol\":5229:5255  _transfer(from, to, value) */\n          tag_70\n            /* \"@openzeppelin/contracts/token/ERC20/ERC20.sol\":5239:5243  from */\n          dup6\n            /* \"@openzeppelin/contracts/token/ERC20/ERC20.sol\":5245:5247  to */\n          dup6\n            /* \"@openzeppelin/contracts/token/ERC20/ERC20.sol\":5249:5254  value */\n          dup6\n            /* \"@openzeppelin/contracts/token/ERC20/ERC20.sol\":5229:5238  _transfer */\n          tag_71\n            /* \"@openzeppelin/contracts/token/ERC20/ERC20.sol\":5229:5255  _transfer(from, to, value) */\n          jump\t// in\n        tag_70:\n            /* \"@openzeppelin/contracts/token/ERC20/ERC20.sol\":5272:5276  true */\n          0x01\n            /* \"@openzeppelin/contracts/token/ERC20/ERC20.sol\":5265:5276  return true */\n          swap2\n          pop\n          pop\n            /* \"@openzeppelin/contracts/token/ERC20/ERC20.sol\":5039:5283  function transferFrom(address from, address to, uint256 value) public virtual returns (bool) {... */\n          swap4\n          swap3\n          pop\n          pop\n          pop\n          jump\t// out\n            /* \"contracts/RDFCoinInter.sol\":661:759  function decimals() public view virtual override returns (uint8) {... */\n        tag_33:\n            /* \"contracts/RDFCoinInter.sol\":719:724  uint8 */\n          0x00\n            /* \"contracts/RDFCoinInter.sol\":743:752  _decimals */\n          0x05\n          0x00\n          swap1\n          sload\n          swap1\n          0x0100\n          exp\n          swap1\n          div\n          0xff\n          and\n            /* \"contracts/RDFCoinInter.sol\":736:752  return _decimals */\n          swap1\n          pop\n            /* \"contracts/RDFCoinInter.sol\":661:759  function decimals() public view virtual override returns (uint8) {... */\n          swap1\n          jump\t// out\n            /* \"@openzeppelin/contracts/token/ERC20/ERC20.sol\":3299:3415  function balanceOf(address account) public view virtual returns (uint256) {... */\n        tag_39:\n            /* \"@openzeppelin/contracts/token/ERC20/ERC20.sol\":3364:3371  uint256 */\n          0x00\n            /* \"@openzeppelin/contracts/token/ERC20/ERC20.sol\":3390:3399  _balances */\n          dup1\n            /* \"@openzeppelin/contracts/token/ERC20/ERC20.sol\":3390:3408  _balances[account] */\n          0x00\n            /* \"@openzeppelin/contracts/token/ERC20/ERC20.sol\":3400:3407  account */\n          dup4\n            /* \"@openzeppelin/contracts/token/ERC20/ERC20.sol\":3390:3408  _balances[account] */\n          0xffffffffffffffffffffffffffffffffffffffff\n          and\n          0xffffffffffffffffffffffffffffffffffffffff\n          and\n          dup2\n          mstore\n          0x20\n          add\n          swap1\n          dup2\n          mstore\n          0x20\n          add\n          0x00\n          keccak256\n          sload\n            /* \"@openzeppelin/contracts/token/ERC20/ERC20.sol\":3383:3408  return _balances[account] */\n          swap1\n          pop\n            /* \"@openzeppelin/contracts/token/ERC20/ERC20.sol\":3299:3415  function balanceOf(address account) public view virtual returns (uint256) {... */\n          swap2\n          swap1\n          pop\n          jump\t// out\n            /* \"@openzeppelin/contracts/token/ERC20/ERC20.sol\":2276:2369  function symbol() public view virtual returns (string memory) {... */\n        tag_42:\n            /* \"@openzeppelin/contracts/token/ERC20/ERC20.sol\":2323:2336  string memory */\n          0x60\n            /* \"@openzeppelin/contracts/token/ERC20/ERC20.sol\":2355:2362  _symbol */\n          0x04\n            /* \"@openzeppelin/contracts/token/ERC20/ERC20.sol\":2348:2362  return _symbol */\n          dup1\n          sload\n          tag_75\n          swap1\n          tag_55\n          jump\t// in\n        tag_75:\n          dup1\n          0x1f\n          add\n          0x20\n          dup1\n          swap2\n          div\n          mul\n          0x20\n          add\n          mload(0x40)\n          swap1\n          dup2\n          add\n          0x40\n          mstore\n          dup1\n          swap3\n          swap2\n          swap1\n          dup2\n          dup2\n          mstore\n          0x20\n          add\n          dup3\n          dup1\n          sload\n          tag_76\n          swap1\n          tag_55\n          jump\t// in\n        tag_76:\n          dup1\n          iszero\n          tag_77\n          jumpi\n          dup1\n          0x1f\n          lt\n          tag_78\n          jumpi\n          0x0100\n          dup1\n          dup4\n          sload\n          div\n          mul\n          dup4\n          mstore\n          swap2\n          0x20\n          add\n          swap2\n          jump(tag_77)\n        tag_78:\n          dup3\n          add\n          swap2\n          swap1\n          0x00\n          mstore\n          keccak256(0x00, 0x20)\n          swap1\n        tag_79:\n          dup2\n          sload\n          dup2\n          mstore\n          swap1\n          0x01\n          add\n          swap1\n          0x20\n          add\n          dup1\n          dup4\n          gt\n          tag_79\n          jumpi\n          dup3\n          swap1\n          sub\n          0x1f\n          and\n          dup3\n          add\n          swap2\n        tag_77:\n          pop\n          pop\n          pop\n          pop\n          pop\n          swap1\n          pop\n            /* \"@openzeppelin/contracts/token/ERC20/ERC20.sol\":2276:2369  function symbol() public view virtual returns (string memory) {... */\n          swap1\n          jump\t// out\n            /* \"@openzeppelin/contracts/token/ERC20/ERC20.sol\":3610:3788  function transfer(address to, uint256 value) public virtual returns (bool) {... */\n        tag_46:\n            /* \"@openzeppelin/contracts/token/ERC20/ERC20.sol\":3679:3683  bool */\n          0x00\n            /* \"@openzeppelin/contracts/token/ERC20/ERC20.sol\":3695:3708  address owner */\n          dup1\n            /* \"@openzeppelin/contracts/token/ERC20/ERC20.sol\":3711:3723  _msgSender() */\n          tag_81\n            /* \"@openzeppelin/contracts/token/ERC20/ERC20.sol\":3711:3721  _msgSender */\n          tag_62\n            /* \"@openzeppelin/contracts/token/ERC20/ERC20.sol\":3711:3723  _msgSender() */\n          jump\t// in\n        tag_81:\n            /* \"@openzeppelin/contracts/token/ERC20/ERC20.sol\":3695:3723  address owner = _msgSender() */\n          swap1\n          pop\n            /* \"@openzeppelin/contracts/token/ERC20/ERC20.sol\":3733:3760  _transfer(owner, to, value) */\n          tag_82\n            /* \"@openzeppelin/contracts/token/ERC20/ERC20.sol\":3743:3748  owner */\n          dup2\n            /* \"@openzeppelin/contracts/token/ERC20/ERC20.sol\":3750:3752  to */\n          dup6\n            /* \"@openzeppelin/contracts/token/ERC20/ERC20.sol\":3754:3759  value */\n          dup6\n            /* \"@openzeppelin/contracts/token/ERC20/ERC20.sol\":3733:3742  _transfer */\n          tag_71\n            /* \"@openzeppelin/contracts/token/ERC20/ERC20.sol\":3733:3760  _transfer(owner, to, value) */\n          jump\t// in\n        tag_82:\n            /* \"@openzeppelin/contracts/token/ERC20/ERC20.sol\":3777:3781  true */\n          0x01\n            /* \"@openzeppelin/contracts/token/ERC20/ERC20.sol\":3770:3781  return true */\n          swap2\n          pop\n          pop\n            /* \"@openzeppelin/contracts/token/ERC20/ERC20.sol\":3610:3788  function transfer(address to, uint256 value) public virtual returns (bool) {... */\n          swap3\n          swap2\n          pop\n          pop\n          jump\t// out\n            /* \"@openzeppelin/contracts/token/ERC20/ERC20.sol\":3846:3986  function allowance(address owner, address spender) public view virtual returns (uint256) {... */\n        tag_51:\n            /* \"@openzeppelin/contracts/token/ERC20/ERC20.sol\":3926:3933  uint256 */\n          0x00\n            /* \"@openzeppelin/contracts/token/ERC20/ERC20.sol\":3952:3963  _allowances */\n          0x01\n            /* \"@openzeppelin/contracts/token/ERC20/ERC20.sol\":3952:3970  _allowances[owner] */\n          0x00\n            /* \"@openzeppelin/contracts/token/ERC20/ERC20.sol\":3964:3969  owner */\n          dup5\n            /* \"@openzeppelin/contracts/token/ERC20/ERC20.sol\":3952:3970  _allowances[owner] */\n          0xffffffffffffffffffffffffffffffffffffffff\n          and\n          0xffffffffffffffffffffffffffffffffffffffff\n          and\n          dup2\n          mstore\n          0x20\n          add\n          swap1\n          dup2\n          mstore\n          0x20\n          add\n          0x00\n          keccak256\n            /* \"@openzeppelin/contracts/token/ERC20/ERC20.sol\":3952:3979  _allowances[owner][spender] */\n          0x00\n            /* \"@openzeppelin/contracts/token/ERC20/ERC20.sol\":3971:3978  spender */\n          dup4\n            /* \"@openzeppelin/contracts/token/ERC20/ERC20.sol\":3952:3979  _allowances[owner][spender] */\n          0xffffffffffffffffffffffffffffffffffffffff\n          and\n          0xffffffffffffffffffffffffffffffffffffffff\n          and\n          dup2\n          mstore\n          0x20\n          add\n          swap1\n          dup2\n          mstore\n          0x20\n          add\n          0x00\n          keccak256\n          sload\n            /* \"@openzeppelin/contracts/token/ERC20/ERC20.sol\":3945:3979  return _allowances[owner][spender] */\n          swap1\n          pop\n            /* \"@openzeppelin/contracts/token/ERC20/ERC20.sol\":3846:3986  function allowance(address owner, address spender) public view virtual returns (uint256) {... */\n          swap3\n          swap2\n          pop\n          pop\n          jump\t// out\n            /* \"@openzeppelin/contracts/utils/Context.sol\":656:752  function _msgSender() internal view virtual returns (address) {... */\n        tag_62:\n            /* \"@openzeppelin/contracts/utils/Context.sol\":709:716  address */\n          0x00\n            /* \"@openzeppelin/contracts/utils/Context.sol\":735:745  msg.sender */\n          caller\n            /* \"@openzeppelin/contracts/utils/Context.sol\":728:745  return msg.sender */\n          swap1\n          pop\n            /* \"@openzeppelin/contracts/utils/Context.sol\":656:752  function _msgSender() internal view virtual returns (address) {... */\n          swap1\n          jump\t// out\n            /* \"@openzeppelin/contracts/token/ERC20/ERC20.sol\":8989:9117  function _approve(address owner, address spender, uint256 value) internal {... */\n        tag_64:\n            /* \"@openzeppelin/contracts/token/ERC20/ERC20.sol\":9073:9110  _approve(owner, spender, value, true) */\n          tag_86\n            /* \"@openzeppelin/contracts/token/ERC20/ERC20.sol\":9082:9087  owner */\n          dup4\n            /* \"@openzeppelin/contracts/token/ERC20/ERC20.sol\":9089:9096  spender */\n          dup4\n            /* \"@openzeppelin/contracts/token/ERC20/ERC20.sol\":9098:9103  value */\n          dup4\n            /* \"@openzeppelin/contracts/token/ERC20/ERC20.sol\":9105:9109  true */\n          0x01\n            /* \"@openzeppelin/contracts/token/ERC20/ERC20.sol\":9073:9081  _approve */\n          tag_87\n            /* \"@openzeppelin/contracts/token/ERC20/ERC20.sol\":9073:9110  _approve(owner, spender, value, true) */\n          jump\t// in\n        tag_86:\n            /* \"@openzeppelin/contracts/token/ERC20/ERC20.sol\":8989:9117  function _approve(address owner, address spender, uint256 value) internal {... */\n          pop\n          pop\n          pop\n          jump\t// out\n            /* \"@openzeppelin/contracts/token/ERC20/ERC20.sol\":10663:11140  function _spendAllowance(address owner, address spender, uint256 value) internal virtual {... */\n        tag_69:\n            /* \"@openzeppelin/contracts/token/ERC20/ERC20.sol\":10762:10786  uint256 currentAllowance */\n          0x00\n            /* \"@openzeppelin/contracts/token/ERC20/ERC20.sol\":10789:10814  allowance(owner, spender) */\n          tag_89\n            /* \"@openzeppelin/contracts/token/ERC20/ERC20.sol\":10799:10804  owner */\n          dup5\n            /* \"@openzeppelin/contracts/token/ERC20/ERC20.sol\":10806:10813  spender */\n          dup5\n            /* \"@openzeppelin/contracts/token/ERC20/ERC20.sol\":10789:10798  allowance */\n          tag_51\n            /* \"@openzeppelin/contracts/token/ERC20/ERC20.sol\":10789:10814  allowance(owner, spender) */\n          jump\t// in\n        tag_89:\n            /* \"@openzeppelin/contracts/token/ERC20/ERC20.sol\":10762:10814  uint256 currentAllowance = allowance(owner, spender) */\n          swap1\n          pop\n            /* \"@openzeppelin/contracts/token/ERC20/ERC20.sol\":10848:10865  type(uint256).max */\n          0xffffffffffffffffffffffffffffffffffffffffffffffffffffffffffffffff\n            /* \"@openzeppelin/contracts/token/ERC20/ERC20.sol\":10828:10844  currentAllowance */\n          dup2\n            /* \"@openzeppelin/contracts/token/ERC20/ERC20.sol\":10828:10865  currentAllowance != type(uint256).max */\n          eq\n            /* \"@openzeppelin/contracts/token/ERC20/ERC20.sol\":10824:11134  if (currentAllowance != type(uint256).max) {... */\n          tag_90\n          jumpi\n            /* \"@openzeppelin/contracts/token/ERC20/ERC20.sol\":10904:10909  value */\n          dup2\n            /* \"@openzeppelin/contracts/token/ERC20/ERC20.sol\":10885:10901  currentAllowance */\n          dup2\n            /* \"@openzeppelin/contracts/token/ERC20/ERC20.sol\":10885:10909  currentAllowance < value */\n          lt\n            /* \"@openzeppelin/contracts/token/ERC20/ERC20.sol\":10881:11011  if (currentAllowance < value) {... */\n          iszero\n          tag_91\n          jumpi\n            /* \"@openzeppelin/contracts/token/ERC20/ERC20.sol\":10963:10970  spender */\n          dup3\n            /* \"@openzeppelin/contracts/token/ERC20/ERC20.sol\":10972:10988  currentAllowance */\n          dup2\n            /* \"@openzeppelin/contracts/token/ERC20/ERC20.sol\":10990:10995  value */\n          dup4\n            /* \"@openzeppelin/contracts/token/ERC20/ERC20.sol\":10936:10996  ERC20InsufficientAllowance(spender, currentAllowance, value) */\n          mload(0x40)\n          0xfb8f41b200000000000000000000000000000000000000000000000000000000\n          dup2\n          mstore\n          0x04\n          add\n          tag_92\n          swap4\n          swap3\n          swap2\n          swap1\n          tag_93\n          jump\t// in\n        tag_92:\n          mload(0x40)\n          dup1\n          swap2\n          sub\n          swap1\n          revert\n            /* \"@openzeppelin/contracts/token/ERC20/ERC20.sol\":10881:11011  if (currentAllowance < value) {... */\n        tag_91:\n            /* \"@openzeppelin/contracts/token/ERC20/ERC20.sol\":11052:11109  _approve(owner, spender, currentAllowance - value, false) */\n          tag_94\n            /* \"@openzeppelin/contracts/token/ERC20/ERC20.sol\":11061:11066  owner */\n          dup5\n            /* \"@openzeppelin/contracts/token/ERC20/ERC20.sol\":11068:11075  spender */\n          dup5\n            /* \"@openzeppelin/contracts/token/ERC20/ERC20.sol\":11096:11101  value */\n          dup5\n            /* \"@openzeppelin/contracts/token/ERC20/ERC20.sol\":11077:11093  currentAllowance */\n          dup5\n            /* \"@openzeppelin/contracts/token/ERC20/ERC20.sol\":11077:11101  currentAllowance - value */\n          sub\n            /* \"@openzeppelin/contracts/token/ERC20/ERC20.sol\":11103:11108  false */\n          0x00\n            /* \"@openzeppelin/contracts/token/ERC20/ERC20.sol\":11052:11060  _approve */\n          tag_87\n            /* \"@openzeppelin/contracts/token/ERC20/ERC20.sol\":11052:11109  _approve(owner, spender, currentAllowance - value, false) */\n          jump\t// in\n        tag_94:\n            /* \"@openzeppelin/contracts/token/ERC20/ERC20.sol\":10824:11134  if (currentAllowance != type(uint256).max) {... */\n        tag_90:\n            /* \"@openzeppelin/contracts/token/ERC20/ERC20.sol\":10752:11140  {... */\n          pop\n            /* \"@openzeppelin/contracts/token/ERC20/ERC20.sol\":10663:11140  function _spendAllowance(address owner, address spender, uint256 value) internal virtual {... */\n          pop\n          pop\n          pop\n          jump\t// out\n            /* \"@openzeppelin/contracts/token/ERC20/ERC20.sol\":5656:5956  function _transfer(address from, address to, uint256 value) internal {... */\n        tag_71:\n            /* \"@openzeppelin/contracts/token/ERC20/ERC20.sol\":5755:5756  0 */\n          0x00\n            /* \"@openzeppelin/contracts/token/ERC20/ERC20.sol\":5739:5757  from == address(0) */\n          0xffffffffffffffffffffffffffffffffffffffff\n          and\n            /* \"@openzeppelin/contracts/token/ERC20/ERC20.sol\":5739:5743  from */\n          dup4\n            /* \"@openzeppelin/contracts/token/ERC20/ERC20.sol\":5739:5757  from == address(0) */\n          0xffffffffffffffffffffffffffffffffffffffff\n          and\n          sub\n            /* \"@openzeppelin/contracts/token/ERC20/ERC20.sol\":5735:5821  if (from == address(0)) {... */\n          tag_96\n          jumpi\n            /* \"@openzeppelin/contracts/token/ERC20/ERC20.sol\":5807:5808  0 */\n          0x00\n            /* \"@openzeppelin/contracts/token/ERC20/ERC20.sol\":5780:5810  ERC20InvalidSender(address(0)) */\n          mload(0x40)\n          0x96c6fd1e00000000000000000000000000000000000000000000000000000000\n          dup2\n          mstore\n          0x04\n          add\n          tag_97\n          swap2\n          swap1\n          tag_98\n          jump\t// in\n        tag_97:\n          mload(0x40)\n          dup1\n          swap2\n          sub\n          swap1\n          revert\n            /* \"@openzeppelin/contracts/token/ERC20/ERC20.sol\":5735:5821  if (from == address(0)) {... */\n        tag_96:\n            /* \"@openzeppelin/contracts/token/ERC20/ERC20.sol\":5848:5849  0 */\n          0x00\n            /* \"@openzeppelin/contracts/token/ERC20/ERC20.sol\":5834:5850  to == address(0) */\n          0xffffffffffffffffffffffffffffffffffffffff\n          and\n            /* \"@openzeppelin/contracts/token/ERC20/ERC20.sol\":5834:5836  to */\n          dup3\n            /* \"@openzeppelin/contracts/token/ERC20/ERC20.sol\":5834:5850  to == address(0) */\n          0xffffffffffffffffffffffffffffffffffffffff\n          and\n          sub\n            /* \"@openzeppelin/contracts/token/ERC20/ERC20.sol\":5830:5916  if (to == address(0)) {... */\n          tag_99\n          jumpi\n            /* \"@openzeppelin/contracts/token/ERC20/ERC20.sol\":5902:5903  0 */\n          0x00\n            /* \"@openzeppelin/contracts/token/ERC20/ERC20.sol\":5873:5905  ERC20InvalidReceiver(address(0)) */\n          mload(0x40)\n          0xec442f0500000000000000000000000000000000000000000000000000000000\n          dup2\n          mstore\n          0x04\n          add\n          tag_100\n          swap2\n          swap1\n          tag_98\n          jump\t// in\n        tag_100:\n          mload(0x40)\n          dup1\n          swap2\n          sub\n          swap1\n          revert\n            /* \"@openzeppelin/contracts/token/ERC20/ERC20.sol\":5830:5916  if (to == address(0)) {... */\n        tag_99:\n            /* \"@openzeppelin/contracts/token/ERC20/ERC20.sol\":5925:5949  _update(from, to, value) */\n          tag_101\n            /* \"@openzeppelin/contracts/token/ERC20/ERC20.sol\":5933:5937  from */\n          dup4\n            /* \"@openzeppelin/contracts/token/ERC20/ERC20.sol\":5939:5941  to */\n          dup4\n            /* \"@openzeppelin/contracts/token/ERC20/ERC20.sol\":5943:5948  value */\n          dup4\n            /* \"@openzeppelin/contracts/token/ERC20/ERC20.sol\":5925:5932  _update */\n          tag_102\n            /* \"@openzeppelin/contracts/token/ERC20/ERC20.sol\":5925:5949  _update(from, to, value) */\n          jump\t// in\n        tag_101:\n            /* \"@openzeppelin/contracts/token/ERC20/ERC20.sol\":5656:5956  function _transfer(address from, address to, uint256 value) internal {... */\n          pop\n          pop\n          pop\n          jump\t// out\n            /* \"@openzeppelin/contracts/token/ERC20/ERC20.sol\":9949:10381  function _approve(address owner, address spender, uint256 value, bool emitEvent) internal virtual {... */\n        tag_87:\n            /* \"@openzeppelin/contracts/token/ERC20/ERC20.sol\":10078:10079  0 */\n          0x00\n            /* \"@openzeppelin/contracts/token/ERC20/ERC20.sol\":10061:10080  owner == address(0) */\n          0xffffffffffffffffffffffffffffffffffffffff\n          and\n            /* \"@openzeppelin/contracts/token/ERC20/ERC20.sol\":10061:10066  owner */\n          dup5\n            /* \"@openzeppelin/contracts/token/ERC20/ERC20.sol\":10061:10080  owner == address(0) */\n          0xffffffffffffffffffffffffffffffffffffffff\n          and\n          sub\n            /* \"@openzeppelin/contracts/token/ERC20/ERC20.sol\":10057:10146  if (owner == address(0)) {... */\n          tag_104\n          jumpi\n            /* \"@openzeppelin/contracts/token/ERC20/ERC20.sol\":10132:10133  0 */\n          0x00\n            /* \"@openzeppelin/contracts/token/ERC20/ERC20.sol\":10103:10135  ERC20InvalidApprover(address(0)) */\n          mload(0x40)\n          0xe602df0500000000000000000000000000000000000000000000000000000000\n          dup2\n          mstore\n          0x04\n          add\n          tag_105\n          swap2\n          swap1\n          tag_98\n          jump\t// in\n        tag_105:\n          mload(0x40)\n          dup1\n          swap2\n          sub\n          swap1\n          revert\n            /* \"@openzeppelin/contracts/token/ERC20/ERC20.sol\":10057:10146  if (owner == address(0)) {... */\n        tag_104:\n            /* \"@openzeppelin/contracts/token/ERC20/ERC20.sol\":10178:10179  0 */\n          0x00\n            /* \"@openzeppelin/contracts/token/ERC20/ERC20.sol\":10159:10180  spender == address(0) */\n          0xffffffffffffffffffffffffffffffffffffffff\n          and\n            /* \"@openzeppelin/contracts/token/ERC20/ERC20.sol\":10159:10166  spender */\n          dup4\n            /* \"@openzeppelin/contracts/token/ERC20/ERC20.sol\":10159:10180  spender == address(0) */\n          0xffffffffffffffffffffffffffffffffffffffff\n          and\n          sub\n            /* \"@openzeppelin/contracts/token/ERC20/ERC20.sol\":10155:10245  if (spender == address(0)) {... */\n          tag_106\n          jumpi\n            /* \"@openzeppelin/contracts/token/ERC20/ERC20.sol\":10231:10232  0 */\n          0x00\n            /* \"@openzeppelin/contracts/token/ERC20/ERC20.sol\":10203:10234  ERC20InvalidSpender(address(0)) */\n          mload(0x40)\n          0x94280d6200000000000000000000000000000000000000000000000000000000\n          dup2\n          mstore\n          0x04\n          add\n          tag_107\n          swap2\n          swap1\n          tag_98\n          jump\t// in\n        tag_107:\n          mload(0x40)\n          dup1\n          swap2\n          sub\n          swap1\n          revert\n            /* \"@openzeppelin/contracts/token/ERC20/ERC20.sol\":10155:10245  if (spender == address(0)) {... */\n        tag_106:\n            /* \"@openzeppelin/contracts/token/ERC20/ERC20.sol\":10284:10289  value */\n          dup2\n            /* \"@openzeppelin/contracts/token/ERC20/ERC20.sol\":10254:10265  _allowances */\n          0x01\n            /* \"@openzeppelin/contracts/token/ERC20/ERC20.sol\":10254:10272  _allowances[owner] */\n          0x00\n            /* \"@openzeppelin/contracts/token/ERC20/ERC20.sol\":10266:10271  owner */\n          dup7\n            /* \"@openzeppelin/contracts/token/ERC20/ERC20.sol\":10254:10272  _allowances[owner] */\n          0xffffffffffffffffffffffffffffffffffffffff\n          and\n          0xffffffffffffffffffffffffffffffffffffffff\n          and\n          dup2\n          mstore\n          0x20\n          add\n          swap1\n          dup2\n          mstore\n          0x20\n          add\n          0x00\n          keccak256\n            /* \"@openzeppelin/contracts/token/ERC20/ERC20.sol\":10254:10281  _allowances[owner][spender] */\n          0x00\n            /* \"@openzeppelin/contracts/token/ERC20/ERC20.sol\":10273:10280  spender */\n          dup6\n            /* \"@openzeppelin/contracts/token/ERC20/ERC20.sol\":10254:10281  _allowances[owner][spender] */\n          0xffffffffffffffffffffffffffffffffffffffff\n          and\n          0xffffffffffffffffffffffffffffffffffffffff\n          and\n          dup2\n          mstore\n          0x20\n          add\n          swap1\n          dup2\n          mstore\n          0x20\n          add\n          0x00\n          keccak256\n            /* \"@openzeppelin/contracts/token/ERC20/ERC20.sol\":10254:10289  _allowances[owner][spender] = value */\n          dup2\n          swap1\n          sstore\n          pop\n            /* \"@openzeppelin/contracts/token/ERC20/ERC20.sol\":10303:10312  emitEvent */\n          dup1\n            /* \"@openzeppelin/contracts/token/ERC20/ERC20.sol\":10299:10375  if (emitEvent) {... */\n          iszero\n          tag_108\n          jumpi\n            /* \"@openzeppelin/contracts/token/ERC20/ERC20.sol\":10349:10356  spender */\n          dup3\n            /* \"@openzeppelin/contracts/token/ERC20/ERC20.sol\":10333:10364  Approval(owner, spender, value) */\n          0xffffffffffffffffffffffffffffffffffffffff\n          and\n            /* \"@openzeppelin/contracts/token/ERC20/ERC20.sol\":10342:10347  owner */\n          dup5\n            /* \"@openzeppelin/contracts/token/ERC20/ERC20.sol\":10333:10364  Approval(owner, spender, value) */\n          0xffffffffffffffffffffffffffffffffffffffff\n          and\n          0x8c5be1e5ebec7d5bd14f71427d1e84f3dd0314c0f7b2291e5b200ac8c7c3b925\n            /* \"@openzeppelin/contracts/token/ERC20/ERC20.sol\":10358:10363  value */\n          dup5\n            /* \"@openzeppelin/contracts/token/ERC20/ERC20.sol\":10333:10364  Approval(owner, spender, value) */\n          mload(0x40)\n          tag_109\n          swap2\n          swap1\n          tag_26\n          jump\t// in\n        tag_109:\n          mload(0x40)\n          dup1\n          swap2\n          sub\n          swap1\n          log3\n            /* \"@openzeppelin/contracts/token/ERC20/ERC20.sol\":10299:10375  if (emitEvent) {... */\n        tag_108:\n            /* \"@openzeppelin/contracts/token/ERC20/ERC20.sol\":9949:10381  function _approve(address owner, address spender, uint256 value, bool emitEvent) internal virtual {... */\n          pop\n          pop\n          pop\n          pop\n          jump\t// out\n            /* \"@openzeppelin/contracts/token/ERC20/ERC20.sol\":6271:7378  function _update(address from, address to, uint256 value) internal virtual {... */\n        tag_102:\n            /* \"@openzeppelin/contracts/token/ERC20/ERC20.sol\":6376:6377  0 */\n          0x00\n            /* \"@openzeppelin/contracts/token/ERC20/ERC20.sol\":6360:6378  from == address(0) */\n          0xffffffffffffffffffffffffffffffffffffffff\n          and\n            /* \"@openzeppelin/contracts/token/ERC20/ERC20.sol\":6360:6364  from */\n          dup4\n            /* \"@openzeppelin/contracts/token/ERC20/ERC20.sol\":6360:6378  from == address(0) */\n          0xffffffffffffffffffffffffffffffffffffffff\n          and\n          sub\n            /* \"@openzeppelin/contracts/token/ERC20/ERC20.sol\":6356:6896  if (from == address(0)) {... */\n          tag_111\n          jumpi\n            /* \"@openzeppelin/contracts/token/ERC20/ERC20.sol\":6512:6517  value */\n          dup1\n            /* \"@openzeppelin/contracts/token/ERC20/ERC20.sol\":6496:6508  _totalSupply */\n          0x02\n          0x00\n            /* \"@openzeppelin/contracts/token/ERC20/ERC20.sol\":6496:6517  _totalSupply += value */\n          dup3\n          dup3\n          sload\n          tag_112\n          swap2\n          swap1\n          tag_113\n          jump\t// in\n        tag_112:\n          swap3\n          pop\n          pop\n          dup2\n          swap1\n          sstore\n          pop\n            /* \"@openzeppelin/contracts/token/ERC20/ERC20.sol\":6356:6896  if (from == address(0)) {... */\n          jump(tag_114)\n        tag_111:\n            /* \"@openzeppelin/contracts/token/ERC20/ERC20.sol\":6548:6567  uint256 fromBalance */\n          0x00\n            /* \"@openzeppelin/contracts/token/ERC20/ERC20.sol\":6570:6579  _balances */\n          dup1\n            /* \"@openzeppelin/contracts/token/ERC20/ERC20.sol\":6570:6585  _balances[from] */\n          0x00\n            /* \"@openzeppelin/contracts/token/ERC20/ERC20.sol\":6580:6584  from */\n          dup6\n            /* \"@openzeppelin/contracts/token/ERC20/ERC20.sol\":6570:6585  _balances[from] */\n          0xffffffffffffffffffffffffffffffffffffffff\n          and\n          0xffffffffffffffffffffffffffffffffffffffff\n          and\n          dup2\n          mstore\n          0x20\n          add\n          swap1\n          dup2\n          mstore\n          0x20\n          add\n          0x00\n          keccak256\n          sload\n            /* \"@openzeppelin/contracts/token/ERC20/ERC20.sol\":6548:6585  uint256 fromBalance = _balances[from] */\n          swap1\n          pop\n            /* \"@openzeppelin/contracts/token/ERC20/ERC20.sol\":6617:6622  value */\n          dup2\n            /* \"@openzeppelin/contracts/token/ERC20/ERC20.sol\":6603:6614  fromBalance */\n          dup2\n            /* \"@openzeppelin/contracts/token/ERC20/ERC20.sol\":6603:6622  fromBalance < value */\n          lt\n            /* \"@openzeppelin/contracts/token/ERC20/ERC20.sol\":6599:6714  if (fromBalance < value) {... */\n          iszero\n          tag_115\n          jumpi\n            /* \"@openzeppelin/contracts/token/ERC20/ERC20.sol\":6674:6678  from */\n          dup4\n            /* \"@openzeppelin/contracts/token/ERC20/ERC20.sol\":6680:6691  fromBalance */\n          dup2\n            /* \"@openzeppelin/contracts/token/ERC20/ERC20.sol\":6693:6698  value */\n          dup4\n            /* \"@openzeppelin/contracts/token/ERC20/ERC20.sol\":6649:6699  ERC20InsufficientBalance(from, fromBalance, value) */\n          mload(0x40)\n          0xe450d38c00000000000000000000000000000000000000000000000000000000\n          dup2\n          mstore\n          0x04\n          add\n          tag_116\n          swap4\n          swap3\n          swap2\n          swap1\n          tag_93\n          jump\t// in\n        tag_116:\n          mload(0x40)\n          dup1\n          swap2\n          sub\n          swap1\n          revert\n            /* \"@openzeppelin/contracts/token/ERC20/ERC20.sol\":6599:6714  if (fromBalance < value) {... */\n        tag_115:\n            /* \"@openzeppelin/contracts/token/ERC20/ERC20.sol\":6866:6871  value */\n          dup2\n            /* \"@openzeppelin/contracts/token/ERC20/ERC20.sol\":6852:6863  fromBalance */\n          dup2\n            /* \"@openzeppelin/contracts/token/ERC20/ERC20.sol\":6852:6871  fromBalance - value */\n          sub\n            /* \"@openzeppelin/contracts/token/ERC20/ERC20.sol\":6834:6843  _balances */\n          0x00\n            /* \"@openzeppelin/contracts/token/ERC20/ERC20.sol\":6834:6849  _balances[from] */\n          dup1\n            /* \"@openzeppelin/contracts/token/ERC20/ERC20.sol\":6844:6848  from */\n          dup7\n            /* \"@openzeppelin/contracts/token/ERC20/ERC20.sol\":6834:6849  _balances[from] */\n          0xffffffffffffffffffffffffffffffffffffffff\n          and\n          0xffffffffffffffffffffffffffffffffffffffff\n          and\n          dup2\n          mstore\n          0x20\n          add\n          swap1\n          dup2\n          mstore\n          0x20\n          add\n          0x00\n          keccak256\n            /* \"@openzeppelin/contracts/token/ERC20/ERC20.sol\":6834:6871  _balances[from] = fromBalance - value */\n          dup2\n          swap1\n          sstore\n          pop\n            /* \"@openzeppelin/contracts/token/ERC20/ERC20.sol\":6534:6896  {... */\n          pop\n            /* \"@openzeppelin/contracts/token/ERC20/ERC20.sol\":6356:6896  if (from == address(0)) {... */\n        tag_114:\n            /* \"@openzeppelin/contracts/token/ERC20/ERC20.sol\":6924:6925  0 */\n          0x00\n            /* \"@openzeppelin/contracts/token/ERC20/ERC20.sol\":6910:6926  to == address(0) */\n          0xffffffffffffffffffffffffffffffffffffffff\n          and\n            /* \"@openzeppelin/contracts/token/ERC20/ERC20.sol\":6910:6912  to */\n          dup3\n            /* \"@openzeppelin/contracts/token/ERC20/ERC20.sol\":6910:6926  to == address(0) */\n          0xffffffffffffffffffffffffffffffffffffffff\n          and\n          sub\n            /* \"@openzeppelin/contracts/token/ERC20/ERC20.sol\":6906:7331  if (to == address(0)) {... */\n          tag_117\n          jumpi\n            /* \"@openzeppelin/contracts/token/ERC20/ERC20.sol\":7089:7094  value */\n          dup1\n            /* \"@openzeppelin/contracts/token/ERC20/ERC20.sol\":7073:7085  _totalSupply */\n          0x02\n          0x00\n            /* \"@openzeppelin/contracts/token/ERC20/ERC20.sol\":7073:7094  _totalSupply -= value */\n          dup3\n          dup3\n          sload\n          sub\n          swap3\n          pop\n          pop\n          dup2\n          swap1\n          sstore\n          pop\n            /* \"@openzeppelin/contracts/token/ERC20/ERC20.sol\":6906:7331  if (to == address(0)) {... */\n          jump(tag_118)\n        tag_117:\n            /* \"@openzeppelin/contracts/token/ERC20/ERC20.sol\":7301:7306  value */\n          dup1\n            /* \"@openzeppelin/contracts/token/ERC20/ERC20.sol\":7284:7293  _balances */\n          0x00\n            /* \"@openzeppelin/contracts/token/ERC20/ERC20.sol\":7284:7297  _balances[to] */\n          dup1\n            /* \"@openzeppelin/contracts/token/ERC20/ERC20.sol\":7294:7296  to */\n          dup5\n            /* \"@openzeppelin/contracts/token/ERC20/ERC20.sol\":7284:7297  _balances[to] */\n          0xffffffffffffffffffffffffffffffffffffffff\n          and\n          0xffffffffffffffffffffffffffffffffffffffff\n          and\n          dup2\n          mstore\n          0x20\n          add\n          swap1\n          dup2\n          mstore\n          0x20\n          add\n          0x00\n          keccak256\n          0x00\n            /* \"@openzeppelin/contracts/token/ERC20/ERC20.sol\":7284:7306  _balances[to] += value */\n          dup3\n          dup3\n          sload\n          add\n          swap3\n          pop\n          pop\n          dup2\n          swap1\n          sstore\n          pop\n            /* \"@openzeppelin/contracts/token/ERC20/ERC20.sol\":6906:7331  if (to == address(0)) {... */\n        tag_118:\n            /* \"@openzeppelin/contracts/token/ERC20/ERC20.sol\":7361:7363  to */\n          dup2\n            /* \"@openzeppelin/contracts/token/ERC20/ERC20.sol\":7346:7371  Transfer(from, to, value) */\n          0xffffffffffffffffffffffffffffffffffffffff\n          and\n            /* \"@openzeppelin/contracts/token/ERC20/ERC20.sol\":7355:7359  from */\n          dup4\n            /* \"@openzeppelin/contracts/token/ERC20/ERC20.sol\":7346:7371  Transfer(from, to, value) */\n          0xffffffffffffffffffffffffffffffffffffffff\n          and\n          0xddf252ad1be2c89b69c2b068fc378daa952ba7f163c4a11628f55a4df523b3ef\n            /* \"@openzeppelin/contracts/token/ERC20/ERC20.sol\":7365:7370  value */\n          dup4\n            /* \"@openzeppelin/contracts/token/ERC20/ERC20.sol\":7346:7371  Transfer(from, to, value) */\n          mload(0x40)\n          tag_119\n          swap2\n          swap1\n          tag_26\n          jump\t// in\n        tag_119:\n          mload(0x40)\n          dup1\n          swap2\n          sub\n          swap1\n          log3\n            /* \"@openzeppelin/contracts/token/ERC20/ERC20.sol\":6271:7378  function _update(address from, address to, uint256 value) internal virtual {... */\n          pop\n          pop\n          pop\n          jump\t// out\n            /* \"#utility.yul\":7:106   */\n        tag_120:\n            /* \"#utility.yul\":59:65   */\n          0x00\n            /* \"#utility.yul\":93:98   */\n          dup2\n            /* \"#utility.yul\":87:99   */\n          mload\n            /* \"#utility.yul\":77:99   */\n          swap1\n          pop\n            /* \"#utility.yul\":7:106   */\n          swap2\n          swap1\n          pop\n          jump\t// out\n            /* \"#utility.yul\":112:281   */\n        tag_121:\n            /* \"#utility.yul\":196:207   */\n          0x00\n            /* \"#utility.yul\":230:236   */\n          dup3\n            /* \"#utility.yul\":225:228   */\n          dup3\n            /* \"#utility.yul\":218:237   */\n          mstore\n            /* \"#utility.yul\":270:274   */\n          0x20\n            /* \"#utility.yul\":265:268   */\n          dup3\n            /* \"#utility.yul\":261:275   */\n          add\n            /* \"#utility.yul\":246:275   */\n          swap1\n          pop\n            /* \"#utility.yul\":112:281   */\n          swap3\n          swap2\n          pop\n          pop\n          jump\t// out\n            /* \"#utility.yul\":287:426   */\n        tag_122:\n            /* \"#utility.yul\":376:382   */\n          dup3\n            /* \"#utility.yul\":371:374   */\n          dup2\n            /* \"#utility.yul\":366:369   */\n          dup4\n            /* \"#utility.yul\":360:383   */\n          mcopy\n            /* \"#utility.yul\":417:418   */\n          0x00\n            /* \"#utility.yul\":408:414   */\n          dup4\n            /* \"#utility.yul\":403:406   */\n          dup4\n            /* \"#utility.yul\":399:415   */\n          add\n            /* \"#utility.yul\":392:419   */\n          mstore\n            /* \"#utility.yul\":287:426   */\n          pop\n          pop\n          pop\n          jump\t// out\n            /* \"#utility.yul\":432:534   */\n        tag_123:\n            /* \"#utility.yul\":473:479   */\n          0x00\n            /* \"#utility.yul\":524:526   */\n          0x1f\n            /* \"#utility.yul\":520:527   */\n          not\n            /* \"#utility.yul\":515:517   */\n          0x1f\n            /* \"#utility.yul\":508:513   */\n          dup4\n            /* \"#utility.yul\":504:518   */\n          add\n            /* \"#utility.yul\":500:528   */\n          and\n            /* \"#utility.yul\":490:528   */\n          swap1\n          pop\n            /* \"#utility.yul\":432:534   */\n          swap2\n          swap1\n          pop\n          jump\t// out\n            /* \"#utility.yul\":540:917   */\n        tag_124:\n            /* \"#utility.yul\":628:631   */\n          0x00\n            /* \"#utility.yul\":656:695   */\n          tag_149\n            /* \"#utility.yul\":689:694   */\n          dup3\n            /* \"#utility.yul\":656:695   */\n          tag_120\n          jump\t// in\n        tag_149:\n            /* \"#utility.yul\":711:782   */\n          tag_150\n            /* \"#utility.yul\":775:781   */\n          dup2\n            /* \"#utility.yul\":770:773   */\n          dup6\n            /* \"#utility.yul\":711:782   */\n          tag_121\n          jump\t// in\n        tag_150:\n            /* \"#utility.yul\":704:782   */\n          swap4\n          pop\n            /* \"#utility.yul\":791:856   */\n          tag_151\n            /* \"#utility.yul\":849:855   */\n          dup2\n            /* \"#utility.yul\":844:847   */\n          dup6\n            /* \"#utility.yul\":837:841   */\n          0x20\n            /* \"#utility.yul\":830:835   */\n          dup7\n            /* \"#utility.yul\":826:842   */\n          add\n            /* \"#utility.yul\":791:856   */\n          tag_122\n          jump\t// in\n        tag_151:\n            /* \"#utility.yul\":881:910   */\n          tag_152\n            /* \"#utility.yul\":903:909   */\n          dup2\n            /* \"#utility.yul\":881:910   */\n          tag_123\n          jump\t// in\n        tag_152:\n            /* \"#utility.yul\":876:879   */\n          dup5\n            /* \"#utility.yul\":872:911   */\n          add\n            /* \"#utility.yul\":865:911   */\n          swap2\n          pop\n            /* \"#utility.yul\":632:917   */\n          pop\n            /* \"#utility.yul\":540:917   */\n          swap3\n          swap2\n          pop\n          pop\n          jump\t// out\n            /* \"#utility.yul\":923:1236   */\n        tag_16:\n            /* \"#utility.yul\":1036:1040   */\n          0x00\n            /* \"#utility.yul\":1074:1076   */\n          0x20\n            /* \"#utility.yul\":1063:1072   */\n          dup3\n            /* \"#utility.yul\":1059:1077   */\n          add\n            /* \"#utility.yul\":1051:1077   */\n          swap1\n          pop\n            /* \"#utility.yul\":1123:1132   */\n          dup2\n            /* \"#utility.yul\":1117:1121   */\n          dup2\n            /* \"#utility.yul\":1113:1133   */\n          sub\n            /* \"#utility.yul\":1109:1110   */\n          0x00\n            /* \"#utility.yul\":1098:1107   */\n          dup4\n            /* \"#utility.yul\":1094:1111   */\n          add\n            /* \"#utility.yul\":1087:1134   */\n          mstore\n            /* \"#utility.yul\":1151:1229   */\n          tag_154\n            /* \"#utility.yul\":1224:1228   */\n          dup2\n            /* \"#utility.yul\":1215:1221   */\n          dup5\n            /* \"#utility.yul\":1151:1229   */\n          tag_124\n          jump\t// in\n        tag_154:\n            /* \"#utility.yul\":1143:1229   */\n          swap1\n          pop\n            /* \"#utility.yul\":923:1236   */\n          swap3\n          swap2\n          pop\n          pop\n          jump\t// out\n            /* \"#utility.yul\":1323:1440   */\n        tag_126:\n            /* \"#utility.yul\":1432:1433   */\n          0x00\n            /* \"#utility.yul\":1429:1430   */\n          dup1\n            /* \"#utility.yul\":1422:1434   */\n          revert\n            /* \"#utility.yul\":1569:1695   */\n        tag_128:\n            /* \"#utility.yul\":1606:1613   */\n          0x00\n            /* \"#utility.yul\":1646:1688   */\n          0xffffffffffffffffffffffffffffffffffffffff\n            /* \"#utility.yul\":1639:1644   */\n          dup3\n            /* \"#utility.yul\":1635:1689   */\n          and\n            /* \"#utility.yul\":1624:1689   */\n          swap1\n          pop\n            /* \"#utility.yul\":1569:1695   */\n          swap2\n          swap1\n          pop\n          jump\t// out\n            /* \"#utility.yul\":1701:1797   */\n        tag_129:\n            /* \"#utility.yul\":1738:1745   */\n          0x00\n            /* \"#utility.yul\":1767:1791   */\n          tag_160\n            /* \"#utility.yul\":1785:1790   */\n          dup3\n            /* \"#utility.yul\":1767:1791   */\n          tag_128\n          jump\t// in\n        tag_160:\n            /* \"#utility.yul\":1756:1791   */\n          swap1\n          pop\n            /* \"#utility.yul\":1701:1797   */\n          swap2\n          swap1\n          pop\n          jump\t// out\n            /* \"#utility.yul\":1803:1925   */\n        tag_130:\n            /* \"#utility.yul\":1876:1900   */\n          tag_162\n            /* \"#utility.yul\":1894:1899   */\n          dup2\n            /* \"#utility.yul\":1876:1900   */\n          tag_129\n          jump\t// in\n        tag_162:\n            /* \"#utility.yul\":1869:1874   */\n          dup2\n            /* \"#utility.yul\":1866:1901   */\n          eq\n            /* \"#utility.yul\":1856:1919   */\n          tag_163\n          jumpi\n            /* \"#utility.yul\":1915:1916   */\n          0x00\n            /* \"#utility.yul\":1912:1913   */\n          dup1\n            /* \"#utility.yul\":1905:1917   */\n          revert\n            /* \"#utility.yul\":1856:1919   */\n        tag_163:\n            /* \"#utility.yul\":1803:1925   */\n          pop\n          jump\t// out\n            /* \"#utility.yul\":1931:2070   */\n        tag_131:\n            /* \"#utility.yul\":1977:1982   */\n          0x00\n            /* \"#utility.yul\":2015:2021   */\n          dup2\n            /* \"#utility.yul\":2002:2022   */\n          calldataload\n            /* \"#utility.yul\":1993:2022   */\n          swap1\n          pop\n            /* \"#utility.yul\":2031:2064   */\n          tag_165\n            /* \"#utility.yul\":2058:2063   */\n          dup2\n            /* \"#utility.yul\":2031:2064   */\n          tag_130\n          jump\t// in\n        tag_165:\n            /* \"#utility.yul\":1931:2070   */\n          swap3\n          swap2\n          pop\n          pop\n          jump\t// out\n            /* \"#utility.yul\":2076:2153   */\n        tag_132:\n            /* \"#utility.yul\":2113:2120   */\n          0x00\n            /* \"#utility.yul\":2142:2147   */\n          dup2\n            /* \"#utility.yul\":2131:2147   */\n          swap1\n          pop\n            /* \"#utility.yul\":2076:2153   */\n          swap2\n          swap1\n          pop\n          jump\t// out\n            /* \"#utility.yul\":2159:2281   */\n        tag_133:\n            /* \"#utility.yul\":2232:2256   */\n          tag_168\n            /* \"#utility.yul\":2250:2255   */\n          dup2\n            /* \"#utility.yul\":2232:2256   */\n          tag_132\n          jump\t// in\n        tag_168:\n            /* \"#utility.yul\":2225:2230   */\n          dup2\n            /* \"#utility.yul\":2222:2257   */\n          eq\n            /* \"#utility.yul\":2212:2275   */\n          tag_169\n          jumpi\n            /* \"#utility.yul\":2271:2272   */\n          0x00\n            /* \"#utility.yul\":2268:2269   */\n          dup1\n            /* \"#utility.yul\":2261:2273   */\n          revert\n            /* \"#utility.yul\":2212:2275   */\n        tag_169:\n            /* \"#utility.yul\":2159:2281   */\n          pop\n          jump\t// out\n            /* \"#utility.yul\":2287:2426   */\n        tag_134:\n            /* \"#utility.yul\":2333:2338   */\n          0x00\n            /* \"#utility.yul\":2371:2377   */\n          dup2\n            /* \"#utility.yul\":2358:2378   */\n          calldataload\n            /* \"#utility.yul\":2349:2378   */\n          swap1\n          pop\n            /* \"#utility.yul\":2387:2420   */\n          tag_171\n            /* \"#utility.yul\":2414:2419   */\n          dup2\n            /* \"#utility.yul\":2387:2420   */\n          tag_133\n          jump\t// in\n        tag_171:\n            /* \"#utility.yul\":2287:2426   */\n          swap3\n          swap2\n          pop\n          pop\n          jump\t// out\n            /* \"#utility.yul\":2432:2906   */\n        tag_19:\n            /* \"#utility.yul\":2500:2506   */\n          0x00\n            /* \"#utility.yul\":2508:2514   */\n          dup1\n            /* \"#utility.yul\":2557:2559   */\n          0x40\n            /* \"#utility.yul\":2545:2554   */\n          dup4\n            /* \"#utility.yul\":2536:2543   */\n          dup6\n            /* \"#utility.yul\":2532:2555   */\n          sub\n            /* \"#utility.yul\":2528:2560   */\n          slt\n            /* \"#utility.yul\":2525:2644   */\n          iszero\n          tag_173\n          jumpi\n            /* \"#utility.yul\":2563:2642   */\n          tag_174\n          tag_126\n          jump\t// in\n        tag_174:\n            /* \"#utility.yul\":2525:2644   */\n        tag_173:\n            /* \"#utility.yul\":2683:2684   */\n          0x00\n            /* \"#utility.yul\":2708:2761   */\n          tag_175\n            /* \"#utility.yul\":2753:2760   */\n          dup6\n            /* \"#utility.yul\":2744:2750   */\n          dup3\n            /* \"#utility.yul\":2733:2742   */\n          dup7\n            /* \"#utility.yul\":2729:2751   */\n          add\n            /* \"#utility.yul\":2708:2761   */\n          tag_131\n          jump\t// in\n        tag_175:\n            /* \"#utility.yul\":2698:2761   */\n          swap3\n          pop\n            /* \"#utility.yul\":2654:2771   */\n          pop\n            /* \"#utility.yul\":2810:2812   */\n          0x20\n            /* \"#utility.yul\":2836:2889   */\n          tag_176\n            /* \"#utility.yul\":2881:2888   */\n          dup6\n            /* \"#utility.yul\":2872:2878   */\n          dup3\n            /* \"#utility.yul\":2861:2870   */\n          dup7\n            /* \"#utility.yul\":2857:2879   */\n          add\n            /* \"#utility.yul\":2836:2889   */\n          tag_134\n          jump\t// in\n        tag_176:\n            /* \"#utility.yul\":2826:2889   */\n          swap2\n          pop\n            /* \"#utility.yul\":2781:2899   */\n          pop\n            /* \"#utility.yul\":2432:2906   */\n          swap3\n          pop\n          swap3\n          swap1\n          pop\n          jump\t// out\n            /* \"#utility.yul\":2912:3002   */\n        tag_135:\n            /* \"#utility.yul\":2946:2953   */\n          0x00\n            /* \"#utility.yul\":2989:2994   */\n          dup2\n            /* \"#utility.yul\":2982:2995   */\n          iszero\n            /* \"#utility.yul\":2975:2996   */\n          iszero\n            /* \"#utility.yul\":2964:2996   */\n          swap1\n          pop\n            /* \"#utility.yul\":2912:3002   */\n          swap2\n          swap1\n          pop\n          jump\t// out\n            /* \"#utility.yul\":3008:3117   */\n        tag_136:\n            /* \"#utility.yul\":3089:3110   */\n          tag_179\n            /* \"#utility.yul\":3104:3109   */\n          dup2\n            /* \"#utility.yul\":3089:3110   */\n          tag_135\n          jump\t// in\n        tag_179:\n            /* \"#utility.yul\":3084:3087   */\n          dup3\n            /* \"#utility.yul\":3077:3111   */\n          mstore\n            /* \"#utility.yul\":3008:3117   */\n          pop\n          pop\n          jump\t// out\n            /* \"#utility.yul\":3123:3333   */\n        tag_22:\n            /* \"#utility.yul\":3210:3214   */\n          0x00\n            /* \"#utility.yul\":3248:3250   */\n          0x20\n            /* \"#utility.yul\":3237:3246   */\n          dup3\n            /* \"#utility.yul\":3233:3251   */\n          add\n            /* \"#utility.yul\":3225:3251   */\n          swap1\n          pop\n            /* \"#utility.yul\":3261:3326   */\n          tag_181\n            /* \"#utility.yul\":3323:3324   */\n          0x00\n            /* \"#utility.yul\":3312:3321   */\n          dup4\n            /* \"#utility.yul\":3308:3325   */\n          add\n            /* \"#utility.yul\":3299:3305   */\n          dup5\n            /* \"#utility.yul\":3261:3326   */\n          tag_136\n          jump\t// in\n        tag_181:\n            /* \"#utility.yul\":3123:3333   */\n          swap3\n          swap2\n          pop\n          pop\n          jump\t// out\n            /* \"#utility.yul\":3339:3457   */\n        tag_137:\n            /* \"#utility.yul\":3426:3450   */\n          tag_183\n            /* \"#utility.yul\":3444:3449   */\n          dup2\n            /* \"#utility.yul\":3426:3450   */\n          tag_132\n          jump\t// in\n        tag_183:\n            /* \"#utility.yul\":3421:3424   */\n          dup3\n            /* \"#utility.yul\":3414:3451   */\n          mstore\n            /* \"#utility.yul\":3339:3457   */\n          pop\n          pop\n          jump\t// out\n            /* \"#utility.yul\":3463:3685   */\n        tag_26:\n            /* \"#utility.yul\":3556:3560   */\n          0x00\n            /* \"#utility.yul\":3594:3596   */\n          0x20\n            /* \"#utility.yul\":3583:3592   */\n          dup3\n            /* \"#utility.yul\":3579:3597   */\n          add\n            /* \"#utility.yul\":3571:3597   */\n          swap1\n          pop\n            /* \"#utility.yul\":3607:3678   */\n          tag_185\n            /* \"#utility.yul\":3675:3676   */\n          0x00\n            /* \"#utility.yul\":3664:3673   */\n          dup4\n            /* \"#utility.yul\":3660:3677   */\n          add\n            /* \"#utility.yul\":3651:3657   */\n          dup5\n            /* \"#utility.yul\":3607:3678   */\n          tag_137\n          jump\t// in\n        tag_185:\n            /* \"#utility.yul\":3463:3685   */\n          swap3\n          swap2\n          pop\n          pop\n          jump\t// out\n            /* \"#utility.yul\":3691:4310   */\n        tag_29:\n            /* \"#utility.yul\":3768:3774   */\n          0x00\n            /* \"#utility.yul\":3776:3782   */\n          dup1\n            /* \"#utility.yul\":3784:3790   */\n          0x00\n            /* \"#utility.yul\":3833:3835   */\n          0x60\n            /* \"#utility.yul\":3821:3830   */\n          dup5\n            /* \"#utility.yul\":3812:3819   */\n          dup7\n            /* \"#utility.yul\":3808:3831   */\n          sub\n            /* \"#utility.yul\":3804:3836   */\n          slt\n            /* \"#utility.yul\":3801:3920   */\n          iszero\n          tag_187\n          jumpi\n            /* \"#utility.yul\":3839:3918   */\n          tag_188\n          tag_126\n          jump\t// in\n        tag_188:\n            /* \"#utility.yul\":3801:3920   */\n        tag_187:\n            /* \"#utility.yul\":3959:3960   */\n          0x00\n            /* \"#utility.yul\":3984:4037   */\n          tag_189\n            /* \"#utility.yul\":4029:4036   */\n          dup7\n            /* \"#utility.yul\":4020:4026   */\n          dup3\n            /* \"#utility.yul\":4009:4018   */\n          dup8\n            /* \"#utility.yul\":4005:4027   */\n          add\n            /* \"#utility.yul\":3984:4037   */\n          tag_131\n          jump\t// in\n        tag_189:\n            /* \"#utility.yul\":3974:4037   */\n          swap4\n          pop\n            /* \"#utility.yul\":3930:4047   */\n          pop\n            /* \"#utility.yul\":4086:4088   */\n          0x20\n            /* \"#utility.yul\":4112:4165   */\n          tag_190\n            /* \"#utility.yul\":4157:4164   */\n          dup7\n            /* \"#utility.yul\":4148:4154   */\n          dup3\n            /* \"#utility.yul\":4137:4146   */\n          dup8\n            /* \"#utility.yul\":4133:4155   */\n          add\n            /* \"#utility.yul\":4112:4165   */\n          tag_131\n          jump\t// in\n        tag_190:\n            /* \"#utility.yul\":4102:4165   */\n          swap3\n          pop\n            /* \"#utility.yul\":4057:4175   */\n          pop\n            /* \"#utility.yul\":4214:4216   */\n          0x40\n            /* \"#utility.yul\":4240:4293   */\n          tag_191\n            /* \"#utility.yul\":4285:4292   */\n          dup7\n            /* \"#utility.yul\":4276:4282   */\n          dup3\n            /* \"#utility.yul\":4265:4274   */\n          dup8\n            /* \"#utility.yul\":4261:4283   */\n          add\n            /* \"#utility.yul\":4240:4293   */\n          tag_134\n          jump\t// in\n        tag_191:\n            /* \"#utility.yul\":4230:4293   */\n          swap2\n          pop\n            /* \"#utility.yul\":4185:4303   */\n          pop\n            /* \"#utility.yul\":3691:4310   */\n          swap3\n          pop\n          swap3\n          pop\n          swap3\n          jump\t// out\n            /* \"#utility.yul\":4316:4402   */\n        tag_138:\n            /* \"#utility.yul\":4351:4358   */\n          0x00\n            /* \"#utility.yul\":4391:4395   */\n          0xff\n            /* \"#utility.yul\":4384:4389   */\n          dup3\n            /* \"#utility.yul\":4380:4396   */\n          and\n            /* \"#utility.yul\":4369:4396   */\n          swap1\n          pop\n            /* \"#utility.yul\":4316:4402   */\n          swap2\n          swap1\n          pop\n          jump\t// out\n            /* \"#utility.yul\":4408:4520   */\n        tag_139:\n            /* \"#utility.yul\":4491:4513   */\n          tag_194\n            /* \"#utility.yul\":4507:4512   */\n          dup2\n            /* \"#utility.yul\":4491:4513   */\n          tag_138\n          jump\t// in\n        tag_194:\n            /* \"#utility.yul\":4486:4489   */\n          dup3\n            /* \"#utility.yul\":4479:4514   */\n          mstore\n            /* \"#utility.yul\":4408:4520   */\n          pop\n          pop\n          jump\t// out\n            /* \"#utility.yul\":4526:4740   */\n        tag_35:\n            /* \"#utility.yul\":4615:4619   */\n          0x00\n            /* \"#utility.yul\":4653:4655   */\n          0x20\n            /* \"#utility.yul\":4642:4651   */\n          dup3\n            /* \"#utility.yul\":4638:4656   */\n          add\n            /* \"#utility.yul\":4630:4656   */\n          swap1\n          pop\n            /* \"#utility.yul\":4666:4733   */\n          tag_196\n            /* \"#utility.yul\":4730:4731   */\n          0x00\n            /* \"#utility.yul\":4719:4728   */\n          dup4\n            /* \"#utility.yul\":4715:4732   */\n          add\n            /* \"#utility.yul\":4706:4712   */\n          dup5\n            /* \"#utility.yul\":4666:4733   */\n          tag_139\n          jump\t// in\n        tag_196:\n            /* \"#utility.yul\":4526:4740   */\n          swap3\n          swap2\n          pop\n          pop\n          jump\t// out\n            /* \"#utility.yul\":4746:5075   */\n        tag_38:\n            /* \"#utility.yul\":4805:4811   */\n          0x00\n            /* \"#utility.yul\":4854:4856   */\n          0x20\n            /* \"#utility.yul\":4842:4851   */\n          dup3\n            /* \"#utility.yul\":4833:4840   */\n          dup5\n            /* \"#utility.yul\":4829:4852   */\n          sub\n            /* \"#utility.yul\":4825:4857   */\n          slt\n            /* \"#utility.yul\":4822:4941   */\n          iszero\n          tag_198\n          jumpi\n            /* \"#utility.yul\":4860:4939   */\n          tag_199\n          tag_126\n          jump\t// in\n        tag_199:\n            /* \"#utility.yul\":4822:4941   */\n        tag_198:\n            /* \"#utility.yul\":4980:4981   */\n          0x00\n            /* \"#utility.yul\":5005:5058   */\n          tag_200\n            /* \"#utility.yul\":5050:5057   */\n          dup5\n            /* \"#utility.yul\":5041:5047   */\n          dup3\n            /* \"#utility.yul\":5030:5039   */\n          dup6\n            /* \"#utility.yul\":5026:5048   */\n          add\n            /* \"#utility.yul\":5005:5058   */\n          tag_131\n          jump\t// in\n        tag_200:\n            /* \"#utility.yul\":4995:5058   */\n          swap2\n          pop\n            /* \"#utility.yul\":4951:5068   */\n          pop\n            /* \"#utility.yul\":4746:5075   */\n          swap3\n          swap2\n          pop\n          pop\n          jump\t// out\n            /* \"#utility.yul\":5081:5555   */\n        tag_50:\n            /* \"#utility.yul\":5149:5155   */\n          0x00\n            /* \"#utility.yul\":5157:5163   */\n          dup1\n            /* \"#utility.yul\":5206:5208   */\n          0x40\n            /* \"#utility.yul\":5194:5203   */\n          dup4\n            /* \"#utility.yul\":5185:5192   */\n          dup6\n            /* \"#utility.yul\":5181:5204   */\n          sub\n            /* \"#utility.yul\":5177:5209   */\n          slt\n            /* \"#utility.yul\":5174:5293   */\n          iszero\n          tag_202\n          jumpi\n            /* \"#utility.yul\":5212:5291   */\n          tag_203\n          tag_126\n          jump\t// in\n        tag_203:\n            /* \"#utility.yul\":5174:5293   */\n        tag_202:\n            /* \"#utility.yul\":5332:5333   */\n          0x00\n            /* \"#utility.yul\":5357:5410   */\n          tag_204\n            /* \"#utility.yul\":5402:5409   */\n          dup6\n            /* \"#utility.yul\":5393:5399   */\n          dup3\n            /* \"#utility.yul\":5382:5391   */\n          dup7\n            /* \"#utility.yul\":5378:5400   */\n          add\n            /* \"#utility.yul\":5357:5410   */\n          tag_131\n          jump\t// in\n        tag_204:\n            /* \"#utility.yul\":5347:5410   */\n          swap3\n          pop\n            /* \"#utility.yul\":5303:5420   */\n          pop\n            /* \"#utility.yul\":5459:5461   */\n          0x20\n            /* \"#utility.yul\":5485:5538   */\n          tag_205\n            /* \"#utility.yul\":5530:5537   */\n          dup6\n            /* \"#utility.yul\":5521:5527   */\n          dup3\n            /* \"#utility.yul\":5510:5519   */\n          dup7\n            /* \"#utility.yul\":5506:5528   */\n          add\n            /* \"#utility.yul\":5485:5538   */\n          tag_131\n          jump\t// in\n        tag_205:\n            /* \"#utility.yul\":5475:5538   */\n          swap2\n          pop\n            /* \"#utility.yul\":5430:5548   */\n          pop\n            /* \"#utility.yul\":5081:5555   */\n          swap3\n          pop\n          swap3\n          swap1\n          pop\n          jump\t// out\n            /* \"#utility.yul\":5561:5741   */\n        tag_140:\n            /* \"#utility.yul\":5609:5686   */\n          0x4e487b7100000000000000000000000000000000000000000000000000000000\n            /* \"#utility.yul\":5606:5607   */\n          0x00\n            /* \"#utility.yul\":5599:5687   */\n          mstore\n            /* \"#utility.yul\":5706:5710   */\n          0x22\n            /* \"#utility.yul\":5703:5704   */\n          0x04\n            /* \"#utility.yul\":5696:5711   */\n          mstore\n            /* \"#utility.yul\":5730:5734   */\n          0x24\n            /* \"#utility.yul\":5727:5728   */\n          0x00\n            /* \"#utility.yul\":5720:5735   */\n          revert\n            /* \"#utility.yul\":5747:6067   */\n        tag_55:\n            /* \"#utility.yul\":5791:5797   */\n          0x00\n            /* \"#utility.yul\":5828:5829   */\n          0x02\n            /* \"#utility.yul\":5822:5826   */\n          dup3\n            /* \"#utility.yul\":5818:5830   */\n          div\n            /* \"#utility.yul\":5808:5830   */\n          swap1\n          pop\n            /* \"#utility.yul\":5875:5876   */\n          0x01\n            /* \"#utility.yul\":5869:5873   */\n          dup3\n            /* \"#utility.yul\":5865:5877   */\n          and\n            /* \"#utility.yul\":5896:5914   */\n          dup1\n            /* \"#utility.yul\":5886:5967   */\n          tag_208\n          jumpi\n            /* \"#utility.yul\":5952:5956   */\n          0x7f\n            /* \"#utility.yul\":5944:5950   */\n          dup3\n            /* \"#utility.yul\":5940:5957   */\n          and\n            /* \"#utility.yul\":5930:5957   */\n          swap2\n          pop\n            /* \"#utility.yul\":5886:5967   */\n        tag_208:\n            /* \"#utility.yul\":6014:6016   */\n          0x20\n            /* \"#utility.yul\":6006:6012   */\n          dup3\n            /* \"#utility.yul\":6003:6017   */\n          lt\n            /* \"#utility.yul\":5983:6001   */\n          dup2\n            /* \"#utility.yul\":5980:6018   */\n          sub\n            /* \"#utility.yul\":5977:6061   */\n          tag_209\n          jumpi\n            /* \"#utility.yul\":6033:6051   */\n          tag_210\n          tag_140\n          jump\t// in\n        tag_210:\n            /* \"#utility.yul\":5977:6061   */\n        tag_209:\n            /* \"#utility.yul\":5798:6067   */\n          pop\n            /* \"#utility.yul\":5747:6067   */\n          swap2\n          swap1\n          pop\n          jump\t// out\n            /* \"#utility.yul\":6073:6191   */\n        tag_141:\n            /* \"#utility.yul\":6160:6184   */\n          tag_212\n            /* \"#utility.yul\":6178:6183   */\n          dup2\n            /* \"#utility.yul\":6160:6184   */\n          tag_129\n          jump\t// in\n        tag_212:\n            /* \"#utility.yul\":6155:6158   */\n          dup3\n            /* \"#utility.yul\":6148:6185   */\n          mstore\n            /* \"#utility.yul\":6073:6191   */\n          pop\n          pop\n          jump\t// out\n            /* \"#utility.yul\":6197:6639   */\n        tag_93:\n            /* \"#utility.yul\":6346:6350   */\n          0x00\n            /* \"#utility.yul\":6384:6386   */\n          0x60\n            /* \"#utility.yul\":6373:6382   */\n          dup3\n            /* \"#utility.yul\":6369:6387   */\n          add\n            /* \"#utility.yul\":6361:6387   */\n          swap1\n          pop\n            /* \"#utility.yul\":6397:6468   */\n          tag_214\n            /* \"#utility.yul\":6465:6466   */\n          0x00\n            /* \"#utility.yul\":6454:6463   */\n          dup4\n            /* \"#utility.yul\":6450:6467   */\n          add\n            /* \"#utility.yul\":6441:6447   */\n          dup7\n            /* \"#utility.yul\":6397:6468   */\n          tag_141\n          jump\t// in\n        tag_214:\n            /* \"#utility.yul\":6478:6550   */\n          tag_215\n            /* \"#utility.yul\":6546:6548   */\n          0x20\n            /* \"#utility.yul\":6535:6544   */\n          dup4\n            /* \"#utility.yul\":6531:6549   */\n          add\n            /* \"#utility.yul\":6522:6528   */\n          dup6\n            /* \"#utility.yul\":6478:6550   */\n          tag_137\n          jump\t// in\n        tag_215:\n            /* \"#utility.yul\":6560:6632   */\n          tag_216\n            /* \"#utility.yul\":6628:6630   */\n          0x40\n            /* \"#utility.yul\":6617:6626   */\n          dup4\n            /* \"#utility.yul\":6613:6631   */\n          add\n            /* \"#utility.yul\":6604:6610   */\n          dup5\n            /* \"#utility.yul\":6560:6632   */\n          tag_137\n          jump\t// in\n        tag_216:\n            /* \"#utility.yul\":6197:6639   */\n          swap5\n          swap4\n          pop\n          pop\n          pop\n          pop\n          jump\t// out\n            /* \"#utility.yul\":6645:6867   */\n        tag_98:\n            /* \"#utility.yul\":6738:6742   */\n          0x00\n            /* \"#utility.yul\":6776:6778   */\n          0x20\n            /* \"#utility.yul\":6765:6774   */\n          dup3\n            /* \"#utility.yul\":6761:6779   */\n          add\n            /* \"#utility.yul\":6753:6779   */\n          swap1\n          pop\n            /* \"#utility.yul\":6789:6860   */\n          tag_218\n            /* \"#utility.yul\":6857:6858   */\n          0x00\n            /* \"#utility.yul\":6846:6855   */\n          dup4\n            /* \"#utility.yul\":6842:6859   */\n          add\n            /* \"#utility.yul\":6833:6839   */\n          dup5\n            /* \"#utility.yul\":6789:6860   */\n          tag_141\n          jump\t// in\n        tag_218:\n            /* \"#utility.yul\":6645:6867   */\n          swap3\n          swap2\n          pop\n          pop\n          jump\t// out\n            /* \"#utility.yul\":6873:7053   */\n        tag_142:\n            /* \"#utility.yul\":6921:6998   */\n          0x4e487b7100000000000000000000000000000000000000000000000000000000\n            /* \"#utility.yul\":6918:6919   */\n          0x00\n            /* \"#utility.yul\":6911:6999   */\n          mstore\n            /* \"#utility.yul\":7018:7022   */\n          0x11\n            /* \"#utility.yul\":7015:7016   */\n          0x04\n            /* \"#utility.yul\":7008:7023   */\n          mstore\n            /* \"#utility.yul\":7042:7046   */\n          0x24\n            /* \"#utility.yul\":7039:7040   */\n          0x00\n            /* \"#utility.yul\":7032:7047   */\n          revert\n            /* \"#utility.yul\":7059:7250   */\n        tag_113:\n            /* \"#utility.yul\":7099:7102   */\n          0x00\n            /* \"#utility.yul\":7118:7138   */\n          tag_221\n            /* \"#utility.yul\":7136:7137   */\n          dup3\n            /* \"#utility.yul\":7118:7138   */\n          tag_132\n          jump\t// in\n        tag_221:\n            /* \"#utility.yul\":7113:7138   */\n          swap2\n          pop\n            /* \"#utility.yul\":7152:7172   */\n          tag_222\n            /* \"#utility.yul\":7170:7171   */\n          dup4\n            /* \"#utility.yul\":7152:7172   */\n          tag_132\n          jump\t// in\n        tag_222:\n            /* \"#utility.yul\":7147:7172   */\n          swap3\n          pop\n            /* \"#utility.yul\":7195:7196   */\n          dup3\n            /* \"#utility.yul\":7192:7193   */\n          dup3\n            /* \"#utility.yul\":7188:7197   */\n          add\n            /* \"#utility.yul\":7181:7197   */\n          swap1\n          pop\n            /* \"#utility.yul\":7216:7219   */\n          dup1\n            /* \"#utility.yul\":7213:7214   */\n          dup3\n            /* \"#utility.yul\":7210:7220   */\n          gt\n            /* \"#utility.yul\":7207:7243   */\n          iszero\n          tag_223\n          jumpi\n            /* \"#utility.yul\":7223:7241   */\n          tag_224\n          tag_142\n          jump\t// in\n        tag_224:\n            /* \"#utility.yul\":7207:7243   */\n        tag_223:\n            /* \"#utility.yul\":7059:7250   */\n          swap3\n          swap2\n          pop\n          pop\n          jump\t// out\n\n        auxdata: 0xa26469706673582212203bce0b664b94aca9d5c2b4a0c86f857751238da87bdfd21d1328a0606b23c03664736f6c634300081a0033\n    }\n}\n",
				"bytecode": {
					"linkReferences": {},
					"object": "6080604052348015600e575f80fd5b506040516019906074565b604051809103905ff0801580156031573d5f803e3d5ffd5b505f806101000a81548173ffffffffffffffffffffffffffffffffffffffff021916908373ffffffffffffffffffffffffffffffffffffffff1602179055506081565b611768806115e283390190565b6115548061008e5f395ff3fe608060405260043610610085575f3560e01c80631d65e77e116100585780631d65e77e146101475780631ff4a418146101875780636e17e240146101b1578063805be20e146101ed578063c305fd001461022957610085565b80630306f8fd1461008957806308d03e91146100c55780631072cbea146100ef578063134fe3dc14610117575b5f80fd5b348015610094575f80fd5b506100af60048036038101906100aa9190610bf6565b610265565b6040516100bc9190610c5f565b60405180910390f35b3480156100d0575f80fd5b506100d9610366565b6040516100e69190610cb7565b60405180910390f35b3480156100fa575f80fd5b5061011560048036038101906101109190610cfa565b61038d565b005b610131600480360381019061012c9190610d38565b610475565b60405161013e9190610d90565b60405180910390f35b348015610152575f80fd5b5061016d60048036038101906101689190610da9565b610579565b60405161017e959493929190610f5c565b60405180910390f35b348015610192575f80fd5b5061019b61079a565b6040516101a89190611016565b60405180910390f35b3480156101bc575f80fd5b506101d760048036038101906101d29190610da9565b6107bd565b6040516101e49190610c5f565b60405180910390f35b3480156101f8575f80fd5b50610213600480360381019061020e9190610d38565b6108de565b6040516102209190610d90565b60405180910390f35b348015610234575f80fd5b5061024f600480360381019061024a9190611059565b610939565b60405161025c9190610d90565b60405180910390f35b5f805f6001805490500361027b575f9050610284565b60018054905090505b5f6001808160018154018082558091505003905f5260205f209060050201905081815f0181905550848160010190816102bd91906112ae565b5033816002015f6101000a81548173ffffffffffffffffffffffffffffffffffffffff021916908373ffffffffffffffffffffffffffffffffffffffff1602179055508381600301819055503373ffffffffffffffffffffffffffffffffffffffff167fb2483da40ecec215bb3d46313445363f57ed522f167c4ed911e5c0d824e5b54c8686856040516103539392919061137d565b60405180910390a2819250505092915050565b5f805f9054906101000a900473ffffffffffffffffffffffffffffffffffffffff16905090565b5f805f9054906101000a900473ffffffffffffffffffffffffffffffffffffffff1690505f8173ffffffffffffffffffffffffffffffffffffffff1663a9059cbb85856040518363ffffffff1660e01b81526004016103ed9291906113b9565b6020604051808303815f875af1158015610409573d5f803e3d5ffd5b505050506040513d601f19601f8201168201806040525081019061042d91906113f4565b90508061046f576040517f08c379a000000000000000000000000000000000000000000000000000000000815260040161046690611469565b60405180910390fd5b50505050565b5f806001848154811061048b5761048a611487565b5b905f5260205f20906005020190505f8160040184815481106104b0576104af611487565b5b905f5260205f209060030201905060018160010160146101000a81548160ff02191690831515021790555033816002015f6101000a81548173ffffffffffffffffffffffffffffffffffffffff021916908373ffffffffffffffffffffffffffffffffffffffff1602179055503373ffffffffffffffffffffffffffffffffffffffff167fae10a2d383e989aba2fe4692a3f9bd0dfa98823f4ea0c5c1686416131d3c4b1b86866040516105659291906114b4565b60405180910390a260019250505092915050565b5f60605f8060605f6001878154811061059557610594611487565b5b905f5260205f2090600502019050805f015481600101826002015f9054906101000a900473ffffffffffffffffffffffffffffffffffffffff168360030154846004018380546105e4906110ea565b80601f0160208091040260200160405190810160405280929190818152602001828054610610906110ea565b801561065b5780601f106106325761010080835404028352916020019161065b565b820191905f5260205f20905b81548152906001019060200180831161063e57829003601f168201915b5050505050935080805480602002602001604051908101604052809291908181526020015f905b82821015610780578382905f5260205f2090600302016040518060800160405290815f8201548152602001600182015f9054906101000a900473ffffffffffffffffffffffffffffffffffffffff1673ffffffffffffffffffffffffffffffffffffffff1673ffffffffffffffffffffffffffffffffffffffff1681526020016001820160149054906101000a900460ff16151515158152602001600282015f9054906101000a900473ffffffffffffffffffffffffffffffffffffffff1673ffffffffffffffffffffffffffffffffffffffff1673ffffffffffffffffffffffffffffffffffffffff168152505081526020019060010190610682565b505050509050955095509550955095505091939590929450565b5f8054906101000a900473ffffffffffffffffffffffffffffffffffffffff1681565b5f805f600280549050036107d3575f90506107dc565b60028054905090505b5f600184815481106107f1576107f0611487565b5b905f5260205f20906005020160040160018160018154018082558091505003905f5260205f209060030201905081815f018190555033816001015f6101000a81548173ffffffffffffffffffffffffffffffffffffffff021916908373ffffffffffffffffffffffffffffffffffffffff1602179055505f8160010160146101000a81548160ff0219169083151502179055503373ffffffffffffffffffffffffffffffffffffffff167fddf93e470e1de974e471fbd0a8f8cb0ca5b94c95ef801c3d5e3feee41b46ce3f85846040516108cc9291906114b4565b60405180910390a28192505050919050565b5f3373ffffffffffffffffffffffffffffffffffffffff167fe42b48d07ff346f8a57937574c026640c0bfc24ff90641c147b54c96da8c2f1c84846040516109279291906114b4565b60405180910390a26001905092915050565b5f806001858154811061094f5761094e611487565b5b905f5260205f20906005020190505f81600401858154811061097457610973611487565b5b905f5260205f2090600302019050838160010160146101000a81548160ff0219169083151502179055505f826002015f9054906101000a900473ffffffffffffffffffffffffffffffffffffffff1690505f826001015f9054906101000a900473ffffffffffffffffffffffffffffffffffffffff1690506001151586151503610a0757610a02818a61038d565b610a12565b610a11828a61038d565b5b3373ffffffffffffffffffffffffffffffffffffffff167f2b489c9688560adf19d595c73087b51e94bb7a0c147515054d86f2ca5e8b72d48a8a8a8a604051610a5e94939291906114db565b60405180910390a26001945050505050949350505050565b5f604051905090565b5f80fd5b5f80fd5b5f80fd5b5f80fd5b5f601f19601f8301169050919050565b7f4e487b71000000000000000000000000000000000000000000000000000000005f52604160045260245ffd5b610ad582610a8f565b810181811067ffffffffffffffff82111715610af457610af3610a9f565b5b80604052505050565b5f610b06610a76565b9050610b128282610acc565b919050565b5f67ffffffffffffffff821115610b3157610b30610a9f565b5b610b3a82610a8f565b9050602081019050919050565b828183375f83830152505050565b5f610b67610b6284610b17565b610afd565b905082815260208101848484011115610b8357610b82610a8b565b5b610b8e848285610b47565b509392505050565b5f82601f830112610baa57610ba9610a87565b5b8135610bba848260208601610b55565b91505092915050565b5f819050919050565b610bd581610bc3565b8114610bdf575f80fd5b50565b5f81359050610bf081610bcc565b92915050565b5f8060408385031215610c0c57610c0b610a7f565b5b5f83013567ffffffffffffffff811115610c2957610c28610a83565b5b610c3585828601610b96565b9250506020610c4685828601610be2565b9150509250929050565b610c5981610bc3565b82525050565b5f602082019050610c725f830184610c50565b92915050565b5f73ffffffffffffffffffffffffffffffffffffffff82169050919050565b5f610ca182610c78565b9050919050565b610cb181610c97565b82525050565b5f602082019050610cca5f830184610ca8565b92915050565b610cd981610c97565b8114610ce3575f80fd5b50565b5f81359050610cf481610cd0565b92915050565b5f8060408385031215610d1057610d0f610a7f565b5b5f610d1d85828601610ce6565b9250506020610d2e85828601610be2565b9150509250929050565b5f8060408385031215610d4e57610d4d610a7f565b5b5f610d5b85828601610be2565b9250506020610d6c85828601610be2565b9150509250929050565b5f8115159050919050565b610d8a81610d76565b82525050565b5f602082019050610da35f830184610d81565b92915050565b5f60208284031215610dbe57610dbd610a7f565b5b5f610dcb84828501610be2565b91505092915050565b5f81519050919050565b5f82825260208201905092915050565b8281835e5f83830152505050565b5f610e0682610dd4565b610e108185610dde565b9350610e20818560208601610dee565b610e2981610a8f565b840191505092915050565b5f81519050919050565b5f82825260208201905092915050565b5f819050602082019050919050565b610e6681610bc3565b82525050565b610e7581610c97565b82525050565b610e8481610d76565b82525050565b608082015f820151610e9e5f850182610e5d565b506020820151610eb16020850182610e6c565b506040820151610ec46040850182610e7b565b506060820151610ed76060850182610e6c565b50505050565b5f610ee88383610e8a565b60808301905092915050565b5f602082019050919050565b5f610f0a82610e34565b610f148185610e3e565b9350610f1f83610e4e565b805f5b83811015610f4f578151610f368882610edd565b9750610f4183610ef4565b925050600181019050610f22565b5085935050505092915050565b5f60a082019050610f6f5f830188610c50565b8181036020830152610f818187610dfc565b9050610f906040830186610ca8565b610f9d6060830185610c50565b8181036080830152610faf8184610f00565b90509695505050505050565b5f819050919050565b5f610fde610fd9610fd484610c78565b610fbb565b610c78565b9050919050565b5f610fef82610fc4565b9050919050565b5f61100082610fe5565b9050919050565b61101081610ff6565b82525050565b5f6020820190506110295f830184611007565b92915050565b61103881610d76565b8114611042575f80fd5b50565b5f813590506110538161102f565b92915050565b5f805f806080858703121561107157611070610a7f565b5b5f61107e87828801610be2565b945050602061108f87828801610be2565b93505060406110a087828801610be2565b92505060606110b187828801611045565b91505092959194509250565b7f4e487b71000000000000000000000000000000000000000000000000000000005f52602260045260245ffd5b5f600282049050600182168061110157607f821691505b602082108103611114576111136110bd565b5b50919050565b5f819050815f5260205f209050919050565b5f6020601f8301049050919050565b5f82821b905092915050565b5f600883026111767fffffffffffffffffffffffffffffffffffffffffffffffffffffffffffffffff8261113b565b611180868361113b565b95508019841693508086168417925050509392505050565b5f6111b26111ad6111a884610bc3565b610fbb565b610bc3565b9050919050565b5f819050919050565b6111cb83611198565b6111df6111d7826111b9565b848454611147565b825550505050565b5f90565b6111f36111e7565b6111fe8184846111c2565b505050565b5b81811015611221576112165f826111eb565b600181019050611204565b5050565b601f821115611266576112378161111a565b6112408461112c565b8101602085101561124f578190505b61126361125b8561112c565b830182611203565b50505b505050565b5f82821c905092915050565b5f6112865f198460080261126b565b1980831691505092915050565b5f61129e8383611277565b9150826002028217905092915050565b6112b782610dd4565b67ffffffffffffffff8111156112d0576112cf610a9f565b5b6112da82546110ea565b6112e5828285611225565b5f60209050601f831160018114611316575f8415611304578287015190505b61130e8582611293565b865550611375565b601f1984166113248661111a565b5f5b8281101561134b57848901518255600182019150602085019450602081019050611326565b868310156113685784890151611364601f891682611277565b8355505b6001600288020188555050505b505050505050565b5f6060820190508181035f8301526113958186610dfc565b90506113a46020830185610c50565b6113b16040830184610c50565b949350505050565b5f6040820190506113cc5f830185610ca8565b6113d96020830184610c50565b9392505050565b5f815190506113ee8161102f565b92915050565b5f6020828403121561140957611408610a7f565b5b5f611416848285016113e0565b91505092915050565b7f546f6b656e207472616e73666572206661696c656400000000000000000000005f82015250565b5f611453601583610dde565b915061145e8261141f565b602082019050919050565b5f6020820190508181035f83015261148081611447565b9050919050565b7f4e487b71000000000000000000000000000000000000000000000000000000005f52603260045260245ffd5b5f6040820190506114c75f830185610c50565b6114d46020830184610c50565b9392505050565b5f6080820190506114ee5f830187610c50565b6114fb6020830186610c50565b6115086040830185610c50565b6115156060830184610d81565b9594505050505056fea26469706673582212200a6190dec163caaa2421b3e78f69c86e80710d5d263dd86f3b07c77cf68576b564736f6c634300081a00336080604052600260055f6101000a81548160ff021916908360ff16021790555034801561002a575f80fd5b506040518060400160405280601881526020017f526562656c6c696f6e4461746146756e64657220436f696e00000000000000008152506040518060400160405280600481526020017f524446430000000000000000000000000000000000000000000000000000000081525081600390816100a691906105cf565b5080600490816100b691906105cf565b5050506100f23360055f9054906101000a900460ff1660ff16600a6100db91906107fa565b60646100e79190610844565b6100f760201b60201c565b61096d565b5f73ffffffffffffffffffffffffffffffffffffffff168273ffffffffffffffffffffffffffffffffffffffff1603610167575f6040517fec442f0500000000000000000000000000000000000000000000000000000000815260040161015e91906108c4565b60405180910390fd5b6101785f838361017c60201b60201c565b5050565b5f73ffffffffffffffffffffffffffffffffffffffff168373ffffffffffffffffffffffffffffffffffffffff16036101cc578060025f8282546101c091906108dd565b9250508190555061029a565b5f805f8573ffffffffffffffffffffffffffffffffffffffff1673ffffffffffffffffffffffffffffffffffffffff1681526020019081526020015f2054905081811015610255578381836040517fe450d38c00000000000000000000000000000000000000000000000000000000815260040161024c9392919061091f565b60405180910390fd5b8181035f808673ffffffffffffffffffffffffffffffffffffffff1673ffffffffffffffffffffffffffffffffffffffff1681526020019081526020015f2081905550505b5f73ffffffffffffffffffffffffffffffffffffffff168273ffffffffffffffffffffffffffffffffffffffff16036102e1578060025f828254039250508190555061032b565b805f808473ffffffffffffffffffffffffffffffffffffffff1673ffffffffffffffffffffffffffffffffffffffff1681526020019081526020015f205f82825401925050819055505b8173ffffffffffffffffffffffffffffffffffffffff168373ffffffffffffffffffffffffffffffffffffffff167fddf252ad1be2c89b69c2b068fc378daa952ba7f163c4a11628f55a4df523b3ef836040516103889190610954565b60405180910390a3505050565b5f81519050919050565b7f4e487b71000000000000000000000000000000000000000000000000000000005f52604160045260245ffd5b7f4e487b71000000000000000000000000000000000000000000000000000000005f52602260045260245ffd5b5f600282049050600182168061041057607f821691505b602082108103610423576104226103cc565b5b50919050565b5f819050815f5260205f209050919050565b5f6020601f8301049050919050565b5f82821b905092915050565b5f600883026104857fffffffffffffffffffffffffffffffffffffffffffffffffffffffffffffffff8261044a565b61048f868361044a565b95508019841693508086168417925050509392505050565b5f819050919050565b5f819050919050565b5f6104d36104ce6104c9846104a7565b6104b0565b6104a7565b9050919050565b5f819050919050565b6104ec836104b9565b6105006104f8826104da565b848454610456565b825550505050565b5f90565b610514610508565b61051f8184846104e3565b505050565b5b81811015610542576105375f8261050c565b600181019050610525565b5050565b601f8211156105875761055881610429565b6105618461043b565b81016020851015610570578190505b61058461057c8561043b565b830182610524565b50505b505050565b5f82821c905092915050565b5f6105a75f198460080261058c565b1980831691505092915050565b5f6105bf8383610598565b9150826002028217905092915050565b6105d882610395565b67ffffffffffffffff8111156105f1576105f061039f565b5b6105fb82546103f9565b610606828285610546565b5f60209050601f831160018114610637575f8415610625578287015190505b61062f85826105b4565b865550610696565b601f19841661064586610429565b5f5b8281101561066c57848901518255600182019150602085019450602081019050610647565b868310156106895784890151610685601f891682610598565b8355505b6001600288020188555050505b505050505050565b7f4e487b71000000000000000000000000000000000000000000000000000000005f52601160045260245ffd5b5f8160011c9050919050565b5f808291508390505b6001851115610720578086048111156106fc576106fb61069e565b5b600185161561070b5780820291505b8081029050610719856106cb565b94506106e0565b94509492505050565b5f8261073857600190506107f3565b81610745575f90506107f3565b816001811461075b576002811461076557610794565b60019150506107f3565b60ff8411156107775761077661069e565b5b8360020a91508482111561078e5761078d61069e565b5b506107f3565b5060208310610133831016604e8410600b84101617156107c95782820a9050838111156107c4576107c361069e565b5b6107f3565b6107d684848460016106d7565b925090508184048111156107ed576107ec61069e565b5b81810290505b9392505050565b5f610804826104a7565b915061080f836104a7565b925061083c7fffffffffffffffffffffffffffffffffffffffffffffffffffffffffffffffff8484610729565b905092915050565b5f61084e826104a7565b9150610859836104a7565b9250828202610867816104a7565b9150828204841483151761087e5761087d61069e565b5b5092915050565b5f73ffffffffffffffffffffffffffffffffffffffff82169050919050565b5f6108ae82610885565b9050919050565b6108be816108a4565b82525050565b5f6020820190506108d75f8301846108b5565b92915050565b5f6108e7826104a7565b91506108f2836104a7565b925082820190508082111561090a5761090961069e565b5b92915050565b610919816104a7565b82525050565b5f6060820190506109325f8301866108b5565b61093f6020830185610910565b61094c6040830184610910565b949350505050565b5f6020820190506109675f830184610910565b92915050565b610dee8061097a5f395ff3fe608060405234801561000f575f80fd5b5060043610610091575f3560e01c8063313ce56711610064578063313ce5671461013157806370a082311461014f57806395d89b411461017f578063a9059cbb1461019d578063dd62ed3e146101cd57610091565b806306fdde0314610095578063095ea7b3146100b357806318160ddd146100e357806323b872dd14610101575b5f80fd5b61009d6101fd565b6040516100aa9190610a67565b60405180910390f35b6100cd60048036038101906100c89190610b18565b61028d565b6040516100da9190610b70565b60405180910390f35b6100eb6102af565b6040516100f89190610b98565b60405180910390f35b61011b60048036038101906101169190610bb1565b6102b8565b6040516101289190610b70565b60405180910390f35b6101396102e6565b6040516101469190610c1c565b60405180910390f35b61016960048036038101906101649190610c35565b6102fb565b6040516101769190610b98565b60405180910390f35b610187610340565b6040516101949190610a67565b60405180910390f35b6101b760048036038101906101b29190610b18565b6103d0565b6040516101c49190610b70565b60405180910390f35b6101e760048036038101906101e29190610c60565b6103f2565b6040516101f49190610b98565b60405180910390f35b60606003805461020c90610ccb565b80601f016020809104026020016040519081016040528092919081815260200182805461023890610ccb565b80156102835780601f1061025a57610100808354040283529160200191610283565b820191905f5260205f20905b81548152906001019060200180831161026657829003601f168201915b5050505050905090565b5f80610297610474565b90506102a481858561047b565b600191505092915050565b5f600254905090565b5f806102c2610474565b90506102cf85828561048d565b6102da85858561051f565b60019150509392505050565b5f60055f9054906101000a900460ff16905090565b5f805f8373ffffffffffffffffffffffffffffffffffffffff1673ffffffffffffffffffffffffffffffffffffffff1681526020019081526020015f20549050919050565b60606004805461034f90610ccb565b80601f016020809104026020016040519081016040528092919081815260200182805461037b90610ccb565b80156103c65780601f1061039d576101008083540402835291602001916103c6565b820191905f5260205f20905b8154815290600101906020018083116103a957829003601f168201915b5050505050905090565b5f806103da610474565b90506103e781858561051f565b600191505092915050565b5f60015f8473ffffffffffffffffffffffffffffffffffffffff1673ffffffffffffffffffffffffffffffffffffffff1681526020019081526020015f205f8373ffffffffffffffffffffffffffffffffffffffff1673ffffffffffffffffffffffffffffffffffffffff1681526020019081526020015f2054905092915050565b5f33905090565b610488838383600161060f565b505050565b5f61049884846103f2565b90507fffffffffffffffffffffffffffffffffffffffffffffffffffffffffffffffff8114610519578181101561050a578281836040517ffb8f41b200000000000000000000000000000000000000000000000000000000815260040161050193929190610d0a565b60405180910390fd5b61051884848484035f61060f565b5b50505050565b5f73ffffffffffffffffffffffffffffffffffffffff168373ffffffffffffffffffffffffffffffffffffffff160361058f575f6040517f96c6fd1e0000000000000000000000000000000000000000000000000000000081526004016105869190610d3f565b60405180910390fd5b5f73ffffffffffffffffffffffffffffffffffffffff168273ffffffffffffffffffffffffffffffffffffffff16036105ff575f6040517fec442f050000000000000000000000000000000000000000000000000000000081526004016105f69190610d3f565b60405180910390fd5b61060a8383836107de565b505050565b5f73ffffffffffffffffffffffffffffffffffffffff168473ffffffffffffffffffffffffffffffffffffffff160361067f575f6040517fe602df050000000000000000000000000000000000000000000000000000000081526004016106769190610d3f565b60405180910390fd5b5f73ffffffffffffffffffffffffffffffffffffffff168373ffffffffffffffffffffffffffffffffffffffff16036106ef575f6040517f94280d620000000000000000000000000000000000000000000000000000000081526004016106e69190610d3f565b60405180910390fd5b8160015f8673ffffffffffffffffffffffffffffffffffffffff1673ffffffffffffffffffffffffffffffffffffffff1681526020019081526020015f205f8573ffffffffffffffffffffffffffffffffffffffff1673ffffffffffffffffffffffffffffffffffffffff1681526020019081526020015f208190555080156107d8578273ffffffffffffffffffffffffffffffffffffffff168473ffffffffffffffffffffffffffffffffffffffff167f8c5be1e5ebec7d5bd14f71427d1e84f3dd0314c0f7b2291e5b200ac8c7c3b925846040516107cf9190610b98565b60405180910390a35b50505050565b5f73ffffffffffffffffffffffffffffffffffffffff168373ffffffffffffffffffffffffffffffffffffffff160361082e578060025f8282546108229190610d85565b925050819055506108fc565b5f805f8573ffffffffffffffffffffffffffffffffffffffff1673ffffffffffffffffffffffffffffffffffffffff1681526020019081526020015f20549050818110156108b7578381836040517fe450d38c0000000000000000000000000000000000000000000000000000000081526004016108ae93929190610d0a565b60405180910390fd5b8181035f808673ffffffffffffffffffffffffffffffffffffffff1673ffffffffffffffffffffffffffffffffffffffff1681526020019081526020015f2081905550505b5f73ffffffffffffffffffffffffffffffffffffffff168273ffffffffffffffffffffffffffffffffffffffff1603610943578060025f828254039250508190555061098d565b805f808473ffffffffffffffffffffffffffffffffffffffff1673ffffffffffffffffffffffffffffffffffffffff1681526020019081526020015f205f82825401925050819055505b8173ffffffffffffffffffffffffffffffffffffffff168373ffffffffffffffffffffffffffffffffffffffff167fddf252ad1be2c89b69c2b068fc378daa952ba7f163c4a11628f55a4df523b3ef836040516109ea9190610b98565b60405180910390a3505050565b5f81519050919050565b5f82825260208201905092915050565b8281835e5f83830152505050565b5f601f19601f8301169050919050565b5f610a39826109f7565b610a438185610a01565b9350610a53818560208601610a11565b610a5c81610a1f565b840191505092915050565b5f6020820190508181035f830152610a7f8184610a2f565b905092915050565b5f80fd5b5f73ffffffffffffffffffffffffffffffffffffffff82169050919050565b5f610ab482610a8b565b9050919050565b610ac481610aaa565b8114610ace575f80fd5b50565b5f81359050610adf81610abb565b92915050565b5f819050919050565b610af781610ae5565b8114610b01575f80fd5b50565b5f81359050610b1281610aee565b92915050565b5f8060408385031215610b2e57610b2d610a87565b5b5f610b3b85828601610ad1565b9250506020610b4c85828601610b04565b9150509250929050565b5f8115159050919050565b610b6a81610b56565b82525050565b5f602082019050610b835f830184610b61565b92915050565b610b9281610ae5565b82525050565b5f602082019050610bab5f830184610b89565b92915050565b5f805f60608486031215610bc857610bc7610a87565b5b5f610bd586828701610ad1565b9350506020610be686828701610ad1565b9250506040610bf786828701610b04565b9150509250925092565b5f60ff82169050919050565b610c1681610c01565b82525050565b5f602082019050610c2f5f830184610c0d565b92915050565b5f60208284031215610c4a57610c49610a87565b5b5f610c5784828501610ad1565b91505092915050565b5f8060408385031215610c7657610c75610a87565b5b5f610c8385828601610ad1565b9250506020610c9485828601610ad1565b9150509250929050565b7f4e487b71000000000000000000000000000000000000000000000000000000005f52602260045260245ffd5b5f6002820490506001821680610ce257607f821691505b602082108103610cf557610cf4610c9e565b5b50919050565b610d0481610aaa565b82525050565b5f606082019050610d1d5f830186610cfb565b610d2a6020830185610b89565b610d376040830184610b89565b949350505050565b5f602082019050610d525f830184610cfb565b92915050565b7f4e487b71000000000000000000000000000000000000000000000000000000005f52601160045260245ffd5b5f610d8f82610ae5565b9150610d9a83610ae5565b9250828201905080821115610db257610db1610d58565b5b9291505056fea26469706673582212203bce0b664b94aca9d5c2b4a0c86f857751238da87bdfd21d1328a0606b23c03664736f6c634300081a0033",
					"opcodes": "PUSH1 0x80 PUSH1 0x40 MSTORE CALLVALUE DUP1 ISZERO PUSH1 0xE JUMPI PUSH0 DUP1 REVERT JUMPDEST POP PUSH1 0x40 MLOAD PUSH1 0x19 SWAP1 PUSH1 0x74 JUMP JUMPDEST PUSH1 0x40 MLOAD DUP1 SWAP2 SUB SWAP1 PUSH0 CREATE DUP1 ISZERO DUP1 ISZERO PUSH1 0x31 JUMPI RETURNDATASIZE PUSH0 DUP1 RETURNDATACOPY RETURNDATASIZE PUSH0 REVERT JUMPDEST POP PUSH0 DUP1 PUSH2 0x100 EXP DUP2 SLOAD DUP2 PUSH20 0xFFFFFFFFFFFFFFFFFFFFFFFFFFFFFFFFFFFFFFFF MUL NOT AND SWAP1 DUP4 PUSH20 0xFFFFFFFFFFFFFFFFFFFFFFFFFFFFFFFFFFFFFFFF AND MUL OR SWAP1 SSTORE POP PUSH1 0x81 JUMP JUMPDEST PUSH2 0x1768 DUP1 PUSH2 0x15E2 DUP4 CODECOPY ADD SWAP1 JUMP JUMPDEST PUSH2 0x1554 DUP1 PUSH2 0x8E PUSH0 CODECOPY PUSH0 RETURN INVALID PUSH1 0x80 PUSH1 0x40 MSTORE PUSH1 0x4 CALLDATASIZE LT PUSH2 0x85 JUMPI PUSH0 CALLDATALOAD PUSH1 0xE0 SHR DUP1 PUSH4 0x1D65E77E GT PUSH2 0x58 JUMPI DUP1 PUSH4 0x1D65E77E EQ PUSH2 0x147 JUMPI DUP1 PUSH4 0x1FF4A418 EQ PUSH2 0x187 JUMPI DUP1 PUSH4 0x6E17E240 EQ PUSH2 0x1B1 JUMPI DUP1 PUSH4 0x805BE20E EQ PUSH2 0x1ED JUMPI DUP1 PUSH4 0xC305FD00 EQ PUSH2 0x229 JUMPI PUSH2 0x85 JUMP JUMPDEST DUP1 PUSH4 0x306F8FD EQ PUSH2 0x89 JUMPI DUP1 PUSH4 0x8D03E91 EQ PUSH2 0xC5 JUMPI DUP1 PUSH4 0x1072CBEA EQ PUSH2 0xEF JUMPI DUP1 PUSH4 0x134FE3DC EQ PUSH2 0x117 JUMPI JUMPDEST PUSH0 DUP1 REVERT JUMPDEST CALLVALUE DUP1 ISZERO PUSH2 0x94 JUMPI PUSH0 DUP1 REVERT JUMPDEST POP PUSH2 0xAF PUSH1 0x4 DUP1 CALLDATASIZE SUB DUP2 ADD SWAP1 PUSH2 0xAA SWAP2 SWAP1 PUSH2 0xBF6 JUMP JUMPDEST PUSH2 0x265 JUMP JUMPDEST PUSH1 0x40 MLOAD PUSH2 0xBC SWAP2 SWAP1 PUSH2 0xC5F JUMP JUMPDEST PUSH1 0x40 MLOAD DUP1 SWAP2 SUB SWAP1 RETURN JUMPDEST CALLVALUE DUP1 ISZERO PUSH2 0xD0 JUMPI PUSH0 DUP1 REVERT JUMPDEST POP PUSH2 0xD9 PUSH2 0x366 JUMP JUMPDEST PUSH1 0x40 MLOAD PUSH2 0xE6 SWAP2 SWAP1 PUSH2 0xCB7 JUMP JUMPDEST PUSH1 0x40 MLOAD DUP1 SWAP2 SUB SWAP1 RETURN JUMPDEST CALLVALUE DUP1 ISZERO PUSH2 0xFA JUMPI PUSH0 DUP1 REVERT JUMPDEST POP PUSH2 0x115 PUSH1 0x4 DUP1 CALLDATASIZE SUB DUP2 ADD SWAP1 PUSH2 0x110 SWAP2 SWAP1 PUSH2 0xCFA JUMP JUMPDEST PUSH2 0x38D JUMP JUMPDEST STOP JUMPDEST PUSH2 0x131 PUSH1 0x4 DUP1 CALLDATASIZE SUB DUP2 ADD SWAP1 PUSH2 0x12C SWAP2 SWAP1 PUSH2 0xD38 JUMP JUMPDEST PUSH2 0x475 JUMP JUMPDEST PUSH1 0x40 MLOAD PUSH2 0x13E SWAP2 SWAP1 PUSH2 0xD90 JUMP JUMPDEST PUSH1 0x40 MLOAD DUP1 SWAP2 SUB SWAP1 RETURN JUMPDEST CALLVALUE DUP1 ISZERO PUSH2 0x152 JUMPI PUSH0 DUP1 REVERT JUMPDEST POP PUSH2 0x16D PUSH1 0x4 DUP1 CALLDATASIZE SUB DUP2 ADD SWAP1 PUSH2 0x168 SWAP2 SWAP1 PUSH2 0xDA9 JUMP JUMPDEST PUSH2 0x579 JUMP JUMPDEST PUSH1 0x40 MLOAD PUSH2 0x17E SWAP6 SWAP5 SWAP4 SWAP3 SWAP2 SWAP1 PUSH2 0xF5C JUMP JUMPDEST PUSH1 0x40 MLOAD DUP1 SWAP2 SUB SWAP1 RETURN JUMPDEST CALLVALUE DUP1 ISZERO PUSH2 0x192 JUMPI PUSH0 DUP1 REVERT JUMPDEST POP PUSH2 0x19B PUSH2 0x79A JUMP JUMPDEST PUSH1 0x40 MLOAD PUSH2 0x1A8 SWAP2 SWAP1 PUSH2 0x1016 JUMP JUMPDEST PUSH1 0x40 MLOAD DUP1 SWAP2 SUB SWAP1 RETURN JUMPDEST CALLVALUE DUP1 ISZERO PUSH2 0x1BC JUMPI PUSH0 DUP1 REVERT JUMPDEST POP PUSH2 0x1D7 PUSH1 0x4 DUP1 CALLDATASIZE SUB DUP2 ADD SWAP1 PUSH2 0x1D2 SWAP2 SWAP1 PUSH2 0xDA9 JUMP JUMPDEST PUSH2 0x7BD JUMP JUMPDEST PUSH1 0x40 MLOAD PUSH2 0x1E4 SWAP2 SWAP1 PUSH2 0xC5F JUMP JUMPDEST PUSH1 0x40 MLOAD DUP1 SWAP2 SUB SWAP1 RETURN JUMPDEST CALLVALUE DUP1 ISZERO PUSH2 0x1F8 JUMPI PUSH0 DUP1 REVERT JUMPDEST POP PUSH2 0x213 PUSH1 0x4 DUP1 CALLDATASIZE SUB DUP2 ADD SWAP1 PUSH2 0x20E SWAP2 SWAP1 PUSH2 0xD38 JUMP JUMPDEST PUSH2 0x8DE JUMP JUMPDEST PUSH1 0x40 MLOAD PUSH2 0x220 SWAP2 SWAP1 PUSH2 0xD90 JUMP JUMPDEST PUSH1 0x40 MLOAD DUP1 SWAP2 SUB SWAP1 RETURN JUMPDEST CALLVALUE DUP1 ISZERO PUSH2 0x234 JUMPI PUSH0 DUP1 REVERT JUMPDEST POP PUSH2 0x24F PUSH1 0x4 DUP1 CALLDATASIZE SUB DUP2 ADD SWAP1 PUSH2 0x24A SWAP2 SWAP1 PUSH2 0x1059 JUMP JUMPDEST PUSH2 0x939 JUMP JUMPDEST PUSH1 0x40 MLOAD PUSH2 0x25C SWAP2 SWAP1 PUSH2 0xD90 JUMP JUMPDEST PUSH1 0x40 MLOAD DUP1 SWAP2 SUB SWAP1 RETURN JUMPDEST PUSH0 DUP1 PUSH0 PUSH1 0x1 DUP1 SLOAD SWAP1 POP SUB PUSH2 0x27B JUMPI PUSH0 SWAP1 POP PUSH2 0x284 JUMP JUMPDEST PUSH1 0x1 DUP1 SLOAD SWAP1 POP SWAP1 POP JUMPDEST PUSH0 PUSH1 0x1 DUP1 DUP2 PUSH1 0x1 DUP2 SLOAD ADD DUP1 DUP3 SSTORE DUP1 SWAP2 POP POP SUB SWAP1 PUSH0 MSTORE PUSH1 0x20 PUSH0 KECCAK256 SWAP1 PUSH1 0x5 MUL ADD SWAP1 POP DUP2 DUP2 PUSH0 ADD DUP2 SWAP1 SSTORE POP DUP5 DUP2 PUSH1 0x1 ADD SWAP1 DUP2 PUSH2 0x2BD SWAP2 SWAP1 PUSH2 0x12AE JUMP JUMPDEST POP CALLER DUP2 PUSH1 0x2 ADD PUSH0 PUSH2 0x100 EXP DUP2 SLOAD DUP2 PUSH20 0xFFFFFFFFFFFFFFFFFFFFFFFFFFFFFFFFFFFFFFFF MUL NOT AND SWAP1 DUP4 PUSH20 0xFFFFFFFFFFFFFFFFFFFFFFFFFFFFFFFFFFFFFFFF AND MUL OR SWAP1 SSTORE POP DUP4 DUP2 PUSH1 0x3 ADD DUP2 SWAP1 SSTORE POP CALLER PUSH20 0xFFFFFFFFFFFFFFFFFFFFFFFFFFFFFFFFFFFFFFFF AND PUSH32 0xB2483DA40ECEC215BB3D46313445363F57ED522F167C4ED911E5C0D824E5B54C DUP7 DUP7 DUP6 PUSH1 0x40 MLOAD PUSH2 0x353 SWAP4 SWAP3 SWAP2 SWAP1 PUSH2 0x137D JUMP JUMPDEST PUSH1 0x40 MLOAD DUP1 SWAP2 SUB SWAP1 LOG2 DUP2 SWAP3 POP POP POP SWAP3 SWAP2 POP POP JUMP JUMPDEST PUSH0 DUP1 PUSH0 SWAP1 SLOAD SWAP1 PUSH2 0x100 EXP SWAP1 DIV PUSH20 0xFFFFFFFFFFFFFFFFFFFFFFFFFFFFFFFFFFFFFFFF AND SWAP1 POP SWAP1 JUMP JUMPDEST PUSH0 DUP1 PUSH0 SWAP1 SLOAD SWAP1 PUSH2 0x100 EXP SWAP1 DIV PUSH20 0xFFFFFFFFFFFFFFFFFFFFFFFFFFFFFFFFFFFFFFFF AND SWAP1 POP PUSH0 DUP2 PUSH20 0xFFFFFFFFFFFFFFFFFFFFFFFFFFFFFFFFFFFFFFFF AND PUSH4 0xA9059CBB DUP6 DUP6 PUSH1 0x40 MLOAD DUP4 PUSH4 0xFFFFFFFF AND PUSH1 0xE0 SHL DUP2 MSTORE PUSH1 0x4 ADD PUSH2 0x3ED SWAP3 SWAP2 SWAP1 PUSH2 0x13B9 JUMP JUMPDEST PUSH1 0x20 PUSH1 0x40 MLOAD DUP1 DUP4 SUB DUP2 PUSH0 DUP8 GAS CALL ISZERO DUP1 ISZERO PUSH2 0x409 JUMPI RETURNDATASIZE PUSH0 DUP1 RETURNDATACOPY RETURNDATASIZE PUSH0 REVERT JUMPDEST POP POP POP POP PUSH1 0x40 MLOAD RETURNDATASIZE PUSH1 0x1F NOT PUSH1 0x1F DUP3 ADD AND DUP3 ADD DUP1 PUSH1 0x40 MSTORE POP DUP2 ADD SWAP1 PUSH2 0x42D SWAP2 SWAP1 PUSH2 0x13F4 JUMP JUMPDEST SWAP1 POP DUP1 PUSH2 0x46F JUMPI PUSH1 0x40 MLOAD PUSH32 0x8C379A000000000000000000000000000000000000000000000000000000000 DUP2 MSTORE PUSH1 0x4 ADD PUSH2 0x466 SWAP1 PUSH2 0x1469 JUMP JUMPDEST PUSH1 0x40 MLOAD DUP1 SWAP2 SUB SWAP1 REVERT JUMPDEST POP POP POP POP JUMP JUMPDEST PUSH0 DUP1 PUSH1 0x1 DUP5 DUP2 SLOAD DUP2 LT PUSH2 0x48B JUMPI PUSH2 0x48A PUSH2 0x1487 JUMP JUMPDEST JUMPDEST SWAP1 PUSH0 MSTORE PUSH1 0x20 PUSH0 KECCAK256 SWAP1 PUSH1 0x5 MUL ADD SWAP1 POP PUSH0 DUP2 PUSH1 0x4 ADD DUP5 DUP2 SLOAD DUP2 LT PUSH2 0x4B0 JUMPI PUSH2 0x4AF PUSH2 0x1487 JUMP JUMPDEST JUMPDEST SWAP1 PUSH0 MSTORE PUSH1 0x20 PUSH0 KECCAK256 SWAP1 PUSH1 0x3 MUL ADD SWAP1 POP PUSH1 0x1 DUP2 PUSH1 0x1 ADD PUSH1 0x14 PUSH2 0x100 EXP DUP2 SLOAD DUP2 PUSH1 0xFF MUL NOT AND SWAP1 DUP4 ISZERO ISZERO MUL OR SWAP1 SSTORE POP CALLER DUP2 PUSH1 0x2 ADD PUSH0 PUSH2 0x100 EXP DUP2 SLOAD DUP2 PUSH20 0xFFFFFFFFFFFFFFFFFFFFFFFFFFFFFFFFFFFFFFFF MUL NOT AND SWAP1 DUP4 PUSH20 0xFFFFFFFFFFFFFFFFFFFFFFFFFFFFFFFFFFFFFFFF AND MUL OR SWAP1 SSTORE POP CALLER PUSH20 0xFFFFFFFFFFFFFFFFFFFFFFFFFFFFFFFFFFFFFFFF AND PUSH32 0xAE10A2D383E989ABA2FE4692A3F9BD0DFA98823F4EA0C5C1686416131D3C4B1B DUP7 DUP7 PUSH1 0x40 MLOAD PUSH2 0x565 SWAP3 SWAP2 SWAP1 PUSH2 0x14B4 JUMP JUMPDEST PUSH1 0x40 MLOAD DUP1 SWAP2 SUB SWAP1 LOG2 PUSH1 0x1 SWAP3 POP POP POP SWAP3 SWAP2 POP POP JUMP JUMPDEST PUSH0 PUSH1 0x60 PUSH0 DUP1 PUSH1 0x60 PUSH0 PUSH1 0x1 DUP8 DUP2 SLOAD DUP2 LT PUSH2 0x595 JUMPI PUSH2 0x594 PUSH2 0x1487 JUMP JUMPDEST JUMPDEST SWAP1 PUSH0 MSTORE PUSH1 0x20 PUSH0 KECCAK256 SWAP1 PUSH1 0x5 MUL ADD SWAP1 POP DUP1 PUSH0 ADD SLOAD DUP2 PUSH1 0x1 ADD DUP3 PUSH1 0x2 ADD PUSH0 SWAP1 SLOAD SWAP1 PUSH2 0x100 EXP SWAP1 DIV PUSH20 0xFFFFFFFFFFFFFFFFFFFFFFFFFFFFFFFFFFFFFFFF AND DUP4 PUSH1 0x3 ADD SLOAD DUP5 PUSH1 0x4 ADD DUP4 DUP1 SLOAD PUSH2 0x5E4 SWAP1 PUSH2 0x10EA JUMP JUMPDEST DUP1 PUSH1 0x1F ADD PUSH1 0x20 DUP1 SWAP2 DIV MUL PUSH1 0x20 ADD PUSH1 0x40 MLOAD SWAP1 DUP2 ADD PUSH1 0x40 MSTORE DUP1 SWAP3 SWAP2 SWAP1 DUP2 DUP2 MSTORE PUSH1 0x20 ADD DUP3 DUP1 SLOAD PUSH2 0x610 SWAP1 PUSH2 0x10EA JUMP JUMPDEST DUP1 ISZERO PUSH2 0x65B JUMPI DUP1 PUSH1 0x1F LT PUSH2 0x632 JUMPI PUSH2 0x100 DUP1 DUP4 SLOAD DIV MUL DUP4 MSTORE SWAP2 PUSH1 0x20 ADD SWAP2 PUSH2 0x65B JUMP JUMPDEST DUP3 ADD SWAP2 SWAP1 PUSH0 MSTORE PUSH1 0x20 PUSH0 KECCAK256 SWAP1 JUMPDEST DUP2 SLOAD DUP2 MSTORE SWAP1 PUSH1 0x1 ADD SWAP1 PUSH1 0x20 ADD DUP1 DUP4 GT PUSH2 0x63E JUMPI DUP3 SWAP1 SUB PUSH1 0x1F AND DUP3 ADD SWAP2 JUMPDEST POP POP POP POP POP SWAP4 POP DUP1 DUP1 SLOAD DUP1 PUSH1 0x20 MUL PUSH1 0x20 ADD PUSH1 0x40 MLOAD SWAP1 DUP2 ADD PUSH1 0x40 MSTORE DUP1 SWAP3 SWAP2 SWAP1 DUP2 DUP2 MSTORE PUSH1 0x20 ADD PUSH0 SWAP1 JUMPDEST DUP3 DUP3 LT ISZERO PUSH2 0x780 JUMPI DUP4 DUP3 SWAP1 PUSH0 MSTORE PUSH1 0x20 PUSH0 KECCAK256 SWAP1 PUSH1 0x3 MUL ADD PUSH1 0x40 MLOAD DUP1 PUSH1 0x80 ADD PUSH1 0x40 MSTORE SWAP1 DUP2 PUSH0 DUP3 ADD SLOAD DUP2 MSTORE PUSH1 0x20 ADD PUSH1 0x1 DUP3 ADD PUSH0 SWAP1 SLOAD SWAP1 PUSH2 0x100 EXP SWAP1 DIV PUSH20 0xFFFFFFFFFFFFFFFFFFFFFFFFFFFFFFFFFFFFFFFF AND PUSH20 0xFFFFFFFFFFFFFFFFFFFFFFFFFFFFFFFFFFFFFFFF AND PUSH20 0xFFFFFFFFFFFFFFFFFFFFFFFFFFFFFFFFFFFFFFFF AND DUP2 MSTORE PUSH1 0x20 ADD PUSH1 0x1 DUP3 ADD PUSH1 0x14 SWAP1 SLOAD SWAP1 PUSH2 0x100 EXP SWAP1 DIV PUSH1 0xFF AND ISZERO ISZERO ISZERO ISZERO DUP2 MSTORE PUSH1 0x20 ADD PUSH1 0x2 DUP3 ADD PUSH0 SWAP1 SLOAD SWAP1 PUSH2 0x100 EXP SWAP1 DIV PUSH20 0xFFFFFFFFFFFFFFFFFFFFFFFFFFFFFFFFFFFFFFFF AND PUSH20 0xFFFFFFFFFFFFFFFFFFFFFFFFFFFFFFFFFFFFFFFF AND PUSH20 0xFFFFFFFFFFFFFFFFFFFFFFFFFFFFFFFFFFFFFFFF AND DUP2 MSTORE POP POP DUP2 MSTORE PUSH1 0x20 ADD SWAP1 PUSH1 0x1 ADD SWAP1 PUSH2 0x682 JUMP JUMPDEST POP POP POP POP SWAP1 POP SWAP6 POP SWAP6 POP SWAP6 POP SWAP6 POP SWAP6 POP POP SWAP2 SWAP4 SWAP6 SWAP1 SWAP3 SWAP5 POP JUMP JUMPDEST PUSH0 DUP1 SLOAD SWAP1 PUSH2 0x100 EXP SWAP1 DIV PUSH20 0xFFFFFFFFFFFFFFFFFFFFFFFFFFFFFFFFFFFFFFFF AND DUP2 JUMP JUMPDEST PUSH0 DUP1 PUSH0 PUSH1 0x2 DUP1 SLOAD SWAP1 POP SUB PUSH2 0x7D3 JUMPI PUSH0 SWAP1 POP PUSH2 0x7DC JUMP JUMPDEST PUSH1 0x2 DUP1 SLOAD SWAP1 POP SWAP1 POP JUMPDEST PUSH0 PUSH1 0x1 DUP5 DUP2 SLOAD DUP2 LT PUSH2 0x7F1 JUMPI PUSH2 0x7F0 PUSH2 0x1487 JUMP JUMPDEST JUMPDEST SWAP1 PUSH0 MSTORE PUSH1 0x20 PUSH0 KECCAK256 SWAP1 PUSH1 0x5 MUL ADD PUSH1 0x4 ADD PUSH1 0x1 DUP2 PUSH1 0x1 DUP2 SLOAD ADD DUP1 DUP3 SSTORE DUP1 SWAP2 POP POP SUB SWAP1 PUSH0 MSTORE PUSH1 0x20 PUSH0 KECCAK256 SWAP1 PUSH1 0x3 MUL ADD SWAP1 POP DUP2 DUP2 PUSH0 ADD DUP2 SWAP1 SSTORE POP CALLER DUP2 PUSH1 0x1 ADD PUSH0 PUSH2 0x100 EXP DUP2 SLOAD DUP2 PUSH20 0xFFFFFFFFFFFFFFFFFFFFFFFFFFFFFFFFFFFFFFFF MUL NOT AND SWAP1 DUP4 PUSH20 0xFFFFFFFFFFFFFFFFFFFFFFFFFFFFFFFFFFFFFFFF AND MUL OR SWAP1 SSTORE POP PUSH0 DUP2 PUSH1 0x1 ADD PUSH1 0x14 PUSH2 0x100 EXP DUP2 SLOAD DUP2 PUSH1 0xFF MUL NOT AND SWAP1 DUP4 ISZERO ISZERO MUL OR SWAP1 SSTORE POP CALLER PUSH20 0xFFFFFFFFFFFFFFFFFFFFFFFFFFFFFFFFFFFFFFFF AND PUSH32 0xDDF93E470E1DE974E471FBD0A8F8CB0CA5B94C95EF801C3D5E3FEEE41B46CE3F DUP6 DUP5 PUSH1 0x40 MLOAD PUSH2 0x8CC SWAP3 SWAP2 SWAP1 PUSH2 0x14B4 JUMP JUMPDEST PUSH1 0x40 MLOAD DUP1 SWAP2 SUB SWAP1 LOG2 DUP2 SWAP3 POP POP POP SWAP2 SWAP1 POP JUMP JUMPDEST PUSH0 CALLER PUSH20 0xFFFFFFFFFFFFFFFFFFFFFFFFFFFFFFFFFFFFFFFF AND PUSH32 0xE42B48D07FF346F8A57937574C026640C0BFC24FF90641C147B54C96DA8C2F1C DUP5 DUP5 PUSH1 0x40 MLOAD PUSH2 0x927 SWAP3 SWAP2 SWAP1 PUSH2 0x14B4 JUMP JUMPDEST PUSH1 0x40 MLOAD DUP1 SWAP2 SUB SWAP1 LOG2 PUSH1 0x1 SWAP1 POP SWAP3 SWAP2 POP POP JUMP JUMPDEST PUSH0 DUP1 PUSH1 0x1 DUP6 DUP2 SLOAD DUP2 LT PUSH2 0x94F JUMPI PUSH2 0x94E PUSH2 0x1487 JUMP JUMPDEST JUMPDEST SWAP1 PUSH0 MSTORE PUSH1 0x20 PUSH0 KECCAK256 SWAP1 PUSH1 0x5 MUL ADD SWAP1 POP PUSH0 DUP2 PUSH1 0x4 ADD DUP6 DUP2 SLOAD DUP2 LT PUSH2 0x974 JUMPI PUSH2 0x973 PUSH2 0x1487 JUMP JUMPDEST JUMPDEST SWAP1 PUSH0 MSTORE PUSH1 0x20 PUSH0 KECCAK256 SWAP1 PUSH1 0x3 MUL ADD SWAP1 POP DUP4 DUP2 PUSH1 0x1 ADD PUSH1 0x14 PUSH2 0x100 EXP DUP2 SLOAD DUP2 PUSH1 0xFF MUL NOT AND SWAP1 DUP4 ISZERO ISZERO MUL OR SWAP1 SSTORE POP PUSH0 DUP3 PUSH1 0x2 ADD PUSH0 SWAP1 SLOAD SWAP1 PUSH2 0x100 EXP SWAP1 DIV PUSH20 0xFFFFFFFFFFFFFFFFFFFFFFFFFFFFFFFFFFFFFFFF AND SWAP1 POP PUSH0 DUP3 PUSH1 0x1 ADD PUSH0 SWAP1 SLOAD SWAP1 PUSH2 0x100 EXP SWAP1 DIV PUSH20 0xFFFFFFFFFFFFFFFFFFFFFFFFFFFFFFFFFFFFFFFF AND SWAP1 POP PUSH1 0x1 ISZERO ISZERO DUP7 ISZERO ISZERO SUB PUSH2 0xA07 JUMPI PUSH2 0xA02 DUP2 DUP11 PUSH2 0x38D JUMP JUMPDEST PUSH2 0xA12 JUMP JUMPDEST PUSH2 0xA11 DUP3 DUP11 PUSH2 0x38D JUMP JUMPDEST JUMPDEST CALLER PUSH20 0xFFFFFFFFFFFFFFFFFFFFFFFFFFFFFFFFFFFFFFFF AND PUSH32 0x2B489C9688560ADF19D595C73087B51E94BB7A0C147515054D86F2CA5E8B72D4 DUP11 DUP11 DUP11 DUP11 PUSH1 0x40 MLOAD PUSH2 0xA5E SWAP5 SWAP4 SWAP3 SWAP2 SWAP1 PUSH2 0x14DB JUMP JUMPDEST PUSH1 0x40 MLOAD DUP1 SWAP2 SUB SWAP1 LOG2 PUSH1 0x1 SWAP5 POP POP POP POP POP SWAP5 SWAP4 POP POP POP POP JUMP JUMPDEST PUSH0 PUSH1 0x40 MLOAD SWAP1 POP SWAP1 JUMP JUMPDEST PUSH0 DUP1 REVERT JUMPDEST PUSH0 DUP1 REVERT JUMPDEST PUSH0 DUP1 REVERT JUMPDEST PUSH0 DUP1 REVERT JUMPDEST PUSH0 PUSH1 0x1F NOT PUSH1 0x1F DUP4 ADD AND SWAP1 POP SWAP2 SWAP1 POP JUMP JUMPDEST PUSH32 0x4E487B7100000000000000000000000000000000000000000000000000000000 PUSH0 MSTORE PUSH1 0x41 PUSH1 0x4 MSTORE PUSH1 0x24 PUSH0 REVERT JUMPDEST PUSH2 0xAD5 DUP3 PUSH2 0xA8F JUMP JUMPDEST DUP2 ADD DUP2 DUP2 LT PUSH8 0xFFFFFFFFFFFFFFFF DUP3 GT OR ISZERO PUSH2 0xAF4 JUMPI PUSH2 0xAF3 PUSH2 0xA9F JUMP JUMPDEST JUMPDEST DUP1 PUSH1 0x40 MSTORE POP POP POP JUMP JUMPDEST PUSH0 PUSH2 0xB06 PUSH2 0xA76 JUMP JUMPDEST SWAP1 POP PUSH2 0xB12 DUP3 DUP3 PUSH2 0xACC JUMP JUMPDEST SWAP2 SWAP1 POP JUMP JUMPDEST PUSH0 PUSH8 0xFFFFFFFFFFFFFFFF DUP3 GT ISZERO PUSH2 0xB31 JUMPI PUSH2 0xB30 PUSH2 0xA9F JUMP JUMPDEST JUMPDEST PUSH2 0xB3A DUP3 PUSH2 0xA8F JUMP JUMPDEST SWAP1 POP PUSH1 0x20 DUP2 ADD SWAP1 POP SWAP2 SWAP1 POP JUMP JUMPDEST DUP3 DUP2 DUP4 CALLDATACOPY PUSH0 DUP4 DUP4 ADD MSTORE POP POP POP JUMP JUMPDEST PUSH0 PUSH2 0xB67 PUSH2 0xB62 DUP5 PUSH2 0xB17 JUMP JUMPDEST PUSH2 0xAFD JUMP JUMPDEST SWAP1 POP DUP3 DUP2 MSTORE PUSH1 0x20 DUP2 ADD DUP5 DUP5 DUP5 ADD GT ISZERO PUSH2 0xB83 JUMPI PUSH2 0xB82 PUSH2 0xA8B JUMP JUMPDEST JUMPDEST PUSH2 0xB8E DUP5 DUP3 DUP6 PUSH2 0xB47 JUMP JUMPDEST POP SWAP4 SWAP3 POP POP POP JUMP JUMPDEST PUSH0 DUP3 PUSH1 0x1F DUP4 ADD SLT PUSH2 0xBAA JUMPI PUSH2 0xBA9 PUSH2 0xA87 JUMP JUMPDEST JUMPDEST DUP2 CALLDATALOAD PUSH2 0xBBA DUP5 DUP3 PUSH1 0x20 DUP7 ADD PUSH2 0xB55 JUMP JUMPDEST SWAP2 POP POP SWAP3 SWAP2 POP POP JUMP JUMPDEST PUSH0 DUP2 SWAP1 POP SWAP2 SWAP1 POP JUMP JUMPDEST PUSH2 0xBD5 DUP2 PUSH2 0xBC3 JUMP JUMPDEST DUP2 EQ PUSH2 0xBDF JUMPI PUSH0 DUP1 REVERT JUMPDEST POP JUMP JUMPDEST PUSH0 DUP2 CALLDATALOAD SWAP1 POP PUSH2 0xBF0 DUP2 PUSH2 0xBCC JUMP JUMPDEST SWAP3 SWAP2 POP POP JUMP JUMPDEST PUSH0 DUP1 PUSH1 0x40 DUP4 DUP6 SUB SLT ISZERO PUSH2 0xC0C JUMPI PUSH2 0xC0B PUSH2 0xA7F JUMP JUMPDEST JUMPDEST PUSH0 DUP4 ADD CALLDATALOAD PUSH8 0xFFFFFFFFFFFFFFFF DUP2 GT ISZERO PUSH2 0xC29 JUMPI PUSH2 0xC28 PUSH2 0xA83 JUMP JUMPDEST JUMPDEST PUSH2 0xC35 DUP6 DUP3 DUP7 ADD PUSH2 0xB96 JUMP JUMPDEST SWAP3 POP POP PUSH1 0x20 PUSH2 0xC46 DUP6 DUP3 DUP7 ADD PUSH2 0xBE2 JUMP JUMPDEST SWAP2 POP POP SWAP3 POP SWAP3 SWAP1 POP JUMP JUMPDEST PUSH2 0xC59 DUP2 PUSH2 0xBC3 JUMP JUMPDEST DUP3 MSTORE POP POP JUMP JUMPDEST PUSH0 PUSH1 0x20 DUP3 ADD SWAP1 POP PUSH2 0xC72 PUSH0 DUP4 ADD DUP5 PUSH2 0xC50 JUMP JUMPDEST SWAP3 SWAP2 POP POP JUMP JUMPDEST PUSH0 PUSH20 0xFFFFFFFFFFFFFFFFFFFFFFFFFFFFFFFFFFFFFFFF DUP3 AND SWAP1 POP SWAP2 SWAP1 POP JUMP JUMPDEST PUSH0 PUSH2 0xCA1 DUP3 PUSH2 0xC78 JUMP JUMPDEST SWAP1 POP SWAP2 SWAP1 POP JUMP JUMPDEST PUSH2 0xCB1 DUP2 PUSH2 0xC97 JUMP JUMPDEST DUP3 MSTORE POP POP JUMP JUMPDEST PUSH0 PUSH1 0x20 DUP3 ADD SWAP1 POP PUSH2 0xCCA PUSH0 DUP4 ADD DUP5 PUSH2 0xCA8 JUMP JUMPDEST SWAP3 SWAP2 POP POP JUMP JUMPDEST PUSH2 0xCD9 DUP2 PUSH2 0xC97 JUMP JUMPDEST DUP2 EQ PUSH2 0xCE3 JUMPI PUSH0 DUP1 REVERT JUMPDEST POP JUMP JUMPDEST PUSH0 DUP2 CALLDATALOAD SWAP1 POP PUSH2 0xCF4 DUP2 PUSH2 0xCD0 JUMP JUMPDEST SWAP3 SWAP2 POP POP JUMP JUMPDEST PUSH0 DUP1 PUSH1 0x40 DUP4 DUP6 SUB SLT ISZERO PUSH2 0xD10 JUMPI PUSH2 0xD0F PUSH2 0xA7F JUMP JUMPDEST JUMPDEST PUSH0 PUSH2 0xD1D DUP6 DUP3 DUP7 ADD PUSH2 0xCE6 JUMP JUMPDEST SWAP3 POP POP PUSH1 0x20 PUSH2 0xD2E DUP6 DUP3 DUP7 ADD PUSH2 0xBE2 JUMP JUMPDEST SWAP2 POP POP SWAP3 POP SWAP3 SWAP1 POP JUMP JUMPDEST PUSH0 DUP1 PUSH1 0x40 DUP4 DUP6 SUB SLT ISZERO PUSH2 0xD4E JUMPI PUSH2 0xD4D PUSH2 0xA7F JUMP JUMPDEST JUMPDEST PUSH0 PUSH2 0xD5B DUP6 DUP3 DUP7 ADD PUSH2 0xBE2 JUMP JUMPDEST SWAP3 POP POP PUSH1 0x20 PUSH2 0xD6C DUP6 DUP3 DUP7 ADD PUSH2 0xBE2 JUMP JUMPDEST SWAP2 POP POP SWAP3 POP SWAP3 SWAP1 POP JUMP JUMPDEST PUSH0 DUP2 ISZERO ISZERO SWAP1 POP SWAP2 SWAP1 POP JUMP JUMPDEST PUSH2 0xD8A DUP2 PUSH2 0xD76 JUMP JUMPDEST DUP3 MSTORE POP POP JUMP JUMPDEST PUSH0 PUSH1 0x20 DUP3 ADD SWAP1 POP PUSH2 0xDA3 PUSH0 DUP4 ADD DUP5 PUSH2 0xD81 JUMP JUMPDEST SWAP3 SWAP2 POP POP JUMP JUMPDEST PUSH0 PUSH1 0x20 DUP3 DUP5 SUB SLT ISZERO PUSH2 0xDBE JUMPI PUSH2 0xDBD PUSH2 0xA7F JUMP JUMPDEST JUMPDEST PUSH0 PUSH2 0xDCB DUP5 DUP3 DUP6 ADD PUSH2 0xBE2 JUMP JUMPDEST SWAP2 POP POP SWAP3 SWAP2 POP POP JUMP JUMPDEST PUSH0 DUP2 MLOAD SWAP1 POP SWAP2 SWAP1 POP JUMP JUMPDEST PUSH0 DUP3 DUP3 MSTORE PUSH1 0x20 DUP3 ADD SWAP1 POP SWAP3 SWAP2 POP POP JUMP JUMPDEST DUP3 DUP2 DUP4 MCOPY PUSH0 DUP4 DUP4 ADD MSTORE POP POP POP JUMP JUMPDEST PUSH0 PUSH2 0xE06 DUP3 PUSH2 0xDD4 JUMP JUMPDEST PUSH2 0xE10 DUP2 DUP6 PUSH2 0xDDE JUMP JUMPDEST SWAP4 POP PUSH2 0xE20 DUP2 DUP6 PUSH1 0x20 DUP7 ADD PUSH2 0xDEE JUMP JUMPDEST PUSH2 0xE29 DUP2 PUSH2 0xA8F JUMP JUMPDEST DUP5 ADD SWAP2 POP POP SWAP3 SWAP2 POP POP JUMP JUMPDEST PUSH0 DUP2 MLOAD SWAP1 POP SWAP2 SWAP1 POP JUMP JUMPDEST PUSH0 DUP3 DUP3 MSTORE PUSH1 0x20 DUP3 ADD SWAP1 POP SWAP3 SWAP2 POP POP JUMP JUMPDEST PUSH0 DUP2 SWAP1 POP PUSH1 0x20 DUP3 ADD SWAP1 POP SWAP2 SWAP1 POP JUMP JUMPDEST PUSH2 0xE66 DUP2 PUSH2 0xBC3 JUMP JUMPDEST DUP3 MSTORE POP POP JUMP JUMPDEST PUSH2 0xE75 DUP2 PUSH2 0xC97 JUMP JUMPDEST DUP3 MSTORE POP POP JUMP JUMPDEST PUSH2 0xE84 DUP2 PUSH2 0xD76 JUMP JUMPDEST DUP3 MSTORE POP POP JUMP JUMPDEST PUSH1 0x80 DUP3 ADD PUSH0 DUP3 ADD MLOAD PUSH2 0xE9E PUSH0 DUP6 ADD DUP3 PUSH2 0xE5D JUMP JUMPDEST POP PUSH1 0x20 DUP3 ADD MLOAD PUSH2 0xEB1 PUSH1 0x20 DUP6 ADD DUP3 PUSH2 0xE6C JUMP JUMPDEST POP PUSH1 0x40 DUP3 ADD MLOAD PUSH2 0xEC4 PUSH1 0x40 DUP6 ADD DUP3 PUSH2 0xE7B JUMP JUMPDEST POP PUSH1 0x60 DUP3 ADD MLOAD PUSH2 0xED7 PUSH1 0x60 DUP6 ADD DUP3 PUSH2 0xE6C JUMP JUMPDEST POP POP POP POP JUMP JUMPDEST PUSH0 PUSH2 0xEE8 DUP4 DUP4 PUSH2 0xE8A JUMP JUMPDEST PUSH1 0x80 DUP4 ADD SWAP1 POP SWAP3 SWAP2 POP POP JUMP JUMPDEST PUSH0 PUSH1 0x20 DUP3 ADD SWAP1 POP SWAP2 SWAP1 POP JUMP JUMPDEST PUSH0 PUSH2 0xF0A DUP3 PUSH2 0xE34 JUMP JUMPDEST PUSH2 0xF14 DUP2 DUP6 PUSH2 0xE3E JUMP JUMPDEST SWAP4 POP PUSH2 0xF1F DUP4 PUSH2 0xE4E JUMP JUMPDEST DUP1 PUSH0 JUMPDEST DUP4 DUP2 LT ISZERO PUSH2 0xF4F JUMPI DUP2 MLOAD PUSH2 0xF36 DUP9 DUP3 PUSH2 0xEDD JUMP JUMPDEST SWAP8 POP PUSH2 0xF41 DUP4 PUSH2 0xEF4 JUMP JUMPDEST SWAP3 POP POP PUSH1 0x1 DUP2 ADD SWAP1 POP PUSH2 0xF22 JUMP JUMPDEST POP DUP6 SWAP4 POP POP POP POP SWAP3 SWAP2 POP POP JUMP JUMPDEST PUSH0 PUSH1 0xA0 DUP3 ADD SWAP1 POP PUSH2 0xF6F PUSH0 DUP4 ADD DUP9 PUSH2 0xC50 JUMP JUMPDEST DUP2 DUP2 SUB PUSH1 0x20 DUP4 ADD MSTORE PUSH2 0xF81 DUP2 DUP8 PUSH2 0xDFC JUMP JUMPDEST SWAP1 POP PUSH2 0xF90 PUSH1 0x40 DUP4 ADD DUP7 PUSH2 0xCA8 JUMP JUMPDEST PUSH2 0xF9D PUSH1 0x60 DUP4 ADD DUP6 PUSH2 0xC50 JUMP JUMPDEST DUP2 DUP2 SUB PUSH1 0x80 DUP4 ADD MSTORE PUSH2 0xFAF DUP2 DUP5 PUSH2 0xF00 JUMP JUMPDEST SWAP1 POP SWAP7 SWAP6 POP POP POP POP POP POP JUMP JUMPDEST PUSH0 DUP2 SWAP1 POP SWAP2 SWAP1 POP JUMP JUMPDEST PUSH0 PUSH2 0xFDE PUSH2 0xFD9 PUSH2 0xFD4 DUP5 PUSH2 0xC78 JUMP JUMPDEST PUSH2 0xFBB JUMP JUMPDEST PUSH2 0xC78 JUMP JUMPDEST SWAP1 POP SWAP2 SWAP1 POP JUMP JUMPDEST PUSH0 PUSH2 0xFEF DUP3 PUSH2 0xFC4 JUMP JUMPDEST SWAP1 POP SWAP2 SWAP1 POP JUMP JUMPDEST PUSH0 PUSH2 0x1000 DUP3 PUSH2 0xFE5 JUMP JUMPDEST SWAP1 POP SWAP2 SWAP1 POP JUMP JUMPDEST PUSH2 0x1010 DUP2 PUSH2 0xFF6 JUMP JUMPDEST DUP3 MSTORE POP POP JUMP JUMPDEST PUSH0 PUSH1 0x20 DUP3 ADD SWAP1 POP PUSH2 0x1029 PUSH0 DUP4 ADD DUP5 PUSH2 0x1007 JUMP JUMPDEST SWAP3 SWAP2 POP POP JUMP JUMPDEST PUSH2 0x1038 DUP2 PUSH2 0xD76 JUMP JUMPDEST DUP2 EQ PUSH2 0x1042 JUMPI PUSH0 DUP1 REVERT JUMPDEST POP JUMP JUMPDEST PUSH0 DUP2 CALLDATALOAD SWAP1 POP PUSH2 0x1053 DUP2 PUSH2 0x102F JUMP JUMPDEST SWAP3 SWAP2 POP POP JUMP JUMPDEST PUSH0 DUP1 PUSH0 DUP1 PUSH1 0x80 DUP6 DUP8 SUB SLT ISZERO PUSH2 0x1071 JUMPI PUSH2 0x1070 PUSH2 0xA7F JUMP JUMPDEST JUMPDEST PUSH0 PUSH2 0x107E DUP8 DUP3 DUP9 ADD PUSH2 0xBE2 JUMP JUMPDEST SWAP5 POP POP PUSH1 0x20 PUSH2 0x108F DUP8 DUP3 DUP9 ADD PUSH2 0xBE2 JUMP JUMPDEST SWAP4 POP POP PUSH1 0x40 PUSH2 0x10A0 DUP8 DUP3 DUP9 ADD PUSH2 0xBE2 JUMP JUMPDEST SWAP3 POP POP PUSH1 0x60 PUSH2 0x10B1 DUP8 DUP3 DUP9 ADD PUSH2 0x1045 JUMP JUMPDEST SWAP2 POP POP SWAP3 SWAP6 SWAP2 SWAP5 POP SWAP3 POP JUMP JUMPDEST PUSH32 0x4E487B7100000000000000000000000000000000000000000000000000000000 PUSH0 MSTORE PUSH1 0x22 PUSH1 0x4 MSTORE PUSH1 0x24 PUSH0 REVERT JUMPDEST PUSH0 PUSH1 0x2 DUP3 DIV SWAP1 POP PUSH1 0x1 DUP3 AND DUP1 PUSH2 0x1101 JUMPI PUSH1 0x7F DUP3 AND SWAP2 POP JUMPDEST PUSH1 0x20 DUP3 LT DUP2 SUB PUSH2 0x1114 JUMPI PUSH2 0x1113 PUSH2 0x10BD JUMP JUMPDEST JUMPDEST POP SWAP2 SWAP1 POP JUMP JUMPDEST PUSH0 DUP2 SWAP1 POP DUP2 PUSH0 MSTORE PUSH1 0x20 PUSH0 KECCAK256 SWAP1 POP SWAP2 SWAP1 POP JUMP JUMPDEST PUSH0 PUSH1 0x20 PUSH1 0x1F DUP4 ADD DIV SWAP1 POP SWAP2 SWAP1 POP JUMP JUMPDEST PUSH0 DUP3 DUP3 SHL SWAP1 POP SWAP3 SWAP2 POP POP JUMP JUMPDEST PUSH0 PUSH1 0x8 DUP4 MUL PUSH2 0x1176 PUSH32 0xFFFFFFFFFFFFFFFFFFFFFFFFFFFFFFFFFFFFFFFFFFFFFFFFFFFFFFFFFFFFFFFF DUP3 PUSH2 0x113B JUMP JUMPDEST PUSH2 0x1180 DUP7 DUP4 PUSH2 0x113B JUMP JUMPDEST SWAP6 POP DUP1 NOT DUP5 AND SWAP4 POP DUP1 DUP7 AND DUP5 OR SWAP3 POP POP POP SWAP4 SWAP3 POP POP POP JUMP JUMPDEST PUSH0 PUSH2 0x11B2 PUSH2 0x11AD PUSH2 0x11A8 DUP5 PUSH2 0xBC3 JUMP JUMPDEST PUSH2 0xFBB JUMP JUMPDEST PUSH2 0xBC3 JUMP JUMPDEST SWAP1 POP SWAP2 SWAP1 POP JUMP JUMPDEST PUSH0 DUP2 SWAP1 POP SWAP2 SWAP1 POP JUMP JUMPDEST PUSH2 0x11CB DUP4 PUSH2 0x1198 JUMP JUMPDEST PUSH2 0x11DF PUSH2 0x11D7 DUP3 PUSH2 0x11B9 JUMP JUMPDEST DUP5 DUP5 SLOAD PUSH2 0x1147 JUMP JUMPDEST DUP3 SSTORE POP POP POP POP JUMP JUMPDEST PUSH0 SWAP1 JUMP JUMPDEST PUSH2 0x11F3 PUSH2 0x11E7 JUMP JUMPDEST PUSH2 0x11FE DUP2 DUP5 DUP5 PUSH2 0x11C2 JUMP JUMPDEST POP POP POP JUMP JUMPDEST JUMPDEST DUP2 DUP2 LT ISZERO PUSH2 0x1221 JUMPI PUSH2 0x1216 PUSH0 DUP3 PUSH2 0x11EB JUMP JUMPDEST PUSH1 0x1 DUP2 ADD SWAP1 POP PUSH2 0x1204 JUMP JUMPDEST POP POP JUMP JUMPDEST PUSH1 0x1F DUP3 GT ISZERO PUSH2 0x1266 JUMPI PUSH2 0x1237 DUP2 PUSH2 0x111A JUMP JUMPDEST PUSH2 0x1240 DUP5 PUSH2 0x112C JUMP JUMPDEST DUP2 ADD PUSH1 0x20 DUP6 LT ISZERO PUSH2 0x124F JUMPI DUP2 SWAP1 POP JUMPDEST PUSH2 0x1263 PUSH2 0x125B DUP6 PUSH2 0x112C JUMP JUMPDEST DUP4 ADD DUP3 PUSH2 0x1203 JUMP JUMPDEST POP POP JUMPDEST POP POP POP JUMP JUMPDEST PUSH0 DUP3 DUP3 SHR SWAP1 POP SWAP3 SWAP2 POP POP JUMP JUMPDEST PUSH0 PUSH2 0x1286 PUSH0 NOT DUP5 PUSH1 0x8 MUL PUSH2 0x126B JUMP JUMPDEST NOT DUP1 DUP4 AND SWAP2 POP POP SWAP3 SWAP2 POP POP JUMP JUMPDEST PUSH0 PUSH2 0x129E DUP4 DUP4 PUSH2 0x1277 JUMP JUMPDEST SWAP2 POP DUP3 PUSH1 0x2 MUL DUP3 OR SWAP1 POP SWAP3 SWAP2 POP POP JUMP JUMPDEST PUSH2 0x12B7 DUP3 PUSH2 0xDD4 JUMP JUMPDEST PUSH8 0xFFFFFFFFFFFFFFFF DUP2 GT ISZERO PUSH2 0x12D0 JUMPI PUSH2 0x12CF PUSH2 0xA9F JUMP JUMPDEST JUMPDEST PUSH2 0x12DA DUP3 SLOAD PUSH2 0x10EA JUMP JUMPDEST PUSH2 0x12E5 DUP3 DUP3 DUP6 PUSH2 0x1225 JUMP JUMPDEST PUSH0 PUSH1 0x20 SWAP1 POP PUSH1 0x1F DUP4 GT PUSH1 0x1 DUP2 EQ PUSH2 0x1316 JUMPI PUSH0 DUP5 ISZERO PUSH2 0x1304 JUMPI DUP3 DUP8 ADD MLOAD SWAP1 POP JUMPDEST PUSH2 0x130E DUP6 DUP3 PUSH2 0x1293 JUMP JUMPDEST DUP7 SSTORE POP PUSH2 0x1375 JUMP JUMPDEST PUSH1 0x1F NOT DUP5 AND PUSH2 0x1324 DUP7 PUSH2 0x111A JUMP JUMPDEST PUSH0 JUMPDEST DUP3 DUP2 LT ISZERO PUSH2 0x134B JUMPI DUP5 DUP10 ADD MLOAD DUP3 SSTORE PUSH1 0x1 DUP3 ADD SWAP2 POP PUSH1 0x20 DUP6 ADD SWAP5 POP PUSH1 0x20 DUP2 ADD SWAP1 POP PUSH2 0x1326 JUMP JUMPDEST DUP7 DUP4 LT ISZERO PUSH2 0x1368 JUMPI DUP5 DUP10 ADD MLOAD PUSH2 0x1364 PUSH1 0x1F DUP10 AND DUP3 PUSH2 0x1277 JUMP JUMPDEST DUP4 SSTORE POP JUMPDEST PUSH1 0x1 PUSH1 0x2 DUP9 MUL ADD DUP9 SSTORE POP POP POP JUMPDEST POP POP POP POP POP POP JUMP JUMPDEST PUSH0 PUSH1 0x60 DUP3 ADD SWAP1 POP DUP2 DUP2 SUB PUSH0 DUP4 ADD MSTORE PUSH2 0x1395 DUP2 DUP7 PUSH2 0xDFC JUMP JUMPDEST SWAP1 POP PUSH2 0x13A4 PUSH1 0x20 DUP4 ADD DUP6 PUSH2 0xC50 JUMP JUMPDEST PUSH2 0x13B1 PUSH1 0x40 DUP4 ADD DUP5 PUSH2 0xC50 JUMP JUMPDEST SWAP5 SWAP4 POP POP POP POP JUMP JUMPDEST PUSH0 PUSH1 0x40 DUP3 ADD SWAP1 POP PUSH2 0x13CC PUSH0 DUP4 ADD DUP6 PUSH2 0xCA8 JUMP JUMPDEST PUSH2 0x13D9 PUSH1 0x20 DUP4 ADD DUP5 PUSH2 0xC50 JUMP JUMPDEST SWAP4 SWAP3 POP POP POP JUMP JUMPDEST PUSH0 DUP2 MLOAD SWAP1 POP PUSH2 0x13EE DUP2 PUSH2 0x102F JUMP JUMPDEST SWAP3 SWAP2 POP POP JUMP JUMPDEST PUSH0 PUSH1 0x20 DUP3 DUP5 SUB SLT ISZERO PUSH2 0x1409 JUMPI PUSH2 0x1408 PUSH2 0xA7F JUMP JUMPDEST JUMPDEST PUSH0 PUSH2 0x1416 DUP5 DUP3 DUP6 ADD PUSH2 0x13E0 JUMP JUMPDEST SWAP2 POP POP SWAP3 SWAP2 POP POP JUMP JUMPDEST PUSH32 0x546F6B656E207472616E73666572206661696C65640000000000000000000000 PUSH0 DUP3 ADD MSTORE POP JUMP JUMPDEST PUSH0 PUSH2 0x1453 PUSH1 0x15 DUP4 PUSH2 0xDDE JUMP JUMPDEST SWAP2 POP PUSH2 0x145E DUP3 PUSH2 0x141F JUMP JUMPDEST PUSH1 0x20 DUP3 ADD SWAP1 POP SWAP2 SWAP1 POP JUMP JUMPDEST PUSH0 PUSH1 0x20 DUP3 ADD SWAP1 POP DUP2 DUP2 SUB PUSH0 DUP4 ADD MSTORE PUSH2 0x1480 DUP2 PUSH2 0x1447 JUMP JUMPDEST SWAP1 POP SWAP2 SWAP1 POP JUMP JUMPDEST PUSH32 0x4E487B7100000000000000000000000000000000000000000000000000000000 PUSH0 MSTORE PUSH1 0x32 PUSH1 0x4 MSTORE PUSH1 0x24 PUSH0 REVERT JUMPDEST PUSH0 PUSH1 0x40 DUP3 ADD SWAP1 POP PUSH2 0x14C7 PUSH0 DUP4 ADD DUP6 PUSH2 0xC50 JUMP JUMPDEST PUSH2 0x14D4 PUSH1 0x20 DUP4 ADD DUP5 PUSH2 0xC50 JUMP JUMPDEST SWAP4 SWAP3 POP POP POP JUMP JUMPDEST PUSH0 PUSH1 0x80 DUP3 ADD SWAP1 POP PUSH2 0x14EE PUSH0 DUP4 ADD DUP8 PUSH2 0xC50 JUMP JUMPDEST PUSH2 0x14FB PUSH1 0x20 DUP4 ADD DUP7 PUSH2 0xC50 JUMP JUMPDEST PUSH2 0x1508 PUSH1 0x40 DUP4 ADD DUP6 PUSH2 0xC50 JUMP JUMPDEST PUSH2 0x1515 PUSH1 0x60 DUP4 ADD DUP5 PUSH2 0xD81 JUMP JUMPDEST SWAP6 SWAP5 POP POP POP POP POP JUMP INVALID LOG2 PUSH5 0x6970667358 0x22 SLT KECCAK256 EXP PUSH2 0x90DE 0xC1 PUSH4 0xCAAA2421 0xB3 0xE7 DUP16 PUSH10 0xC86E80710D5D263DD86F EXTCODESIZE SMOD 0xC7 PUSH29 0xF68576B564736F6C634300081A00336080604052600260055F6101000A DUP2 SLOAD DUP2 PUSH1 0xFF MUL NOT AND SWAP1 DUP4 PUSH1 0xFF AND MUL OR SWAP1 SSTORE POP CALLVALUE DUP1 ISZERO PUSH2 0x2A JUMPI PUSH0 DUP1 REVERT JUMPDEST POP PUSH1 0x40 MLOAD DUP1 PUSH1 0x40 ADD PUSH1 0x40 MSTORE DUP1 PUSH1 0x18 DUP2 MSTORE PUSH1 0x20 ADD PUSH32 0x526562656C6C696F6E4461746146756E64657220436F696E0000000000000000 DUP2 MSTORE POP PUSH1 0x40 MLOAD DUP1 PUSH1 0x40 ADD PUSH1 0x40 MSTORE DUP1 PUSH1 0x4 DUP2 MSTORE PUSH1 0x20 ADD PUSH32 0x5244464300000000000000000000000000000000000000000000000000000000 DUP2 MSTORE POP DUP2 PUSH1 0x3 SWAP1 DUP2 PUSH2 0xA6 SWAP2 SWAP1 PUSH2 0x5CF JUMP JUMPDEST POP DUP1 PUSH1 0x4 SWAP1 DUP2 PUSH2 0xB6 SWAP2 SWAP1 PUSH2 0x5CF JUMP JUMPDEST POP POP POP PUSH2 0xF2 CALLER PUSH1 0x5 PUSH0 SWAP1 SLOAD SWAP1 PUSH2 0x100 EXP SWAP1 DIV PUSH1 0xFF AND PUSH1 0xFF AND PUSH1 0xA PUSH2 0xDB SWAP2 SWAP1 PUSH2 0x7FA JUMP JUMPDEST PUSH1 0x64 PUSH2 0xE7 SWAP2 SWAP1 PUSH2 0x844 JUMP JUMPDEST PUSH2 0xF7 PUSH1 0x20 SHL PUSH1 0x20 SHR JUMP JUMPDEST PUSH2 0x96D JUMP JUMPDEST PUSH0 PUSH20 0xFFFFFFFFFFFFFFFFFFFFFFFFFFFFFFFFFFFFFFFF AND DUP3 PUSH20 0xFFFFFFFFFFFFFFFFFFFFFFFFFFFFFFFFFFFFFFFF AND SUB PUSH2 0x167 JUMPI PUSH0 PUSH1 0x40 MLOAD PUSH32 0xEC442F0500000000000000000000000000000000000000000000000000000000 DUP2 MSTORE PUSH1 0x4 ADD PUSH2 0x15E SWAP2 SWAP1 PUSH2 0x8C4 JUMP JUMPDEST PUSH1 0x40 MLOAD DUP1 SWAP2 SUB SWAP1 REVERT JUMPDEST PUSH2 0x178 PUSH0 DUP4 DUP4 PUSH2 0x17C PUSH1 0x20 SHL PUSH1 0x20 SHR JUMP JUMPDEST POP POP JUMP JUMPDEST PUSH0 PUSH20 0xFFFFFFFFFFFFFFFFFFFFFFFFFFFFFFFFFFFFFFFF AND DUP4 PUSH20 0xFFFFFFFFFFFFFFFFFFFFFFFFFFFFFFFFFFFFFFFF AND SUB PUSH2 0x1CC JUMPI DUP1 PUSH1 0x2 PUSH0 DUP3 DUP3 SLOAD PUSH2 0x1C0 SWAP2 SWAP1 PUSH2 0x8DD JUMP JUMPDEST SWAP3 POP POP DUP2 SWAP1 SSTORE POP PUSH2 0x29A JUMP JUMPDEST PUSH0 DUP1 PUSH0 DUP6 PUSH20 0xFFFFFFFFFFFFFFFFFFFFFFFFFFFFFFFFFFFFFFFF AND PUSH20 0xFFFFFFFFFFFFFFFFFFFFFFFFFFFFFFFFFFFFFFFF AND DUP2 MSTORE PUSH1 0x20 ADD SWAP1 DUP2 MSTORE PUSH1 0x20 ADD PUSH0 KECCAK256 SLOAD SWAP1 POP DUP2 DUP2 LT ISZERO PUSH2 0x255 JUMPI DUP4 DUP2 DUP4 PUSH1 0x40 MLOAD PUSH32 0xE450D38C00000000000000000000000000000000000000000000000000000000 DUP2 MSTORE PUSH1 0x4 ADD PUSH2 0x24C SWAP4 SWAP3 SWAP2 SWAP1 PUSH2 0x91F JUMP JUMPDEST PUSH1 0x40 MLOAD DUP1 SWAP2 SUB SWAP1 REVERT JUMPDEST DUP2 DUP2 SUB PUSH0 DUP1 DUP7 PUSH20 0xFFFFFFFFFFFFFFFFFFFFFFFFFFFFFFFFFFFFFFFF AND PUSH20 0xFFFFFFFFFFFFFFFFFFFFFFFFFFFFFFFFFFFFFFFF AND DUP2 MSTORE PUSH1 0x20 ADD SWAP1 DUP2 MSTORE PUSH1 0x20 ADD PUSH0 KECCAK256 DUP2 SWAP1 SSTORE POP POP JUMPDEST PUSH0 PUSH20 0xFFFFFFFFFFFFFFFFFFFFFFFFFFFFFFFFFFFFFFFF AND DUP3 PUSH20 0xFFFFFFFFFFFFFFFFFFFFFFFFFFFFFFFFFFFFFFFF AND SUB PUSH2 0x2E1 JUMPI DUP1 PUSH1 0x2 PUSH0 DUP3 DUP3 SLOAD SUB SWAP3 POP POP DUP2 SWAP1 SSTORE POP PUSH2 0x32B JUMP JUMPDEST DUP1 PUSH0 DUP1 DUP5 PUSH20 0xFFFFFFFFFFFFFFFFFFFFFFFFFFFFFFFFFFFFFFFF AND PUSH20 0xFFFFFFFFFFFFFFFFFFFFFFFFFFFFFFFFFFFFFFFF AND DUP2 MSTORE PUSH1 0x20 ADD SWAP1 DUP2 MSTORE PUSH1 0x20 ADD PUSH0 KECCAK256 PUSH0 DUP3 DUP3 SLOAD ADD SWAP3 POP POP DUP2 SWAP1 SSTORE POP JUMPDEST DUP2 PUSH20 0xFFFFFFFFFFFFFFFFFFFFFFFFFFFFFFFFFFFFFFFF AND DUP4 PUSH20 0xFFFFFFFFFFFFFFFFFFFFFFFFFFFFFFFFFFFFFFFF AND PUSH32 0xDDF252AD1BE2C89B69C2B068FC378DAA952BA7F163C4A11628F55A4DF523B3EF DUP4 PUSH1 0x40 MLOAD PUSH2 0x388 SWAP2 SWAP1 PUSH2 0x954 JUMP JUMPDEST PUSH1 0x40 MLOAD DUP1 SWAP2 SUB SWAP1 LOG3 POP POP POP JUMP JUMPDEST PUSH0 DUP2 MLOAD SWAP1 POP SWAP2 SWAP1 POP JUMP JUMPDEST PUSH32 0x4E487B7100000000000000000000000000000000000000000000000000000000 PUSH0 MSTORE PUSH1 0x41 PUSH1 0x4 MSTORE PUSH1 0x24 PUSH0 REVERT JUMPDEST PUSH32 0x4E487B7100000000000000000000000000000000000000000000000000000000 PUSH0 MSTORE PUSH1 0x22 PUSH1 0x4 MSTORE PUSH1 0x24 PUSH0 REVERT JUMPDEST PUSH0 PUSH1 0x2 DUP3 DIV SWAP1 POP PUSH1 0x1 DUP3 AND DUP1 PUSH2 0x410 JUMPI PUSH1 0x7F DUP3 AND SWAP2 POP JUMPDEST PUSH1 0x20 DUP3 LT DUP2 SUB PUSH2 0x423 JUMPI PUSH2 0x422 PUSH2 0x3CC JUMP JUMPDEST JUMPDEST POP SWAP2 SWAP1 POP JUMP JUMPDEST PUSH0 DUP2 SWAP1 POP DUP2 PUSH0 MSTORE PUSH1 0x20 PUSH0 KECCAK256 SWAP1 POP SWAP2 SWAP1 POP JUMP JUMPDEST PUSH0 PUSH1 0x20 PUSH1 0x1F DUP4 ADD DIV SWAP1 POP SWAP2 SWAP1 POP JUMP JUMPDEST PUSH0 DUP3 DUP3 SHL SWAP1 POP SWAP3 SWAP2 POP POP JUMP JUMPDEST PUSH0 PUSH1 0x8 DUP4 MUL PUSH2 0x485 PUSH32 0xFFFFFFFFFFFFFFFFFFFFFFFFFFFFFFFFFFFFFFFFFFFFFFFFFFFFFFFFFFFFFFFF DUP3 PUSH2 0x44A JUMP JUMPDEST PUSH2 0x48F DUP7 DUP4 PUSH2 0x44A JUMP JUMPDEST SWAP6 POP DUP1 NOT DUP5 AND SWAP4 POP DUP1 DUP7 AND DUP5 OR SWAP3 POP POP POP SWAP4 SWAP3 POP POP POP JUMP JUMPDEST PUSH0 DUP2 SWAP1 POP SWAP2 SWAP1 POP JUMP JUMPDEST PUSH0 DUP2 SWAP1 POP SWAP2 SWAP1 POP JUMP JUMPDEST PUSH0 PUSH2 0x4D3 PUSH2 0x4CE PUSH2 0x4C9 DUP5 PUSH2 0x4A7 JUMP JUMPDEST PUSH2 0x4B0 JUMP JUMPDEST PUSH2 0x4A7 JUMP JUMPDEST SWAP1 POP SWAP2 SWAP1 POP JUMP JUMPDEST PUSH0 DUP2 SWAP1 POP SWAP2 SWAP1 POP JUMP JUMPDEST PUSH2 0x4EC DUP4 PUSH2 0x4B9 JUMP JUMPDEST PUSH2 0x500 PUSH2 0x4F8 DUP3 PUSH2 0x4DA JUMP JUMPDEST DUP5 DUP5 SLOAD PUSH2 0x456 JUMP JUMPDEST DUP3 SSTORE POP POP POP POP JUMP JUMPDEST PUSH0 SWAP1 JUMP JUMPDEST PUSH2 0x514 PUSH2 0x508 JUMP JUMPDEST PUSH2 0x51F DUP2 DUP5 DUP5 PUSH2 0x4E3 JUMP JUMPDEST POP POP POP JUMP JUMPDEST JUMPDEST DUP2 DUP2 LT ISZERO PUSH2 0x542 JUMPI PUSH2 0x537 PUSH0 DUP3 PUSH2 0x50C JUMP JUMPDEST PUSH1 0x1 DUP2 ADD SWAP1 POP PUSH2 0x525 JUMP JUMPDEST POP POP JUMP JUMPDEST PUSH1 0x1F DUP3 GT ISZERO PUSH2 0x587 JUMPI PUSH2 0x558 DUP2 PUSH2 0x429 JUMP JUMPDEST PUSH2 0x561 DUP5 PUSH2 0x43B JUMP JUMPDEST DUP2 ADD PUSH1 0x20 DUP6 LT ISZERO PUSH2 0x570 JUMPI DUP2 SWAP1 POP JUMPDEST PUSH2 0x584 PUSH2 0x57C DUP6 PUSH2 0x43B JUMP JUMPDEST DUP4 ADD DUP3 PUSH2 0x524 JUMP JUMPDEST POP POP JUMPDEST POP POP POP JUMP JUMPDEST PUSH0 DUP3 DUP3 SHR SWAP1 POP SWAP3 SWAP2 POP POP JUMP JUMPDEST PUSH0 PUSH2 0x5A7 PUSH0 NOT DUP5 PUSH1 0x8 MUL PUSH2 0x58C JUMP JUMPDEST NOT DUP1 DUP4 AND SWAP2 POP POP SWAP3 SWAP2 POP POP JUMP JUMPDEST PUSH0 PUSH2 0x5BF DUP4 DUP4 PUSH2 0x598 JUMP JUMPDEST SWAP2 POP DUP3 PUSH1 0x2 MUL DUP3 OR SWAP1 POP SWAP3 SWAP2 POP POP JUMP JUMPDEST PUSH2 0x5D8 DUP3 PUSH2 0x395 JUMP JUMPDEST PUSH8 0xFFFFFFFFFFFFFFFF DUP2 GT ISZERO PUSH2 0x5F1 JUMPI PUSH2 0x5F0 PUSH2 0x39F JUMP JUMPDEST JUMPDEST PUSH2 0x5FB DUP3 SLOAD PUSH2 0x3F9 JUMP JUMPDEST PUSH2 0x606 DUP3 DUP3 DUP6 PUSH2 0x546 JUMP JUMPDEST PUSH0 PUSH1 0x20 SWAP1 POP PUSH1 0x1F DUP4 GT PUSH1 0x1 DUP2 EQ PUSH2 0x637 JUMPI PUSH0 DUP5 ISZERO PUSH2 0x625 JUMPI DUP3 DUP8 ADD MLOAD SWAP1 POP JUMPDEST PUSH2 0x62F DUP6 DUP3 PUSH2 0x5B4 JUMP JUMPDEST DUP7 SSTORE POP PUSH2 0x696 JUMP JUMPDEST PUSH1 0x1F NOT DUP5 AND PUSH2 0x645 DUP7 PUSH2 0x429 JUMP JUMPDEST PUSH0 JUMPDEST DUP3 DUP2 LT ISZERO PUSH2 0x66C JUMPI DUP5 DUP10 ADD MLOAD DUP3 SSTORE PUSH1 0x1 DUP3 ADD SWAP2 POP PUSH1 0x20 DUP6 ADD SWAP5 POP PUSH1 0x20 DUP2 ADD SWAP1 POP PUSH2 0x647 JUMP JUMPDEST DUP7 DUP4 LT ISZERO PUSH2 0x689 JUMPI DUP5 DUP10 ADD MLOAD PUSH2 0x685 PUSH1 0x1F DUP10 AND DUP3 PUSH2 0x598 JUMP JUMPDEST DUP4 SSTORE POP JUMPDEST PUSH1 0x1 PUSH1 0x2 DUP9 MUL ADD DUP9 SSTORE POP POP POP JUMPDEST POP POP POP POP POP POP JUMP JUMPDEST PUSH32 0x4E487B7100000000000000000000000000000000000000000000000000000000 PUSH0 MSTORE PUSH1 0x11 PUSH1 0x4 MSTORE PUSH1 0x24 PUSH0 REVERT JUMPDEST PUSH0 DUP2 PUSH1 0x1 SHR SWAP1 POP SWAP2 SWAP1 POP JUMP JUMPDEST PUSH0 DUP1 DUP3 SWAP2 POP DUP4 SWAP1 POP JUMPDEST PUSH1 0x1 DUP6 GT ISZERO PUSH2 0x720 JUMPI DUP1 DUP7 DIV DUP2 GT ISZERO PUSH2 0x6FC JUMPI PUSH2 0x6FB PUSH2 0x69E JUMP JUMPDEST JUMPDEST PUSH1 0x1 DUP6 AND ISZERO PUSH2 0x70B JUMPI DUP1 DUP3 MUL SWAP2 POP JUMPDEST DUP1 DUP2 MUL SWAP1 POP PUSH2 0x719 DUP6 PUSH2 0x6CB JUMP JUMPDEST SWAP5 POP PUSH2 0x6E0 JUMP JUMPDEST SWAP5 POP SWAP5 SWAP3 POP POP POP JUMP JUMPDEST PUSH0 DUP3 PUSH2 0x738 JUMPI PUSH1 0x1 SWAP1 POP PUSH2 0x7F3 JUMP JUMPDEST DUP2 PUSH2 0x745 JUMPI PUSH0 SWAP1 POP PUSH2 0x7F3 JUMP JUMPDEST DUP2 PUSH1 0x1 DUP2 EQ PUSH2 0x75B JUMPI PUSH1 0x2 DUP2 EQ PUSH2 0x765 JUMPI PUSH2 0x794 JUMP JUMPDEST PUSH1 0x1 SWAP2 POP POP PUSH2 0x7F3 JUMP JUMPDEST PUSH1 0xFF DUP5 GT ISZERO PUSH2 0x777 JUMPI PUSH2 0x776 PUSH2 0x69E JUMP JUMPDEST JUMPDEST DUP4 PUSH1 0x2 EXP SWAP2 POP DUP5 DUP3 GT ISZERO PUSH2 0x78E JUMPI PUSH2 0x78D PUSH2 0x69E JUMP JUMPDEST JUMPDEST POP PUSH2 0x7F3 JUMP JUMPDEST POP PUSH1 0x20 DUP4 LT PUSH2 0x133 DUP4 LT AND PUSH1 0x4E DUP5 LT PUSH1 0xB DUP5 LT AND OR ISZERO PUSH2 0x7C9 JUMPI DUP3 DUP3 EXP SWAP1 POP DUP4 DUP2 GT ISZERO PUSH2 0x7C4 JUMPI PUSH2 0x7C3 PUSH2 0x69E JUMP JUMPDEST JUMPDEST PUSH2 0x7F3 JUMP JUMPDEST PUSH2 0x7D6 DUP5 DUP5 DUP5 PUSH1 0x1 PUSH2 0x6D7 JUMP JUMPDEST SWAP3 POP SWAP1 POP DUP2 DUP5 DIV DUP2 GT ISZERO PUSH2 0x7ED JUMPI PUSH2 0x7EC PUSH2 0x69E JUMP JUMPDEST JUMPDEST DUP2 DUP2 MUL SWAP1 POP JUMPDEST SWAP4 SWAP3 POP POP POP JUMP JUMPDEST PUSH0 PUSH2 0x804 DUP3 PUSH2 0x4A7 JUMP JUMPDEST SWAP2 POP PUSH2 0x80F DUP4 PUSH2 0x4A7 JUMP JUMPDEST SWAP3 POP PUSH2 0x83C PUSH32 0xFFFFFFFFFFFFFFFFFFFFFFFFFFFFFFFFFFFFFFFFFFFFFFFFFFFFFFFFFFFFFFFF DUP5 DUP5 PUSH2 0x729 JUMP JUMPDEST SWAP1 POP SWAP3 SWAP2 POP POP JUMP JUMPDEST PUSH0 PUSH2 0x84E DUP3 PUSH2 0x4A7 JUMP JUMPDEST SWAP2 POP PUSH2 0x859 DUP4 PUSH2 0x4A7 JUMP JUMPDEST SWAP3 POP DUP3 DUP3 MUL PUSH2 0x867 DUP2 PUSH2 0x4A7 JUMP JUMPDEST SWAP2 POP DUP3 DUP3 DIV DUP5 EQ DUP4 ISZERO OR PUSH2 0x87E JUMPI PUSH2 0x87D PUSH2 0x69E JUMP JUMPDEST JUMPDEST POP SWAP3 SWAP2 POP POP JUMP JUMPDEST PUSH0 PUSH20 0xFFFFFFFFFFFFFFFFFFFFFFFFFFFFFFFFFFFFFFFF DUP3 AND SWAP1 POP SWAP2 SWAP1 POP JUMP JUMPDEST PUSH0 PUSH2 0x8AE DUP3 PUSH2 0x885 JUMP JUMPDEST SWAP1 POP SWAP2 SWAP1 POP JUMP JUMPDEST PUSH2 0x8BE DUP2 PUSH2 0x8A4 JUMP JUMPDEST DUP3 MSTORE POP POP JUMP JUMPDEST PUSH0 PUSH1 0x20 DUP3 ADD SWAP1 POP PUSH2 0x8D7 PUSH0 DUP4 ADD DUP5 PUSH2 0x8B5 JUMP JUMPDEST SWAP3 SWAP2 POP POP JUMP JUMPDEST PUSH0 PUSH2 0x8E7 DUP3 PUSH2 0x4A7 JUMP JUMPDEST SWAP2 POP PUSH2 0x8F2 DUP4 PUSH2 0x4A7 JUMP JUMPDEST SWAP3 POP DUP3 DUP3 ADD SWAP1 POP DUP1 DUP3 GT ISZERO PUSH2 0x90A JUMPI PUSH2 0x909 PUSH2 0x69E JUMP JUMPDEST JUMPDEST SWAP3 SWAP2 POP POP JUMP JUMPDEST PUSH2 0x919 DUP2 PUSH2 0x4A7 JUMP JUMPDEST DUP3 MSTORE POP POP JUMP JUMPDEST PUSH0 PUSH1 0x60 DUP3 ADD SWAP1 POP PUSH2 0x932 PUSH0 DUP4 ADD DUP7 PUSH2 0x8B5 JUMP JUMPDEST PUSH2 0x93F PUSH1 0x20 DUP4 ADD DUP6 PUSH2 0x910 JUMP JUMPDEST PUSH2 0x94C PUSH1 0x40 DUP4 ADD DUP5 PUSH2 0x910 JUMP JUMPDEST SWAP5 SWAP4 POP POP POP POP JUMP JUMPDEST PUSH0 PUSH1 0x20 DUP3 ADD SWAP1 POP PUSH2 0x967 PUSH0 DUP4 ADD DUP5 PUSH2 0x910 JUMP JUMPDEST SWAP3 SWAP2 POP POP JUMP JUMPDEST PUSH2 0xDEE DUP1 PUSH2 0x97A PUSH0 CODECOPY PUSH0 RETURN INVALID PUSH1 0x80 PUSH1 0x40 MSTORE CALLVALUE DUP1 ISZERO PUSH2 0xF JUMPI PUSH0 DUP1 REVERT JUMPDEST POP PUSH1 0x4 CALLDATASIZE LT PUSH2 0x91 JUMPI PUSH0 CALLDATALOAD PUSH1 0xE0 SHR DUP1 PUSH4 0x313CE567 GT PUSH2 0x64 JUMPI DUP1 PUSH4 0x313CE567 EQ PUSH2 0x131 JUMPI DUP1 PUSH4 0x70A08231 EQ PUSH2 0x14F JUMPI DUP1 PUSH4 0x95D89B41 EQ PUSH2 0x17F JUMPI DUP1 PUSH4 0xA9059CBB EQ PUSH2 0x19D JUMPI DUP1 PUSH4 0xDD62ED3E EQ PUSH2 0x1CD JUMPI PUSH2 0x91 JUMP JUMPDEST DUP1 PUSH4 0x6FDDE03 EQ PUSH2 0x95 JUMPI DUP1 PUSH4 0x95EA7B3 EQ PUSH2 0xB3 JUMPI DUP1 PUSH4 0x18160DDD EQ PUSH2 0xE3 JUMPI DUP1 PUSH4 0x23B872DD EQ PUSH2 0x101 JUMPI JUMPDEST PUSH0 DUP1 REVERT JUMPDEST PUSH2 0x9D PUSH2 0x1FD JUMP JUMPDEST PUSH1 0x40 MLOAD PUSH2 0xAA SWAP2 SWAP1 PUSH2 0xA67 JUMP JUMPDEST PUSH1 0x40 MLOAD DUP1 SWAP2 SUB SWAP1 RETURN JUMPDEST PUSH2 0xCD PUSH1 0x4 DUP1 CALLDATASIZE SUB DUP2 ADD SWAP1 PUSH2 0xC8 SWAP2 SWAP1 PUSH2 0xB18 JUMP JUMPDEST PUSH2 0x28D JUMP JUMPDEST PUSH1 0x40 MLOAD PUSH2 0xDA SWAP2 SWAP1 PUSH2 0xB70 JUMP JUMPDEST PUSH1 0x40 MLOAD DUP1 SWAP2 SUB SWAP1 RETURN JUMPDEST PUSH2 0xEB PUSH2 0x2AF JUMP JUMPDEST PUSH1 0x40 MLOAD PUSH2 0xF8 SWAP2 SWAP1 PUSH2 0xB98 JUMP JUMPDEST PUSH1 0x40 MLOAD DUP1 SWAP2 SUB SWAP1 RETURN JUMPDEST PUSH2 0x11B PUSH1 0x4 DUP1 CALLDATASIZE SUB DUP2 ADD SWAP1 PUSH2 0x116 SWAP2 SWAP1 PUSH2 0xBB1 JUMP JUMPDEST PUSH2 0x2B8 JUMP JUMPDEST PUSH1 0x40 MLOAD PUSH2 0x128 SWAP2 SWAP1 PUSH2 0xB70 JUMP JUMPDEST PUSH1 0x40 MLOAD DUP1 SWAP2 SUB SWAP1 RETURN JUMPDEST PUSH2 0x139 PUSH2 0x2E6 JUMP JUMPDEST PUSH1 0x40 MLOAD PUSH2 0x146 SWAP2 SWAP1 PUSH2 0xC1C JUMP JUMPDEST PUSH1 0x40 MLOAD DUP1 SWAP2 SUB SWAP1 RETURN JUMPDEST PUSH2 0x169 PUSH1 0x4 DUP1 CALLDATASIZE SUB DUP2 ADD SWAP1 PUSH2 0x164 SWAP2 SWAP1 PUSH2 0xC35 JUMP JUMPDEST PUSH2 0x2FB JUMP JUMPDEST PUSH1 0x40 MLOAD PUSH2 0x176 SWAP2 SWAP1 PUSH2 0xB98 JUMP JUMPDEST PUSH1 0x40 MLOAD DUP1 SWAP2 SUB SWAP1 RETURN JUMPDEST PUSH2 0x187 PUSH2 0x340 JUMP JUMPDEST PUSH1 0x40 MLOAD PUSH2 0x194 SWAP2 SWAP1 PUSH2 0xA67 JUMP JUMPDEST PUSH1 0x40 MLOAD DUP1 SWAP2 SUB SWAP1 RETURN JUMPDEST PUSH2 0x1B7 PUSH1 0x4 DUP1 CALLDATASIZE SUB DUP2 ADD SWAP1 PUSH2 0x1B2 SWAP2 SWAP1 PUSH2 0xB18 JUMP JUMPDEST PUSH2 0x3D0 JUMP JUMPDEST PUSH1 0x40 MLOAD PUSH2 0x1C4 SWAP2 SWAP1 PUSH2 0xB70 JUMP JUMPDEST PUSH1 0x40 MLOAD DUP1 SWAP2 SUB SWAP1 RETURN JUMPDEST PUSH2 0x1E7 PUSH1 0x4 DUP1 CALLDATASIZE SUB DUP2 ADD SWAP1 PUSH2 0x1E2 SWAP2 SWAP1 PUSH2 0xC60 JUMP JUMPDEST PUSH2 0x3F2 JUMP JUMPDEST PUSH1 0x40 MLOAD PUSH2 0x1F4 SWAP2 SWAP1 PUSH2 0xB98 JUMP JUMPDEST PUSH1 0x40 MLOAD DUP1 SWAP2 SUB SWAP1 RETURN JUMPDEST PUSH1 0x60 PUSH1 0x3 DUP1 SLOAD PUSH2 0x20C SWAP1 PUSH2 0xCCB JUMP JUMPDEST DUP1 PUSH1 0x1F ADD PUSH1 0x20 DUP1 SWAP2 DIV MUL PUSH1 0x20 ADD PUSH1 0x40 MLOAD SWAP1 DUP2 ADD PUSH1 0x40 MSTORE DUP1 SWAP3 SWAP2 SWAP1 DUP2 DUP2 MSTORE PUSH1 0x20 ADD DUP3 DUP1 SLOAD PUSH2 0x238 SWAP1 PUSH2 0xCCB JUMP JUMPDEST DUP1 ISZERO PUSH2 0x283 JUMPI DUP1 PUSH1 0x1F LT PUSH2 0x25A JUMPI PUSH2 0x100 DUP1 DUP4 SLOAD DIV MUL DUP4 MSTORE SWAP2 PUSH1 0x20 ADD SWAP2 PUSH2 0x283 JUMP JUMPDEST DUP3 ADD SWAP2 SWAP1 PUSH0 MSTORE PUSH1 0x20 PUSH0 KECCAK256 SWAP1 JUMPDEST DUP2 SLOAD DUP2 MSTORE SWAP1 PUSH1 0x1 ADD SWAP1 PUSH1 0x20 ADD DUP1 DUP4 GT PUSH2 0x266 JUMPI DUP3 SWAP1 SUB PUSH1 0x1F AND DUP3 ADD SWAP2 JUMPDEST POP POP POP POP POP SWAP1 POP SWAP1 JUMP JUMPDEST PUSH0 DUP1 PUSH2 0x297 PUSH2 0x474 JUMP JUMPDEST SWAP1 POP PUSH2 0x2A4 DUP2 DUP6 DUP6 PUSH2 0x47B JUMP JUMPDEST PUSH1 0x1 SWAP2 POP POP SWAP3 SWAP2 POP POP JUMP JUMPDEST PUSH0 PUSH1 0x2 SLOAD SWAP1 POP SWAP1 JUMP JUMPDEST PUSH0 DUP1 PUSH2 0x2C2 PUSH2 0x474 JUMP JUMPDEST SWAP1 POP PUSH2 0x2CF DUP6 DUP3 DUP6 PUSH2 0x48D JUMP JUMPDEST PUSH2 0x2DA DUP6 DUP6 DUP6 PUSH2 0x51F JUMP JUMPDEST PUSH1 0x1 SWAP2 POP POP SWAP4 SWAP3 POP POP POP JUMP JUMPDEST PUSH0 PUSH1 0x5 PUSH0 SWAP1 SLOAD SWAP1 PUSH2 0x100 EXP SWAP1 DIV PUSH1 0xFF AND SWAP1 POP SWAP1 JUMP JUMPDEST PUSH0 DUP1 PUSH0 DUP4 PUSH20 0xFFFFFFFFFFFFFFFFFFFFFFFFFFFFFFFFFFFFFFFF AND PUSH20 0xFFFFFFFFFFFFFFFFFFFFFFFFFFFFFFFFFFFFFFFF AND DUP2 MSTORE PUSH1 0x20 ADD SWAP1 DUP2 MSTORE PUSH1 0x20 ADD PUSH0 KECCAK256 SLOAD SWAP1 POP SWAP2 SWAP1 POP JUMP JUMPDEST PUSH1 0x60 PUSH1 0x4 DUP1 SLOAD PUSH2 0x34F SWAP1 PUSH2 0xCCB JUMP JUMPDEST DUP1 PUSH1 0x1F ADD PUSH1 0x20 DUP1 SWAP2 DIV MUL PUSH1 0x20 ADD PUSH1 0x40 MLOAD SWAP1 DUP2 ADD PUSH1 0x40 MSTORE DUP1 SWAP3 SWAP2 SWAP1 DUP2 DUP2 MSTORE PUSH1 0x20 ADD DUP3 DUP1 SLOAD PUSH2 0x37B SWAP1 PUSH2 0xCCB JUMP JUMPDEST DUP1 ISZERO PUSH2 0x3C6 JUMPI DUP1 PUSH1 0x1F LT PUSH2 0x39D JUMPI PUSH2 0x100 DUP1 DUP4 SLOAD DIV MUL DUP4 MSTORE SWAP2 PUSH1 0x20 ADD SWAP2 PUSH2 0x3C6 JUMP JUMPDEST DUP3 ADD SWAP2 SWAP1 PUSH0 MSTORE PUSH1 0x20 PUSH0 KECCAK256 SWAP1 JUMPDEST DUP2 SLOAD DUP2 MSTORE SWAP1 PUSH1 0x1 ADD SWAP1 PUSH1 0x20 ADD DUP1 DUP4 GT PUSH2 0x3A9 JUMPI DUP3 SWAP1 SUB PUSH1 0x1F AND DUP3 ADD SWAP2 JUMPDEST POP POP POP POP POP SWAP1 POP SWAP1 JUMP JUMPDEST PUSH0 DUP1 PUSH2 0x3DA PUSH2 0x474 JUMP JUMPDEST SWAP1 POP PUSH2 0x3E7 DUP2 DUP6 DUP6 PUSH2 0x51F JUMP JUMPDEST PUSH1 0x1 SWAP2 POP POP SWAP3 SWAP2 POP POP JUMP JUMPDEST PUSH0 PUSH1 0x1 PUSH0 DUP5 PUSH20 0xFFFFFFFFFFFFFFFFFFFFFFFFFFFFFFFFFFFFFFFF AND PUSH20 0xFFFFFFFFFFFFFFFFFFFFFFFFFFFFFFFFFFFFFFFF AND DUP2 MSTORE PUSH1 0x20 ADD SWAP1 DUP2 MSTORE PUSH1 0x20 ADD PUSH0 KECCAK256 PUSH0 DUP4 PUSH20 0xFFFFFFFFFFFFFFFFFFFFFFFFFFFFFFFFFFFFFFFF AND PUSH20 0xFFFFFFFFFFFFFFFFFFFFFFFFFFFFFFFFFFFFFFFF AND DUP2 MSTORE PUSH1 0x20 ADD SWAP1 DUP2 MSTORE PUSH1 0x20 ADD PUSH0 KECCAK256 SLOAD SWAP1 POP SWAP3 SWAP2 POP POP JUMP JUMPDEST PUSH0 CALLER SWAP1 POP SWAP1 JUMP JUMPDEST PUSH2 0x488 DUP4 DUP4 DUP4 PUSH1 0x1 PUSH2 0x60F JUMP JUMPDEST POP POP POP JUMP JUMPDEST PUSH0 PUSH2 0x498 DUP5 DUP5 PUSH2 0x3F2 JUMP JUMPDEST SWAP1 POP PUSH32 0xFFFFFFFFFFFFFFFFFFFFFFFFFFFFFFFFFFFFFFFFFFFFFFFFFFFFFFFFFFFFFFFF DUP2 EQ PUSH2 0x519 JUMPI DUP2 DUP2 LT ISZERO PUSH2 0x50A JUMPI DUP3 DUP2 DUP4 PUSH1 0x40 MLOAD PUSH32 0xFB8F41B200000000000000000000000000000000000000000000000000000000 DUP2 MSTORE PUSH1 0x4 ADD PUSH2 0x501 SWAP4 SWAP3 SWAP2 SWAP1 PUSH2 0xD0A JUMP JUMPDEST PUSH1 0x40 MLOAD DUP1 SWAP2 SUB SWAP1 REVERT JUMPDEST PUSH2 0x518 DUP5 DUP5 DUP5 DUP5 SUB PUSH0 PUSH2 0x60F JUMP JUMPDEST JUMPDEST POP POP POP POP JUMP JUMPDEST PUSH0 PUSH20 0xFFFFFFFFFFFFFFFFFFFFFFFFFFFFFFFFFFFFFFFF AND DUP4 PUSH20 0xFFFFFFFFFFFFFFFFFFFFFFFFFFFFFFFFFFFFFFFF AND SUB PUSH2 0x58F JUMPI PUSH0 PUSH1 0x40 MLOAD PUSH32 0x96C6FD1E00000000000000000000000000000000000000000000000000000000 DUP2 MSTORE PUSH1 0x4 ADD PUSH2 0x586 SWAP2 SWAP1 PUSH2 0xD3F JUMP JUMPDEST PUSH1 0x40 MLOAD DUP1 SWAP2 SUB SWAP1 REVERT JUMPDEST PUSH0 PUSH20 0xFFFFFFFFFFFFFFFFFFFFFFFFFFFFFFFFFFFFFFFF AND DUP3 PUSH20 0xFFFFFFFFFFFFFFFFFFFFFFFFFFFFFFFFFFFFFFFF AND SUB PUSH2 0x5FF JUMPI PUSH0 PUSH1 0x40 MLOAD PUSH32 0xEC442F0500000000000000000000000000000000000000000000000000000000 DUP2 MSTORE PUSH1 0x4 ADD PUSH2 0x5F6 SWAP2 SWAP1 PUSH2 0xD3F JUMP JUMPDEST PUSH1 0x40 MLOAD DUP1 SWAP2 SUB SWAP1 REVERT JUMPDEST PUSH2 0x60A DUP4 DUP4 DUP4 PUSH2 0x7DE JUMP JUMPDEST POP POP POP JUMP JUMPDEST PUSH0 PUSH20 0xFFFFFFFFFFFFFFFFFFFFFFFFFFFFFFFFFFFFFFFF AND DUP5 PUSH20 0xFFFFFFFFFFFFFFFFFFFFFFFFFFFFFFFFFFFFFFFF AND SUB PUSH2 0x67F JUMPI PUSH0 PUSH1 0x40 MLOAD PUSH32 0xE602DF0500000000000000000000000000000000000000000000000000000000 DUP2 MSTORE PUSH1 0x4 ADD PUSH2 0x676 SWAP2 SWAP1 PUSH2 0xD3F JUMP JUMPDEST PUSH1 0x40 MLOAD DUP1 SWAP2 SUB SWAP1 REVERT JUMPDEST PUSH0 PUSH20 0xFFFFFFFFFFFFFFFFFFFFFFFFFFFFFFFFFFFFFFFF AND DUP4 PUSH20 0xFFFFFFFFFFFFFFFFFFFFFFFFFFFFFFFFFFFFFFFF AND SUB PUSH2 0x6EF JUMPI PUSH0 PUSH1 0x40 MLOAD PUSH32 0x94280D6200000000000000000000000000000000000000000000000000000000 DUP2 MSTORE PUSH1 0x4 ADD PUSH2 0x6E6 SWAP2 SWAP1 PUSH2 0xD3F JUMP JUMPDEST PUSH1 0x40 MLOAD DUP1 SWAP2 SUB SWAP1 REVERT JUMPDEST DUP2 PUSH1 0x1 PUSH0 DUP7 PUSH20 0xFFFFFFFFFFFFFFFFFFFFFFFFFFFFFFFFFFFFFFFF AND PUSH20 0xFFFFFFFFFFFFFFFFFFFFFFFFFFFFFFFFFFFFFFFF AND DUP2 MSTORE PUSH1 0x20 ADD SWAP1 DUP2 MSTORE PUSH1 0x20 ADD PUSH0 KECCAK256 PUSH0 DUP6 PUSH20 0xFFFFFFFFFFFFFFFFFFFFFFFFFFFFFFFFFFFFFFFF AND PUSH20 0xFFFFFFFFFFFFFFFFFFFFFFFFFFFFFFFFFFFFFFFF AND DUP2 MSTORE PUSH1 0x20 ADD SWAP1 DUP2 MSTORE PUSH1 0x20 ADD PUSH0 KECCAK256 DUP2 SWAP1 SSTORE POP DUP1 ISZERO PUSH2 0x7D8 JUMPI DUP3 PUSH20 0xFFFFFFFFFFFFFFFFFFFFFFFFFFFFFFFFFFFFFFFF AND DUP5 PUSH20 0xFFFFFFFFFFFFFFFFFFFFFFFFFFFFFFFFFFFFFFFF AND PUSH32 0x8C5BE1E5EBEC7D5BD14F71427D1E84F3DD0314C0F7B2291E5B200AC8C7C3B925 DUP5 PUSH1 0x40 MLOAD PUSH2 0x7CF SWAP2 SWAP1 PUSH2 0xB98 JUMP JUMPDEST PUSH1 0x40 MLOAD DUP1 SWAP2 SUB SWAP1 LOG3 JUMPDEST POP POP POP POP JUMP JUMPDEST PUSH0 PUSH20 0xFFFFFFFFFFFFFFFFFFFFFFFFFFFFFFFFFFFFFFFF AND DUP4 PUSH20 0xFFFFFFFFFFFFFFFFFFFFFFFFFFFFFFFFFFFFFFFF AND SUB PUSH2 0x82E JUMPI DUP1 PUSH1 0x2 PUSH0 DUP3 DUP3 SLOAD PUSH2 0x822 SWAP2 SWAP1 PUSH2 0xD85 JUMP JUMPDEST SWAP3 POP POP DUP2 SWAP1 SSTORE POP PUSH2 0x8FC JUMP JUMPDEST PUSH0 DUP1 PUSH0 DUP6 PUSH20 0xFFFFFFFFFFFFFFFFFFFFFFFFFFFFFFFFFFFFFFFF AND PUSH20 0xFFFFFFFFFFFFFFFFFFFFFFFFFFFFFFFFFFFFFFFF AND DUP2 MSTORE PUSH1 0x20 ADD SWAP1 DUP2 MSTORE PUSH1 0x20 ADD PUSH0 KECCAK256 SLOAD SWAP1 POP DUP2 DUP2 LT ISZERO PUSH2 0x8B7 JUMPI DUP4 DUP2 DUP4 PUSH1 0x40 MLOAD PUSH32 0xE450D38C00000000000000000000000000000000000000000000000000000000 DUP2 MSTORE PUSH1 0x4 ADD PUSH2 0x8AE SWAP4 SWAP3 SWAP2 SWAP1 PUSH2 0xD0A JUMP JUMPDEST PUSH1 0x40 MLOAD DUP1 SWAP2 SUB SWAP1 REVERT JUMPDEST DUP2 DUP2 SUB PUSH0 DUP1 DUP7 PUSH20 0xFFFFFFFFFFFFFFFFFFFFFFFFFFFFFFFFFFFFFFFF AND PUSH20 0xFFFFFFFFFFFFFFFFFFFFFFFFFFFFFFFFFFFFFFFF AND DUP2 MSTORE PUSH1 0x20 ADD SWAP1 DUP2 MSTORE PUSH1 0x20 ADD PUSH0 KECCAK256 DUP2 SWAP1 SSTORE POP POP JUMPDEST PUSH0 PUSH20 0xFFFFFFFFFFFFFFFFFFFFFFFFFFFFFFFFFFFFFFFF AND DUP3 PUSH20 0xFFFFFFFFFFFFFFFFFFFFFFFFFFFFFFFFFFFFFFFF AND SUB PUSH2 0x943 JUMPI DUP1 PUSH1 0x2 PUSH0 DUP3 DUP3 SLOAD SUB SWAP3 POP POP DUP2 SWAP1 SSTORE POP PUSH2 0x98D JUMP JUMPDEST DUP1 PUSH0 DUP1 DUP5 PUSH20 0xFFFFFFFFFFFFFFFFFFFFFFFFFFFFFFFFFFFFFFFF AND PUSH20 0xFFFFFFFFFFFFFFFFFFFFFFFFFFFFFFFFFFFFFFFF AND DUP2 MSTORE PUSH1 0x20 ADD SWAP1 DUP2 MSTORE PUSH1 0x20 ADD PUSH0 KECCAK256 PUSH0 DUP3 DUP3 SLOAD ADD SWAP3 POP POP DUP2 SWAP1 SSTORE POP JUMPDEST DUP2 PUSH20 0xFFFFFFFFFFFFFFFFFFFFFFFFFFFFFFFFFFFFFFFF AND DUP4 PUSH20 0xFFFFFFFFFFFFFFFFFFFFFFFFFFFFFFFFFFFFFFFF AND PUSH32 0xDDF252AD1BE2C89B69C2B068FC378DAA952BA7F163C4A11628F55A4DF523B3EF DUP4 PUSH1 0x40 MLOAD PUSH2 0x9EA SWAP2 SWAP1 PUSH2 0xB98 JUMP JUMPDEST PUSH1 0x40 MLOAD DUP1 SWAP2 SUB SWAP1 LOG3 POP POP POP JUMP JUMPDEST PUSH0 DUP2 MLOAD SWAP1 POP SWAP2 SWAP1 POP JUMP JUMPDEST PUSH0 DUP3 DUP3 MSTORE PUSH1 0x20 DUP3 ADD SWAP1 POP SWAP3 SWAP2 POP POP JUMP JUMPDEST DUP3 DUP2 DUP4 MCOPY PUSH0 DUP4 DUP4 ADD MSTORE POP POP POP JUMP JUMPDEST PUSH0 PUSH1 0x1F NOT PUSH1 0x1F DUP4 ADD AND SWAP1 POP SWAP2 SWAP1 POP JUMP JUMPDEST PUSH0 PUSH2 0xA39 DUP3 PUSH2 0x9F7 JUMP JUMPDEST PUSH2 0xA43 DUP2 DUP6 PUSH2 0xA01 JUMP JUMPDEST SWAP4 POP PUSH2 0xA53 DUP2 DUP6 PUSH1 0x20 DUP7 ADD PUSH2 0xA11 JUMP JUMPDEST PUSH2 0xA5C DUP2 PUSH2 0xA1F JUMP JUMPDEST DUP5 ADD SWAP2 POP POP SWAP3 SWAP2 POP POP JUMP JUMPDEST PUSH0 PUSH1 0x20 DUP3 ADD SWAP1 POP DUP2 DUP2 SUB PUSH0 DUP4 ADD MSTORE PUSH2 0xA7F DUP2 DUP5 PUSH2 0xA2F JUMP JUMPDEST SWAP1 POP SWAP3 SWAP2 POP POP JUMP JUMPDEST PUSH0 DUP1 REVERT JUMPDEST PUSH0 PUSH20 0xFFFFFFFFFFFFFFFFFFFFFFFFFFFFFFFFFFFFFFFF DUP3 AND SWAP1 POP SWAP2 SWAP1 POP JUMP JUMPDEST PUSH0 PUSH2 0xAB4 DUP3 PUSH2 0xA8B JUMP JUMPDEST SWAP1 POP SWAP2 SWAP1 POP JUMP JUMPDEST PUSH2 0xAC4 DUP2 PUSH2 0xAAA JUMP JUMPDEST DUP2 EQ PUSH2 0xACE JUMPI PUSH0 DUP1 REVERT JUMPDEST POP JUMP JUMPDEST PUSH0 DUP2 CALLDATALOAD SWAP1 POP PUSH2 0xADF DUP2 PUSH2 0xABB JUMP JUMPDEST SWAP3 SWAP2 POP POP JUMP JUMPDEST PUSH0 DUP2 SWAP1 POP SWAP2 SWAP1 POP JUMP JUMPDEST PUSH2 0xAF7 DUP2 PUSH2 0xAE5 JUMP JUMPDEST DUP2 EQ PUSH2 0xB01 JUMPI PUSH0 DUP1 REVERT JUMPDEST POP JUMP JUMPDEST PUSH0 DUP2 CALLDATALOAD SWAP1 POP PUSH2 0xB12 DUP2 PUSH2 0xAEE JUMP JUMPDEST SWAP3 SWAP2 POP POP JUMP JUMPDEST PUSH0 DUP1 PUSH1 0x40 DUP4 DUP6 SUB SLT ISZERO PUSH2 0xB2E JUMPI PUSH2 0xB2D PUSH2 0xA87 JUMP JUMPDEST JUMPDEST PUSH0 PUSH2 0xB3B DUP6 DUP3 DUP7 ADD PUSH2 0xAD1 JUMP JUMPDEST SWAP3 POP POP PUSH1 0x20 PUSH2 0xB4C DUP6 DUP3 DUP7 ADD PUSH2 0xB04 JUMP JUMPDEST SWAP2 POP POP SWAP3 POP SWAP3 SWAP1 POP JUMP JUMPDEST PUSH0 DUP2 ISZERO ISZERO SWAP1 POP SWAP2 SWAP1 POP JUMP JUMPDEST PUSH2 0xB6A DUP2 PUSH2 0xB56 JUMP JUMPDEST DUP3 MSTORE POP POP JUMP JUMPDEST PUSH0 PUSH1 0x20 DUP3 ADD SWAP1 POP PUSH2 0xB83 PUSH0 DUP4 ADD DUP5 PUSH2 0xB61 JUMP JUMPDEST SWAP3 SWAP2 POP POP JUMP JUMPDEST PUSH2 0xB92 DUP2 PUSH2 0xAE5 JUMP JUMPDEST DUP3 MSTORE POP POP JUMP JUMPDEST PUSH0 PUSH1 0x20 DUP3 ADD SWAP1 POP PUSH2 0xBAB PUSH0 DUP4 ADD DUP5 PUSH2 0xB89 JUMP JUMPDEST SWAP3 SWAP2 POP POP JUMP JUMPDEST PUSH0 DUP1 PUSH0 PUSH1 0x60 DUP5 DUP7 SUB SLT ISZERO PUSH2 0xBC8 JUMPI PUSH2 0xBC7 PUSH2 0xA87 JUMP JUMPDEST JUMPDEST PUSH0 PUSH2 0xBD5 DUP7 DUP3 DUP8 ADD PUSH2 0xAD1 JUMP JUMPDEST SWAP4 POP POP PUSH1 0x20 PUSH2 0xBE6 DUP7 DUP3 DUP8 ADD PUSH2 0xAD1 JUMP JUMPDEST SWAP3 POP POP PUSH1 0x40 PUSH2 0xBF7 DUP7 DUP3 DUP8 ADD PUSH2 0xB04 JUMP JUMPDEST SWAP2 POP POP SWAP3 POP SWAP3 POP SWAP3 JUMP JUMPDEST PUSH0 PUSH1 0xFF DUP3 AND SWAP1 POP SWAP2 SWAP1 POP JUMP JUMPDEST PUSH2 0xC16 DUP2 PUSH2 0xC01 JUMP JUMPDEST DUP3 MSTORE POP POP JUMP JUMPDEST PUSH0 PUSH1 0x20 DUP3 ADD SWAP1 POP PUSH2 0xC2F PUSH0 DUP4 ADD DUP5 PUSH2 0xC0D JUMP JUMPDEST SWAP3 SWAP2 POP POP JUMP JUMPDEST PUSH0 PUSH1 0x20 DUP3 DUP5 SUB SLT ISZERO PUSH2 0xC4A JUMPI PUSH2 0xC49 PUSH2 0xA87 JUMP JUMPDEST JUMPDEST PUSH0 PUSH2 0xC57 DUP5 DUP3 DUP6 ADD PUSH2 0xAD1 JUMP JUMPDEST SWAP2 POP POP SWAP3 SWAP2 POP POP JUMP JUMPDEST PUSH0 DUP1 PUSH1 0x40 DUP4 DUP6 SUB SLT ISZERO PUSH2 0xC76 JUMPI PUSH2 0xC75 PUSH2 0xA87 JUMP JUMPDEST JUMPDEST PUSH0 PUSH2 0xC83 DUP6 DUP3 DUP7 ADD PUSH2 0xAD1 JUMP JUMPDEST SWAP3 POP POP PUSH1 0x20 PUSH2 0xC94 DUP6 DUP3 DUP7 ADD PUSH2 0xAD1 JUMP JUMPDEST SWAP2 POP POP SWAP3 POP SWAP3 SWAP1 POP JUMP JUMPDEST PUSH32 0x4E487B7100000000000000000000000000000000000000000000000000000000 PUSH0 MSTORE PUSH1 0x22 PUSH1 0x4 MSTORE PUSH1 0x24 PUSH0 REVERT JUMPDEST PUSH0 PUSH1 0x2 DUP3 DIV SWAP1 POP PUSH1 0x1 DUP3 AND DUP1 PUSH2 0xCE2 JUMPI PUSH1 0x7F DUP3 AND SWAP2 POP JUMPDEST PUSH1 0x20 DUP3 LT DUP2 SUB PUSH2 0xCF5 JUMPI PUSH2 0xCF4 PUSH2 0xC9E JUMP JUMPDEST JUMPDEST POP SWAP2 SWAP1 POP JUMP JUMPDEST PUSH2 0xD04 DUP2 PUSH2 0xAAA JUMP JUMPDEST DUP3 MSTORE POP POP JUMP JUMPDEST PUSH0 PUSH1 0x60 DUP3 ADD SWAP1 POP PUSH2 0xD1D PUSH0 DUP4 ADD DUP7 PUSH2 0xCFB JUMP JUMPDEST PUSH2 0xD2A PUSH1 0x20 DUP4 ADD DUP6 PUSH2 0xB89 JUMP JUMPDEST PUSH2 0xD37 PUSH1 0x40 DUP4 ADD DUP5 PUSH2 0xB89 JUMP JUMPDEST SWAP5 SWAP4 POP POP POP POP JUMP JUMPDEST PUSH0 PUSH1 0x20 DUP3 ADD SWAP1 POP PUSH2 0xD52 PUSH0 DUP4 ADD DUP5 PUSH2 0xCFB JUMP JUMPDEST SWAP3 SWAP2 POP POP JUMP JUMPDEST PUSH32 0x4E487B7100000000000000000000000000000000000000000000000000000000 PUSH0 MSTORE PUSH1 0x11 PUSH1 0x4 MSTORE PUSH1 0x24 PUSH0 REVERT JUMPDEST PUSH0 PUSH2 0xD8F DUP3 PUSH2 0xAE5 JUMP JUMPDEST SWAP2 POP PUSH2 0xD9A DUP4 PUSH2 0xAE5 JUMP JUMPDEST SWAP3 POP DUP3 DUP3 ADD SWAP1 POP DUP1 DUP3 GT ISZERO PUSH2 0xDB2 JUMPI PUSH2 0xDB1 PUSH2 0xD58 JUMP JUMPDEST JUMPDEST SWAP3 SWAP2 POP POP JUMP INVALID LOG2 PUSH5 0x6970667358 0x22 SLT KECCAK256 EXTCODESIZE 0xCE SIGNEXTEND PUSH7 0x4B94ACA9D5C2B4 LOG0 0xC8 PUSH16 0x857751238DA87BDFD21D1328A0606B23 0xC0 CALLDATASIZE PUSH5 0x736F6C6343 STOP ADDMOD BYTE STOP CALLER "
				},
				"gasEstimates": {
					"creation": {
						"codeDepositCost": "1092000",
						"executionCost": "infinite",
						"totalCost": "infinite"
					},
					"external": {
						"getRDFCoinInterAddress()": "2538",
						"getTask(uint256)": "infinite",
						"handleChallenge(uint256,uint256,uint256,bool)": "infinite",
						"publishTask(string,uint256)": "infinite",
						"raiseChallenge(uint256,uint256)": "infinite",
						"rdfCoinInter()": "infinite",
						"transferToken(address,uint256)": "infinite",
						"uploadDataset(uint256)": "infinite",
						"verifyDataset(uint256,uint256)": "infinite"
					}
				},
				"methodIdentifiers": {
					"getRDFCoinInterAddress()": "08d03e91",
					"getTask(uint256)": "1d65e77e",
					"handleChallenge(uint256,uint256,uint256,bool)": "c305fd00",
					"publishTask(string,uint256)": "0306f8fd",
					"raiseChallenge(uint256,uint256)": "805be20e",
					"rdfCoinInter()": "1ff4a418",
					"transferToken(address,uint256)": "1072cbea",
					"uploadDataset(uint256)": "6e17e240",
					"verifyDataset(uint256,uint256)": "134fe3dc"
				}
			},
			"storageLayout": {
				"storage": [
					{
						"astId": 830,
						"contract": "contracts/RebellionDataFunder.sol:RebellionDataFunder",
						"label": "rdfCoinInter",
						"offset": 0,
						"slot": "0",
						"type": "t_contract(RDFCoinInter)824"
					},
					{
						"astId": 856,
						"contract": "contracts/RebellionDataFunder.sol:RebellionDataFunder",
						"label": "tasks",
						"offset": 0,
						"slot": "1",
						"type": "t_array(t_struct(Task)843_storage)dyn_storage"
					},
					{
						"astId": 860,
						"contract": "contracts/RebellionDataFunder.sol:RebellionDataFunder",
						"label": "datasets",
						"offset": 0,
						"slot": "2",
						"type": "t_array(t_struct(Dataset)852_storage)dyn_storage"
					}
				],
				"types": {
					"t_address": {
						"encoding": "inplace",
						"label": "address",
						"numberOfBytes": "20"
					},
					"t_array(t_struct(Dataset)852_storage)dyn_storage": {
						"base": "t_struct(Dataset)852_storage",
						"encoding": "dynamic_array",
						"label": "struct RebellionDataFunder.Dataset[]",
						"numberOfBytes": "32"
					},
					"t_array(t_struct(Task)843_storage)dyn_storage": {
						"base": "t_struct(Task)843_storage",
						"encoding": "dynamic_array",
						"label": "struct RebellionDataFunder.Task[]",
						"numberOfBytes": "32"
					},
					"t_bool": {
						"encoding": "inplace",
						"label": "bool",
						"numberOfBytes": "1"
					},
					"t_contract(RDFCoinInter)824": {
						"encoding": "inplace",
						"label": "contract RDFCoinInter",
						"numberOfBytes": "20"
					},
					"t_string_storage": {
						"encoding": "bytes",
						"label": "string",
						"numberOfBytes": "32"
					},
					"t_struct(Dataset)852_storage": {
						"encoding": "inplace",
						"label": "struct RebellionDataFunder.Dataset",
						"members": [
							{
								"astId": 845,
								"contract": "contracts/RebellionDataFunder.sol:RebellionDataFunder",
								"label": "datasetId",
								"offset": 0,
								"slot": "0",
								"type": "t_uint256"
							},
							{
								"astId": 847,
								"contract": "contracts/RebellionDataFunder.sol:RebellionDataFunder",
								"label": "uploader",
								"offset": 0,
								"slot": "1",
								"type": "t_address"
							},
							{
								"astId": 849,
								"contract": "contracts/RebellionDataFunder.sol:RebellionDataFunder",
								"label": "isValidated",
								"offset": 20,
								"slot": "1",
								"type": "t_bool"
							},
							{
								"astId": 851,
								"contract": "contracts/RebellionDataFunder.sol:RebellionDataFunder",
								"label": "validator",
								"offset": 0,
								"slot": "2",
								"type": "t_address"
							}
						],
						"numberOfBytes": "96"
					},
					"t_struct(Task)843_storage": {
						"encoding": "inplace",
						"label": "struct RebellionDataFunder.Task",
						"members": [
							{
								"astId": 832,
								"contract": "contracts/RebellionDataFunder.sol:RebellionDataFunder",
								"label": "taskId",
								"offset": 0,
								"slot": "0",
								"type": "t_uint256"
							},
							{
								"astId": 834,
								"contract": "contracts/RebellionDataFunder.sol:RebellionDataFunder",
								"label": "taskName",
								"offset": 0,
								"slot": "1",
								"type": "t_string_storage"
							},
							{
								"astId": 836,
								"contract": "contracts/RebellionDataFunder.sol:RebellionDataFunder",
								"label": "publisher",
								"offset": 0,
								"slot": "2",
								"type": "t_address"
							},
							{
								"astId": 838,
								"contract": "contracts/RebellionDataFunder.sol:RebellionDataFunder",
								"label": "reward",
								"offset": 0,
								"slot": "3",
								"type": "t_uint256"
							},
							{
								"astId": 842,
								"contract": "contracts/RebellionDataFunder.sol:RebellionDataFunder",
								"label": "datasets",
								"offset": 0,
								"slot": "4",
								"type": "t_array(t_struct(Dataset)852_storage)dyn_storage"
							}
						],
						"numberOfBytes": "160"
					},
					"t_uint256": {
						"encoding": "inplace",
						"label": "uint256",
						"numberOfBytes": "32"
					}
				}
			},
			"userdoc": {
				"kind": "user",
				"methods": {},
				"version": 1
			}
		}
	}
}